{
  "contractName": "ERC721LendingUpgradeable",
  "abi": [
    {
      "inputs": [],
      "stateMutability": "nonpayable",
      "type": "constructor"
    },
    {
      "anonymous": false,
      "inputs": [
        {
          "indexed": false,
          "internalType": "uint256",
          "name": "offerId",
          "type": "uint256"
        },
        {
          "indexed": false,
          "internalType": "string",
          "name": "status",
          "type": "string"
        }
      ],
      "name": "OfferStatusChange",
      "type": "event"
    },
    {
      "anonymous": false,
      "inputs": [
        {
          "indexed": true,
          "internalType": "bytes32",
          "name": "role",
          "type": "bytes32"
        },
        {
          "indexed": true,
          "internalType": "bytes32",
          "name": "previousAdminRole",
          "type": "bytes32"
        },
        {
          "indexed": true,
          "internalType": "bytes32",
          "name": "newAdminRole",
          "type": "bytes32"
        }
      ],
      "name": "RoleAdminChanged",
      "type": "event"
    },
    {
      "anonymous": false,
      "inputs": [
        {
          "indexed": true,
          "internalType": "bytes32",
          "name": "role",
          "type": "bytes32"
        },
        {
          "indexed": true,
          "internalType": "address",
          "name": "account",
          "type": "address"
        },
        {
          "indexed": true,
          "internalType": "address",
          "name": "sender",
          "type": "address"
        }
      ],
      "name": "RoleGranted",
      "type": "event"
    },
    {
      "anonymous": false,
      "inputs": [
        {
          "indexed": true,
          "internalType": "bytes32",
          "name": "role",
          "type": "bytes32"
        },
        {
          "indexed": true,
          "internalType": "address",
          "name": "account",
          "type": "address"
        },
        {
          "indexed": true,
          "internalType": "address",
          "name": "sender",
          "type": "address"
        }
      ],
      "name": "RoleRevoked",
      "type": "event"
    },
    {
      "inputs": [],
      "name": "DEFAULT_ADMIN_ROLE",
      "outputs": [
        {
          "internalType": "bytes32",
          "name": "",
          "type": "bytes32"
        }
      ],
      "stateMutability": "view",
      "type": "function"
    },
    {
      "inputs": [
        {
          "internalType": "bytes32",
          "name": "role",
          "type": "bytes32"
        }
      ],
      "name": "getRoleAdmin",
      "outputs": [
        {
          "internalType": "bytes32",
          "name": "",
          "type": "bytes32"
        }
      ],
      "stateMutability": "view",
      "type": "function"
    },
    {
      "inputs": [
        {
          "internalType": "bytes32",
          "name": "role",
          "type": "bytes32"
        },
        {
          "internalType": "address",
          "name": "account",
          "type": "address"
        }
      ],
      "name": "grantRole",
      "outputs": [],
      "stateMutability": "nonpayable",
      "type": "function"
    },
    {
      "inputs": [
        {
          "internalType": "bytes32",
          "name": "role",
          "type": "bytes32"
        },
        {
          "internalType": "address",
          "name": "account",
          "type": "address"
        }
      ],
      "name": "hasRole",
      "outputs": [
        {
          "internalType": "bool",
          "name": "",
          "type": "bool"
        }
      ],
      "stateMutability": "view",
      "type": "function"
    },
    {
      "inputs": [
        {
          "internalType": "address",
          "name": "",
          "type": "address"
        },
        {
          "internalType": "address",
          "name": "",
          "type": "address"
        },
        {
          "internalType": "uint256",
          "name": "",
          "type": "uint256"
        },
        {
          "internalType": "bytes",
          "name": "",
          "type": "bytes"
        }
      ],
      "name": "onERC721Received",
      "outputs": [
        {
          "internalType": "bytes4",
          "name": "",
          "type": "bytes4"
        }
      ],
      "stateMutability": "nonpayable",
      "type": "function"
    },
    {
      "inputs": [
        {
          "internalType": "bytes32",
          "name": "role",
          "type": "bytes32"
        },
        {
          "internalType": "address",
          "name": "account",
          "type": "address"
        }
      ],
      "name": "renounceRole",
      "outputs": [],
      "stateMutability": "nonpayable",
      "type": "function"
    },
    {
      "inputs": [
        {
          "internalType": "bytes32",
          "name": "role",
          "type": "bytes32"
        },
        {
          "internalType": "address",
          "name": "account",
          "type": "address"
        }
      ],
      "name": "revokeRole",
      "outputs": [],
      "stateMutability": "nonpayable",
      "type": "function"
    },
    {
      "inputs": [
        {
          "internalType": "bytes4",
          "name": "interfaceId",
          "type": "bytes4"
        }
      ],
      "name": "supportsInterface",
      "outputs": [
        {
          "internalType": "bool",
          "name": "",
          "type": "bool"
        }
      ],
      "stateMutability": "view",
      "type": "function"
    },
    {
      "inputs": [
        {
          "internalType": "address",
          "name": "Payout",
          "type": "address"
        },
        {
          "internalType": "address",
          "name": "TokenAddress",
          "type": "address"
        },
        {
          "internalType": "address",
          "name": "BaseERC721Address",
          "type": "address"
        }
      ],
      "name": "initialize",
      "outputs": [],
      "stateMutability": "nonpayable",
      "type": "function"
    },
    {
      "inputs": [
        {
          "internalType": "uint256",
          "name": "offerId",
          "type": "uint256"
        }
      ],
      "name": "getOffer",
      "outputs": [
        {
          "internalType": "address",
          "name": "",
          "type": "address"
        },
        {
          "internalType": "address",
          "name": "",
          "type": "address"
        },
        {
          "internalType": "uint256",
          "name": "",
          "type": "uint256"
        },
        {
          "internalType": "uint256",
          "name": "",
          "type": "uint256"
        },
        {
          "internalType": "uint256",
          "name": "",
          "type": "uint256"
        },
        {
          "internalType": "address",
          "name": "",
          "type": "address"
        },
        {
          "internalType": "uint256",
          "name": "",
          "type": "uint256"
        },
        {
          "internalType": "uint256",
          "name": "",
          "type": "uint256"
        },
        {
          "internalType": "string",
          "name": "",
          "type": "string"
        }
      ],
      "stateMutability": "view",
      "type": "function"
    },
    {
      "inputs": [
        {
          "internalType": "address",
          "name": "addr",
          "type": "address"
        }
      ],
      "name": "getOffersOfAddress",
      "outputs": [
        {
          "internalType": "uint256[]",
          "name": "",
          "type": "uint256[]"
        }
      ],
      "stateMutability": "view",
      "type": "function"
    },
    {
      "inputs": [],
      "name": "getOfferQuantities",
      "outputs": [
        {
          "internalType": "uint256",
          "name": "",
          "type": "uint256"
        }
      ],
      "stateMutability": "view",
      "type": "function"
    },
    {
      "inputs": [
        {
          "internalType": "uint256",
          "name": "offerId",
          "type": "uint256"
        }
      ],
      "name": "feeToPay",
      "outputs": [
        {
          "internalType": "uint256",
          "name": "",
          "type": "uint256"
        }
      ],
      "stateMutability": "view",
      "type": "function"
    },
    {
      "inputs": [
        {
          "internalType": "uint256",
          "name": "nftId",
          "type": "uint256"
        },
        {
          "internalType": "address",
          "name": "nftAddress",
          "type": "address"
        },
        {
          "internalType": "uint256",
          "name": "liquidation",
          "type": "uint256"
        },
        {
          "internalType": "uint256",
          "name": "fee",
          "type": "uint256"
        }
      ],
      "name": "createOffer",
      "outputs": [],
      "stateMutability": "nonpayable",
      "type": "function"
    },
    {
      "inputs": [
        {
          "internalType": "uint256",
          "name": "offerId",
          "type": "uint256"
        }
      ],
      "name": "cancelOffer",
      "outputs": [],
      "stateMutability": "nonpayable",
      "type": "function"
    },
    {
      "inputs": [
        {
          "internalType": "uint256",
          "name": "offerId",
          "type": "uint256"
        },
        {
          "internalType": "uint256",
          "name": "collateral",
          "type": "uint256"
        }
      ],
      "name": "acceptOffer",
      "outputs": [],
      "stateMutability": "nonpayable",
      "type": "function"
    },
    {
      "inputs": [
        {
          "internalType": "uint256",
          "name": "offerId",
          "type": "uint256"
        }
      ],
      "name": "repayOffer",
      "outputs": [],
      "stateMutability": "nonpayable",
      "type": "function"
    },
    {
      "inputs": [
        {
          "internalType": "uint256",
          "name": "offerId",
          "type": "uint256"
        },
        {
          "internalType": "uint256",
          "name": "extraCollateral",
          "type": "uint256"
        }
      ],
      "name": "addCollateral",
      "outputs": [],
      "stateMutability": "nonpayable",
      "type": "function"
    },
    {
      "inputs": [
        {
          "internalType": "uint256",
          "name": "offerId",
          "type": "uint256"
        }
      ],
      "name": "liquidate",
      "outputs": [],
      "stateMutability": "nonpayable",
      "type": "function"
    },
    {
      "inputs": [
        {
          "internalType": "address",
          "name": "newPayout",
          "type": "address"
        }
      ],
      "name": "transferPayoutAddress",
      "outputs": [],
      "stateMutability": "nonpayable",
      "type": "function"
    },
    {
      "inputs": [
        {
          "internalType": "uint256",
          "name": "newFee",
          "type": "uint256"
        }
      ],
      "name": "changeFee",
      "outputs": [],
      "stateMutability": "nonpayable",
      "type": "function"
    },
    {
      "inputs": [
        {
          "internalType": "uint256",
          "name": "newLiquidationFee",
          "type": "uint256"
        }
      ],
      "name": "changeLiquidationFee",
      "outputs": [],
      "stateMutability": "nonpayable",
      "type": "function"
    },
    {
      "inputs": [
        {
          "internalType": "address",
          "name": "_contract",
          "type": "address"
        }
      ],
      "name": "addContract",
      "outputs": [],
      "stateMutability": "nonpayable",
      "type": "function"
    },
    {
      "inputs": [
        {
          "internalType": "address",
          "name": "_contract",
          "type": "address"
        }
      ],
      "name": "removeContract",
      "outputs": [],
      "stateMutability": "nonpayable",
      "type": "function"
    }
  ],
  "bytecode": "0x60806040523480156200001157600080fd5b50600060019054906101000a900460ff166200003c5760008054906101000a900460ff16156200004d565b6200004c6200010960201b60201c565b5b6200008f576040517f08c379a00000000000000000000000000000000000000000000000000000000081526004016200008690620001d1565b60405180910390fd5b60008060019054906101000a900460ff161590508015620000e0576001600060016101000a81548160ff02191690831515021790555060016000806101000a81548160ff0219169083151502179055505b8015620001025760008060016101000a81548160ff0219169083151502179055505b50620001f3565b600062000121306200012760201b62002ab51760201c565b15905090565b6000808273ffffffffffffffffffffffffffffffffffffffff163b119050919050565b600082825260208201905092915050565b7f496e697469616c697a61626c653a20636f6e747261637420697320616c72656160008201527f647920696e697469616c697a6564000000000000000000000000000000000000602082015250565b6000620001b9602e836200014a565b9150620001c6826200015b565b604082019050919050565b60006020820190508181036000830152620001ec81620001aa565b9050919050565b614f5d80620002036000396000f3fe608060405234801561001057600080fd5b50600436106101585760003560e01c80638486014d116100c3578063c0c53b8b1161007c578063c0c53b8b146103ed578063c375c2ef14610409578063d547741f14610425578063e121e6e514610441578063ee1733e31461045d578063ef706adf1461047957610158565b80638486014d1461031957806391d1485414610337578063a217fddf14610367578063a362edc614610385578063a8f35adf146103b5578063ae699e2e146103d157610158565b80634579268a116101155780634579268a146102415780634d6bbf10146102795780635f539d69146102955780636a1db1bf146102b1578063755505a0146102cd57806381257bd5146102fd57610158565b806301ffc9a71461015d578063150b7a021461018d578063248a9ca3146101bd5780632f2ff15d146101ed57806336568abe14610209578063415f124014610225575b600080fd5b610177600480360381019061017291906134a1565b610495565b60405161018491906134e9565b60405180910390f35b6101a760048036038101906101a291906136de565b61050f565b6040516101b49190613770565b60405180910390f35b6101d760048036038101906101d291906137c1565b610523565b6040516101e491906137fd565b60405180910390f35b61020760048036038101906102029190613818565b610543565b005b610223600480360381019061021e9190613818565b61056c565b005b61023f600480360381019061023a9190613858565b6105ef565b005b61025b60048036038101906102569190613858565b610967565b6040516102709998979695949392919061392b565b60405180910390f35b610293600480360381019061028e9190613858565b610bac565b005b6102af60048036038101906102aa91906139bf565b610bcd565b005b6102cb60048036038101906102c69190613858565b610c3e565b005b6102e760048036038101906102e29190613858565b610c5f565b6040516102f491906139ec565b60405180910390f35b61031760048036038101906103129190613a07565b610cd9565b005b610321611204565b60405161032e91906139ec565b60405180910390f35b610351600480360381019061034c9190613818565b611215565b60405161035e91906134e9565b60405180910390f35b61036f611280565b60405161037c91906137fd565b60405180910390f35b61039f600480360381019061039a91906139bf565b611287565b6040516103ac9190613b05565b60405180910390f35b6103cf60048036038101906103ca9190613a07565b61131e565b005b6103eb60048036038101906103e691906139bf565b61165e565b005b61040760048036038101906104029190613b27565b6116f2565b005b610423600480360381019061041e91906139bf565b61190d565b005b61043f600480360381019061043a9190613818565b61197e565b005b61045b60048036038101906104569190613858565b6119a7565b005b61047760048036038101906104729190613b7a565b6121d8565b005b610493600480360381019061048e9190613858565b612692565b005b60007f7965db0b000000000000000000000000000000000000000000000000000000007bffffffffffffffffffffffffffffffffffffffffffffffffffffffff1916827bffffffffffffffffffffffffffffffffffffffffffffffffffffffff19161480610508575061050782612ad8565b5b9050919050565b600063150b7a0260e01b9050949350505050565b600060c96000838152602001908152602001600020600101549050919050565b61054c82610523565b61055d81610558612b42565b612b4a565b6105678383612be7565b505050565b610574612b42565b73ffffffffffffffffffffffffffffffffffffffff168173ffffffffffffffffffffffffffffffffffffffff16146105e1576040517f08c379a00000000000000000000000000000000000000000000000000000000081526004016105d890613c53565b60405180910390fd5b6105eb8282612cc8565b5050565b60026033541415610635576040517f08c379a000000000000000000000000000000000000000000000000000000000815260040161062c90613cbf565b60405180910390fd5b6002603381905550600061064882610c5f565b905060405160200161065990613d36565b6040516020818303038152906040528051906020012060fb60008481526020019081526020016000206008016040516020016106959190613e40565b60405160208183030381529060405280519060200120146106eb576040517f08c379a00000000000000000000000000000000000000000000000000000000081526004016106e290613ea3565b60405180910390fd5b60fb6000838152602001908152602001600020600301548161070d9190613ef2565b60fb60008481526020019081526020016000206006015410610764576040517f08c379a000000000000000000000000000000000000000000000000000000000815260040161075b90613f94565b60405180910390fd5b6040518060400160405280600a81526020017f4c6971756964617465640000000000000000000000000000000000000000000081525060fb600084815260200190815260200160002060080190805190602001906107c3929190613392565b507f1ce667ae522f1f380b3262bf7881f17067f07d7f50dc398385709938a9340daf826040516107f39190614000565b60405180910390a16108bb60fb600084815260200190815260200160002060000160009054906101000a900473ffffffffffffffffffffffffffffffffffffffff166064610102546064610847919061402e565b60fb6000878152602001908152602001600020600601546108689190614062565b61087291906140eb565b61010060009054906101000a900473ffffffffffffffffffffffffffffffffffffffff1673ffffffffffffffffffffffffffffffffffffffff16612daa9092919063ffffffff16565b61095b60ff60009054906101000a900473ffffffffffffffffffffffffffffffffffffffff1660646101025460fb6000878152602001908152602001600020600601546109089190614062565b61091291906140eb565b61010060009054906101000a900473ffffffffffffffffffffffffffffffffffffffff1673ffffffffffffffffffffffffffffffffffffffff16612daa9092919063ffffffff16565b50600160338190555050565b6000806000806000806000806060600060fb60008c8152602001908152602001600020604051806101200160405290816000820160009054906101000a900473ffffffffffffffffffffffffffffffffffffffff1673ffffffffffffffffffffffffffffffffffffffff1673ffffffffffffffffffffffffffffffffffffffff1681526020016001820160009054906101000a900473ffffffffffffffffffffffffffffffffffffffff1673ffffffffffffffffffffffffffffffffffffffff1673ffffffffffffffffffffffffffffffffffffffff1681526020016002820154815260200160038201548152602001600482015481526020016005820160009054906101000a900473ffffffffffffffffffffffffffffffffffffffff1673ffffffffffffffffffffffffffffffffffffffff1673ffffffffffffffffffffffffffffffffffffffff1681526020016006820154815260200160078201548152602001600882018054610ada90613d7a565b80601f0160208091040260200160405190810160405280929190818152602001828054610b0690613d7a565b8015610b535780601f10610b2857610100808354040283529160200191610b53565b820191906000526020600020905b815481529060010190602001808311610b3657829003601f168201915b5050505050815250509050806000015181602001518260400151836060015184608001518560a001518660c001518760e00151886101000151995099509950995099509950995099509950509193959799909294969850565b6000801b610bc181610bbc612b42565b612b4a565b81610102819055505050565b6000801b610be281610bdd612b42565b612b4a565b600160fd60008473ffffffffffffffffffffffffffffffffffffffff1673ffffffffffffffffffffffffffffffffffffffff16815260200190815260200160002060006101000a81548160ff0219169083151502179055505050565b6000801b610c5381610c4e612b42565b612b4a565b81610101819055505050565b600060fb600083815260200190815260200160002060040154610e1060fb60008581526020019081526020016000206007015442610c9d919061402e565b610ca791906140eb565b610cb19190614062565b60fb600084815260200190815260200160002060040154610cd29190613ef2565b9050919050565b60026033541415610d1f576040517f08c379a0000000000000000000000000000000000000000000000000000000008152600401610d1690613cbf565b60405180910390fd5b60026033819055503373ffffffffffffffffffffffffffffffffffffffff1660fb600084815260200190815260200160002060000160009054906101000a900473ffffffffffffffffffffffffffffffffffffffff1673ffffffffffffffffffffffffffffffffffffffff161415610dcc576040517f08c379a0000000000000000000000000000000000000000000000000000000008152600401610dc390614168565b60405180910390fd5b604051602001610ddb906141d4565b6040516020818303038152906040528051906020012060fb6000848152602001908152602001600020600801604051602001610e179190613e40565b6040516020818303038152906040528051906020012014610e6d576040517f08c379a0000000000000000000000000000000000000000000000000000000008152600401610e6490614235565b60405180910390fd5b600060fb60008481526020019081526020016000206004015490508060fb600085815260200190815260200160002060030154610eaa9190613ef2565b8211610eeb576040517f08c379a0000000000000000000000000000000000000000000000000000000008152600401610ee2906142c7565b60405180910390fd5b8161010060009054906101000a900473ffffffffffffffffffffffffffffffffffffffff1673ffffffffffffffffffffffffffffffffffffffff166370a08231336040518263ffffffff1660e01b8152600401610f4891906142e7565b602060405180830381865afa158015610f65573d6000803e3d6000fd5b505050506040513d601f19601f82011682018060405250810190610f899190614317565b1015610fca576040517f08c379a0000000000000000000000000000000000000000000000000000000008152600401610fc1906143b6565b60405180910390fd5b6040518060400160405280600281526020017f4f6e00000000000000000000000000000000000000000000000000000000000081525060fb60008581526020019081526020016000206008019080519060200190611029929190613392565b503360fb600085815260200190815260200160002060050160006101000a81548173ffffffffffffffffffffffffffffffffffffffff021916908373ffffffffffffffffffffffffffffffffffffffff1602179055508160fb6000858152602001908152602001600020600601819055504260fb6000858152602001908152602001600020600701819055507f1ce667ae522f1f380b3262bf7881f17067f07d7f50dc398385709938a9340daf836040516110e491906143f9565b60405180910390a161113c33308461010060009054906101000a900473ffffffffffffffffffffffffffffffffffffffff1673ffffffffffffffffffffffffffffffffffffffff16612e30909392919063ffffffff16565b60fb600084815260200190815260200160002060010160009054906101000a900473ffffffffffffffffffffffffffffffffffffffff1673ffffffffffffffffffffffffffffffffffffffff166342842e0e303360fb6000888152602001908152602001600020600201546040518463ffffffff1660e01b81526004016111c593929190614427565b600060405180830381600087803b1580156111df57600080fd5b505af11580156111f3573d6000803e3d6000fd5b505050505060016033819055505050565b600061121060fe612eb9565b905090565b600060c9600084815260200190815260200160002060000160008373ffffffffffffffffffffffffffffffffffffffff1673ffffffffffffffffffffffffffffffffffffffff16815260200190815260200160002060009054906101000a900460ff16905092915050565b6000801b81565b606060fc60008373ffffffffffffffffffffffffffffffffffffffff1673ffffffffffffffffffffffffffffffffffffffff16815260200190815260200160002080548060200260200160405190810160405280929190818152602001828054801561131257602002820191906000526020600020905b8154815260200190600101908083116112fe575b50505050509050919050565b60026033541415611364576040517f08c379a000000000000000000000000000000000000000000000000000000000815260040161135b90613cbf565b60405180910390fd5b60026033819055503373ffffffffffffffffffffffffffffffffffffffff1660fb600084815260200190815260200160002060050160009054906101000a900473ffffffffffffffffffffffffffffffffffffffff1673ffffffffffffffffffffffffffffffffffffffff1614611410576040517f08c379a0000000000000000000000000000000000000000000000000000000008152600401611407906144aa565b60405180910390fd5b60405160200161141f90613d36565b6040516020818303038152906040528051906020012060fb600084815260200190815260200160002060080160405160200161145b9190613e40565b60405160208183030381529060405280519060200120146114b1576040517f08c379a00000000000000000000000000000000000000000000000000000000081526004016114a890613ea3565b60405180910390fd5b8061010060009054906101000a900473ffffffffffffffffffffffffffffffffffffffff1673ffffffffffffffffffffffffffffffffffffffff166370a0823160fb600086815260200190815260200160002060050160009054906101000a900473ffffffffffffffffffffffffffffffffffffffff166040518263ffffffff1660e01b815260040161154491906142e7565b602060405180830381865afa158015611561573d6000803e3d6000fd5b505050506040513d601f19601f820116820180604052508101906115859190614317565b10156115c6576040517f08c379a00000000000000000000000000000000000000000000000000000000081526004016115bd9061453c565b60405180910390fd5b8060fb6000848152602001908152602001600020600601546115e89190613ef2565b60fb60008481526020019081526020016000206006018190555061165233308361010060009054906101000a900473ffffffffffffffffffffffffffffffffffffffff1673ffffffffffffffffffffffffffffffffffffffff16612e30909392919063ffffffff16565b60016033819055505050565b6000801b6116738161166e612b42565b612b4a565b600073ffffffffffffffffffffffffffffffffffffffff168273ffffffffffffffffffffffffffffffffffffffff1614156116ad57600080fd5b8160ff60006101000a81548173ffffffffffffffffffffffffffffffffffffffff021916908373ffffffffffffffffffffffffffffffffffffffff1602179055505050565b600060019054906101000a900460ff1661171a5760008054906101000a900460ff1615611723565b611722612ec7565b5b611762576040517f08c379a0000000000000000000000000000000000000000000000000000000008152600401611759906145ce565b60405180910390fd5b60008060019054906101000a900460ff1615905080156117b2576001600060016101000a81548160ff02191690831515021790555060016000806101000a81548160ff0219169083151502179055505b600073ffffffffffffffffffffffffffffffffffffffff168473ffffffffffffffffffffffffffffffffffffffff1614156117ec57600080fd5b8360ff60006101000a81548173ffffffffffffffffffffffffffffffffffffffff021916908373ffffffffffffffffffffffffffffffffffffffff1602179055508261010060006101000a81548173ffffffffffffffffffffffffffffffffffffffff021916908373ffffffffffffffffffffffffffffffffffffffff160217905550600461010181905550600a61010281905550600160fd60008473ffffffffffffffffffffffffffffffffffffffff1673ffffffffffffffffffffffffffffffffffffffff16815260200190815260200160002060006101000a81548160ff0219169083151502179055506118e66000801b33612ed8565b80156119075760008060016101000a81548160ff0219169083151502179055505b50505050565b6000801b6119228161191d612b42565b612b4a565b600060fd60008473ffffffffffffffffffffffffffffffffffffffff1673ffffffffffffffffffffffffffffffffffffffff16815260200190815260200160002060006101000a81548160ff0219169083151502179055505050565b61198782610523565b61199881611993612b42565b612b4a565b6119a28383612cc8565b505050565b600260335414156119ed576040517f08c379a00000000000000000000000000000000000000000000000000000000081526004016119e490613cbf565b60405180910390fd5b60026033819055503373ffffffffffffffffffffffffffffffffffffffff1660fb600083815260200190815260200160002060050160009054906101000a900473ffffffffffffffffffffffffffffffffffffffff1673ffffffffffffffffffffffffffffffffffffffff1614611a99576040517f08c379a0000000000000000000000000000000000000000000000000000000008152600401611a9090614660565b60405180910390fd5b604051602001611aa890613d36565b6040516020818303038152906040528051906020012060fb6000838152602001908152602001600020600801604051602001611ae49190613e40565b6040516020818303038152906040528051906020012014611b3a576040517f08c379a0000000000000000000000000000000000000000000000000000000008152600401611b3190613ea3565b60405180910390fd5b3373ffffffffffffffffffffffffffffffffffffffff1660fb600083815260200190815260200160002060010160009054906101000a900473ffffffffffffffffffffffffffffffffffffffff1673ffffffffffffffffffffffffffffffffffffffff16636352211e60fb6000858152602001908152602001600020600201546040518263ffffffff1660e01b8152600401611bd691906139ec565b602060405180830381865afa158015611bf3573d6000803e3d6000fd5b505050506040513d601f19601f82011682018060405250810190611c179190614695565b73ffffffffffffffffffffffffffffffffffffffff1614611c6d576040517f08c379a0000000000000000000000000000000000000000000000000000000008152600401611c649061470e565b60405180910390fd5b60fb60008281526020019081526020016000206006015461010060009054906101000a900473ffffffffffffffffffffffffffffffffffffffff1673ffffffffffffffffffffffffffffffffffffffff166370a08231306040518263ffffffff1660e01b8152600401611ce091906142e7565b602060405180830381865afa158015611cfd573d6000803e3d6000fd5b505050506040513d601f19601f82011682018060405250810190611d219190614317565b1015611d62576040517f08c379a0000000000000000000000000000000000000000000000000000000008152600401611d59906147a0565b60405180910390fd5b600060fb6000838152602001908152602001600020600701541415611dbc576040517f08c379a0000000000000000000000000000000000000000000000000000000008152600401611db39061480c565b60405180910390fd5b6000611dc782610c5f565b905060fb60008381526020019081526020016000206003015481611deb9190613ef2565b60fb6000848152602001908152602001600020600601541015611e43576040517f08c379a0000000000000000000000000000000000000000000000000000000008152600401611e3a90614878565b60405180910390fd5b600060fb600084815260200190815260200160002060050160006101000a81548173ffffffffffffffffffffffffffffffffffffffff021916908373ffffffffffffffffffffffffffffffffffffffff160217905550600060fb6000848152602001908152602001600020600601549050600060fb600085815260200190815260200160002060060181905550600060fb6000858152602001908152602001600020600701819055506040518060400160405280600481526020017f4f70656e0000000000000000000000000000000000000000000000000000000081525060fb60008581526020019081526020016000206008019080519060200190611f4b929190613392565b507f1ce667ae522f1f380b3262bf7881f17067f07d7f50dc398385709938a9340daf83604051611f7b91906148bb565b60405180910390a160fb600084815260200190815260200160002060010160009054906101000a900473ffffffffffffffffffffffffffffffffffffffff1673ffffffffffffffffffffffffffffffffffffffff166342842e0e333060fb6000888152602001908152602001600020600201546040518463ffffffff1660e01b815260040161200c93929190614427565b600060405180830381600087803b15801561202657600080fd5b505af115801561203a573d6000803e3d6000fd5b505050506120e860fb600085815260200190815260200160002060000160009054906101000a900473ffffffffffffffffffffffffffffffffffffffff16606461010154606461208a919061402e565b856120959190614062565b61209f91906140eb565b61010060009054906101000a900473ffffffffffffffffffffffffffffffffffffffff1673ffffffffffffffffffffffffffffffffffffffff16612daa9092919063ffffffff16565b61217260ff60009054906101000a900473ffffffffffffffffffffffffffffffffffffffff166064610101548561211f9190614062565b61212991906140eb565b61010060009054906101000a900473ffffffffffffffffffffffffffffffffffffffff1673ffffffffffffffffffffffffffffffffffffffff16612daa9092919063ffffffff16565b6121cb338383612182919061402e565b61010060009054906101000a900473ffffffffffffffffffffffffffffffffffffffff1673ffffffffffffffffffffffffffffffffffffffff16612daa9092919063ffffffff16565b5050600160338190555050565b6002603354141561221e576040517f08c379a000000000000000000000000000000000000000000000000000000000815260040161221590613cbf565b60405180910390fd5b60026033819055506001151560fd60008573ffffffffffffffffffffffffffffffffffffffff1673ffffffffffffffffffffffffffffffffffffffff16815260200190815260200160002060009054906101000a900460ff1615151461228357600080fd5b3373ffffffffffffffffffffffffffffffffffffffff168373ffffffffffffffffffffffffffffffffffffffff16636352211e866040518263ffffffff1660e01b81526004016122d391906139ec565b602060405180830381865afa1580156122f0573d6000803e3d6000fd5b505050506040513d601f19601f820116820180604052508101906123149190614695565b73ffffffffffffffffffffffffffffffffffffffff161461236a576040517f08c379a000000000000000000000000000000000000000000000000000000000815260040161236190614935565b60405180910390fd5b600061237660fe612eb9565b905061238260fe612ee6565b6040518061012001604052803373ffffffffffffffffffffffffffffffffffffffff1681526020018573ffffffffffffffffffffffffffffffffffffffff168152602001868152602001848152602001838152602001600073ffffffffffffffffffffffffffffffffffffffff16815260200160008152602001600081526020016040518060400160405280600481526020017f4f70656e0000000000000000000000000000000000000000000000000000000081525081525060fb600083815260200190815260200160002060008201518160000160006101000a81548173ffffffffffffffffffffffffffffffffffffffff021916908373ffffffffffffffffffffffffffffffffffffffff16021790555060208201518160010160006101000a81548173ffffffffffffffffffffffffffffffffffffffff021916908373ffffffffffffffffffffffffffffffffffffffff16021790555060408201518160020155606082015181600301556080820151816004015560a08201518160050160006101000a81548173ffffffffffffffffffffffffffffffffffffffff021916908373ffffffffffffffffffffffffffffffffffffffff16021790555060c0820151816006015560e08201518160070155610100820151816008019080519060200190612573929190613392565b5090505060fc60003373ffffffffffffffffffffffffffffffffffffffff1673ffffffffffffffffffffffffffffffffffffffff1681526020019081526020016000208190806001815401808255809150506001900390600052602060002001600090919091909150557f1ce667ae522f1f380b3262bf7881f17067f07d7f50dc398385709938a9340daf8160405161260c91906148bb565b60405180910390a18373ffffffffffffffffffffffffffffffffffffffff166342842e0e3330886040518463ffffffff1660e01b815260040161265193929190614427565b600060405180830381600087803b15801561266b57600080fd5b505af115801561267f573d6000803e3d6000fd5b5050505050600160338190555050505050565b600260335414156126d8576040517f08c379a00000000000000000000000000000000000000000000000000000000081526004016126cf90613cbf565b60405180910390fd5b60026033819055503373ffffffffffffffffffffffffffffffffffffffff1660fb600083815260200190815260200160002060000160009054906101000a900473ffffffffffffffffffffffffffffffffffffffff1673ffffffffffffffffffffffffffffffffffffffff1614612784576040517f08c379a000000000000000000000000000000000000000000000000000000000815260040161277b906149a1565b60405180910390fd5b3073ffffffffffffffffffffffffffffffffffffffff1660fb600083815260200190815260200160002060010160009054906101000a900473ffffffffffffffffffffffffffffffffffffffff1673ffffffffffffffffffffffffffffffffffffffff16636352211e60fb6000858152602001908152602001600020600201546040518263ffffffff1660e01b815260040161282091906139ec565b602060405180830381865afa15801561283d573d6000803e3d6000fd5b505050506040513d601f19601f820116820180604052508101906128619190614695565b73ffffffffffffffffffffffffffffffffffffffff16146128b7576040517f08c379a00000000000000000000000000000000000000000000000000000000081526004016128ae90614a33565b60405180910390fd5b6040516020016128c6906141d4565b6040516020818303038152906040528051906020012060fb60008381526020019081526020016000206008016040516020016129029190613e40565b6040516020818303038152906040528051906020012014612958576040517f08c379a000000000000000000000000000000000000000000000000000000000815260040161294f90614235565b60405180910390fd5b6040518060400160405280600981526020017f43616e63656c6c6564000000000000000000000000000000000000000000000081525060fb600083815260200190815260200160002060080190805190602001906129b7929190613392565b507f1ce667ae522f1f380b3262bf7881f17067f07d7f50dc398385709938a9340daf816040516129e79190614a9f565b60405180910390a160fb600082815260200190815260200160002060010160009054906101000a900473ffffffffffffffffffffffffffffffffffffffff1673ffffffffffffffffffffffffffffffffffffffff166342842e0e303360fb6000868152602001908152602001600020600201546040518463ffffffff1660e01b8152600401612a7893929190614427565b600060405180830381600087803b158015612a9257600080fd5b505af1158015612aa6573d6000803e3d6000fd5b50505050600160338190555050565b6000808273ffffffffffffffffffffffffffffffffffffffff163b119050919050565b60007f01ffc9a7000000000000000000000000000000000000000000000000000000007bffffffffffffffffffffffffffffffffffffffffffffffffffffffff1916827bffffffffffffffffffffffffffffffffffffffffffffffffffffffff1916149050919050565b600033905090565b612b548282611215565b612be357612b798173ffffffffffffffffffffffffffffffffffffffff166014612efc565b612b878360001c6020612efc565b604051602001612b98929190614b96565b6040516020818303038152906040526040517f08c379a0000000000000000000000000000000000000000000000000000000008152600401612bda9190614bd0565b60405180910390fd5b5050565b612bf18282611215565b612cc457600160c9600084815260200190815260200160002060000160008373ffffffffffffffffffffffffffffffffffffffff1673ffffffffffffffffffffffffffffffffffffffff16815260200190815260200160002060006101000a81548160ff021916908315150217905550612c69612b42565b73ffffffffffffffffffffffffffffffffffffffff168173ffffffffffffffffffffffffffffffffffffffff16837f2f8788117e7eff1d82e926ec794901d17c78024a50270940304540a733656f0d60405160405180910390a45b5050565b612cd28282611215565b15612da657600060c9600084815260200190815260200160002060000160008373ffffffffffffffffffffffffffffffffffffffff1673ffffffffffffffffffffffffffffffffffffffff16815260200190815260200160002060006101000a81548160ff021916908315150217905550612d4b612b42565b73ffffffffffffffffffffffffffffffffffffffff168173ffffffffffffffffffffffffffffffffffffffff16837ff6391f5c32d9c69d2a47ea670b442974b53935d1edc7fd64eb21e047a839171b60405160405180910390a45b5050565b612e2b8363a9059cbb60e01b8484604051602401612dc9929190614bf2565b604051602081830303815290604052907bffffffffffffffffffffffffffffffffffffffffffffffffffffffff19166020820180517bffffffffffffffffffffffffffffffffffffffffffffffffffffffff8381831617835250505050613138565b505050565b612eb3846323b872dd60e01b858585604051602401612e5193929190614427565b604051602081830303815290604052907bffffffffffffffffffffffffffffffffffffffffffffffffffffffff19166020820180517bffffffffffffffffffffffffffffffffffffffffffffffffffffffff8381831617835250505050613138565b50505050565b600081600001549050919050565b6000612ed230612ab5565b15905090565b612ee28282612be7565b5050565b6001816000016000828254019250508190555050565b606060006002836002612f0f9190614062565b612f199190613ef2565b67ffffffffffffffff811115612f3257612f316135b3565b5b6040519080825280601f01601f191660200182016040528015612f645781602001600182028036833780820191505090505b5090507f300000000000000000000000000000000000000000000000000000000000000081600081518110612f9c57612f9b614c1b565b5b60200101907effffffffffffffffffffffffffffffffffffffffffffffffffffffffffffff1916908160001a9053507f78000000000000000000000000000000000000000000000000000000000000008160018151811061300057612fff614c1b565b5b60200101907effffffffffffffffffffffffffffffffffffffffffffffffffffffffffffff1916908160001a905350600060018460026130409190614062565b61304a9190613ef2565b90505b60018111156130ea577f3031323334353637383961626364656600000000000000000000000000000000600f86166010811061308c5761308b614c1b565b5b1a60f81b8282815181106130a3576130a2614c1b565b5b60200101907effffffffffffffffffffffffffffffffffffffffffffffffffffffffffffff1916908160001a905350600485901c9450806130e390614c4a565b905061304d565b506000841461312e576040517f08c379a000000000000000000000000000000000000000000000000000000000815260040161312590614cc0565b60405180910390fd5b8091505092915050565b600061319a826040518060400160405280602081526020017f5361666545524332303a206c6f772d6c6576656c2063616c6c206661696c65648152508573ffffffffffffffffffffffffffffffffffffffff166131ff9092919063ffffffff16565b90506000815111156131fa57808060200190518101906131ba9190614d0c565b6131f9576040517f08c379a00000000000000000000000000000000000000000000000000000000081526004016131f090614dab565b60405180910390fd5b5b505050565b606061320e8484600085613217565b90509392505050565b60608247101561325c576040517f08c379a000000000000000000000000000000000000000000000000000000000815260040161325390614e3d565b60405180910390fd5b61326585612ab5565b6132a4576040517f08c379a000000000000000000000000000000000000000000000000000000000815260040161329b90614ea9565b60405180910390fd5b6000808673ffffffffffffffffffffffffffffffffffffffff1685876040516132cd9190614f10565b60006040518083038185875af1925050503d806000811461330a576040519150601f19603f3d011682016040523d82523d6000602084013e61330f565b606091505b509150915061331f82828661332b565b92505050949350505050565b6060831561333b5782905061338b565b60008351111561334e5782518084602001fd5b816040517f08c379a00000000000000000000000000000000000000000000000000000000081526004016133829190614bd0565b60405180910390fd5b9392505050565b82805461339e90613d7a565b90600052602060002090601f0160209004810192826133c05760008555613407565b82601f106133d957805160ff1916838001178555613407565b82800160010185558215613407579182015b828111156134065782518255916020019190600101906133eb565b5b5090506134149190613418565b5090565b5b80821115613431576000816000905550600101613419565b5090565b6000604051905090565b600080fd5b600080fd5b60007fffffffff0000000000000000000000000000000000000000000000000000000082169050919050565b61347e81613449565b811461348957600080fd5b50565b60008135905061349b81613475565b92915050565b6000602082840312156134b7576134b661343f565b5b60006134c58482850161348c565b91505092915050565b60008115159050919050565b6134e3816134ce565b82525050565b60006020820190506134fe60008301846134da565b92915050565b600073ffffffffffffffffffffffffffffffffffffffff82169050919050565b600061352f82613504565b9050919050565b61353f81613524565b811461354a57600080fd5b50565b60008135905061355c81613536565b92915050565b6000819050919050565b61357581613562565b811461358057600080fd5b50565b6000813590506135928161356c565b92915050565b600080fd5b600080fd5b6000601f19601f8301169050919050565b7f4e487b7100000000000000000000000000000000000000000000000000000000600052604160045260246000fd5b6135eb826135a2565b810181811067ffffffffffffffff8211171561360a576136096135b3565b5b80604052505050565b600061361d613435565b905061362982826135e2565b919050565b600067ffffffffffffffff821115613649576136486135b3565b5b613652826135a2565b9050602081019050919050565b82818337600083830152505050565b600061368161367c8461362e565b613613565b90508281526020810184848401111561369d5761369c61359d565b5b6136a884828561365f565b509392505050565b600082601f8301126136c5576136c4613598565b5b81356136d584826020860161366e565b91505092915050565b600080600080608085870312156136f8576136f761343f565b5b60006137068782880161354d565b94505060206137178782880161354d565b935050604061372887828801613583565b925050606085013567ffffffffffffffff81111561374957613748613444565b5b613755878288016136b0565b91505092959194509250565b61376a81613449565b82525050565b60006020820190506137856000830184613761565b92915050565b6000819050919050565b61379e8161378b565b81146137a957600080fd5b50565b6000813590506137bb81613795565b92915050565b6000602082840312156137d7576137d661343f565b5b60006137e5848285016137ac565b91505092915050565b6137f78161378b565b82525050565b600060208201905061381260008301846137ee565b92915050565b6000806040838503121561382f5761382e61343f565b5b600061383d858286016137ac565b925050602061384e8582860161354d565b9150509250929050565b60006020828403121561386e5761386d61343f565b5b600061387c84828501613583565b91505092915050565b61388e81613524565b82525050565b61389d81613562565b82525050565b600081519050919050565b600082825260208201905092915050565b60005b838110156138dd5780820151818401526020810190506138c2565b838111156138ec576000848401525b50505050565b60006138fd826138a3565b61390781856138ae565b93506139178185602086016138bf565b613920816135a2565b840191505092915050565b600061012082019050613941600083018c613885565b61394e602083018b613885565b61395b604083018a613894565b6139686060830189613894565b6139756080830188613894565b61398260a0830187613885565b61398f60c0830186613894565b61399c60e0830185613894565b8181036101008301526139af81846138f2565b90509a9950505050505050505050565b6000602082840312156139d5576139d461343f565b5b60006139e38482850161354d565b91505092915050565b6000602082019050613a016000830184613894565b92915050565b60008060408385031215613a1e57613a1d61343f565b5b6000613a2c85828601613583565b9250506020613a3d85828601613583565b9150509250929050565b600081519050919050565b600082825260208201905092915050565b6000819050602082019050919050565b613a7c81613562565b82525050565b6000613a8e8383613a73565b60208301905092915050565b6000602082019050919050565b6000613ab282613a47565b613abc8185613a52565b9350613ac783613a63565b8060005b83811015613af8578151613adf8882613a82565b9750613aea83613a9a565b925050600181019050613acb565b5085935050505092915050565b60006020820190508181036000830152613b1f8184613aa7565b905092915050565b600080600060608486031215613b4057613b3f61343f565b5b6000613b4e8682870161354d565b9350506020613b5f8682870161354d565b9250506040613b708682870161354d565b9150509250925092565b60008060008060808587031215613b9457613b9361343f565b5b6000613ba287828801613583565b9450506020613bb38782880161354d565b9350506040613bc487828801613583565b9250506060613bd587828801613583565b91505092959194509250565b7f416363657373436f6e74726f6c3a2063616e206f6e6c792072656e6f756e636560008201527f20726f6c657320666f722073656c660000000000000000000000000000000000602082015250565b6000613c3d602f836138ae565b9150613c4882613be1565b604082019050919050565b60006020820190508181036000830152613c6c81613c30565b9050919050565b7f5265656e7472616e637947756172643a207265656e7472616e742063616c6c00600082015250565b6000613ca9601f836138ae565b9150613cb482613c73565b602082019050919050565b60006020820190508181036000830152613cd881613c9c565b9050919050565b600081905092915050565b7f4f6e000000000000000000000000000000000000000000000000000000000000600082015250565b6000613d20600283613cdf565b9150613d2b82613cea565b600282019050919050565b6000613d4182613d13565b9150819050919050565b7f4e487b7100000000000000000000000000000000000000000000000000000000600052602260045260246000fd5b60006002820490506001821680613d9257607f821691505b60208210811415613da657613da5613d4b565b5b50919050565b60008190508160005260206000209050919050565b60008154613dce81613d7a565b613dd88186613cdf565b94506001821660008114613df35760018114613e0457613e37565b60ff19831686528186019350613e37565b613e0d85613dac565b60005b83811015613e2f57815481890152600182019150602081019050613e10565b838801955050505b50505092915050565b6000613e4c8284613dc1565b915081905092915050565b7f4f66666572206973206e6f74204f6e0000000000000000000000000000000000600082015250565b6000613e8d600f836138ae565b9150613e9882613e57565b602082019050919050565b60006020820190508181036000830152613ebc81613e80565b9050919050565b7f4e487b7100000000000000000000000000000000000000000000000000000000600052601160045260246000fd5b6000613efd82613562565b9150613f0883613562565b9250827fffffffffffffffffffffffffffffffffffffffffffffffffffffffffffffffff03821115613f3d57613f3c613ec3565b5b828201905092915050565b7f426f72726f776572206973206e6f74204c697175696461746564000000000000600082015250565b6000613f7e601a836138ae565b9150613f8982613f48565b602082019050919050565b60006020820190508181036000830152613fad81613f71565b9050919050565b7f4c69717569646174656400000000000000000000000000000000000000000000600082015250565b6000613fea600a836138ae565b9150613ff582613fb4565b602082019050919050565b60006040820190506140156000830184613894565b818103602083015261402681613fdd565b905092915050565b600061403982613562565b915061404483613562565b92508282101561405757614056613ec3565b5b828203905092915050565b600061406d82613562565b915061407883613562565b9250817fffffffffffffffffffffffffffffffffffffffffffffffffffffffffffffffff04831182151516156140b1576140b0613ec3565b5b828202905092915050565b7f4e487b7100000000000000000000000000000000000000000000000000000000600052601260045260246000fd5b60006140f682613562565b915061410183613562565b925082614111576141106140bc565b5b828204905092915050565b7f43616e206e6f742061636365707420796f7572206f776e204f66666572000000600082015250565b6000614152601d836138ae565b915061415d8261411c565b602082019050919050565b6000602082019050818103600083015261418181614145565b9050919050565b7f4f70656e00000000000000000000000000000000000000000000000000000000600082015250565b60006141be600483613cdf565b91506141c982614188565b600482019050919050565b60006141df826141b1565b9150819050919050565b7f4f66666572206973206e6f74204f70656e000000000000000000000000000000600082015250565b600061421f6011836138ae565b915061422a826141e9565b602082019050919050565b6000602082019050818103600083015261424e81614212565b9050919050565b7f4e6f7420656e6f75676820636f6c6c61746572616c20746f20626f72726f772060008201527f666f72206d6f7265207468616e20616e20686f75720000000000000000000000602082015250565b60006142b16035836138ae565b91506142bc82614255565b604082019050919050565b600060208201905081810360008301526142e0816142a4565b9050919050565b60006020820190506142fc6000830184613885565b92915050565b6000815190506143118161356c565b92915050565b60006020828403121561432d5761432c61343f565b5b600061433b84828501614302565b91505092915050565b7f4e6f7420656e6f7567682062616c616e636520746f207061792074686520636f60008201527f6c6c61746572616c000000000000000000000000000000000000000000000000602082015250565b60006143a06028836138ae565b91506143ab82614344565b604082019050919050565b600060208201905081810360008301526143cf81614393565b9050919050565b60006143e36002836138ae565b91506143ee82613cea565b602082019050919050565b600060408201905061440e6000830184613894565b818103602083015261441f816143d6565b905092915050565b600060608201905061443c6000830186613885565b6144496020830185613885565b6144566040830184613894565b949350505050565b7f4f6e6c7920626f72726f7765722063616e2061646420636f6c6c61746572616c600082015250565b60006144946020836138ae565b915061449f8261445e565b602082019050919050565b600060208201905081810360008301526144c381614487565b9050919050565b7f426f72726f77657220646f6573206e6f74206861766520656e6f75676820746f60008201527f207061792074686520657874726120636f6c6c61746572616c00000000000000602082015250565b60006145266039836138ae565b9150614531826144ca565b604082019050919050565b6000602082019050818103600083015261455581614519565b9050919050565b7f496e697469616c697a61626c653a20636f6e747261637420697320616c72656160008201527f647920696e697469616c697a6564000000000000000000000000000000000000602082015250565b60006145b8602e836138ae565b91506145c38261455c565b604082019050919050565b600060208201905081810360008301526145e7816145ab565b9050919050565b7f4f6e6c7920626f72726f7765722063616e20726570617920746865204f66666560008201527f7200000000000000000000000000000000000000000000000000000000000000602082015250565b600061464a6021836138ae565b9150614655826145ee565b604082019050919050565b600060208201905081810360008301526146798161463d565b9050919050565b60008151905061468f81613536565b92915050565b6000602082840312156146ab576146aa61343f565b5b60006146b984828501614680565b91505092915050565b7f426f72726f776572206973206e6f74206f776e6572206f6620746865204e4654600082015250565b60006146f86020836138ae565b9150614703826146c2565b602082019050919050565b60006020820190508181036000830152614727816146eb565b9050919050565b7f50726f746f636f6c20646f6573206e6f74206861766520656e6f75676820746f60008201527f207061792074686520636f6c6c61746572616c00000000000000000000000000602082015250565b600061478a6033836138ae565b91506147958261472e565b604082019050919050565b600060208201905081810360008301526147b98161477d565b9050919050565b7f4163636570742074696d65203d20300000000000000000000000000000000000600082015250565b60006147f6600f836138ae565b9150614801826147c0565b602082019050919050565b60006020820190508181036000830152614825816147e9565b9050919050565b7f426f72726f7765722063616e206265204c697175696461746564000000000000600082015250565b6000614862601a836138ae565b915061486d8261482c565b602082019050919050565b6000602082019050818103600083015261489181614855565b9050919050565b60006148a56004836138ae565b91506148b082614188565b602082019050919050565b60006040820190506148d06000830184613894565b81810360208301526148e181614898565b905092915050565b7f4e6f7420746865206f776e6572206f6620746865204e46540000000000000000600082015250565b600061491f6018836138ae565b915061492a826148e9565b602082019050919050565b6000602082019050818103600083015261494e81614912565b9050919050565b7f4e6f7420746865206f776e6572206f6620746865204f66666572000000000000600082015250565b600061498b601a836138ae565b915061499682614955565b602082019050919050565b600060208201905081810360008301526149ba8161497e565b9050919050565b7f5468652050726f746f636f6c20646f6573206e6f74206861766520746865204e60008201527f4654000000000000000000000000000000000000000000000000000000000000602082015250565b6000614a1d6022836138ae565b9150614a28826149c1565b604082019050919050565b60006020820190508181036000830152614a4c81614a10565b9050919050565b7f43616e63656c6c65640000000000000000000000000000000000000000000000600082015250565b6000614a896009836138ae565b9150614a9482614a53565b602082019050919050565b6000604082019050614ab46000830184613894565b8181036020830152614ac581614a7c565b905092915050565b7f416363657373436f6e74726f6c3a206163636f756e7420000000000000000000600082015250565b6000614b03601783613cdf565b9150614b0e82614acd565b601782019050919050565b6000614b24826138a3565b614b2e8185613cdf565b9350614b3e8185602086016138bf565b80840191505092915050565b7f206973206d697373696e6720726f6c6520000000000000000000000000000000600082015250565b6000614b80601183613cdf565b9150614b8b82614b4a565b601182019050919050565b6000614ba182614af6565b9150614bad8285614b19565b9150614bb882614b73565b9150614bc48284614b19565b91508190509392505050565b60006020820190508181036000830152614bea81846138f2565b905092915050565b6000604082019050614c076000830185613885565b614c146020830184613894565b9392505050565b7f4e487b7100000000000000000000000000000000000000000000000000000000600052603260045260246000fd5b6000614c5582613562565b91506000821415614c6957614c68613ec3565b5b600182039050919050565b7f537472696e67733a20686578206c656e67746820696e73756666696369656e74600082015250565b6000614caa6020836138ae565b9150614cb582614c74565b602082019050919050565b60006020820190508181036000830152614cd981614c9d565b9050919050565b614ce9816134ce565b8114614cf457600080fd5b50565b600081519050614d0681614ce0565b92915050565b600060208284031215614d2257614d2161343f565b5b6000614d3084828501614cf7565b91505092915050565b7f5361666545524332303a204552433230206f7065726174696f6e20646964206e60008201527f6f74207375636365656400000000000000000000000000000000000000000000602082015250565b6000614d95602a836138ae565b9150614da082614d39565b604082019050919050565b60006020820190508181036000830152614dc481614d88565b9050919050565b7f416464726573733a20696e73756666696369656e742062616c616e636520666f60008201527f722063616c6c0000000000000000000000000000000000000000000000000000602082015250565b6000614e276026836138ae565b9150614e3282614dcb565b604082019050919050565b60006020820190508181036000830152614e5681614e1a565b9050919050565b7f416464726573733a2063616c6c20746f206e6f6e2d636f6e7472616374000000600082015250565b6000614e93601d836138ae565b9150614e9e82614e5d565b602082019050919050565b60006020820190508181036000830152614ec281614e86565b9050919050565b600081519050919050565b600081905092915050565b6000614eea82614ec9565b614ef48185614ed4565b9350614f048185602086016138bf565b80840191505092915050565b6000614f1c8284614edf565b91508190509291505056fea26469706673582212207bb27bb6d59c9d0618bc01d5a704533dbeb441961d5cb6e1d6bebf93c83f3ae164736f6c634300080c0033",
  "immutableReferences": {},
  "source": "// SPDX-License-Identifier: UNLICENSED\r\n\r\npragma solidity ^0.8.3;\r\n\r\nimport \"@openzeppelin/contracts-upgradeable/utils/CountersUpgradeable.sol\";\r\nimport \"@openzeppelin/contracts-upgradeable/token/ERC20/IERC20Upgradeable.sol\";\r\nimport \"@openzeppelin/contracts-upgradeable/token/ERC721/IERC721Upgradeable.sol\";\r\n\r\nimport \"@openzeppelin/contracts-upgradeable/token/ERC20/utils/SafeERC20Upgradeable.sol\";\r\nimport \"@openzeppelin/contracts-upgradeable/token/ERC721/utils/ERC721HolderUpgradeable.sol\";\r\nimport \"@openzeppelin/contracts-upgradeable/security/ReentrancyGuardUpgradeable.sol\";\r\nimport \"@openzeppelin/contracts-upgradeable/access/AccessControlUpgradeable.sol\";\r\n\r\n\r\n\r\n/**\r\n * @title ERC721Lending\r\n * @notice ERC721 Lending plataform where users that provide the ERC721 token\r\n * set a liquidation limit and fee, and users that borrow the ERC721 token\r\n * set how much collateral they add to the transaction\r\n */\r\ncontract ERC721LendingUpgradeable is ERC721HolderUpgradeable, ReentrancyGuardUpgradeable, AccessControlUpgradeable {\r\n\r\n    event OfferStatusChange(uint256 offerId, string status);\r\n\r\n    struct Offer {\r\n        address owner;\r\n        address nft;\r\n        uint256 nftId;\r\n        uint256 liquidation;\r\n        uint256 hourlyFee;\r\n        address borrower;\r\n        uint256 collateral;\r\n        uint256 acceptTime;\r\n        string status; // Open, On, Cancelled, Liquidated\r\n    }\r\n\r\n    mapping(uint256 => Offer) offers;\r\n    mapping(address => uint256[]) addressToOffers;\r\n    mapping(address => bool) addressToBool;\r\n\r\n    using SafeERC20Upgradeable for IERC20Upgradeable;\r\n    using CountersUpgradeable for CountersUpgradeable.Counter;\r\n    CountersUpgradeable.Counter private offerCounter;\r\n\r\n    address PayoutAddress;\r\n    IERC20Upgradeable token;\r\n    uint Fee;\r\n    uint LiquidationFee;\r\n\r\n    /// @custom:oz-upgrades-unsafe-allow constructor\r\n    constructor() initializer {}\r\n\r\n    function initialize(address Payout, address TokenAddress, address BaseERC721Address) initializer public {\r\n        require(Payout != address(0));\r\n        PayoutAddress = Payout;\r\n        token = IERC20Upgradeable(TokenAddress);\r\n        Fee = 4;\r\n        LiquidationFee = 10;\r\n        //Base Contract accepted\r\n        addressToBool[BaseERC721Address] = true;\r\n        _setupRole(DEFAULT_ADMIN_ROLE, msg.sender);\r\n    }\r\n\r\n    /**\r\n     * @dev Returns the details for a offer.\r\n     * @param offerId The id of the offer.\r\n     */\r\n    function getOffer(uint256 offerId) external view returns (address, address, uint256, uint256, uint256, address, uint256, uint256, string memory) {\r\n        Offer memory offer = offers[offerId];\r\n        return (offer.owner, offer.nft, offer.nftId, offer.liquidation, offer.hourlyFee, offer.borrower, offer.collateral, offer.acceptTime, offer.status);\r\n    }\r\n\r\n    /**\r\n     * @dev Returns all offers of an address.\r\n     * @param addr the address to lookup.\r\n     */\r\n    function getOffersOfAddress(address addr) external view returns (uint256[] memory) {\r\n        return addressToOffers[addr];\r\n    }\r\n\r\n    /**\r\n     * @dev Returns the number of offers made.\r\n     */\r\n    function getOfferQuantities() external view returns (uint256) {\r\n        return offerCounter.current();\r\n    }\r\n\r\n    function feeToPay(uint256 offerId) public view returns (uint256) {\r\n        return offers[offerId].hourlyFee + ((block.timestamp - offers[offerId].acceptTime)/(60*60))*offers[offerId].hourlyFee;\r\n    }\r\n\r\n    /**\r\n     * @dev Opens a new Offer, and sends the nft to an escrow.\r\n     * @param nftId id of the nft to offer.\r\n     * @param nftAddress address of the nft to offer.\r\n     * @param liquidation if the amount of liquidation+accumulatedFee is bigger than the collateral, the borrower is liquidated.\r\n     * @param fee fee amount that accumulates every hour.\r\n     */\r\n    function createOffer(uint256 nftId, address nftAddress, uint256 liquidation, uint256 fee) external nonReentrant() {\r\n        require(addressToBool[nftAddress] == true);\r\n        require(IERC721Upgradeable(nftAddress).ownerOf(nftId) == msg.sender, \"Not the owner of the NFT\");\r\n\r\n        uint current = offerCounter.current();\r\n        offerCounter.increment();\r\n        offers[current] = Offer(msg.sender, nftAddress, nftId, liquidation, fee, address(0), 0, 0, \"Open\");\r\n        addressToOffers[msg.sender].push(current);\r\n        emit OfferStatusChange(current, \"Open\");\r\n\r\n        IERC721Upgradeable(nftAddress).safeTransferFrom(msg.sender, address(this), nftId);\r\n    }\r\n\r\n    /**\r\n     * @dev Cancels open offer and returns the nft to the owner.\r\n     * @param offerId the id of the offer.\r\n     */\r\n    function cancelOffer(uint256 offerId) external nonReentrant() {\r\n        require(offers[offerId].owner == msg.sender, \"Not the owner of the Offer\");\r\n        require(IERC721Upgradeable(offers[offerId].nft).ownerOf(offers[offerId].nftId) == address(this), \"The Protocol does not have the NFT\");\r\n        require(keccak256(abi.encodePacked(offers[offerId].status)) == keccak256(abi.encodePacked(\"Open\")), \"Offer is not Open\");\r\n\r\n        offers[offerId].status = \"Cancelled\";\r\n        emit OfferStatusChange(offerId, \"Cancelled\");\r\n\r\n        IERC721Upgradeable(offers[offerId].nft).safeTransferFrom(address(this), msg.sender, offers[offerId].nftId);\r\n    }\r\n\r\n    /**\r\n     * @dev Accepts an Open offer, escrows the collateral on the contract and sends the nft to the borrower.\r\n     * @param offerId the id of the offer.\r\n     * @param collateral how much collateral the borrowers wants to add to the offer.\r\n     */\r\n    function acceptOffer(uint256 offerId, uint256 collateral) external nonReentrant() {\r\n        require(offers[offerId].owner != msg.sender, \"Can not accept your own Offer\");\r\n        require(keccak256(abi.encodePacked(offers[offerId].status)) == keccak256(abi.encodePacked(\"Open\")), \"Offer is not Open\");\r\n        uint256 minimumFee = offers[offerId].hourlyFee;\r\n        require(collateral > offers[offerId].liquidation + minimumFee, \"Not enough collateral to borrow for more than an hour\");\r\n        require(token.balanceOf(msg.sender) >= collateral, \"Not enough balance to pay the collateral\");\r\n\r\n        offers[offerId].status = \"On\";\r\n        offers[offerId].borrower = msg.sender;\r\n        offers[offerId].collateral = collateral;\r\n        offers[offerId].acceptTime = block.timestamp;\r\n        emit OfferStatusChange(offerId, \"On\");\r\n\r\n        token.safeTransferFrom(msg.sender, address(this), collateral);\r\n        IERC721Upgradeable(offers[offerId].nft).safeTransferFrom(address(this), msg.sender, offers[offerId].nftId);\r\n    }\r\n\r\n    /**\r\n     * @dev checks if borrower is liquidated or not, then transfers the nft to the contract, \r\n     * pays the lender, pays the protocol and finally returns the rest of the collateral to the borrower\r\n     * @param offerId the id of the offer.\r\n     */\r\n    function repayOffer(uint256 offerId) external nonReentrant() {\r\n        require(offers[offerId].borrower == msg.sender, \"Only borrower can repay the Offer\");\r\n        require(keccak256(abi.encodePacked(offers[offerId].status)) == keccak256(abi.encodePacked(\"On\")), \"Offer is not On\");\r\n        require(IERC721Upgradeable(offers[offerId].nft).ownerOf(offers[offerId].nftId) == msg.sender, \"Borrower is not owner of the NFT\");\r\n        require(token.balanceOf(address(this)) >= offers[offerId].collateral, \"Protocol does not have enough to pay the collateral\");\r\n        require(offers[offerId].acceptTime != 0, \"Accept time = 0\");\r\n        //minimum Fee is at least 1 hour and increases each hour\r\n        uint256 fee = feeToPay(offerId);\r\n        // User is not liquidated\r\n        require(offers[offerId].collateral >= (fee + offers[offerId].liquidation), \"Borrower can be Liquidated\");\r\n\r\n        offers[offerId].borrower = address(0);\r\n        uint256 collateral = offers[offerId].collateral;\r\n        offers[offerId].collateral = 0;\r\n        offers[offerId].acceptTime = 0;\r\n        offers[offerId].status = \"Open\";\r\n        emit OfferStatusChange(offerId, \"Open\");\r\n\r\n        IERC721Upgradeable(offers[offerId].nft).safeTransferFrom(msg.sender, address(this), offers[offerId].nftId);\r\n        token.safeTransfer(offers[offerId].owner, fee*(100-Fee)/100);\r\n        token.safeTransfer(PayoutAddress, fee*Fee/100);\r\n        token.safeTransfer(msg.sender, (collateral - fee));\r\n    }\r\n\r\n    /**\r\n     * @dev Adds extra collateral to the position of the borrower.\r\n     * @param offerId the id of the offer.\r\n     * @param extraCollateral how much extra collateral the borrowers wants to add to the offer.\r\n     */\r\n    function addCollateral(uint256 offerId, uint256 extraCollateral) external nonReentrant() {\r\n        require(offers[offerId].borrower == msg.sender, \"Only borrower can add collateral\");\r\n        require(keccak256(abi.encodePacked(offers[offerId].status)) == keccak256(abi.encodePacked(\"On\")), \"Offer is not On\");\r\n        require(token.balanceOf(offers[offerId].borrower) >= extraCollateral, \"Borrower does not have enough to pay the extra collateral\");\r\n\r\n        offers[offerId].collateral = offers[offerId].collateral + extraCollateral;\r\n        token.safeTransferFrom(msg.sender, address(this), extraCollateral);\r\n    }\r\n\r\n    /**\r\n     * @dev Liquidates the borrower if he owns more than he has collateral.\r\n     * @param offerId the id of the offer.\r\n     */\r\n    function liquidate(uint256 offerId) external nonReentrant() {\r\n        uint256 fee = feeToPay(offerId);\r\n        require(keccak256(abi.encodePacked(offers[offerId].status)) == keccak256(abi.encodePacked(\"On\")), \"Offer is not On\");\r\n        require(offers[offerId].collateral < (fee + offers[offerId].liquidation), \"Borrower is not Liquidated\");\r\n\r\n        offers[offerId].status = \"Liquidated\";\r\n        emit OfferStatusChange(offerId, \"Liquidated\");\r\n\r\n        token.safeTransfer(offers[offerId].owner, offers[offerId].collateral*(100-LiquidationFee)/100);\r\n        token.safeTransfer(PayoutAddress, offers[offerId].collateral*LiquidationFee/100);\r\n    }\r\n\r\n    /**\r\n     * @dev Changes account to send payout.\r\n     * @param newPayout new address to send payout.\r\n     */\r\n    function transferPayoutAddress(address newPayout) external onlyRole(DEFAULT_ADMIN_ROLE) {\r\n        require(newPayout != address(0));\r\n        PayoutAddress = newPayout;\r\n    }\r\n\r\n    /**\r\n     * @dev Changes the fee \r\n     * @param newFee new fee.\r\n     */\r\n    function changeFee(uint256 newFee) external onlyRole(DEFAULT_ADMIN_ROLE) {\r\n        Fee = newFee;\r\n    }\r\n\r\n    /**\r\n     * @dev Changes the liquidation fee\r\n     * @param newLiquidationFee new liquidation fee.\r\n     */\r\n    function changeLiquidationFee(uint256 newLiquidationFee) external onlyRole(DEFAULT_ADMIN_ROLE) {\r\n        LiquidationFee = newLiquidationFee;\r\n    }\r\n\r\n    /**\r\n     * @dev adds new contract ERC721 to the protocol\r\n     * @param _contract contract address to whitelist.\r\n     */\r\n    function addContract(address _contract) external onlyRole(DEFAULT_ADMIN_ROLE) {\r\n        addressToBool[_contract] = true;\r\n    }\r\n\r\n    /**\r\n     * @dev removes a contract ERC721 from the protocol\r\n     * @param _contract contract address to blacklist.\r\n     */\r\n    function removeContract(address _contract) external onlyRole(DEFAULT_ADMIN_ROLE) {\r\n        addressToBool[_contract] = false;\r\n    }\r\n\r\n}",
  "sourcePath": "C:\\Users\\jtsch\\OneDrive\\Escritorio\\DFK-Lending\\DFK-Lending-SmartContracts\\contracts\\ERC721LendingUpgradeable.sol",
  "compiler": {
    "name": "solc",
    "version": "0.8.12+commit.f00d7308.Emscripten.clang"
  },
  "schemaVersion": "3.4.3",
  "updatedAt": "2022-02-28T16:18:26.785Z",
  "devdoc": {
    "kind": "dev",
    "methods": {
      "acceptOffer(uint256,uint256)": {
        "details": "Accepts an Open offer, escrows the collateral on the contract and sends the nft to the borrower.",
        "params": {
          "collateral": "how much collateral the borrowers wants to add to the offer.",
          "offerId": "the id of the offer."
        }
      },
      "addCollateral(uint256,uint256)": {
        "details": "Adds extra collateral to the position of the borrower.",
        "params": {
          "extraCollateral": "how much extra collateral the borrowers wants to add to the offer.",
          "offerId": "the id of the offer."
        }
      },
      "addContract(address)": {
        "details": "adds new contract ERC721 to the protocol",
        "params": {
          "_contract": "contract address to whitelist."
        }
      },
      "cancelOffer(uint256)": {
        "details": "Cancels open offer and returns the nft to the owner.",
        "params": {
          "offerId": "the id of the offer."
        }
      },
      "changeFee(uint256)": {
        "details": "Changes the fee ",
        "params": {
          "newFee": "new fee."
        }
      },
      "changeLiquidationFee(uint256)": {
        "details": "Changes the liquidation fee",
        "params": {
          "newLiquidationFee": "new liquidation fee."
        }
      },
      "constructor": {
        "custom:oz-upgrades-unsafe-allow": "constructor"
      },
      "createOffer(uint256,address,uint256,uint256)": {
        "details": "Opens a new Offer, and sends the nft to an escrow.",
        "params": {
          "fee": "fee amount that accumulates every hour.",
          "liquidation": "if the amount of liquidation+accumulatedFee is bigger than the collateral, the borrower is liquidated.",
          "nftAddress": "address of the nft to offer.",
          "nftId": "id of the nft to offer."
        }
      },
      "getOffer(uint256)": {
        "details": "Returns the details for a offer.",
        "params": {
          "offerId": "The id of the offer."
        }
      },
      "getOfferQuantities()": {
        "details": "Returns the number of offers made."
      },
      "getOffersOfAddress(address)": {
        "details": "Returns all offers of an address.",
        "params": {
          "addr": "the address to lookup."
        }
      },
      "getRoleAdmin(bytes32)": {
        "details": "Returns the admin role that controls `role`. See {grantRole} and {revokeRole}. To change a role's admin, use {_setRoleAdmin}."
      },
      "grantRole(bytes32,address)": {
        "details": "Grants `role` to `account`. If `account` had not been already granted `role`, emits a {RoleGranted} event. Requirements: - the caller must have ``role``'s admin role."
      },
      "hasRole(bytes32,address)": {
        "details": "Returns `true` if `account` has been granted `role`."
      },
      "liquidate(uint256)": {
        "details": "Liquidates the borrower if he owns more than he has collateral.",
        "params": {
          "offerId": "the id of the offer."
        }
      },
      "onERC721Received(address,address,uint256,bytes)": {
        "details": "See {IERC721Receiver-onERC721Received}. Always returns `IERC721Receiver.onERC721Received.selector`."
      },
      "removeContract(address)": {
        "details": "removes a contract ERC721 from the protocol",
        "params": {
          "_contract": "contract address to blacklist."
        }
      },
      "renounceRole(bytes32,address)": {
        "details": "Revokes `role` from the calling account. Roles are often managed via {grantRole} and {revokeRole}: this function's purpose is to provide a mechanism for accounts to lose their privileges if they are compromised (such as when a trusted device is misplaced). If the calling account had been revoked `role`, emits a {RoleRevoked} event. Requirements: - the caller must be `account`."
      },
      "repayOffer(uint256)": {
        "details": "checks if borrower is liquidated or not, then transfers the nft to the contract,  pays the lender, pays the protocol and finally returns the rest of the collateral to the borrower",
        "params": {
          "offerId": "the id of the offer."
        }
      },
      "revokeRole(bytes32,address)": {
        "details": "Revokes `role` from `account`. If `account` had been granted `role`, emits a {RoleRevoked} event. Requirements: - the caller must have ``role``'s admin role."
      },
      "supportsInterface(bytes4)": {
        "details": "See {IERC165-supportsInterface}."
      },
      "transferPayoutAddress(address)": {
        "details": "Changes account to send payout.",
        "params": {
          "newPayout": "new address to send payout."
        }
      }
    },
    "title": "ERC721Lending",
    "version": 1
  },
  "userdoc": {
    "kind": "user",
    "methods": {},
    "notice": "ERC721 Lending plataform where users that provide the ERC721 token set a liquidation limit and fee, and users that borrow the ERC721 token set how much collateral they add to the transaction",
    "version": 1
  }
}