{
  "contractName": "ERC721Lending",
  "abi": [
    {
      "inputs": [
        {
          "internalType": "address",
          "name": "Payout",
          "type": "address"
        },
        {
          "internalType": "address",
          "name": "TokenAddress",
          "type": "address"
        }
      ],
      "stateMutability": "nonpayable",
      "type": "constructor"
    },
    {
      "anonymous": false,
      "inputs": [
        {
          "indexed": false,
          "internalType": "uint256",
          "name": "offerId",
          "type": "uint256"
        },
        {
          "indexed": false,
          "internalType": "string",
          "name": "status",
          "type": "string"
        }
      ],
      "name": "OfferStatusChange",
      "type": "event"
    },
    {
      "anonymous": false,
      "inputs": [
        {
          "indexed": true,
          "internalType": "bytes32",
          "name": "role",
          "type": "bytes32"
        },
        {
          "indexed": true,
          "internalType": "bytes32",
          "name": "previousAdminRole",
          "type": "bytes32"
        },
        {
          "indexed": true,
          "internalType": "bytes32",
          "name": "newAdminRole",
          "type": "bytes32"
        }
      ],
      "name": "RoleAdminChanged",
      "type": "event"
    },
    {
      "anonymous": false,
      "inputs": [
        {
          "indexed": true,
          "internalType": "bytes32",
          "name": "role",
          "type": "bytes32"
        },
        {
          "indexed": true,
          "internalType": "address",
          "name": "account",
          "type": "address"
        },
        {
          "indexed": true,
          "internalType": "address",
          "name": "sender",
          "type": "address"
        }
      ],
      "name": "RoleGranted",
      "type": "event"
    },
    {
      "anonymous": false,
      "inputs": [
        {
          "indexed": true,
          "internalType": "bytes32",
          "name": "role",
          "type": "bytes32"
        },
        {
          "indexed": true,
          "internalType": "address",
          "name": "account",
          "type": "address"
        },
        {
          "indexed": true,
          "internalType": "address",
          "name": "sender",
          "type": "address"
        }
      ],
      "name": "RoleRevoked",
      "type": "event"
    },
    {
      "inputs": [],
      "name": "DEFAULT_ADMIN_ROLE",
      "outputs": [
        {
          "internalType": "bytes32",
          "name": "",
          "type": "bytes32"
        }
      ],
      "stateMutability": "view",
      "type": "function",
      "constant": true
    },
    {
      "inputs": [
        {
          "internalType": "bytes32",
          "name": "role",
          "type": "bytes32"
        }
      ],
      "name": "getRoleAdmin",
      "outputs": [
        {
          "internalType": "bytes32",
          "name": "",
          "type": "bytes32"
        }
      ],
      "stateMutability": "view",
      "type": "function",
      "constant": true
    },
    {
      "inputs": [
        {
          "internalType": "bytes32",
          "name": "role",
          "type": "bytes32"
        },
        {
          "internalType": "address",
          "name": "account",
          "type": "address"
        }
      ],
      "name": "grantRole",
      "outputs": [],
      "stateMutability": "nonpayable",
      "type": "function"
    },
    {
      "inputs": [
        {
          "internalType": "bytes32",
          "name": "role",
          "type": "bytes32"
        },
        {
          "internalType": "address",
          "name": "account",
          "type": "address"
        }
      ],
      "name": "hasRole",
      "outputs": [
        {
          "internalType": "bool",
          "name": "",
          "type": "bool"
        }
      ],
      "stateMutability": "view",
      "type": "function",
      "constant": true
    },
    {
      "inputs": [
        {
          "internalType": "address",
          "name": "",
          "type": "address"
        },
        {
          "internalType": "address",
          "name": "",
          "type": "address"
        },
        {
          "internalType": "uint256",
          "name": "",
          "type": "uint256"
        },
        {
          "internalType": "bytes",
          "name": "",
          "type": "bytes"
        }
      ],
      "name": "onERC721Received",
      "outputs": [
        {
          "internalType": "bytes4",
          "name": "",
          "type": "bytes4"
        }
      ],
      "stateMutability": "nonpayable",
      "type": "function"
    },
    {
      "inputs": [
        {
          "internalType": "bytes32",
          "name": "role",
          "type": "bytes32"
        },
        {
          "internalType": "address",
          "name": "account",
          "type": "address"
        }
      ],
      "name": "renounceRole",
      "outputs": [],
      "stateMutability": "nonpayable",
      "type": "function"
    },
    {
      "inputs": [
        {
          "internalType": "bytes32",
          "name": "role",
          "type": "bytes32"
        },
        {
          "internalType": "address",
          "name": "account",
          "type": "address"
        }
      ],
      "name": "revokeRole",
      "outputs": [],
      "stateMutability": "nonpayable",
      "type": "function"
    },
    {
      "inputs": [
        {
          "internalType": "bytes4",
          "name": "interfaceId",
          "type": "bytes4"
        }
      ],
      "name": "supportsInterface",
      "outputs": [
        {
          "internalType": "bool",
          "name": "",
          "type": "bool"
        }
      ],
      "stateMutability": "view",
      "type": "function",
      "constant": true
    },
    {
      "inputs": [
        {
          "internalType": "uint256",
          "name": "offerId",
          "type": "uint256"
        }
      ],
      "name": "getOffer",
      "outputs": [
        {
          "internalType": "address",
          "name": "",
          "type": "address"
        },
        {
          "internalType": "address",
          "name": "",
          "type": "address"
        },
        {
          "internalType": "uint256",
          "name": "",
          "type": "uint256"
        },
        {
          "internalType": "uint256",
          "name": "",
          "type": "uint256"
        },
        {
          "internalType": "uint256",
          "name": "",
          "type": "uint256"
        },
        {
          "internalType": "address",
          "name": "",
          "type": "address"
        },
        {
          "internalType": "uint256",
          "name": "",
          "type": "uint256"
        },
        {
          "internalType": "uint256",
          "name": "",
          "type": "uint256"
        },
        {
          "internalType": "string",
          "name": "",
          "type": "string"
        }
      ],
      "stateMutability": "view",
      "type": "function",
      "constant": true
    },
    {
      "inputs": [
        {
          "internalType": "address",
          "name": "addr",
          "type": "address"
        }
      ],
      "name": "getOffersOfAddress",
      "outputs": [
        {
          "internalType": "uint256[]",
          "name": "",
          "type": "uint256[]"
        }
      ],
      "stateMutability": "view",
      "type": "function",
      "constant": true
    },
    {
      "inputs": [],
      "name": "getOfferQuantities",
      "outputs": [
        {
          "internalType": "uint256",
          "name": "",
          "type": "uint256"
        }
      ],
      "stateMutability": "view",
      "type": "function",
      "constant": true
    },
    {
      "inputs": [
        {
          "internalType": "uint256",
          "name": "nftId",
          "type": "uint256"
        },
        {
          "internalType": "address",
          "name": "nftAddress",
          "type": "address"
        },
        {
          "internalType": "uint256",
          "name": "liquidation",
          "type": "uint256"
        },
        {
          "internalType": "uint256",
          "name": "fee",
          "type": "uint256"
        }
      ],
      "name": "createOffer",
      "outputs": [],
      "stateMutability": "nonpayable",
      "type": "function"
    },
    {
      "inputs": [
        {
          "internalType": "uint256",
          "name": "offerId",
          "type": "uint256"
        }
      ],
      "name": "cancelOffer",
      "outputs": [],
      "stateMutability": "nonpayable",
      "type": "function"
    },
    {
      "inputs": [
        {
          "internalType": "uint256",
          "name": "offerId",
          "type": "uint256"
        },
        {
          "internalType": "uint256",
          "name": "collateral",
          "type": "uint256"
        }
      ],
      "name": "acceptOffer",
      "outputs": [],
      "stateMutability": "nonpayable",
      "type": "function"
    },
    {
      "inputs": [
        {
          "internalType": "uint256",
          "name": "offerId",
          "type": "uint256"
        }
      ],
      "name": "repayOffer",
      "outputs": [],
      "stateMutability": "nonpayable",
      "type": "function"
    },
    {
      "inputs": [
        {
          "internalType": "uint256",
          "name": "offerId",
          "type": "uint256"
        },
        {
          "internalType": "uint256",
          "name": "extraCollateral",
          "type": "uint256"
        }
      ],
      "name": "addCollateral",
      "outputs": [],
      "stateMutability": "nonpayable",
      "type": "function"
    },
    {
      "inputs": [
        {
          "internalType": "uint256",
          "name": "offerId",
          "type": "uint256"
        }
      ],
      "name": "liquidate",
      "outputs": [],
      "stateMutability": "nonpayable",
      "type": "function"
    },
    {
      "inputs": [
        {
          "internalType": "address",
          "name": "newPayout",
          "type": "address"
        }
      ],
      "name": "transferPayoutAddress",
      "outputs": [],
      "stateMutability": "nonpayable",
      "type": "function"
    },
    {
      "inputs": [
        {
          "internalType": "uint256",
          "name": "newFee",
          "type": "uint256"
        }
      ],
      "name": "changeFee",
      "outputs": [],
      "stateMutability": "nonpayable",
      "type": "function"
    },
    {
      "inputs": [
        {
          "internalType": "uint256",
          "name": "newLiquidationFee",
          "type": "uint256"
        }
      ],
      "name": "changeLiquidationFee",
      "outputs": [],
      "stateMutability": "nonpayable",
      "type": "function"
    }
  ],
  "bytecode": "0x60806040523480156200001157600080fd5b5060405162004a7c38038062004a7c8339818101604052810190620000379190620002d2565b600160008190555081600560006101000a81548173ffffffffffffffffffffffffffffffffffffffff021916908373ffffffffffffffffffffffffffffffffffffffff16021790555080600660006101000a81548173ffffffffffffffffffffffffffffffffffffffff021916908373ffffffffffffffffffffffffffffffffffffffff1602179055506004600781905550600a600881905550620000e66000801b33620000ee60201b60201c565b505062000319565b6200010082826200010460201b60201c565b5050565b620001168282620001f560201b60201c565b620001f157600180600084815260200190815260200160002060000160008373ffffffffffffffffffffffffffffffffffffffff1673ffffffffffffffffffffffffffffffffffffffff16815260200190815260200160002060006101000a81548160ff021916908315150217905550620001966200026060201b60201c565b73ffffffffffffffffffffffffffffffffffffffff168173ffffffffffffffffffffffffffffffffffffffff16837f2f8788117e7eff1d82e926ec794901d17c78024a50270940304540a733656f0d60405160405180910390a45b5050565b60006001600084815260200190815260200160002060000160008373ffffffffffffffffffffffffffffffffffffffff1673ffffffffffffffffffffffffffffffffffffffff16815260200190815260200160002060009054906101000a900460ff16905092915050565b600033905090565b600080fd5b600073ffffffffffffffffffffffffffffffffffffffff82169050919050565b60006200029a826200026d565b9050919050565b620002ac816200028d565b8114620002b857600080fd5b50565b600081519050620002cc81620002a1565b92915050565b60008060408385031215620002ec57620002eb62000268565b5b6000620002fc85828601620002bb565b92505060206200030f85828601620002bb565b9150509250929050565b61475380620003296000396000f3fe608060405234801561001057600080fd5b506004361061012c5760003560e01c80638486014d116100ad578063ae699e2e11610071578063ae699e2e14610359578063d547741f14610375578063e121e6e514610391578063ee1733e3146103ad578063ef706adf146103c95761012c565b80638486014d146102a157806391d14854146102bf578063a217fddf146102ef578063a362edc61461030d578063a8f35adf1461033d5761012c565b8063415f1240116100f4578063415f1240146101f95780634579268a146102155780634d6bbf101461024d5780636a1db1bf1461026957806381257bd5146102855761012c565b806301ffc9a714610131578063150b7a0214610161578063248a9ca3146101915780632f2ff15d146101c157806336568abe146101dd575b600080fd5b61014b60048036038101906101469190612f6a565b6103e5565b6040516101589190612fb2565b60405180910390f35b61017b600480360381019061017691906131a7565b61045f565b6040516101889190613239565b60405180910390f35b6101ab60048036038101906101a6919061328a565b610473565b6040516101b891906132c6565b60405180910390f35b6101db60048036038101906101d691906132e1565b610493565b005b6101f760048036038101906101f291906132e1565b6104bc565b005b610213600480360381019061020e9190613321565b61053f565b005b61022f600480360381019061022a9190613321565b6109a3565b604051610244999897969594939291906133f4565b60405180910390f35b61026760048036038101906102629190613321565b610be8565b005b610283600480360381019061027e9190613321565b610c08565b005b61029f600480360381019061029a9190613488565b610c28565b005b6102a96111b1565b6040516102b691906134c8565b60405180910390f35b6102d960048036038101906102d491906132e1565b6111c2565b6040516102e69190612fb2565b60405180910390f35b6102f761122d565b60405161030491906132c6565b60405180910390f35b610327600480360381019061032291906134e3565b611234565b60405161033491906135ce565b60405180910390f35b61035760048036038101906103529190613488565b6112cb565b005b610373600480360381019061036e91906134e3565b61165d565b005b61038f600480360381019061038a91906132e1565b6116b7565b005b6103ab60048036038101906103a69190613321565b6116e0565b005b6103c760048036038101906103c291906135f0565b61209e565b005b6103e360048036038101906103de9190613321565b612507565b005b60007f7965db0b000000000000000000000000000000000000000000000000000000007bffffffffffffffffffffffffffffffffffffffffffffffffffffffff1916827bffffffffffffffffffffffffffffffffffffffffffffffffffffffff1916148061045857506104578261292a565b5b9050919050565b600063150b7a0260e01b9050949350505050565b600060016000838152602001908152602001600020600101549050919050565b61049c82610473565b6104ad816104a8612994565b61299c565b6104b78383612a39565b505050565b6104c4612994565b73ffffffffffffffffffffffffffffffffffffffff168173ffffffffffffffffffffffffffffffffffffffff1614610531576040517f08c379a0000000000000000000000000000000000000000000000000000000008152600401610528906136c9565b60405180910390fd5b61053b8282612b19565b5050565b60026000541415610585576040517f08c379a000000000000000000000000000000000000000000000000000000000815260040161057c90613735565b60405180910390fd5b600260008190555060006002600083815260200190815260200160002060040154620151806002600085815260200190815260200160002060070154426105cc9190613784565b6105d691906137e7565b6105e09190613818565b90506040516020016105f1906138c9565b604051602081830303815290604052805190602001206002600084815260200190815260200160002060080160405160200161062d91906139d3565b6040516020818303038152906040528051906020012014610683576040517f08c379a000000000000000000000000000000000000000000000000000000000815260040161067a90613a36565b60405180910390fd5b6002600083815260200190815260200160002060030154816106a59190613a56565b6002600084815260200190815260200160002060060154106106fc576040517f08c379a00000000000000000000000000000000000000000000000000000000081526004016106f390613af8565b60405180910390fd5b6040518060400160405280600a81526020017f4c6971756964617465640000000000000000000000000000000000000000000081525060026000848152602001908152602001600020600801908051906020019061075b929190612e5b565b50600660009054906101000a900473ffffffffffffffffffffffffffffffffffffffff1673ffffffffffffffffffffffffffffffffffffffff1663a9059cbb6002600085815260200190815260200160002060000160009054906101000a900473ffffffffffffffffffffffffffffffffffffffff16606460085460646107e29190613784565b60026000888152602001908152602001600020600601546108039190613818565b61080d91906137e7565b6040518363ffffffff1660e01b815260040161082a929190613b18565b6020604051808303816000875af1158015610849573d6000803e3d6000fd5b505050506040513d601f19601f8201168201806040525081019061086d9190613b6d565b50600660009054906101000a900473ffffffffffffffffffffffffffffffffffffffff1673ffffffffffffffffffffffffffffffffffffffff1663a9059cbb600560009054906101000a900473ffffffffffffffffffffffffffffffffffffffff16606460085460026000888152602001908152602001600020600601546108f59190613818565b6108ff91906137e7565b6040518363ffffffff1660e01b815260040161091c929190613b18565b6020604051808303816000875af115801561093b573d6000803e3d6000fd5b505050506040513d601f19601f8201168201806040525081019061095f9190613b6d565b507f1ce667ae522f1f380b3262bf7881f17067f07d7f50dc398385709938a9340daf8260405161098f9190613be6565b60405180910390a150600160008190555050565b60008060008060008060008060606000600260008c8152602001908152602001600020604051806101200160405290816000820160009054906101000a900473ffffffffffffffffffffffffffffffffffffffff1673ffffffffffffffffffffffffffffffffffffffff1673ffffffffffffffffffffffffffffffffffffffff1681526020016001820160009054906101000a900473ffffffffffffffffffffffffffffffffffffffff1673ffffffffffffffffffffffffffffffffffffffff1673ffffffffffffffffffffffffffffffffffffffff1681526020016002820154815260200160038201548152602001600482015481526020016005820160009054906101000a900473ffffffffffffffffffffffffffffffffffffffff1673ffffffffffffffffffffffffffffffffffffffff1673ffffffffffffffffffffffffffffffffffffffff1681526020016006820154815260200160078201548152602001600882018054610b169061390d565b80601f0160208091040260200160405190810160405280929190818152602001828054610b429061390d565b8015610b8f5780601f10610b6457610100808354040283529160200191610b8f565b820191906000526020600020905b815481529060010190602001808311610b7257829003601f168201915b5050505050815250509050806000015181602001518260400151836060015184608001518560a001518660c001518760e00151886101000151995099509950995099509950995099509950509193959799909294969850565b6000801b610bfd81610bf8612994565b61299c565b816008819055505050565b6000801b610c1d81610c18612994565b61299c565b816007819055505050565b60026000541415610c6e576040517f08c379a0000000000000000000000000000000000000000000000000000000008152600401610c6590613735565b60405180910390fd5b60026000819055503373ffffffffffffffffffffffffffffffffffffffff166002600084815260200190815260200160002060000160009054906101000a900473ffffffffffffffffffffffffffffffffffffffff1673ffffffffffffffffffffffffffffffffffffffff161415610d1b576040517f08c379a0000000000000000000000000000000000000000000000000000000008152600401610d1290613c60565b60405180910390fd5b604051602001610d2a90613ccc565b6040516020818303038152906040528051906020012060026000848152602001908152602001600020600801604051602001610d6691906139d3565b6040516020818303038152906040528051906020012014610dbc576040517f08c379a0000000000000000000000000000000000000000000000000000000008152600401610db390613d2d565b60405180910390fd5b600060186002600085815260200190815260200160002060040154610de191906137e7565b9050806002600085815260200190815260200160002060030154610e059190613a56565b8211610e46576040517f08c379a0000000000000000000000000000000000000000000000000000000008152600401610e3d90613dbf565b60405180910390fd5b81600660009054906101000a900473ffffffffffffffffffffffffffffffffffffffff1673ffffffffffffffffffffffffffffffffffffffff166370a08231336040518263ffffffff1660e01b8152600401610ea29190613ddf565b602060405180830381865afa158015610ebf573d6000803e3d6000fd5b505050506040513d601f19601f82011682018060405250810190610ee39190613e0f565b1015610f24576040517f08c379a0000000000000000000000000000000000000000000000000000000008152600401610f1b90613eae565b60405180910390fd5b6040518060400160405280600281526020017f4f6e000000000000000000000000000000000000000000000000000000000000815250600260008581526020019081526020016000206008019080519060200190610f83929190612e5b565b50336002600085815260200190815260200160002060050160006101000a81548173ffffffffffffffffffffffffffffffffffffffff021916908373ffffffffffffffffffffffffffffffffffffffff160217905550816002600085815260200190815260200160002060060181905550426002600085815260200190815260200160002060070181905550600660009054906101000a900473ffffffffffffffffffffffffffffffffffffffff1673ffffffffffffffffffffffffffffffffffffffff166323b872dd3330856040518463ffffffff1660e01b815260040161106e93929190613ece565b6020604051808303816000875af115801561108d573d6000803e3d6000fd5b505050506040513d601f19601f820116820180604052508101906110b19190613b6d565b506002600084815260200190815260200160002060010160009054906101000a900473ffffffffffffffffffffffffffffffffffffffff1673ffffffffffffffffffffffffffffffffffffffff166342842e0e303360026000888152602001908152602001600020600201546040518463ffffffff1660e01b815260040161113b93929190613ece565b600060405180830381600087803b15801561115557600080fd5b505af1158015611169573d6000803e3d6000fd5b505050507f1ce667ae522f1f380b3262bf7881f17067f07d7f50dc398385709938a9340daf8360405161119c9190613f28565b60405180910390a15060016000819055505050565b60006111bd6004612bfb565b905090565b60006001600084815260200190815260200160002060000160008373ffffffffffffffffffffffffffffffffffffffff1673ffffffffffffffffffffffffffffffffffffffff16815260200190815260200160002060009054906101000a900460ff16905092915050565b6000801b81565b6060600360008373ffffffffffffffffffffffffffffffffffffffff1673ffffffffffffffffffffffffffffffffffffffff1681526020019081526020016000208054806020026020016040519081016040528092919081815260200182805480156112bf57602002820191906000526020600020905b8154815260200190600101908083116112ab575b50505050509050919050565b60026000541415611311576040517f08c379a000000000000000000000000000000000000000000000000000000000815260040161130890613735565b60405180910390fd5b60026000819055503373ffffffffffffffffffffffffffffffffffffffff166002600084815260200190815260200160002060050160009054906101000a900473ffffffffffffffffffffffffffffffffffffffff1673ffffffffffffffffffffffffffffffffffffffff16146113bd576040517f08c379a00000000000000000000000000000000000000000000000000000000081526004016113b490613fa2565b60405180910390fd5b6040516020016113cc906138c9565b604051602081830303815290604052805190602001206002600084815260200190815260200160002060080160405160200161140891906139d3565b604051602081830303815290604052805190602001201461145e576040517f08c379a000000000000000000000000000000000000000000000000000000000815260040161145590613a36565b60405180910390fd5b80600660009054906101000a900473ffffffffffffffffffffffffffffffffffffffff1673ffffffffffffffffffffffffffffffffffffffff166370a082316002600086815260200190815260200160002060050160009054906101000a900473ffffffffffffffffffffffffffffffffffffffff166040518263ffffffff1660e01b81526004016114f09190613ddf565b602060405180830381865afa15801561150d573d6000803e3d6000fd5b505050506040513d601f19601f820116820180604052508101906115319190613e0f565b1015611572576040517f08c379a000000000000000000000000000000000000000000000000000000000815260040161156990614034565b60405180910390fd5b8060026000848152602001908152602001600020600601546115949190613a56565b6002600084815260200190815260200160002060060181905550600660009054906101000a900473ffffffffffffffffffffffffffffffffffffffff1673ffffffffffffffffffffffffffffffffffffffff166323b872dd3330846040518463ffffffff1660e01b815260040161160d93929190613ece565b6020604051808303816000875af115801561162c573d6000803e3d6000fd5b505050506040513d601f19601f820116820180604052508101906116509190613b6d565b5060016000819055505050565b6000801b6116728161166d612994565b61299c565b81600560006101000a81548173ffffffffffffffffffffffffffffffffffffffff021916908373ffffffffffffffffffffffffffffffffffffffff1602179055505050565b6116c082610473565b6116d1816116cc612994565b61299c565b6116db8383612b19565b505050565b60026000541415611726576040517f08c379a000000000000000000000000000000000000000000000000000000000815260040161171d90613735565b60405180910390fd5b60026000819055503373ffffffffffffffffffffffffffffffffffffffff166002600083815260200190815260200160002060050160009054906101000a900473ffffffffffffffffffffffffffffffffffffffff1673ffffffffffffffffffffffffffffffffffffffff16146117d2576040517f08c379a00000000000000000000000000000000000000000000000000000000081526004016117c9906140c6565b60405180910390fd5b6040516020016117e1906138c9565b604051602081830303815290604052805190602001206002600083815260200190815260200160002060080160405160200161181d91906139d3565b6040516020818303038152906040528051906020012014611873576040517f08c379a000000000000000000000000000000000000000000000000000000000815260040161186a90613a36565b60405180910390fd5b3373ffffffffffffffffffffffffffffffffffffffff166002600083815260200190815260200160002060010160009054906101000a900473ffffffffffffffffffffffffffffffffffffffff1673ffffffffffffffffffffffffffffffffffffffff16636352211e60026000858152602001908152602001600020600201546040518263ffffffff1660e01b815260040161190f91906134c8565b602060405180830381865afa15801561192c573d6000803e3d6000fd5b505050506040513d601f19601f8201168201806040525081019061195091906140fb565b73ffffffffffffffffffffffffffffffffffffffff16146119a6576040517f08c379a000000000000000000000000000000000000000000000000000000000815260040161199d90614174565b60405180910390fd5b6002600082815260200190815260200160002060060154600660009054906101000a900473ffffffffffffffffffffffffffffffffffffffff1673ffffffffffffffffffffffffffffffffffffffff166370a08231306040518263ffffffff1660e01b8152600401611a189190613ddf565b602060405180830381865afa158015611a35573d6000803e3d6000fd5b505050506040513d601f19601f82011682018060405250810190611a599190613e0f565b1015611a9a576040517f08c379a0000000000000000000000000000000000000000000000000000000008152600401611a9190614206565b60405180910390fd5b600060026000838152602001908152602001600020600701541415611af4576040517f08c379a0000000000000000000000000000000000000000000000000000000008152600401611aeb90614272565b60405180910390fd5b6000610e10600260008481526020019081526020016000206007015442611b1b9190613784565b1015611b4b5760186002600084815260200190815260200160002060040154611b4491906137e7565b9050611b9f565b600260008381526020019081526020016000206004015462015180600260008581526020019081526020016000206007015442611b889190613784565b611b9291906137e7565b611b9c9190613818565b90505b600260008381526020019081526020016000206003015481611bc19190613a56565b600260008481526020019081526020016000206006015411611c18576040517f08c379a0000000000000000000000000000000000000000000000000000000008152600401611c0f906142de565b60405180910390fd5b6002600083815260200190815260200160002060010160009054906101000a900473ffffffffffffffffffffffffffffffffffffffff1673ffffffffffffffffffffffffffffffffffffffff166342842e0e333060026000878152602001908152602001600020600201546040518463ffffffff1660e01b8152600401611ca193929190613ece565b600060405180830381600087803b158015611cbb57600080fd5b505af1158015611ccf573d6000803e3d6000fd5b50505050600660009054906101000a900473ffffffffffffffffffffffffffffffffffffffff1673ffffffffffffffffffffffffffffffffffffffff1663a9059cbb6002600085815260200190815260200160002060000160009054906101000a900473ffffffffffffffffffffffffffffffffffffffff1660646007546064611d599190613784565b85611d649190613818565b611d6e91906137e7565b6040518363ffffffff1660e01b8152600401611d8b929190613b18565b6020604051808303816000875af1158015611daa573d6000803e3d6000fd5b505050506040513d601f19601f82011682018060405250810190611dce9190613b6d565b50600660009054906101000a900473ffffffffffffffffffffffffffffffffffffffff1673ffffffffffffffffffffffffffffffffffffffff1663a9059cbb600560009054906101000a900473ffffffffffffffffffffffffffffffffffffffff16606460075485611e409190613818565b611e4a91906137e7565b6040518363ffffffff1660e01b8152600401611e67929190613b18565b6020604051808303816000875af1158015611e86573d6000803e3d6000fd5b505050506040513d601f19601f82011682018060405250810190611eaa9190613b6d565b50600660009054906101000a900473ffffffffffffffffffffffffffffffffffffffff1673ffffffffffffffffffffffffffffffffffffffff1663a9059cbb33836002600087815260200190815260200160002060060154611f0c9190613784565b6040518363ffffffff1660e01b8152600401611f29929190613b18565b6020604051808303816000875af1158015611f48573d6000803e3d6000fd5b505050506040513d601f19601f82011682018060405250810190611f6c9190613b6d565b5060006002600084815260200190815260200160002060050160006101000a81548173ffffffffffffffffffffffffffffffffffffffff021916908373ffffffffffffffffffffffffffffffffffffffff16021790555060006002600084815260200190815260200160002060060181905550600060026000848152602001908152602001600020600701819055506040518060400160405280600481526020017f4f70656e0000000000000000000000000000000000000000000000000000000081525060026000848152602001908152602001600020600801908051906020019061205a929190612e5b565b507f1ce667ae522f1f380b3262bf7881f17067f07d7f50dc398385709938a9340daf8260405161208a9190614321565b60405180910390a150600160008190555050565b600260005414156120e4576040517f08c379a00000000000000000000000000000000000000000000000000000000081526004016120db90613735565b60405180910390fd5b60026000819055503373ffffffffffffffffffffffffffffffffffffffff168373ffffffffffffffffffffffffffffffffffffffff16636352211e866040518263ffffffff1660e01b815260040161213c91906134c8565b602060405180830381865afa158015612159573d6000803e3d6000fd5b505050506040513d601f19601f8201168201806040525081019061217d91906140fb565b73ffffffffffffffffffffffffffffffffffffffff16146121d3576040517f08c379a00000000000000000000000000000000000000000000000000000000081526004016121ca9061439b565b60405180910390fd5b8273ffffffffffffffffffffffffffffffffffffffff166342842e0e3330876040518463ffffffff1660e01b815260040161221093929190613ece565b600060405180830381600087803b15801561222a57600080fd5b505af115801561223e573d6000803e3d6000fd5b5050505061224c6004612c09565b6040518061012001604052803373ffffffffffffffffffffffffffffffffffffffff1681526020018473ffffffffffffffffffffffffffffffffffffffff168152602001858152602001838152602001828152602001600073ffffffffffffffffffffffffffffffffffffffff16815260200160008152602001600081526020016040518060400160405280600481526020017f4f70656e00000000000000000000000000000000000000000000000000000000815250815250600260006123146004612bfb565b815260200190815260200160002060008201518160000160006101000a81548173ffffffffffffffffffffffffffffffffffffffff021916908373ffffffffffffffffffffffffffffffffffffffff16021790555060208201518160010160006101000a81548173ffffffffffffffffffffffffffffffffffffffff021916908373ffffffffffffffffffffffffffffffffffffffff16021790555060408201518160020155606082015181600301556080820151816004015560a08201518160050160006101000a81548173ffffffffffffffffffffffffffffffffffffffff021916908373ffffffffffffffffffffffffffffffffffffffff16021790555060c0820151816006015560e08201518160070155610100820151816008019080519060200190612446929190612e5b565b50905050600360003373ffffffffffffffffffffffffffffffffffffffff1673ffffffffffffffffffffffffffffffffffffffff1681526020019081526020016000206124936004612bfb565b90806001815401808255809150506001900390600052602060002001600090919091909150557f1ce667ae522f1f380b3262bf7881f17067f07d7f50dc398385709938a9340daf6124e46004612bfb565b6040516124f19190614321565b60405180910390a1600160008190555050505050565b6002600054141561254d576040517f08c379a000000000000000000000000000000000000000000000000000000000815260040161254490613735565b60405180910390fd5b60026000819055503373ffffffffffffffffffffffffffffffffffffffff166002600083815260200190815260200160002060000160009054906101000a900473ffffffffffffffffffffffffffffffffffffffff1673ffffffffffffffffffffffffffffffffffffffff16146125f9576040517f08c379a00000000000000000000000000000000000000000000000000000000081526004016125f090614407565b60405180910390fd5b3073ffffffffffffffffffffffffffffffffffffffff166002600083815260200190815260200160002060010160009054906101000a900473ffffffffffffffffffffffffffffffffffffffff1673ffffffffffffffffffffffffffffffffffffffff16636352211e60026000858152602001908152602001600020600201546040518263ffffffff1660e01b815260040161269591906134c8565b602060405180830381865afa1580156126b2573d6000803e3d6000fd5b505050506040513d601f19601f820116820180604052508101906126d691906140fb565b73ffffffffffffffffffffffffffffffffffffffff161461272c576040517f08c379a000000000000000000000000000000000000000000000000000000000815260040161272390614499565b60405180910390fd5b60405160200161273b90613ccc565b604051602081830303815290604052805190602001206002600083815260200190815260200160002060080160405160200161277791906139d3565b60405160208183030381529060405280519060200120146127cd576040517f08c379a00000000000000000000000000000000000000000000000000000000081526004016127c490613d2d565b60405180910390fd5b6040518060400160405280600981526020017f43616e63656c6c6564000000000000000000000000000000000000000000000081525060026000838152602001908152602001600020600801908051906020019061282c929190612e5b565b506002600082815260200190815260200160002060010160009054906101000a900473ffffffffffffffffffffffffffffffffffffffff1673ffffffffffffffffffffffffffffffffffffffff166342842e0e303360026000868152602001908152602001600020600201546040518463ffffffff1660e01b81526004016128b693929190613ece565b600060405180830381600087803b1580156128d057600080fd5b505af11580156128e4573d6000803e3d6000fd5b505050507f1ce667ae522f1f380b3262bf7881f17067f07d7f50dc398385709938a9340daf816040516129179190614505565b60405180910390a1600160008190555050565b60007f01ffc9a7000000000000000000000000000000000000000000000000000000007bffffffffffffffffffffffffffffffffffffffffffffffffffffffff1916827bffffffffffffffffffffffffffffffffffffffffffffffffffffffff1916149050919050565b600033905090565b6129a682826111c2565b612a35576129cb8173ffffffffffffffffffffffffffffffffffffffff166014612c1f565b6129d98360001c6020612c1f565b6040516020016129ea9291906145fc565b6040516020818303038152906040526040517f08c379a0000000000000000000000000000000000000000000000000000000008152600401612a2c9190614636565b60405180910390fd5b5050565b612a4382826111c2565b612b1557600180600084815260200190815260200160002060000160008373ffffffffffffffffffffffffffffffffffffffff1673ffffffffffffffffffffffffffffffffffffffff16815260200190815260200160002060006101000a81548160ff021916908315150217905550612aba612994565b73ffffffffffffffffffffffffffffffffffffffff168173ffffffffffffffffffffffffffffffffffffffff16837f2f8788117e7eff1d82e926ec794901d17c78024a50270940304540a733656f0d60405160405180910390a45b5050565b612b2382826111c2565b15612bf75760006001600084815260200190815260200160002060000160008373ffffffffffffffffffffffffffffffffffffffff1673ffffffffffffffffffffffffffffffffffffffff16815260200190815260200160002060006101000a81548160ff021916908315150217905550612b9c612994565b73ffffffffffffffffffffffffffffffffffffffff168173ffffffffffffffffffffffffffffffffffffffff16837ff6391f5c32d9c69d2a47ea670b442974b53935d1edc7fd64eb21e047a839171b60405160405180910390a45b5050565b600081600001549050919050565b6001816000016000828254019250508190555050565b606060006002836002612c329190613818565b612c3c9190613a56565b67ffffffffffffffff811115612c5557612c5461307c565b5b6040519080825280601f01601f191660200182016040528015612c875781602001600182028036833780820191505090505b5090507f300000000000000000000000000000000000000000000000000000000000000081600081518110612cbf57612cbe614658565b5b60200101907effffffffffffffffffffffffffffffffffffffffffffffffffffffffffffff1916908160001a9053507f780000000000000000000000000000000000000000000000000000000000000081600181518110612d2357612d22614658565b5b60200101907effffffffffffffffffffffffffffffffffffffffffffffffffffffffffffff1916908160001a90535060006001846002612d639190613818565b612d6d9190613a56565b90505b6001811115612e0d577f3031323334353637383961626364656600000000000000000000000000000000600f861660108110612daf57612dae614658565b5b1a60f81b828281518110612dc657612dc5614658565b5b60200101907effffffffffffffffffffffffffffffffffffffffffffffffffffffffffffff1916908160001a905350600485901c945080612e0690614687565b9050612d70565b5060008414612e51576040517f08c379a0000000000000000000000000000000000000000000000000000000008152600401612e48906146fd565b60405180910390fd5b8091505092915050565b828054612e679061390d565b90600052602060002090601f016020900481019282612e895760008555612ed0565b82601f10612ea257805160ff1916838001178555612ed0565b82800160010185558215612ed0579182015b82811115612ecf578251825591602001919060010190612eb4565b5b509050612edd9190612ee1565b5090565b5b80821115612efa576000816000905550600101612ee2565b5090565b6000604051905090565b600080fd5b600080fd5b60007fffffffff0000000000000000000000000000000000000000000000000000000082169050919050565b612f4781612f12565b8114612f5257600080fd5b50565b600081359050612f6481612f3e565b92915050565b600060208284031215612f8057612f7f612f08565b5b6000612f8e84828501612f55565b91505092915050565b60008115159050919050565b612fac81612f97565b82525050565b6000602082019050612fc76000830184612fa3565b92915050565b600073ffffffffffffffffffffffffffffffffffffffff82169050919050565b6000612ff882612fcd565b9050919050565b61300881612fed565b811461301357600080fd5b50565b60008135905061302581612fff565b92915050565b6000819050919050565b61303e8161302b565b811461304957600080fd5b50565b60008135905061305b81613035565b92915050565b600080fd5b600080fd5b6000601f19601f8301169050919050565b7f4e487b7100000000000000000000000000000000000000000000000000000000600052604160045260246000fd5b6130b48261306b565b810181811067ffffffffffffffff821117156130d3576130d261307c565b5b80604052505050565b60006130e6612efe565b90506130f282826130ab565b919050565b600067ffffffffffffffff8211156131125761311161307c565b5b61311b8261306b565b9050602081019050919050565b82818337600083830152505050565b600061314a613145846130f7565b6130dc565b90508281526020810184848401111561316657613165613066565b5b613171848285613128565b509392505050565b600082601f83011261318e5761318d613061565b5b813561319e848260208601613137565b91505092915050565b600080600080608085870312156131c1576131c0612f08565b5b60006131cf87828801613016565b94505060206131e087828801613016565b93505060406131f18782880161304c565b925050606085013567ffffffffffffffff81111561321257613211612f0d565b5b61321e87828801613179565b91505092959194509250565b61323381612f12565b82525050565b600060208201905061324e600083018461322a565b92915050565b6000819050919050565b61326781613254565b811461327257600080fd5b50565b6000813590506132848161325e565b92915050565b6000602082840312156132a05761329f612f08565b5b60006132ae84828501613275565b91505092915050565b6132c081613254565b82525050565b60006020820190506132db60008301846132b7565b92915050565b600080604083850312156132f8576132f7612f08565b5b600061330685828601613275565b925050602061331785828601613016565b9150509250929050565b60006020828403121561333757613336612f08565b5b60006133458482850161304c565b91505092915050565b61335781612fed565b82525050565b6133668161302b565b82525050565b600081519050919050565b600082825260208201905092915050565b60005b838110156133a657808201518184015260208101905061338b565b838111156133b5576000848401525b50505050565b60006133c68261336c565b6133d08185613377565b93506133e0818560208601613388565b6133e98161306b565b840191505092915050565b60006101208201905061340a600083018c61334e565b613417602083018b61334e565b613424604083018a61335d565b613431606083018961335d565b61343e608083018861335d565b61344b60a083018761334e565b61345860c083018661335d565b61346560e083018561335d565b81810361010083015261347881846133bb565b90509a9950505050505050505050565b6000806040838503121561349f5761349e612f08565b5b60006134ad8582860161304c565b92505060206134be8582860161304c565b9150509250929050565b60006020820190506134dd600083018461335d565b92915050565b6000602082840312156134f9576134f8612f08565b5b600061350784828501613016565b91505092915050565b600081519050919050565b600082825260208201905092915050565b6000819050602082019050919050565b6135458161302b565b82525050565b6000613557838361353c565b60208301905092915050565b6000602082019050919050565b600061357b82613510565b613585818561351b565b93506135908361352c565b8060005b838110156135c15781516135a8888261354b565b97506135b383613563565b925050600181019050613594565b5085935050505092915050565b600060208201905081810360008301526135e88184613570565b905092915050565b6000806000806080858703121561360a57613609612f08565b5b60006136188782880161304c565b945050602061362987828801613016565b935050604061363a8782880161304c565b925050606061364b8782880161304c565b91505092959194509250565b7f416363657373436f6e74726f6c3a2063616e206f6e6c792072656e6f756e636560008201527f20726f6c657320666f722073656c660000000000000000000000000000000000602082015250565b60006136b3602f83613377565b91506136be82613657565b604082019050919050565b600060208201905081810360008301526136e2816136a6565b9050919050565b7f5265656e7472616e637947756172643a207265656e7472616e742063616c6c00600082015250565b600061371f601f83613377565b915061372a826136e9565b602082019050919050565b6000602082019050818103600083015261374e81613712565b9050919050565b7f4e487b7100000000000000000000000000000000000000000000000000000000600052601160045260246000fd5b600061378f8261302b565b915061379a8361302b565b9250828210156137ad576137ac613755565b5b828203905092915050565b7f4e487b7100000000000000000000000000000000000000000000000000000000600052601260045260246000fd5b60006137f28261302b565b91506137fd8361302b565b92508261380d5761380c6137b8565b5b828204905092915050565b60006138238261302b565b915061382e8361302b565b9250817fffffffffffffffffffffffffffffffffffffffffffffffffffffffffffffffff048311821515161561386757613866613755565b5b828202905092915050565b600081905092915050565b7f4f6e000000000000000000000000000000000000000000000000000000000000600082015250565b60006138b3600283613872565b91506138be8261387d565b600282019050919050565b60006138d4826138a6565b9150819050919050565b7f4e487b7100000000000000000000000000000000000000000000000000000000600052602260045260246000fd5b6000600282049050600182168061392557607f821691505b60208210811415613939576139386138de565b5b50919050565b60008190508160005260206000209050919050565b600081546139618161390d565b61396b8186613872565b945060018216600081146139865760018114613997576139ca565b60ff198316865281860193506139ca565b6139a08561393f565b60005b838110156139c2578154818901526001820191506020810190506139a3565b838801955050505b50505092915050565b60006139df8284613954565b915081905092915050565b7f4f66666572206973206e6f74204f6e0000000000000000000000000000000000600082015250565b6000613a20600f83613377565b9150613a2b826139ea565b602082019050919050565b60006020820190508181036000830152613a4f81613a13565b9050919050565b6000613a618261302b565b9150613a6c8361302b565b9250827fffffffffffffffffffffffffffffffffffffffffffffffffffffffffffffffff03821115613aa157613aa0613755565b5b828201905092915050565b7f426f72726f776572206973206e6f74204c697175696461746564000000000000600082015250565b6000613ae2601a83613377565b9150613aed82613aac565b602082019050919050565b60006020820190508181036000830152613b1181613ad5565b9050919050565b6000604082019050613b2d600083018561334e565b613b3a602083018461335d565b9392505050565b613b4a81612f97565b8114613b5557600080fd5b50565b600081519050613b6781613b41565b92915050565b600060208284031215613b8357613b82612f08565b5b6000613b9184828501613b58565b91505092915050565b7f4c69717569646174656400000000000000000000000000000000000000000000600082015250565b6000613bd0600a83613377565b9150613bdb82613b9a565b602082019050919050565b6000604082019050613bfb600083018461335d565b8181036020830152613c0c81613bc3565b905092915050565b7f43616e206e6f742061636365707420796f7572206f776e204f66666572000000600082015250565b6000613c4a601d83613377565b9150613c5582613c14565b602082019050919050565b60006020820190508181036000830152613c7981613c3d565b9050919050565b7f4f70656e00000000000000000000000000000000000000000000000000000000600082015250565b6000613cb6600483613872565b9150613cc182613c80565b600482019050919050565b6000613cd782613ca9565b9150819050919050565b7f4f66666572206973206e6f74204f70656e000000000000000000000000000000600082015250565b6000613d17601183613377565b9150613d2282613ce1565b602082019050919050565b60006020820190508181036000830152613d4681613d0a565b9050919050565b7f4e6f7420656e6f75676820636f6c6c61746572616c20746f20626f72726f772060008201527f666f72206d6f7265207468616e20616e20686f75720000000000000000000000602082015250565b6000613da9603583613377565b9150613db482613d4d565b604082019050919050565b60006020820190508181036000830152613dd881613d9c565b9050919050565b6000602082019050613df4600083018461334e565b92915050565b600081519050613e0981613035565b92915050565b600060208284031215613e2557613e24612f08565b5b6000613e3384828501613dfa565b91505092915050565b7f4e6f7420656e6f7567682062616c616e636520746f207061792074686520636f60008201527f6c6c61746572616c000000000000000000000000000000000000000000000000602082015250565b6000613e98602883613377565b9150613ea382613e3c565b604082019050919050565b60006020820190508181036000830152613ec781613e8b565b9050919050565b6000606082019050613ee3600083018661334e565b613ef0602083018561334e565b613efd604083018461335d565b949350505050565b6000613f12600283613377565b9150613f1d8261387d565b602082019050919050565b6000604082019050613f3d600083018461335d565b8181036020830152613f4e81613f05565b905092915050565b7f4f6e6c7920626f72726f7765722063616e2061646420636f6c6c61746572616c600082015250565b6000613f8c602083613377565b9150613f9782613f56565b602082019050919050565b60006020820190508181036000830152613fbb81613f7f565b9050919050565b7f426f72726f77657220646f6573206e6f74206861766520656e6f75676820746f60008201527f207061792074686520657874726120636f6c6c61746572616c00000000000000602082015250565b600061401e603983613377565b915061402982613fc2565b604082019050919050565b6000602082019050818103600083015261404d81614011565b9050919050565b7f4f6e6c7920626f72726f7765722063616e20726570617920746865204f66666560008201527f7200000000000000000000000000000000000000000000000000000000000000602082015250565b60006140b0602183613377565b91506140bb82614054565b604082019050919050565b600060208201905081810360008301526140df816140a3565b9050919050565b6000815190506140f581612fff565b92915050565b60006020828403121561411157614110612f08565b5b600061411f848285016140e6565b91505092915050565b7f426f72726f776572206973206e6f74206f776e6572206f6620746865204e4654600082015250565b600061415e602083613377565b915061416982614128565b602082019050919050565b6000602082019050818103600083015261418d81614151565b9050919050565b7f50726f746f636f6c20646f6573206e6f74206861766520656e6f75676820746f60008201527f207061792074686520636f6c6c61746572616c00000000000000000000000000602082015250565b60006141f0603383613377565b91506141fb82614194565b604082019050919050565b6000602082019050818103600083015261421f816141e3565b9050919050565b7f4163636570742074696d65203d20300000000000000000000000000000000000600082015250565b600061425c600f83613377565b915061426782614226565b602082019050919050565b6000602082019050818103600083015261428b8161424f565b9050919050565b7f426f72726f7765722063616e206265204c697175696461746564000000000000600082015250565b60006142c8601a83613377565b91506142d382614292565b602082019050919050565b600060208201905081810360008301526142f7816142bb565b9050919050565b600061430b600483613377565b915061431682613c80565b602082019050919050565b6000604082019050614336600083018461335d565b8181036020830152614347816142fe565b905092915050565b7f4e6f7420746865206f776e6572206f6620746865204e46540000000000000000600082015250565b6000614385601883613377565b91506143908261434f565b602082019050919050565b600060208201905081810360008301526143b481614378565b9050919050565b7f4e6f7420746865206f776e6572206f6620746865204f66666572000000000000600082015250565b60006143f1601a83613377565b91506143fc826143bb565b602082019050919050565b60006020820190508181036000830152614420816143e4565b9050919050565b7f5468652050726f746f636f6c20646f6573206e6f74206861766520746865204e60008201527f4654000000000000000000000000000000000000000000000000000000000000602082015250565b6000614483602283613377565b915061448e82614427565b604082019050919050565b600060208201905081810360008301526144b281614476565b9050919050565b7f43616e63656c6c65640000000000000000000000000000000000000000000000600082015250565b60006144ef600983613377565b91506144fa826144b9565b602082019050919050565b600060408201905061451a600083018461335d565b818103602083015261452b816144e2565b905092915050565b7f416363657373436f6e74726f6c3a206163636f756e7420000000000000000000600082015250565b6000614569601783613872565b915061457482614533565b601782019050919050565b600061458a8261336c565b6145948185613872565b93506145a4818560208601613388565b80840191505092915050565b7f206973206d697373696e6720726f6c6520000000000000000000000000000000600082015250565b60006145e6601183613872565b91506145f1826145b0565b601182019050919050565b60006146078261455c565b9150614613828561457f565b915061461e826145d9565b915061462a828461457f565b91508190509392505050565b6000602082019050818103600083015261465081846133bb565b905092915050565b7f4e487b7100000000000000000000000000000000000000000000000000000000600052603260045260246000fd5b60006146928261302b565b915060008214156146a6576146a5613755565b5b600182039050919050565b7f537472696e67733a20686578206c656e67746820696e73756666696369656e74600082015250565b60006146e7602083613377565b91506146f2826146b1565b602082019050919050565b60006020820190508181036000830152614716816146da565b905091905056fea26469706673582212203b545afc43789f7b30fe855e6b6f737647a22ab413ee8123609af946732d40c364736f6c634300080c0033",
  "immutableReferences": {},
  "source": "// SPDX-License-Identifier: UNLICENSED\r\n\r\npragma solidity ^0.8.3;\r\n\r\nimport \"../node_modules/@openzeppelin/contracts/utils/Counters.sol\";\r\nimport \"../node_modules/@openzeppelin/contracts/token/ERC20/IERC20.sol\";\r\nimport \"../node_modules/@openzeppelin/contracts/token/ERC721/IERC721.sol\";\r\n\r\nimport \"../node_modules/@openzeppelin/contracts/token/ERC721/utils/ERC721Holder.sol\";\r\nimport \"../node_modules/@openzeppelin/contracts/security/ReentrancyGuard.sol\";\r\nimport \"../node_modules/@openzeppelin/contracts/access/AccessControl.sol\";\r\n\r\n\r\n/**\r\n * @title ERC721Lending\r\n * @notice ERC721 Lending plataform where users that provide the ERC721 token\r\n * set a liquidation limit and fee, and users that borrow the ERC721 token\r\n * set how much collateral they add to the transaction\r\n */\r\ncontract ERC721Lending is ERC721Holder, ReentrancyGuard, AccessControl {\r\n\r\n    event OfferStatusChange(uint256 offerId, string status);\r\n\r\n    struct Offer {\r\n        address owner;\r\n        address nft;\r\n        uint256 nftId;\r\n        uint256 liquidation;\r\n        uint256 dailyFee;\r\n        address borrower;\r\n        uint256 collateral;\r\n        uint256 acceptTime;\r\n        string status; // Open, On, Cancelled, Liquidated\r\n    }\r\n\r\n    mapping(uint256 => Offer) offers;\r\n    mapping(address => uint256[]) addressToOffers;\r\n\r\n    using Counters for Counters.Counter;\r\n    Counters.Counter private offerCounter;\r\n\r\n    address PayoutAddress;\r\n    IERC20 token;\r\n    uint Fee;\r\n    uint LiquidationFee;\r\n\r\n    constructor(address Payout, address TokenAddress) {\r\n        PayoutAddress = Payout;\r\n        token = IERC20(TokenAddress);\r\n        Fee = 4;\r\n        LiquidationFee = 10;\r\n        _setupRole(DEFAULT_ADMIN_ROLE, msg.sender);\r\n    }\r\n\r\n    /**\r\n     * @dev Returns the details for a offer.\r\n     * @param offerId The id of the offer.\r\n     */\r\n    function getOffer(uint256 offerId) external view returns (address, address, uint256, uint256, uint256, address, uint256, uint256, string memory) {\r\n        Offer memory offer = offers[offerId];\r\n        return (offer.owner, offer.nft, offer.nftId, offer.liquidation, offer.dailyFee, offer.borrower, offer.collateral, offer.acceptTime, offer.status);\r\n    }\r\n\r\n    /**\r\n     * @dev Returns all offers of an address.\r\n     * @param addr the address to lookup.\r\n     */\r\n    function getOffersOfAddress(address addr) external view returns (uint256[] memory) {\r\n        return addressToOffers[addr];\r\n    }\r\n\r\n    /**\r\n     * @dev Returns the number of offers made.\r\n     */\r\n    function getOfferQuantities() external view returns (uint256) {\r\n        return offerCounter.current();\r\n    }\r\n\r\n    /**\r\n     * @dev Opens a new Offer, and sends the nft to an escrow.\r\n     * @param nftId id of the nft to offer.\r\n     * @param nftAddress address of the nft to offer.\r\n     * @param liquidation if the amount of liquidation+accumulatedFee is bigger than the collateral, the borrower is liquidated.\r\n     * @param fee fee amount that accumulates every 24 hours.\r\n     */\r\n    function createOffer(uint256 nftId, address nftAddress, uint256 liquidation, uint256 fee) external nonReentrant() {\r\n        require(IERC721(nftAddress).ownerOf(nftId) == msg.sender, \"Not the owner of the NFT\");\r\n        IERC721(nftAddress).safeTransferFrom(msg.sender, address(this), nftId);\r\n\r\n        offerCounter.increment();\r\n        offers[offerCounter.current()] = Offer(msg.sender, nftAddress, nftId, liquidation, fee, address(0), 0, 0, \"Open\");\r\n        addressToOffers[msg.sender].push(offerCounter.current());\r\n        emit OfferStatusChange(offerCounter.current(), \"Open\");\r\n    }\r\n\r\n    /**\r\n     * @dev Cancels open offer and returns the nft to the owner.\r\n     * @param offerId the id of the offer.\r\n     */\r\n    function cancelOffer(uint256 offerId) external nonReentrant() {\r\n        require(offers[offerId].owner == msg.sender, \"Not the owner of the Offer\");\r\n        require(IERC721(offers[offerId].nft).ownerOf(offers[offerId].nftId) == address(this), \"The Protocol does not have the NFT\");\r\n        require(keccak256(abi.encodePacked(offers[offerId].status)) == keccak256(abi.encodePacked(\"Open\")), \"Offer is not Open\");\r\n\r\n        offers[offerId].status = \"Cancelled\";\r\n        IERC721(offers[offerId].nft).safeTransferFrom(address(this), msg.sender, offers[offerId].nftId);\r\n        emit OfferStatusChange(offerId, \"Cancelled\");\r\n    }\r\n\r\n    /**\r\n     * @dev Accepts an Open offer, escrows the collateral on the contract and sends the nft to the borrower.\r\n     * @param offerId the id of the offer.\r\n     * @param collateral how much collateral the borrowers wants to add to the offer.\r\n     */\r\n    function acceptOffer(uint256 offerId, uint256 collateral) external nonReentrant() {\r\n        require(offers[offerId].owner != msg.sender, \"Can not accept your own Offer\");\r\n        require(keccak256(abi.encodePacked(offers[offerId].status)) == keccak256(abi.encodePacked(\"Open\")), \"Offer is not Open\");\r\n        uint256 minimumFee = offers[offerId].dailyFee/24;\r\n        require(collateral > offers[offerId].liquidation + minimumFee, \"Not enough collateral to borrow for more than an hour\");\r\n        require(token.balanceOf(msg.sender) >= collateral, \"Not enough balance to pay the collateral\");\r\n\r\n        offers[offerId].status = \"On\";\r\n        offers[offerId].borrower = msg.sender;\r\n        offers[offerId].collateral = collateral;\r\n        offers[offerId].acceptTime = block.timestamp;\r\n        token.transferFrom(msg.sender, address(this), collateral);\r\n        IERC721(offers[offerId].nft).safeTransferFrom(address(this), msg.sender, offers[offerId].nftId);\r\n        emit OfferStatusChange(offerId, \"On\");\r\n    }\r\n\r\n    /**\r\n     * @dev checks if borrower is liquidated or not, then transfers the nft to the contract, \r\n     * pays the lender, pays the protocol and finally returns the rest of the collateral to the borrower\r\n     * @param offerId the id of the offer.\r\n     */\r\n    function repayOffer(uint256 offerId) external nonReentrant() {\r\n        require(offers[offerId].borrower == msg.sender, \"Only borrower can repay the Offer\");\r\n        require(keccak256(abi.encodePacked(offers[offerId].status)) == keccak256(abi.encodePacked(\"On\")), \"Offer is not On\");\r\n        require(IERC721(offers[offerId].nft).ownerOf(offers[offerId].nftId) == msg.sender, \"Borrower is not owner of the NFT\");\r\n        require(token.balanceOf(address(this)) >= offers[offerId].collateral, \"Protocol does not have enough to pay the collateral\");\r\n        require(offers[offerId].acceptTime != 0, \"Accept time = 0\");\r\n        uint256 feeToPay;\r\n        //minimum Fee is at least 1 hour\r\n        if ((block.timestamp - offers[offerId].acceptTime) < 60*60) {\r\n            feeToPay = offers[offerId].dailyFee/24;\r\n        } else {\r\n            feeToPay = ((block.timestamp - offers[offerId].acceptTime)/(60*60*24))*offers[offerId].dailyFee;\r\n        }\r\n        // User is not liquidated\r\n        require(offers[offerId].collateral > (feeToPay + offers[offerId].liquidation), \"Borrower can be Liquidated\");\r\n\r\n        IERC721(offers[offerId].nft).safeTransferFrom(msg.sender, address(this), offers[offerId].nftId);\r\n        token.transfer(offers[offerId].owner, feeToPay*(100-Fee)/100);\r\n        token.transfer(PayoutAddress, feeToPay*Fee/100);\r\n        token.transfer(msg.sender, (offers[offerId].collateral - feeToPay));\r\n\r\n        offers[offerId].borrower = address(0);\r\n        offers[offerId].collateral = 0;\r\n        offers[offerId].acceptTime = 0;\r\n        offers[offerId].status = \"Open\";\r\n        emit OfferStatusChange(offerId, \"Open\");\r\n    }\r\n\r\n    /**\r\n     * @dev Adds extra collateral to the position of the borrower.\r\n     * @param offerId the id of the offer.\r\n     * @param extraCollateral how much extra collateral the borrowers wants to add to the offer.\r\n     */\r\n    function addCollateral(uint256 offerId, uint256 extraCollateral) external nonReentrant() {\r\n        require(offers[offerId].borrower == msg.sender, \"Only borrower can add collateral\");\r\n        require(keccak256(abi.encodePacked(offers[offerId].status)) == keccak256(abi.encodePacked(\"On\")), \"Offer is not On\");\r\n        require(token.balanceOf(offers[offerId].borrower) >= extraCollateral, \"Borrower does not have enough to pay the extra collateral\");\r\n\r\n        offers[offerId].collateral = offers[offerId].collateral + extraCollateral;\r\n        token.transferFrom(msg.sender, address(this), extraCollateral);\r\n    }\r\n\r\n    /**\r\n     * @dev Liquidates the borrower if he owns more than he has collateral.\r\n     * @param offerId the id of the offer.\r\n     */\r\n    function liquidate(uint256 offerId) external nonReentrant() {\r\n        uint256 feeToPay = ((block.timestamp - offers[offerId].acceptTime)/(60*60*24))*offers[offerId].dailyFee;\r\n        require(keccak256(abi.encodePacked(offers[offerId].status)) == keccak256(abi.encodePacked(\"On\")), \"Offer is not On\");\r\n        require(offers[offerId].collateral < (feeToPay + offers[offerId].liquidation), \"Borrower is not Liquidated\");\r\n\r\n        offers[offerId].status = \"Liquidated\";\r\n        token.transfer(offers[offerId].owner, offers[offerId].collateral*(100-LiquidationFee)/100);\r\n        token.transfer(PayoutAddress, offers[offerId].collateral*LiquidationFee/100);\r\n        emit OfferStatusChange(offerId, \"Liquidated\");\r\n    }\r\n\r\n    /**\r\n     * @dev Changes account to send payout.\r\n     * @param newPayout new address to send payout.\r\n     */\r\n    function transferPayoutAddress(address newPayout) external onlyRole(DEFAULT_ADMIN_ROLE) {\r\n        PayoutAddress = newPayout;\r\n    }\r\n\r\n    /**\r\n     * @dev Changes the fee \r\n     * @param newFee new fee.\r\n     */\r\n    function changeFee(uint256 newFee) external onlyRole(DEFAULT_ADMIN_ROLE) {\r\n        Fee = newFee;\r\n    }\r\n\r\n    /**\r\n     * @dev Changes the liquidation fee\r\n     * @param newLiquidationFee new liquidation fee.\r\n     */\r\n    function changeLiquidationFee(uint256 newLiquidationFee) external onlyRole(DEFAULT_ADMIN_ROLE) {\r\n        LiquidationFee = newLiquidationFee;\r\n    }\r\n\r\n}",
  "sourcePath": "C:\\Users\\jtsch\\OneDrive\\Escritorio\\DFK-Lending\\DFK-Lending-SmartContracts\\contracts\\ERC721Lending.sol",
  "compiler": {
    "name": "solc",
    "version": "0.8.12+commit.f00d7308.Emscripten.clang"
  },
  "schemaVersion": "3.4.3",
  "updatedAt": "2022-02-20T16:27:41.451Z",
  "networkType": "ethereum",
  "devdoc": {
    "kind": "dev",
    "methods": {
      "acceptOffer(uint256,uint256)": {
        "details": "Accepts an Open offer, escrows the collateral on the contract and sends the nft to the borrower.",
        "params": {
          "collateral": "how much collateral the borrowers wants to add to the offer.",
          "offerId": "the id of the offer."
        }
      },
      "addCollateral(uint256,uint256)": {
        "details": "Adds extra collateral to the position of the borrower.",
        "params": {
          "extraCollateral": "how much extra collateral the borrowers wants to add to the offer.",
          "offerId": "the id of the offer."
        }
      },
      "cancelOffer(uint256)": {
        "details": "Cancels open offer and returns the nft to the owner.",
        "params": {
          "offerId": "the id of the offer."
        }
      },
      "changeFee(uint256)": {
        "details": "Changes the fee ",
        "params": {
          "newFee": "new fee."
        }
      },
      "changeLiquidationFee(uint256)": {
        "details": "Changes the liquidation fee",
        "params": {
          "newLiquidationFee": "new liquidation fee."
        }
      },
      "createOffer(uint256,address,uint256,uint256)": {
        "details": "Opens a new Offer, and sends the nft to an escrow.",
        "params": {
          "fee": "fee amount that accumulates every 24 hours.",
          "liquidation": "if the amount of liquidation+accumulatedFee is bigger than the collateral, the borrower is liquidated.",
          "nftAddress": "address of the nft to offer.",
          "nftId": "id of the nft to offer."
        }
      },
      "getOffer(uint256)": {
        "details": "Returns the details for a offer.",
        "params": {
          "offerId": "The id of the offer."
        }
      },
      "getOfferQuantities()": {
        "details": "Returns the number of offers made."
      },
      "getOffersOfAddress(address)": {
        "details": "Returns all offers of an address.",
        "params": {
          "addr": "the address to lookup."
        }
      },
      "getRoleAdmin(bytes32)": {
        "details": "Returns the admin role that controls `role`. See {grantRole} and {revokeRole}. To change a role's admin, use {_setRoleAdmin}."
      },
      "grantRole(bytes32,address)": {
        "details": "Grants `role` to `account`. If `account` had not been already granted `role`, emits a {RoleGranted} event. Requirements: - the caller must have ``role``'s admin role."
      },
      "hasRole(bytes32,address)": {
        "details": "Returns `true` if `account` has been granted `role`."
      },
      "liquidate(uint256)": {
        "details": "Liquidates the borrower if he owns more than he has collateral.",
        "params": {
          "offerId": "the id of the offer."
        }
      },
      "onERC721Received(address,address,uint256,bytes)": {
        "details": "See {IERC721Receiver-onERC721Received}. Always returns `IERC721Receiver.onERC721Received.selector`."
      },
      "renounceRole(bytes32,address)": {
        "details": "Revokes `role` from the calling account. Roles are often managed via {grantRole} and {revokeRole}: this function's purpose is to provide a mechanism for accounts to lose their privileges if they are compromised (such as when a trusted device is misplaced). If the calling account had been revoked `role`, emits a {RoleRevoked} event. Requirements: - the caller must be `account`."
      },
      "repayOffer(uint256)": {
        "details": "checks if borrower is liquidated or not, then transfers the nft to the contract,  pays the lender, pays the protocol and finally returns the rest of the collateral to the borrower",
        "params": {
          "offerId": "the id of the offer."
        }
      },
      "revokeRole(bytes32,address)": {
        "details": "Revokes `role` from `account`. If `account` had been granted `role`, emits a {RoleRevoked} event. Requirements: - the caller must have ``role``'s admin role."
      },
      "supportsInterface(bytes4)": {
        "details": "See {IERC165-supportsInterface}."
      },
      "transferPayoutAddress(address)": {
        "details": "Changes account to send payout.",
        "params": {
          "newPayout": "new address to send payout."
        }
      }
    },
    "title": "ERC721Lending",
    "version": 1
  },
  "userdoc": {
    "kind": "user",
    "methods": {},
    "notice": "ERC721 Lending plataform where users that provide the ERC721 token set a liquidation limit and fee, and users that borrow the ERC721 token set how much collateral they add to the transaction",
    "version": 1
  }
}