{
  "contractName": "ERC721LendingETH",
  "abi": [
    {
      "inputs": [
        {
          "internalType": "address payable",
          "name": "Payout",
          "type": "address"
        },
        {
          "internalType": "address",
          "name": "BaseERC721Address",
          "type": "address"
        }
      ],
      "stateMutability": "nonpayable",
      "type": "constructor"
    },
    {
      "anonymous": false,
      "inputs": [
        {
          "indexed": false,
          "internalType": "uint256",
          "name": "offerId",
          "type": "uint256"
        },
        {
          "indexed": false,
          "internalType": "string",
          "name": "status",
          "type": "string"
        }
      ],
      "name": "OfferStatusChange",
      "type": "event"
    },
    {
      "anonymous": false,
      "inputs": [
        {
          "indexed": true,
          "internalType": "bytes32",
          "name": "role",
          "type": "bytes32"
        },
        {
          "indexed": true,
          "internalType": "bytes32",
          "name": "previousAdminRole",
          "type": "bytes32"
        },
        {
          "indexed": true,
          "internalType": "bytes32",
          "name": "newAdminRole",
          "type": "bytes32"
        }
      ],
      "name": "RoleAdminChanged",
      "type": "event"
    },
    {
      "anonymous": false,
      "inputs": [
        {
          "indexed": true,
          "internalType": "bytes32",
          "name": "role",
          "type": "bytes32"
        },
        {
          "indexed": true,
          "internalType": "address",
          "name": "account",
          "type": "address"
        },
        {
          "indexed": true,
          "internalType": "address",
          "name": "sender",
          "type": "address"
        }
      ],
      "name": "RoleGranted",
      "type": "event"
    },
    {
      "anonymous": false,
      "inputs": [
        {
          "indexed": true,
          "internalType": "bytes32",
          "name": "role",
          "type": "bytes32"
        },
        {
          "indexed": true,
          "internalType": "address",
          "name": "account",
          "type": "address"
        },
        {
          "indexed": true,
          "internalType": "address",
          "name": "sender",
          "type": "address"
        }
      ],
      "name": "RoleRevoked",
      "type": "event"
    },
    {
      "inputs": [],
      "name": "DEFAULT_ADMIN_ROLE",
      "outputs": [
        {
          "internalType": "bytes32",
          "name": "",
          "type": "bytes32"
        }
      ],
      "stateMutability": "view",
      "type": "function"
    },
    {
      "inputs": [
        {
          "internalType": "bytes32",
          "name": "role",
          "type": "bytes32"
        }
      ],
      "name": "getRoleAdmin",
      "outputs": [
        {
          "internalType": "bytes32",
          "name": "",
          "type": "bytes32"
        }
      ],
      "stateMutability": "view",
      "type": "function"
    },
    {
      "inputs": [
        {
          "internalType": "bytes32",
          "name": "role",
          "type": "bytes32"
        },
        {
          "internalType": "address",
          "name": "account",
          "type": "address"
        }
      ],
      "name": "grantRole",
      "outputs": [],
      "stateMutability": "nonpayable",
      "type": "function"
    },
    {
      "inputs": [
        {
          "internalType": "bytes32",
          "name": "role",
          "type": "bytes32"
        },
        {
          "internalType": "address",
          "name": "account",
          "type": "address"
        }
      ],
      "name": "hasRole",
      "outputs": [
        {
          "internalType": "bool",
          "name": "",
          "type": "bool"
        }
      ],
      "stateMutability": "view",
      "type": "function"
    },
    {
      "inputs": [
        {
          "internalType": "address",
          "name": "",
          "type": "address"
        },
        {
          "internalType": "address",
          "name": "",
          "type": "address"
        },
        {
          "internalType": "uint256",
          "name": "",
          "type": "uint256"
        },
        {
          "internalType": "bytes",
          "name": "",
          "type": "bytes"
        }
      ],
      "name": "onERC721Received",
      "outputs": [
        {
          "internalType": "bytes4",
          "name": "",
          "type": "bytes4"
        }
      ],
      "stateMutability": "nonpayable",
      "type": "function"
    },
    {
      "inputs": [
        {
          "internalType": "bytes32",
          "name": "role",
          "type": "bytes32"
        },
        {
          "internalType": "address",
          "name": "account",
          "type": "address"
        }
      ],
      "name": "renounceRole",
      "outputs": [],
      "stateMutability": "nonpayable",
      "type": "function"
    },
    {
      "inputs": [
        {
          "internalType": "bytes32",
          "name": "role",
          "type": "bytes32"
        },
        {
          "internalType": "address",
          "name": "account",
          "type": "address"
        }
      ],
      "name": "revokeRole",
      "outputs": [],
      "stateMutability": "nonpayable",
      "type": "function"
    },
    {
      "inputs": [
        {
          "internalType": "bytes4",
          "name": "interfaceId",
          "type": "bytes4"
        }
      ],
      "name": "supportsInterface",
      "outputs": [
        {
          "internalType": "bool",
          "name": "",
          "type": "bool"
        }
      ],
      "stateMutability": "view",
      "type": "function"
    },
    {
      "inputs": [
        {
          "internalType": "uint256",
          "name": "offerId",
          "type": "uint256"
        }
      ],
      "name": "getOffer",
      "outputs": [
        {
          "internalType": "address",
          "name": "",
          "type": "address"
        },
        {
          "internalType": "address",
          "name": "",
          "type": "address"
        },
        {
          "internalType": "uint256",
          "name": "",
          "type": "uint256"
        },
        {
          "internalType": "uint256",
          "name": "",
          "type": "uint256"
        },
        {
          "internalType": "uint256",
          "name": "",
          "type": "uint256"
        },
        {
          "internalType": "address",
          "name": "",
          "type": "address"
        },
        {
          "internalType": "uint256",
          "name": "",
          "type": "uint256"
        },
        {
          "internalType": "uint256",
          "name": "",
          "type": "uint256"
        },
        {
          "internalType": "string",
          "name": "",
          "type": "string"
        }
      ],
      "stateMutability": "view",
      "type": "function"
    },
    {
      "inputs": [
        {
          "internalType": "address",
          "name": "addr",
          "type": "address"
        }
      ],
      "name": "getOffersOfAddress",
      "outputs": [
        {
          "internalType": "uint256[]",
          "name": "",
          "type": "uint256[]"
        }
      ],
      "stateMutability": "view",
      "type": "function"
    },
    {
      "inputs": [],
      "name": "getOfferQuantities",
      "outputs": [
        {
          "internalType": "uint256",
          "name": "",
          "type": "uint256"
        }
      ],
      "stateMutability": "view",
      "type": "function"
    },
    {
      "inputs": [],
      "name": "getBalance",
      "outputs": [
        {
          "internalType": "uint256",
          "name": "",
          "type": "uint256"
        }
      ],
      "stateMutability": "view",
      "type": "function"
    },
    {
      "inputs": [
        {
          "internalType": "uint256",
          "name": "offerId",
          "type": "uint256"
        }
      ],
      "name": "feeToPay",
      "outputs": [
        {
          "internalType": "uint256",
          "name": "",
          "type": "uint256"
        }
      ],
      "stateMutability": "view",
      "type": "function"
    },
    {
      "inputs": [
        {
          "internalType": "uint256",
          "name": "nftId",
          "type": "uint256"
        },
        {
          "internalType": "address",
          "name": "nftAddress",
          "type": "address"
        },
        {
          "internalType": "uint256",
          "name": "liquidation",
          "type": "uint256"
        },
        {
          "internalType": "uint256",
          "name": "fee",
          "type": "uint256"
        }
      ],
      "name": "createOffer",
      "outputs": [],
      "stateMutability": "nonpayable",
      "type": "function"
    },
    {
      "inputs": [
        {
          "internalType": "uint256",
          "name": "offerId",
          "type": "uint256"
        }
      ],
      "name": "cancelOffer",
      "outputs": [],
      "stateMutability": "nonpayable",
      "type": "function"
    },
    {
      "inputs": [
        {
          "internalType": "uint256",
          "name": "offerId",
          "type": "uint256"
        }
      ],
      "name": "acceptOffer",
      "outputs": [],
      "stateMutability": "payable",
      "type": "function"
    },
    {
      "inputs": [
        {
          "internalType": "uint256",
          "name": "offerId",
          "type": "uint256"
        }
      ],
      "name": "repayOffer",
      "outputs": [],
      "stateMutability": "nonpayable",
      "type": "function"
    },
    {
      "inputs": [
        {
          "internalType": "uint256",
          "name": "offerId",
          "type": "uint256"
        }
      ],
      "name": "addCollateral",
      "outputs": [],
      "stateMutability": "payable",
      "type": "function"
    },
    {
      "inputs": [
        {
          "internalType": "uint256",
          "name": "offerId",
          "type": "uint256"
        }
      ],
      "name": "liquidate",
      "outputs": [],
      "stateMutability": "nonpayable",
      "type": "function"
    },
    {
      "inputs": [
        {
          "internalType": "address payable",
          "name": "newPayout",
          "type": "address"
        }
      ],
      "name": "transferPayoutAddress",
      "outputs": [],
      "stateMutability": "nonpayable",
      "type": "function"
    },
    {
      "inputs": [
        {
          "internalType": "uint256",
          "name": "newFee",
          "type": "uint256"
        }
      ],
      "name": "changeFee",
      "outputs": [],
      "stateMutability": "nonpayable",
      "type": "function"
    },
    {
      "inputs": [
        {
          "internalType": "uint256",
          "name": "newLiquidationFee",
          "type": "uint256"
        }
      ],
      "name": "changeLiquidationFee",
      "outputs": [],
      "stateMutability": "nonpayable",
      "type": "function"
    },
    {
      "inputs": [
        {
          "internalType": "address",
          "name": "_contract",
          "type": "address"
        }
      ],
      "name": "addContract",
      "outputs": [],
      "stateMutability": "nonpayable",
      "type": "function"
    },
    {
      "inputs": [
        {
          "internalType": "address",
          "name": "_contract",
          "type": "address"
        }
      ],
      "name": "removeContract",
      "outputs": [],
      "stateMutability": "nonpayable",
      "type": "function"
    }
  ],
  "bytecode": "0x60806040523480156200001157600080fd5b50604051620048af380380620048af83398181016040528101906200003791906200032e565b600160008190555081600660006101000a81548173ffffffffffffffffffffffffffffffffffffffff021916908373ffffffffffffffffffffffffffffffffffffffff1602179055506004600781905550600a6008819055506001600460008373ffffffffffffffffffffffffffffffffffffffff1673ffffffffffffffffffffffffffffffffffffffff16815260200190815260200160002060006101000a81548160ff021916908315150217905550620000fd6000801b336200010560201b60201c565b505062000375565b6200011782826200011b60201b60201c565b5050565b6200012d82826200020c60201b60201c565b6200020857600180600084815260200190815260200160002060000160008373ffffffffffffffffffffffffffffffffffffffff1673ffffffffffffffffffffffffffffffffffffffff16815260200190815260200160002060006101000a81548160ff021916908315150217905550620001ad6200027760201b60201c565b73ffffffffffffffffffffffffffffffffffffffff168173ffffffffffffffffffffffffffffffffffffffff16837f2f8788117e7eff1d82e926ec794901d17c78024a50270940304540a733656f0d60405160405180910390a45b5050565b60006001600084815260200190815260200160002060000160008373ffffffffffffffffffffffffffffffffffffffff1673ffffffffffffffffffffffffffffffffffffffff16815260200190815260200160002060009054906101000a900460ff16905092915050565b600033905090565b600080fd5b600073ffffffffffffffffffffffffffffffffffffffff82169050919050565b6000620002b18262000284565b9050919050565b620002c381620002a4565b8114620002cf57600080fd5b50565b600081519050620002e381620002b8565b92915050565b6000620002f68262000284565b9050919050565b6200030881620002e9565b81146200031457600080fd5b50565b6000815190506200032881620002fd565b92915050565b600080604083850312156200034857620003476200027f565b5b60006200035885828601620002d2565b92505060206200036b8582860162000317565b9150509250929050565b61452a80620003856000396000f3fe60806040526004361061014b5760003560e01c80638486014d116100b6578063c375c2ef1161006f578063c375c2ef146104bf578063c815729d146104e8578063d547741f14610504578063e121e6e51461052d578063ee1733e314610556578063ef706adf1461057f5761014b565b80638486014d146103aa57806391d14854146103d5578063a217fddf14610412578063a362edc61461043d578063ae699e2e1461047a578063bcc46e83146104a35761014b565b8063415f124011610108578063415f1240146102845780634579268a146102ad5780634d6bbf10146102f25780635f539d691461031b5780636a1db1bf14610344578063755505a01461036d5761014b565b806301ffc9a71461015057806312065fe01461018d578063150b7a02146101b8578063248a9ca3146101f55780632f2ff15d1461023257806336568abe1461025b575b600080fd5b34801561015c57600080fd5b5061017760048036038101906101729190612e67565b6105a8565b6040516101849190612eaf565b60405180910390f35b34801561019957600080fd5b506101a2610622565b6040516101af9190612ee3565b60405180910390f35b3480156101c457600080fd5b506101df60048036038101906101da91906130ce565b61062a565b6040516101ec9190613160565b60405180910390f35b34801561020157600080fd5b5061021c600480360381019061021791906131b1565b61063e565b60405161022991906131ed565b60405180910390f35b34801561023e57600080fd5b5061025960048036038101906102549190613208565b61065e565b005b34801561026757600080fd5b50610282600480360381019061027d9190613208565b610687565b005b34801561029057600080fd5b506102ab60048036038101906102a69190613248565b61070a565b005b3480156102b957600080fd5b506102d460048036038101906102cf9190613248565b610b44565b6040516102e99998979695949392919061330c565b60405180910390f35b3480156102fe57600080fd5b5061031960048036038101906103149190613248565b610d89565b005b34801561032757600080fd5b50610342600480360381019061033d91906133a0565b610da9565b005b34801561035057600080fd5b5061036b60048036038101906103669190613248565b610e1a565b005b34801561037957600080fd5b50610394600480360381019061038f9190613248565b610e3a565b6040516103a19190612ee3565b60405180910390f35b3480156103b657600080fd5b506103bf610eb4565b6040516103cc9190612ee3565b60405180910390f35b3480156103e157600080fd5b506103fc60048036038101906103f79190613208565b610ec5565b6040516104099190612eaf565b60405180910390f35b34801561041e57600080fd5b50610427610f30565b60405161043491906131ed565b60405180910390f35b34801561044957600080fd5b50610464600480360381019061045f91906133a0565b610f37565b604051610471919061348b565b60405180910390f35b34801561048657600080fd5b506104a1600480360381019061049c91906134eb565b610fce565b005b6104bd60048036038101906104b89190613248565b611028565b005b3480156104cb57600080fd5b506104e660048036038101906104e191906133a0565b611202565b005b61050260048036038101906104fd9190613248565b611273565b005b34801561051057600080fd5b5061052b60048036038101906105269190613208565b61166e565b005b34801561053957600080fd5b50610554600480360381019061054f9190613248565b611697565b005b34801561056257600080fd5b5061057d60048036038101906105789190613518565b611f4a565b005b34801561058b57600080fd5b506105a660048036038101906105a19190613248565b612404565b005b60007f7965db0b000000000000000000000000000000000000000000000000000000007bffffffffffffffffffffffffffffffffffffffffffffffffffffffff1916827bffffffffffffffffffffffffffffffffffffffffffffffffffffffff1916148061061b575061061a82612827565b5b9050919050565b600047905090565b600063150b7a0260e01b9050949350505050565b600060016000838152602001908152602001600020600101549050919050565b6106678261063e565b61067881610673612891565b612899565b6106828383612936565b505050565b61068f612891565b73ffffffffffffffffffffffffffffffffffffffff168173ffffffffffffffffffffffffffffffffffffffff16146106fc576040517f08c379a00000000000000000000000000000000000000000000000000000000081526004016106f3906135f1565b60405180910390fd5b6107068282612a16565b5050565b60026000541415610750576040517f08c379a00000000000000000000000000000000000000000000000000000000081526004016107479061365d565b60405180910390fd5b6002600081905550600061076382610e3a565b9050604051602001610774906136d4565b60405160208183030381529060405280519060200120600260008481526020019081526020016000206008016040516020016107b091906137de565b6040516020818303038152906040528051906020012014610806576040517f08c379a00000000000000000000000000000000000000000000000000000000081526004016107fd90613841565b60405180910390fd5b6002600083815260200190815260200160002060030154816108289190613890565b60026000848152602001908152602001600020600601541061087f576040517f08c379a000000000000000000000000000000000000000000000000000000000815260040161087690613932565b60405180910390fd5b6040518060400160405280600a81526020017f4c697175696461746564000000000000000000000000000000000000000000008152506002600084815260200190815260200160002060080190805190602001906108de929190612d58565b506000806002600085815260200190815260200160002060000160009054906101000a900473ffffffffffffffffffffffffffffffffffffffff1673ffffffffffffffffffffffffffffffffffffffff16606460085460646109409190613952565b60026000888152602001908152602001600020600601546109619190613986565b61096b9190613a0f565b60405161097790613a71565b60006040518083038185875af1925050503d80600081146109b4576040519150601f19603f3d011682016040523d82523d6000602084013e6109b9565b606091505b5091509150816109fe576040517f08c379a00000000000000000000000000000000000000000000000000000000081526004016109f590613ad2565b60405180910390fd5b600080600660009054906101000a900473ffffffffffffffffffffffffffffffffffffffff1673ffffffffffffffffffffffffffffffffffffffff166064600854600260008a815260200190815260200160002060060154610a609190613986565b610a6a9190613a0f565b604051610a7690613a71565b60006040518083038185875af1925050503d8060008114610ab3576040519150601f19603f3d011682016040523d82523d6000602084013e610ab8565b606091505b509150915081610afd576040517f08c379a0000000000000000000000000000000000000000000000000000000008152600401610af490613ad2565b60405180910390fd5b7f1ce667ae522f1f380b3262bf7881f17067f07d7f50dc398385709938a9340daf86604051610b2c9190613b3e565b60405180910390a15050505050600160008190555050565b60008060008060008060008060606000600260008c8152602001908152602001600020604051806101200160405290816000820160009054906101000a900473ffffffffffffffffffffffffffffffffffffffff1673ffffffffffffffffffffffffffffffffffffffff1673ffffffffffffffffffffffffffffffffffffffff1681526020016001820160009054906101000a900473ffffffffffffffffffffffffffffffffffffffff1673ffffffffffffffffffffffffffffffffffffffff1673ffffffffffffffffffffffffffffffffffffffff1681526020016002820154815260200160038201548152602001600482015481526020016005820160009054906101000a900473ffffffffffffffffffffffffffffffffffffffff1673ffffffffffffffffffffffffffffffffffffffff1673ffffffffffffffffffffffffffffffffffffffff1681526020016006820154815260200160078201548152602001600882018054610cb790613718565b80601f0160208091040260200160405190810160405280929190818152602001828054610ce390613718565b8015610d305780601f10610d0557610100808354040283529160200191610d30565b820191906000526020600020905b815481529060010190602001808311610d1357829003601f168201915b5050505050815250509050806000015181602001518260400151836060015184608001518560a001518660c001518760e00151886101000151995099509950995099509950995099509950509193959799909294969850565b6000801b610d9e81610d99612891565b612899565b816008819055505050565b6000801b610dbe81610db9612891565b612899565b6001600460008473ffffffffffffffffffffffffffffffffffffffff1673ffffffffffffffffffffffffffffffffffffffff16815260200190815260200160002060006101000a81548160ff0219169083151502179055505050565b6000801b610e2f81610e2a612891565b612899565b816007819055505050565b60006002600083815260200190815260200160002060040154610e10600260008581526020019081526020016000206007015442610e789190613952565b610e829190613a0f565b610e8c9190613986565b6002600084815260200190815260200160002060040154610ead9190613890565b9050919050565b6000610ec06005612af8565b905090565b60006001600084815260200190815260200160002060000160008373ffffffffffffffffffffffffffffffffffffffff1673ffffffffffffffffffffffffffffffffffffffff16815260200190815260200160002060009054906101000a900460ff16905092915050565b6000801b81565b6060600360008373ffffffffffffffffffffffffffffffffffffffff1673ffffffffffffffffffffffffffffffffffffffff168152602001908152602001600020805480602002602001604051908101604052809291908181526020018280548015610fc257602002820191906000526020600020905b815481526020019060010190808311610fae575b50505050509050919050565b6000801b610fe381610fde612891565b612899565b81600660006101000a81548173ffffffffffffffffffffffffffffffffffffffff021916908373ffffffffffffffffffffffffffffffffffffffff1602179055505050565b6002600054141561106e576040517f08c379a00000000000000000000000000000000000000000000000000000000081526004016110659061365d565b60405180910390fd5b60026000819055503373ffffffffffffffffffffffffffffffffffffffff166002600083815260200190815260200160002060050160009054906101000a900473ffffffffffffffffffffffffffffffffffffffff1673ffffffffffffffffffffffffffffffffffffffff161461111a576040517f08c379a000000000000000000000000000000000000000000000000000000000815260040161111190613bb8565b60405180910390fd5b604051602001611129906136d4565b604051602081830303815290604052805190602001206002600083815260200190815260200160002060080160405160200161116591906137de565b60405160208183030381529060405280519060200120146111bb576040517f08c379a00000000000000000000000000000000000000000000000000000000081526004016111b290613841565b60405180910390fd5b3460026000838152602001908152602001600020600601546111dd9190613890565b6002600083815260200190815260200160002060060181905550600160008190555050565b6000801b61121781611212612891565b612899565b6000600460008473ffffffffffffffffffffffffffffffffffffffff1673ffffffffffffffffffffffffffffffffffffffff16815260200190815260200160002060006101000a81548160ff0219169083151502179055505050565b600260005414156112b9576040517f08c379a00000000000000000000000000000000000000000000000000000000081526004016112b09061365d565b60405180910390fd5b60026000819055503373ffffffffffffffffffffffffffffffffffffffff166002600083815260200190815260200160002060000160009054906101000a900473ffffffffffffffffffffffffffffffffffffffff1673ffffffffffffffffffffffffffffffffffffffff161415611366576040517f08c379a000000000000000000000000000000000000000000000000000000000815260040161135d90613c24565b60405180910390fd5b60405160200161137590613c90565b60405160208183030381529060405280519060200120600260008381526020019081526020016000206008016040516020016113b191906137de565b6040516020818303038152906040528051906020012014611407576040517f08c379a00000000000000000000000000000000000000000000000000000000081526004016113fe90613cf1565b60405180910390fd5b6000600260008381526020019081526020016000206004015490508060026000848152602001908152602001600020600301546114449190613890565b3411611485576040517f08c379a000000000000000000000000000000000000000000000000000000000815260040161147c90613d83565b60405180910390fd5b6040518060400160405280600281526020017f4f6e0000000000000000000000000000000000000000000000000000000000008152506002600084815260200190815260200160002060080190805190602001906114e4929190612d58565b50336002600084815260200190815260200160002060050160006101000a81548173ffffffffffffffffffffffffffffffffffffffff021916908373ffffffffffffffffffffffffffffffffffffffff1602179055503460026000848152602001908152602001600020600601819055504260026000848152602001908152602001600020600701819055506002600083815260200190815260200160002060010160009054906101000a900473ffffffffffffffffffffffffffffffffffffffff1673ffffffffffffffffffffffffffffffffffffffff166342842e0e303360026000878152602001908152602001600020600201546040518463ffffffff1660e01b81526004016115f993929190613da3565b600060405180830381600087803b15801561161357600080fd5b505af1158015611627573d6000803e3d6000fd5b505050507f1ce667ae522f1f380b3262bf7881f17067f07d7f50dc398385709938a9340daf8260405161165a9190613dfd565b60405180910390a150600160008190555050565b6116778261063e565b61168881611683612891565b612899565b6116928383612a16565b505050565b600260005414156116dd576040517f08c379a00000000000000000000000000000000000000000000000000000000081526004016116d49061365d565b60405180910390fd5b60026000819055503373ffffffffffffffffffffffffffffffffffffffff166002600083815260200190815260200160002060050160009054906101000a900473ffffffffffffffffffffffffffffffffffffffff1673ffffffffffffffffffffffffffffffffffffffff1614611789576040517f08c379a000000000000000000000000000000000000000000000000000000000815260040161178090613e9d565b60405180910390fd5b604051602001611798906136d4565b60405160208183030381529060405280519060200120600260008381526020019081526020016000206008016040516020016117d491906137de565b604051602081830303815290604052805190602001201461182a576040517f08c379a000000000000000000000000000000000000000000000000000000000815260040161182190613841565b60405180910390fd5b3373ffffffffffffffffffffffffffffffffffffffff166002600083815260200190815260200160002060010160009054906101000a900473ffffffffffffffffffffffffffffffffffffffff1673ffffffffffffffffffffffffffffffffffffffff16636352211e60026000858152602001908152602001600020600201546040518263ffffffff1660e01b81526004016118c69190612ee3565b602060405180830381865afa1580156118e3573d6000803e3d6000fd5b505050506040513d601f19601f820116820180604052508101906119079190613ed2565b73ffffffffffffffffffffffffffffffffffffffff161461195d576040517f08c379a000000000000000000000000000000000000000000000000000000000815260040161195490613f4b565b60405180910390fd5b60026000828152602001908152602001600020600601544710156119b6576040517f08c379a00000000000000000000000000000000000000000000000000000000081526004016119ad90613fdd565b60405180910390fd5b600060026000838152602001908152602001600020600701541415611a10576040517f08c379a0000000000000000000000000000000000000000000000000000000008152600401611a0790614049565b60405180910390fd5b6000611a1b82610e3a565b9050600260008381526020019081526020016000206003015481611a3f9190613890565b60026000848152602001908152602001600020600601541015611a97576040517f08c379a0000000000000000000000000000000000000000000000000000000008152600401611a8e906140b5565b60405180910390fd5b6002600083815260200190815260200160002060010160009054906101000a900473ffffffffffffffffffffffffffffffffffffffff1673ffffffffffffffffffffffffffffffffffffffff166342842e0e333060026000878152602001908152602001600020600201546040518463ffffffff1660e01b8152600401611b2093929190613da3565b600060405180830381600087803b158015611b3a57600080fd5b505af1158015611b4e573d6000803e3d6000fd5b505050506000806002600085815260200190815260200160002060000160009054906101000a900473ffffffffffffffffffffffffffffffffffffffff1673ffffffffffffffffffffffffffffffffffffffff1660646007546064611bb39190613952565b85611bbe9190613986565b611bc89190613a0f565b604051611bd490613a71565b60006040518083038185875af1925050503d8060008114611c11576040519150601f19603f3d011682016040523d82523d6000602084013e611c16565b606091505b509150915081611c5b576040517f08c379a0000000000000000000000000000000000000000000000000000000008152600401611c5290613ad2565b60405180910390fd5b600080600660009054906101000a900473ffffffffffffffffffffffffffffffffffffffff1673ffffffffffffffffffffffffffffffffffffffff16606460075487611ca79190613986565b611cb19190613a0f565b604051611cbd90613a71565b60006040518083038185875af1925050503d8060008114611cfa576040519150601f19603f3d011682016040523d82523d6000602084013e611cff565b606091505b509150915081611d44576040517f08c379a0000000000000000000000000000000000000000000000000000000008152600401611d3b90613ad2565b60405180910390fd5b6000803373ffffffffffffffffffffffffffffffffffffffff1687600260008b815260200190815260200160002060060154611d809190613952565b604051611d8c90613a71565b60006040518083038185875af1925050503d8060008114611dc9576040519150601f19603f3d011682016040523d82523d6000602084013e611dce565b606091505b509150915081611e13576040517f08c379a0000000000000000000000000000000000000000000000000000000008152600401611e0a90613ad2565b60405180910390fd5b6000600260008a815260200190815260200160002060050160006101000a81548173ffffffffffffffffffffffffffffffffffffffff021916908373ffffffffffffffffffffffffffffffffffffffff1602179055506000600260008a8152602001908152602001600020600601819055506000600260008a8152602001908152602001600020600701819055506040518060400160405280600481526020017f4f70656e00000000000000000000000000000000000000000000000000000000815250600260008a81526020019081526020016000206008019080519060200190611f00929190612d58565b507f1ce667ae522f1f380b3262bf7881f17067f07d7f50dc398385709938a9340daf88604051611f3091906140f8565b60405180910390a150505050505050600160008190555050565b60026000541415611f90576040517f08c379a0000000000000000000000000000000000000000000000000000000008152600401611f879061365d565b60405180910390fd5b600260008190555060011515600460008573ffffffffffffffffffffffffffffffffffffffff1673ffffffffffffffffffffffffffffffffffffffff16815260200190815260200160002060009054906101000a900460ff16151514611ff557600080fd5b3373ffffffffffffffffffffffffffffffffffffffff168373ffffffffffffffffffffffffffffffffffffffff16636352211e866040518263ffffffff1660e01b81526004016120459190612ee3565b602060405180830381865afa158015612062573d6000803e3d6000fd5b505050506040513d601f19601f820116820180604052508101906120869190613ed2565b73ffffffffffffffffffffffffffffffffffffffff16146120dc576040517f08c379a00000000000000000000000000000000000000000000000000000000081526004016120d390614172565b60405180910390fd5b8273ffffffffffffffffffffffffffffffffffffffff166342842e0e3330876040518463ffffffff1660e01b815260040161211993929190613da3565b600060405180830381600087803b15801561213357600080fd5b505af1158015612147573d6000803e3d6000fd5b5050505060006121576005612af8565b90506121636005612b06565b6040518061012001604052803373ffffffffffffffffffffffffffffffffffffffff1681526020018573ffffffffffffffffffffffffffffffffffffffff168152602001868152602001848152602001838152602001600073ffffffffffffffffffffffffffffffffffffffff16815260200160008152602001600081526020016040518060400160405280600481526020017f4f70656e000000000000000000000000000000000000000000000000000000008152508152506002600083815260200190815260200160002060008201518160000160006101000a81548173ffffffffffffffffffffffffffffffffffffffff021916908373ffffffffffffffffffffffffffffffffffffffff16021790555060208201518160010160006101000a81548173ffffffffffffffffffffffffffffffffffffffff021916908373ffffffffffffffffffffffffffffffffffffffff16021790555060408201518160020155606082015181600301556080820151816004015560a08201518160050160006101000a81548173ffffffffffffffffffffffffffffffffffffffff021916908373ffffffffffffffffffffffffffffffffffffffff16021790555060c0820151816006015560e08201518160070155610100820151816008019080519060200190612354929190612d58565b50905050600360003373ffffffffffffffffffffffffffffffffffffffff1673ffffffffffffffffffffffffffffffffffffffff1681526020019081526020016000208190806001815401808255809150506001900390600052602060002001600090919091909150557f1ce667ae522f1f380b3262bf7881f17067f07d7f50dc398385709938a9340daf816040516123ed91906140f8565b60405180910390a150600160008190555050505050565b6002600054141561244a576040517f08c379a00000000000000000000000000000000000000000000000000000000081526004016124419061365d565b60405180910390fd5b60026000819055503373ffffffffffffffffffffffffffffffffffffffff166002600083815260200190815260200160002060000160009054906101000a900473ffffffffffffffffffffffffffffffffffffffff1673ffffffffffffffffffffffffffffffffffffffff16146124f6576040517f08c379a00000000000000000000000000000000000000000000000000000000081526004016124ed906141de565b60405180910390fd5b3073ffffffffffffffffffffffffffffffffffffffff166002600083815260200190815260200160002060010160009054906101000a900473ffffffffffffffffffffffffffffffffffffffff1673ffffffffffffffffffffffffffffffffffffffff16636352211e60026000858152602001908152602001600020600201546040518263ffffffff1660e01b81526004016125929190612ee3565b602060405180830381865afa1580156125af573d6000803e3d6000fd5b505050506040513d601f19601f820116820180604052508101906125d39190613ed2565b73ffffffffffffffffffffffffffffffffffffffff1614612629576040517f08c379a000000000000000000000000000000000000000000000000000000000815260040161262090614270565b60405180910390fd5b60405160200161263890613c90565b604051602081830303815290604052805190602001206002600083815260200190815260200160002060080160405160200161267491906137de565b60405160208183030381529060405280519060200120146126ca576040517f08c379a00000000000000000000000000000000000000000000000000000000081526004016126c190613cf1565b60405180910390fd5b6040518060400160405280600981526020017f43616e63656c6c65640000000000000000000000000000000000000000000000815250600260008381526020019081526020016000206008019080519060200190612729929190612d58565b506002600082815260200190815260200160002060010160009054906101000a900473ffffffffffffffffffffffffffffffffffffffff1673ffffffffffffffffffffffffffffffffffffffff166342842e0e303360026000868152602001908152602001600020600201546040518463ffffffff1660e01b81526004016127b393929190613da3565b600060405180830381600087803b1580156127cd57600080fd5b505af11580156127e1573d6000803e3d6000fd5b505050507f1ce667ae522f1f380b3262bf7881f17067f07d7f50dc398385709938a9340daf8160405161281491906142dc565b60405180910390a1600160008190555050565b60007f01ffc9a7000000000000000000000000000000000000000000000000000000007bffffffffffffffffffffffffffffffffffffffffffffffffffffffff1916827bffffffffffffffffffffffffffffffffffffffffffffffffffffffff1916149050919050565b600033905090565b6128a38282610ec5565b612932576128c88173ffffffffffffffffffffffffffffffffffffffff166014612b1c565b6128d68360001c6020612b1c565b6040516020016128e79291906143d3565b6040516020818303038152906040526040517f08c379a0000000000000000000000000000000000000000000000000000000008152600401612929919061440d565b60405180910390fd5b5050565b6129408282610ec5565b612a1257600180600084815260200190815260200160002060000160008373ffffffffffffffffffffffffffffffffffffffff1673ffffffffffffffffffffffffffffffffffffffff16815260200190815260200160002060006101000a81548160ff0219169083151502179055506129b7612891565b73ffffffffffffffffffffffffffffffffffffffff168173ffffffffffffffffffffffffffffffffffffffff16837f2f8788117e7eff1d82e926ec794901d17c78024a50270940304540a733656f0d60405160405180910390a45b5050565b612a208282610ec5565b15612af45760006001600084815260200190815260200160002060000160008373ffffffffffffffffffffffffffffffffffffffff1673ffffffffffffffffffffffffffffffffffffffff16815260200190815260200160002060006101000a81548160ff021916908315150217905550612a99612891565b73ffffffffffffffffffffffffffffffffffffffff168173ffffffffffffffffffffffffffffffffffffffff16837ff6391f5c32d9c69d2a47ea670b442974b53935d1edc7fd64eb21e047a839171b60405160405180910390a45b5050565b600081600001549050919050565b6001816000016000828254019250508190555050565b606060006002836002612b2f9190613986565b612b399190613890565b67ffffffffffffffff811115612b5257612b51612fa3565b5b6040519080825280601f01601f191660200182016040528015612b845781602001600182028036833780820191505090505b5090507f300000000000000000000000000000000000000000000000000000000000000081600081518110612bbc57612bbb61442f565b5b60200101907effffffffffffffffffffffffffffffffffffffffffffffffffffffffffffff1916908160001a9053507f780000000000000000000000000000000000000000000000000000000000000081600181518110612c2057612c1f61442f565b5b60200101907effffffffffffffffffffffffffffffffffffffffffffffffffffffffffffff1916908160001a90535060006001846002612c609190613986565b612c6a9190613890565b90505b6001811115612d0a577f3031323334353637383961626364656600000000000000000000000000000000600f861660108110612cac57612cab61442f565b5b1a60f81b828281518110612cc357612cc261442f565b5b60200101907effffffffffffffffffffffffffffffffffffffffffffffffffffffffffffff1916908160001a905350600485901c945080612d039061445e565b9050612c6d565b5060008414612d4e576040517f08c379a0000000000000000000000000000000000000000000000000000000008152600401612d45906144d4565b60405180910390fd5b8091505092915050565b828054612d6490613718565b90600052602060002090601f016020900481019282612d865760008555612dcd565b82601f10612d9f57805160ff1916838001178555612dcd565b82800160010185558215612dcd579182015b82811115612dcc578251825591602001919060010190612db1565b5b509050612dda9190612dde565b5090565b5b80821115612df7576000816000905550600101612ddf565b5090565b6000604051905090565b600080fd5b600080fd5b60007fffffffff0000000000000000000000000000000000000000000000000000000082169050919050565b612e4481612e0f565b8114612e4f57600080fd5b50565b600081359050612e6181612e3b565b92915050565b600060208284031215612e7d57612e7c612e05565b5b6000612e8b84828501612e52565b91505092915050565b60008115159050919050565b612ea981612e94565b82525050565b6000602082019050612ec46000830184612ea0565b92915050565b6000819050919050565b612edd81612eca565b82525050565b6000602082019050612ef86000830184612ed4565b92915050565b600073ffffffffffffffffffffffffffffffffffffffff82169050919050565b6000612f2982612efe565b9050919050565b612f3981612f1e565b8114612f4457600080fd5b50565b600081359050612f5681612f30565b92915050565b612f6581612eca565b8114612f7057600080fd5b50565b600081359050612f8281612f5c565b92915050565b600080fd5b600080fd5b6000601f19601f8301169050919050565b7f4e487b7100000000000000000000000000000000000000000000000000000000600052604160045260246000fd5b612fdb82612f92565b810181811067ffffffffffffffff82111715612ffa57612ff9612fa3565b5b80604052505050565b600061300d612dfb565b90506130198282612fd2565b919050565b600067ffffffffffffffff82111561303957613038612fa3565b5b61304282612f92565b9050602081019050919050565b82818337600083830152505050565b600061307161306c8461301e565b613003565b90508281526020810184848401111561308d5761308c612f8d565b5b61309884828561304f565b509392505050565b600082601f8301126130b5576130b4612f88565b5b81356130c584826020860161305e565b91505092915050565b600080600080608085870312156130e8576130e7612e05565b5b60006130f687828801612f47565b945050602061310787828801612f47565b935050604061311887828801612f73565b925050606085013567ffffffffffffffff81111561313957613138612e0a565b5b613145878288016130a0565b91505092959194509250565b61315a81612e0f565b82525050565b60006020820190506131756000830184613151565b92915050565b6000819050919050565b61318e8161317b565b811461319957600080fd5b50565b6000813590506131ab81613185565b92915050565b6000602082840312156131c7576131c6612e05565b5b60006131d58482850161319c565b91505092915050565b6131e78161317b565b82525050565b600060208201905061320260008301846131de565b92915050565b6000806040838503121561321f5761321e612e05565b5b600061322d8582860161319c565b925050602061323e85828601612f47565b9150509250929050565b60006020828403121561325e5761325d612e05565b5b600061326c84828501612f73565b91505092915050565b61327e81612f1e565b82525050565b600081519050919050565b600082825260208201905092915050565b60005b838110156132be5780820151818401526020810190506132a3565b838111156132cd576000848401525b50505050565b60006132de82613284565b6132e8818561328f565b93506132f88185602086016132a0565b61330181612f92565b840191505092915050565b600061012082019050613322600083018c613275565b61332f602083018b613275565b61333c604083018a612ed4565b6133496060830189612ed4565b6133566080830188612ed4565b61336360a0830187613275565b61337060c0830186612ed4565b61337d60e0830185612ed4565b81810361010083015261339081846132d3565b90509a9950505050505050505050565b6000602082840312156133b6576133b5612e05565b5b60006133c484828501612f47565b91505092915050565b600081519050919050565b600082825260208201905092915050565b6000819050602082019050919050565b61340281612eca565b82525050565b600061341483836133f9565b60208301905092915050565b6000602082019050919050565b6000613438826133cd565b61344281856133d8565b935061344d836133e9565b8060005b8381101561347e5781516134658882613408565b975061347083613420565b925050600181019050613451565b5085935050505092915050565b600060208201905081810360008301526134a5818461342d565b905092915050565b60006134b882612efe565b9050919050565b6134c8816134ad565b81146134d357600080fd5b50565b6000813590506134e5816134bf565b92915050565b60006020828403121561350157613500612e05565b5b600061350f848285016134d6565b91505092915050565b6000806000806080858703121561353257613531612e05565b5b600061354087828801612f73565b945050602061355187828801612f47565b935050604061356287828801612f73565b925050606061357387828801612f73565b91505092959194509250565b7f416363657373436f6e74726f6c3a2063616e206f6e6c792072656e6f756e636560008201527f20726f6c657320666f722073656c660000000000000000000000000000000000602082015250565b60006135db602f8361328f565b91506135e68261357f565b604082019050919050565b6000602082019050818103600083015261360a816135ce565b9050919050565b7f5265656e7472616e637947756172643a207265656e7472616e742063616c6c00600082015250565b6000613647601f8361328f565b915061365282613611565b602082019050919050565b600060208201905081810360008301526136768161363a565b9050919050565b600081905092915050565b7f4f6e000000000000000000000000000000000000000000000000000000000000600082015250565b60006136be60028361367d565b91506136c982613688565b600282019050919050565b60006136df826136b1565b9150819050919050565b7f4e487b7100000000000000000000000000000000000000000000000000000000600052602260045260246000fd5b6000600282049050600182168061373057607f821691505b60208210811415613744576137436136e9565b5b50919050565b60008190508160005260206000209050919050565b6000815461376c81613718565b613776818661367d565b9450600182166000811461379157600181146137a2576137d5565b60ff198316865281860193506137d5565b6137ab8561374a565b60005b838110156137cd578154818901526001820191506020810190506137ae565b838801955050505b50505092915050565b60006137ea828461375f565b915081905092915050565b7f4f66666572206973206e6f74204f6e0000000000000000000000000000000000600082015250565b600061382b600f8361328f565b9150613836826137f5565b602082019050919050565b6000602082019050818103600083015261385a8161381e565b9050919050565b7f4e487b7100000000000000000000000000000000000000000000000000000000600052601160045260246000fd5b600061389b82612eca565b91506138a683612eca565b9250827fffffffffffffffffffffffffffffffffffffffffffffffffffffffffffffffff038211156138db576138da613861565b5b828201905092915050565b7f426f72726f776572206973206e6f74204c697175696461746564000000000000600082015250565b600061391c601a8361328f565b9150613927826138e6565b602082019050919050565b6000602082019050818103600083015261394b8161390f565b9050919050565b600061395d82612eca565b915061396883612eca565b92508282101561397b5761397a613861565b5b828203905092915050565b600061399182612eca565b915061399c83612eca565b9250817fffffffffffffffffffffffffffffffffffffffffffffffffffffffffffffffff04831182151516156139d5576139d4613861565b5b828202905092915050565b7f4e487b7100000000000000000000000000000000000000000000000000000000600052601260045260246000fd5b6000613a1a82612eca565b9150613a2583612eca565b925082613a3557613a346139e0565b5b828204905092915050565b600081905092915050565b50565b6000613a5b600083613a40565b9150613a6682613a4b565b600082019050919050565b6000613a7c82613a4e565b9150819050919050565b7f4661696c656420746f2073656e64204574686572000000000000000000000000600082015250565b6000613abc60148361328f565b9150613ac782613a86565b602082019050919050565b60006020820190508181036000830152613aeb81613aaf565b9050919050565b7f4c69717569646174656400000000000000000000000000000000000000000000600082015250565b6000613b28600a8361328f565b9150613b3382613af2565b602082019050919050565b6000604082019050613b536000830184612ed4565b8181036020830152613b6481613b1b565b905092915050565b7f4f6e6c7920626f72726f7765722063616e2061646420636f6c6c61746572616c600082015250565b6000613ba260208361328f565b9150613bad82613b6c565b602082019050919050565b60006020820190508181036000830152613bd181613b95565b9050919050565b7f43616e206e6f742061636365707420796f7572206f776e204f66666572000000600082015250565b6000613c0e601d8361328f565b9150613c1982613bd8565b602082019050919050565b60006020820190508181036000830152613c3d81613c01565b9050919050565b7f4f70656e00000000000000000000000000000000000000000000000000000000600082015250565b6000613c7a60048361367d565b9150613c8582613c44565b600482019050919050565b6000613c9b82613c6d565b9150819050919050565b7f4f66666572206973206e6f74204f70656e000000000000000000000000000000600082015250565b6000613cdb60118361328f565b9150613ce682613ca5565b602082019050919050565b60006020820190508181036000830152613d0a81613cce565b9050919050565b7f4e6f7420656e6f75676820636f6c6c61746572616c20746f20626f72726f772060008201527f666f72206d6f7265207468616e20616e20686f75720000000000000000000000602082015250565b6000613d6d60358361328f565b9150613d7882613d11565b604082019050919050565b60006020820190508181036000830152613d9c81613d60565b9050919050565b6000606082019050613db86000830186613275565b613dc56020830185613275565b613dd26040830184612ed4565b949350505050565b6000613de760028361328f565b9150613df282613688565b602082019050919050565b6000604082019050613e126000830184612ed4565b8181036020830152613e2381613dda565b905092915050565b7f4f6e6c7920626f72726f7765722063616e20726570617920746865204f66666560008201527f7200000000000000000000000000000000000000000000000000000000000000602082015250565b6000613e8760218361328f565b9150613e9282613e2b565b604082019050919050565b60006020820190508181036000830152613eb681613e7a565b9050919050565b600081519050613ecc81612f30565b92915050565b600060208284031215613ee857613ee7612e05565b5b6000613ef684828501613ebd565b91505092915050565b7f426f72726f776572206973206e6f74206f776e6572206f6620746865204e4654600082015250565b6000613f3560208361328f565b9150613f4082613eff565b602082019050919050565b60006020820190508181036000830152613f6481613f28565b9050919050565b7f50726f746f636f6c20646f6573206e6f74206861766520656e6f75676820746f60008201527f207061792074686520636f6c6c61746572616c00000000000000000000000000602082015250565b6000613fc760338361328f565b9150613fd282613f6b565b604082019050919050565b60006020820190508181036000830152613ff681613fba565b9050919050565b7f4163636570742074696d65203d20300000000000000000000000000000000000600082015250565b6000614033600f8361328f565b915061403e82613ffd565b602082019050919050565b6000602082019050818103600083015261406281614026565b9050919050565b7f426f72726f7765722063616e206265204c697175696461746564000000000000600082015250565b600061409f601a8361328f565b91506140aa82614069565b602082019050919050565b600060208201905081810360008301526140ce81614092565b9050919050565b60006140e260048361328f565b91506140ed82613c44565b602082019050919050565b600060408201905061410d6000830184612ed4565b818103602083015261411e816140d5565b905092915050565b7f4e6f7420746865206f776e6572206f6620746865204e46540000000000000000600082015250565b600061415c60188361328f565b915061416782614126565b602082019050919050565b6000602082019050818103600083015261418b8161414f565b9050919050565b7f4e6f7420746865206f776e6572206f6620746865204f66666572000000000000600082015250565b60006141c8601a8361328f565b91506141d382614192565b602082019050919050565b600060208201905081810360008301526141f7816141bb565b9050919050565b7f5468652050726f746f636f6c20646f6573206e6f74206861766520746865204e60008201527f4654000000000000000000000000000000000000000000000000000000000000602082015250565b600061425a60228361328f565b9150614265826141fe565b604082019050919050565b600060208201905081810360008301526142898161424d565b9050919050565b7f43616e63656c6c65640000000000000000000000000000000000000000000000600082015250565b60006142c660098361328f565b91506142d182614290565b602082019050919050565b60006040820190506142f16000830184612ed4565b8181036020830152614302816142b9565b905092915050565b7f416363657373436f6e74726f6c3a206163636f756e7420000000000000000000600082015250565b600061434060178361367d565b915061434b8261430a565b601782019050919050565b600061436182613284565b61436b818561367d565b935061437b8185602086016132a0565b80840191505092915050565b7f206973206d697373696e6720726f6c6520000000000000000000000000000000600082015250565b60006143bd60118361367d565b91506143c882614387565b601182019050919050565b60006143de82614333565b91506143ea8285614356565b91506143f5826143b0565b91506144018284614356565b91508190509392505050565b6000602082019050818103600083015261442781846132d3565b905092915050565b7f4e487b7100000000000000000000000000000000000000000000000000000000600052603260045260246000fd5b600061446982612eca565b9150600082141561447d5761447c613861565b5b600182039050919050565b7f537472696e67733a20686578206c656e67746820696e73756666696369656e74600082015250565b60006144be60208361328f565b91506144c982614488565b602082019050919050565b600060208201905081810360008301526144ed816144b1565b905091905056fea2646970667358221220278b9c2fed843a568e453195babd1fe1f165a11d52d1ab547b73ee0a07d2181664736f6c634300080c0033",
  "immutableReferences": {},
  "source": "// SPDX-License-Identifier: UNLICENSED\r\n\r\npragma solidity ^0.8.3;\r\n\r\nimport \"@openzeppelin/contracts/utils/Counters.sol\";\r\nimport \"@openzeppelin/contracts/token/ERC721/IERC721.sol\";\r\n\r\nimport \"@openzeppelin/contracts/token/ERC721/utils/ERC721Holder.sol\";\r\nimport \"@openzeppelin/contracts/security/ReentrancyGuard.sol\";\r\nimport \"@openzeppelin/contracts/access/AccessControl.sol\";\r\n\r\n\r\n\r\n/**\r\n * @title ERC721Lending\r\n * @notice ERC721 Lending plataform where users that provide the ERC721 token\r\n * set a liquidation limit and fee, and users that borrow the ERC721 token\r\n * set how much collateral they add to the transaction\r\n */\r\ncontract ERC721LendingETH is ERC721Holder, ReentrancyGuard, AccessControl {\r\n\r\n    event OfferStatusChange(uint256 offerId, string status);\r\n\r\n    struct Offer {\r\n        address owner;\r\n        address nft;\r\n        uint256 nftId;\r\n        uint256 liquidation;\r\n        uint256 hourlyFee;\r\n        address borrower;\r\n        uint256 collateral;\r\n        uint256 acceptTime;\r\n        string status; // Open, On, Cancelled, Liquidated\r\n    }\r\n\r\n    mapping(uint256 => Offer) offers;\r\n    mapping(address => uint256[]) addressToOffers;\r\n    mapping(address => bool) addressToBool;\r\n\r\n    using Counters for Counters.Counter;\r\n    Counters.Counter private offerCounter;\r\n\r\n    address payable PayoutAddress;\r\n    uint Fee;\r\n    uint LiquidationFee;\r\n\r\n    constructor(address payable Payout, address BaseERC721Address) {\r\n        PayoutAddress = Payout;\r\n        Fee = 4;\r\n        LiquidationFee = 10;\r\n        //Base Contract accepted\r\n        addressToBool[BaseERC721Address] = true;\r\n        _setupRole(DEFAULT_ADMIN_ROLE, msg.sender);\r\n    }\r\n\r\n    /**\r\n     * @dev Returns the details for a offer.\r\n     * @param offerId The id of the offer.\r\n     */\r\n    function getOffer(uint256 offerId) external view returns (address, address, uint256, uint256, uint256, address, uint256, uint256, string memory) {\r\n        Offer memory offer = offers[offerId];\r\n        return (offer.owner, offer.nft, offer.nftId, offer.liquidation, offer.hourlyFee, offer.borrower, offer.collateral, offer.acceptTime, offer.status);\r\n    }\r\n\r\n    /**\r\n     * @dev Returns all offers of an address.\r\n     * @param addr the address to lookup.\r\n     */\r\n    function getOffersOfAddress(address addr) external view returns (uint256[] memory) {\r\n        return addressToOffers[addr];\r\n    }\r\n\r\n    /**\r\n     * @dev Returns the number of offers made.\r\n     */\r\n    function getOfferQuantities() external view returns (uint256) {\r\n        return offerCounter.current();\r\n    }\r\n\r\n    function getBalance() external view returns (uint) {\r\n        return address(this).balance;\r\n    }\r\n\r\n    function feeToPay(uint256 offerId) public view returns (uint256) {\r\n        return offers[offerId].hourlyFee + ((block.timestamp - offers[offerId].acceptTime)/(60*60))*offers[offerId].hourlyFee;\r\n    }\r\n\r\n    /**\r\n     * @dev Opens a new Offer, and sends the nft to an escrow.\r\n     * @param nftId id of the nft to offer.\r\n     * @param nftAddress address of the nft to offer.\r\n     * @param liquidation if the amount of liquidation+accumulatedFee is bigger than the collateral, the borrower is liquidated.\r\n     * @param fee fee amount that accumulates every hour.\r\n     */\r\n    function createOffer(uint256 nftId, address nftAddress, uint256 liquidation, uint256 fee) external nonReentrant() {\r\n        require(addressToBool[nftAddress] == true);\r\n        require(IERC721(nftAddress).ownerOf(nftId) == msg.sender, \"Not the owner of the NFT\");\r\n        \r\n        IERC721(nftAddress).safeTransferFrom(msg.sender, address(this), nftId);\r\n\r\n        uint current = offerCounter.current();\r\n        offerCounter.increment();\r\n        offers[current] = Offer(msg.sender, nftAddress, nftId, liquidation, fee, address(0), 0, 0, \"Open\");\r\n        addressToOffers[msg.sender].push(current);\r\n        emit OfferStatusChange(current, \"Open\");\r\n    }\r\n\r\n    /**\r\n     * @dev Cancels open offer and returns the nft to the owner.\r\n     * @param offerId the id of the offer.\r\n     */\r\n    function cancelOffer(uint256 offerId) external nonReentrant() {\r\n        require(offers[offerId].owner == msg.sender, \"Not the owner of the Offer\");\r\n        require(IERC721(offers[offerId].nft).ownerOf(offers[offerId].nftId) == address(this), \"The Protocol does not have the NFT\");\r\n        require(keccak256(abi.encodePacked(offers[offerId].status)) == keccak256(abi.encodePacked(\"Open\")), \"Offer is not Open\");\r\n\r\n        offers[offerId].status = \"Cancelled\";\r\n        IERC721(offers[offerId].nft).safeTransferFrom(address(this), msg.sender, offers[offerId].nftId);\r\n        emit OfferStatusChange(offerId, \"Cancelled\");\r\n    }\r\n\r\n    /**\r\n     * @dev Accepts an Open offer, escrows the collateral on the contract and sends the nft to the borrower.\r\n     * @param offerId the id of the offer.\r\n     */\r\n    function acceptOffer(uint256 offerId) external payable nonReentrant() {\r\n        require(offers[offerId].owner != msg.sender, \"Can not accept your own Offer\");\r\n        require(keccak256(abi.encodePacked(offers[offerId].status)) == keccak256(abi.encodePacked(\"Open\")), \"Offer is not Open\");\r\n        uint256 minimumFee = offers[offerId].hourlyFee;\r\n        require(msg.value > offers[offerId].liquidation + minimumFee, \"Not enough collateral to borrow for more than an hour\");\r\n\r\n        offers[offerId].status = \"On\";\r\n        offers[offerId].borrower = msg.sender;\r\n        offers[offerId].collateral = msg.value;\r\n        offers[offerId].acceptTime = block.timestamp;\r\n        IERC721(offers[offerId].nft).safeTransferFrom(address(this), msg.sender, offers[offerId].nftId);\r\n        emit OfferStatusChange(offerId, \"On\");\r\n    }\r\n\r\n    /**\r\n     * @dev checks if borrower is liquidated or not, then transfers the nft to the contract, \r\n     * pays the lender, pays the protocol and finally returns the rest of the collateral to the borrower\r\n     * @param offerId the id of the offer.\r\n     */\r\n    function repayOffer(uint256 offerId) external nonReentrant() {\r\n        require(offers[offerId].borrower == msg.sender, \"Only borrower can repay the Offer\");\r\n        require(keccak256(abi.encodePacked(offers[offerId].status)) == keccak256(abi.encodePacked(\"On\")), \"Offer is not On\");\r\n        require(IERC721(offers[offerId].nft).ownerOf(offers[offerId].nftId) == msg.sender, \"Borrower is not owner of the NFT\");\r\n        require(address(this).balance >= offers[offerId].collateral, \"Protocol does not have enough to pay the collateral\");\r\n        require(offers[offerId].acceptTime != 0, \"Accept time = 0\");\r\n        //minimum Fee is at least 1 hour and increases each hour\r\n        uint256 fee = feeToPay(offerId);\r\n        // User is not liquidated\r\n        require(offers[offerId].collateral >= (fee + offers[offerId].liquidation), \"Borrower can be Liquidated\");\r\n\r\n        IERC721(offers[offerId].nft).safeTransferFrom(msg.sender, address(this), offers[offerId].nftId);\r\n\r\n        (bool sent1, bytes memory data1) = offers[offerId].owner.call{value: fee*(100-Fee)/100}(\"\");\r\n        require(sent1, \"Failed to send Ether\");\r\n        (bool sent2, bytes memory data2) = PayoutAddress.call{value: fee*Fee/100}(\"\");\r\n        require(sent2, \"Failed to send Ether\");\r\n        (bool sent3, bytes memory data3) = msg.sender.call{value: (offers[offerId].collateral - fee)}(\"\");\r\n        require(sent3, \"Failed to send Ether\");\r\n\r\n        offers[offerId].borrower = address(0);\r\n        offers[offerId].collateral = 0;\r\n        offers[offerId].acceptTime = 0;\r\n        offers[offerId].status = \"Open\";\r\n        emit OfferStatusChange(offerId, \"Open\");\r\n    }\r\n\r\n    /**\r\n     * @dev Adds extra collateral to the position of the borrower.\r\n     * @param offerId the id of the offer.\r\n     */\r\n    function addCollateral(uint256 offerId) external payable nonReentrant() {\r\n        require(offers[offerId].borrower == msg.sender, \"Only borrower can add collateral\");\r\n        require(keccak256(abi.encodePacked(offers[offerId].status)) == keccak256(abi.encodePacked(\"On\")), \"Offer is not On\");\r\n\r\n        offers[offerId].collateral = offers[offerId].collateral + msg.value;\r\n    }\r\n\r\n    /**\r\n     * @dev Liquidates the borrower if he owns more than he has collateral.\r\n     * @param offerId the id of the offer.\r\n     */\r\n    function liquidate(uint256 offerId) external nonReentrant() {\r\n        uint256 fee = feeToPay(offerId);\r\n        require(keccak256(abi.encodePacked(offers[offerId].status)) == keccak256(abi.encodePacked(\"On\")), \"Offer is not On\");\r\n        require(offers[offerId].collateral < (fee + offers[offerId].liquidation), \"Borrower is not Liquidated\");\r\n\r\n        offers[offerId].status = \"Liquidated\";\r\n        (bool sent1, bytes memory data1) = offers[offerId].owner.call{value: offers[offerId].collateral*(100-LiquidationFee)/100}(\"\");\r\n        require(sent1, \"Failed to send Ether\");\r\n        (bool sent2, bytes memory data2) = PayoutAddress.call{value: offers[offerId].collateral*LiquidationFee/100}(\"\");\r\n        require(sent2, \"Failed to send Ether\");\r\n        emit OfferStatusChange(offerId, \"Liquidated\");\r\n    }\r\n\r\n    /**\r\n     * @dev Changes account to send payout.\r\n     * @param newPayout new address to send payout.\r\n     */\r\n    function transferPayoutAddress(address payable newPayout) external onlyRole(DEFAULT_ADMIN_ROLE) {\r\n        PayoutAddress = newPayout;\r\n    }\r\n\r\n    /**\r\n     * @dev Changes the fee \r\n     * @param newFee new fee.\r\n     */\r\n    function changeFee(uint256 newFee) external onlyRole(DEFAULT_ADMIN_ROLE) {\r\n        Fee = newFee;\r\n    }\r\n\r\n    /**\r\n     * @dev Changes the liquidation fee\r\n     * @param newLiquidationFee new liquidation fee.\r\n     */\r\n    function changeLiquidationFee(uint256 newLiquidationFee) external onlyRole(DEFAULT_ADMIN_ROLE) {\r\n        LiquidationFee = newLiquidationFee;\r\n    }\r\n\r\n    /**\r\n     * @dev adds new contract ERC721 to the protocol\r\n     * @param _contract contract address to whitelist.\r\n     */\r\n    function addContract(address _contract) external onlyRole(DEFAULT_ADMIN_ROLE) {\r\n        addressToBool[_contract] = true;\r\n    }\r\n\r\n    /**\r\n     * @dev removes a contract ERC721 from the protocol\r\n     * @param _contract contract address to blacklist.\r\n     */\r\n    function removeContract(address _contract) external onlyRole(DEFAULT_ADMIN_ROLE) {\r\n        addressToBool[_contract] = false;\r\n    }\r\n\r\n}",
  "sourcePath": "C:\\Users\\jtsch\\OneDrive\\Escritorio\\DFK-Lending\\DFK-Lending-SmartContracts\\contracts\\ERC721Lending-ETH.sol",
  "compiler": {
    "name": "solc",
    "version": "0.8.12+commit.f00d7308.Emscripten.clang"
  },
  "schemaVersion": "3.4.3",
  "updatedAt": "2022-02-28T16:18:26.268Z",
  "devdoc": {
    "kind": "dev",
    "methods": {
      "acceptOffer(uint256)": {
        "details": "Accepts an Open offer, escrows the collateral on the contract and sends the nft to the borrower.",
        "params": {
          "offerId": "the id of the offer."
        }
      },
      "addCollateral(uint256)": {
        "details": "Adds extra collateral to the position of the borrower.",
        "params": {
          "offerId": "the id of the offer."
        }
      },
      "addContract(address)": {
        "details": "adds new contract ERC721 to the protocol",
        "params": {
          "_contract": "contract address to whitelist."
        }
      },
      "cancelOffer(uint256)": {
        "details": "Cancels open offer and returns the nft to the owner.",
        "params": {
          "offerId": "the id of the offer."
        }
      },
      "changeFee(uint256)": {
        "details": "Changes the fee ",
        "params": {
          "newFee": "new fee."
        }
      },
      "changeLiquidationFee(uint256)": {
        "details": "Changes the liquidation fee",
        "params": {
          "newLiquidationFee": "new liquidation fee."
        }
      },
      "createOffer(uint256,address,uint256,uint256)": {
        "details": "Opens a new Offer, and sends the nft to an escrow.",
        "params": {
          "fee": "fee amount that accumulates every hour.",
          "liquidation": "if the amount of liquidation+accumulatedFee is bigger than the collateral, the borrower is liquidated.",
          "nftAddress": "address of the nft to offer.",
          "nftId": "id of the nft to offer."
        }
      },
      "getOffer(uint256)": {
        "details": "Returns the details for a offer.",
        "params": {
          "offerId": "The id of the offer."
        }
      },
      "getOfferQuantities()": {
        "details": "Returns the number of offers made."
      },
      "getOffersOfAddress(address)": {
        "details": "Returns all offers of an address.",
        "params": {
          "addr": "the address to lookup."
        }
      },
      "getRoleAdmin(bytes32)": {
        "details": "Returns the admin role that controls `role`. See {grantRole} and {revokeRole}. To change a role's admin, use {_setRoleAdmin}."
      },
      "grantRole(bytes32,address)": {
        "details": "Grants `role` to `account`. If `account` had not been already granted `role`, emits a {RoleGranted} event. Requirements: - the caller must have ``role``'s admin role."
      },
      "hasRole(bytes32,address)": {
        "details": "Returns `true` if `account` has been granted `role`."
      },
      "liquidate(uint256)": {
        "details": "Liquidates the borrower if he owns more than he has collateral.",
        "params": {
          "offerId": "the id of the offer."
        }
      },
      "onERC721Received(address,address,uint256,bytes)": {
        "details": "See {IERC721Receiver-onERC721Received}. Always returns `IERC721Receiver.onERC721Received.selector`."
      },
      "removeContract(address)": {
        "details": "removes a contract ERC721 from the protocol",
        "params": {
          "_contract": "contract address to blacklist."
        }
      },
      "renounceRole(bytes32,address)": {
        "details": "Revokes `role` from the calling account. Roles are often managed via {grantRole} and {revokeRole}: this function's purpose is to provide a mechanism for accounts to lose their privileges if they are compromised (such as when a trusted device is misplaced). If the calling account had been revoked `role`, emits a {RoleRevoked} event. Requirements: - the caller must be `account`."
      },
      "repayOffer(uint256)": {
        "details": "checks if borrower is liquidated or not, then transfers the nft to the contract,  pays the lender, pays the protocol and finally returns the rest of the collateral to the borrower",
        "params": {
          "offerId": "the id of the offer."
        }
      },
      "revokeRole(bytes32,address)": {
        "details": "Revokes `role` from `account`. If `account` had been granted `role`, emits a {RoleRevoked} event. Requirements: - the caller must have ``role``'s admin role."
      },
      "supportsInterface(bytes4)": {
        "details": "See {IERC165-supportsInterface}."
      },
      "transferPayoutAddress(address)": {
        "details": "Changes account to send payout.",
        "params": {
          "newPayout": "new address to send payout."
        }
      }
    },
    "title": "ERC721Lending",
    "version": 1
  },
  "userdoc": {
    "kind": "user",
    "methods": {},
    "notice": "ERC721 Lending plataform where users that provide the ERC721 token set a liquidation limit and fee, and users that borrow the ERC721 token set how much collateral they add to the transaction",
    "version": 1
  }
}