{
  "contractName": "ERC721Lending",
  "abi": [
    {
      "inputs": [
        {
          "internalType": "address",
          "name": "PayOut",
          "type": "address"
        },
        {
          "internalType": "address",
          "name": "TokenAddress",
          "type": "address"
        }
      ],
      "stateMutability": "nonpayable",
      "type": "constructor"
    },
    {
      "anonymous": false,
      "inputs": [
        {
          "indexed": false,
          "internalType": "uint256",
          "name": "offerId",
          "type": "uint256"
        },
        {
          "indexed": false,
          "internalType": "string",
          "name": "status",
          "type": "string"
        }
      ],
      "name": "OfferStatusChange",
      "type": "event"
    },
    {
      "inputs": [
        {
          "internalType": "address",
          "name": "",
          "type": "address"
        },
        {
          "internalType": "address",
          "name": "",
          "type": "address"
        },
        {
          "internalType": "uint256",
          "name": "",
          "type": "uint256"
        },
        {
          "internalType": "bytes",
          "name": "",
          "type": "bytes"
        }
      ],
      "name": "onERC721Received",
      "outputs": [
        {
          "internalType": "bytes4",
          "name": "",
          "type": "bytes4"
        }
      ],
      "stateMutability": "nonpayable",
      "type": "function"
    },
    {
      "inputs": [
        {
          "internalType": "uint256",
          "name": "offerId",
          "type": "uint256"
        }
      ],
      "name": "getOffer",
      "outputs": [
        {
          "internalType": "address",
          "name": "",
          "type": "address"
        },
        {
          "internalType": "address",
          "name": "",
          "type": "address"
        },
        {
          "internalType": "uint256",
          "name": "",
          "type": "uint256"
        },
        {
          "internalType": "uint256",
          "name": "",
          "type": "uint256"
        },
        {
          "internalType": "uint256",
          "name": "",
          "type": "uint256"
        },
        {
          "internalType": "address",
          "name": "",
          "type": "address"
        },
        {
          "internalType": "uint256",
          "name": "",
          "type": "uint256"
        },
        {
          "internalType": "uint256",
          "name": "",
          "type": "uint256"
        },
        {
          "internalType": "string",
          "name": "",
          "type": "string"
        }
      ],
      "stateMutability": "view",
      "type": "function"
    },
    {
      "inputs": [
        {
          "internalType": "address",
          "name": "addr",
          "type": "address"
        }
      ],
      "name": "getOffersOfAddress",
      "outputs": [
        {
          "internalType": "uint256[]",
          "name": "",
          "type": "uint256[]"
        }
      ],
      "stateMutability": "view",
      "type": "function"
    },
    {
      "inputs": [],
      "name": "getOfferQuantities",
      "outputs": [
        {
          "internalType": "uint256",
          "name": "",
          "type": "uint256"
        }
      ],
      "stateMutability": "view",
      "type": "function"
    },
    {
      "inputs": [
        {
          "internalType": "uint256",
          "name": "nftId",
          "type": "uint256"
        },
        {
          "internalType": "address",
          "name": "nftAddress",
          "type": "address"
        },
        {
          "internalType": "uint256",
          "name": "liquidation",
          "type": "uint256"
        },
        {
          "internalType": "uint256",
          "name": "fee",
          "type": "uint256"
        }
      ],
      "name": "createOffer",
      "outputs": [],
      "stateMutability": "nonpayable",
      "type": "function"
    },
    {
      "inputs": [
        {
          "internalType": "uint256",
          "name": "offerId",
          "type": "uint256"
        }
      ],
      "name": "cancelOffer",
      "outputs": [],
      "stateMutability": "nonpayable",
      "type": "function"
    },
    {
      "inputs": [
        {
          "internalType": "uint256",
          "name": "offerId",
          "type": "uint256"
        },
        {
          "internalType": "uint256",
          "name": "collateral",
          "type": "uint256"
        }
      ],
      "name": "acceptOffer",
      "outputs": [],
      "stateMutability": "nonpayable",
      "type": "function"
    },
    {
      "inputs": [
        {
          "internalType": "uint256",
          "name": "offerId",
          "type": "uint256"
        }
      ],
      "name": "repayOffer",
      "outputs": [],
      "stateMutability": "nonpayable",
      "type": "function"
    },
    {
      "inputs": [
        {
          "internalType": "uint256",
          "name": "offerId",
          "type": "uint256"
        },
        {
          "internalType": "uint256",
          "name": "extraCollateral",
          "type": "uint256"
        }
      ],
      "name": "addCollateral",
      "outputs": [],
      "stateMutability": "nonpayable",
      "type": "function"
    },
    {
      "inputs": [
        {
          "internalType": "uint256",
          "name": "offerId",
          "type": "uint256"
        }
      ],
      "name": "liquidate",
      "outputs": [],
      "stateMutability": "nonpayable",
      "type": "function"
    }
  ],
  "bytecode": "0x60806040523480156200001157600080fd5b5060405162003bad38038062003bad833981810160405281019062000037919062000133565b600160008190555081600460006101000a81548173ffffffffffffffffffffffffffffffffffffffff021916908373ffffffffffffffffffffffffffffffffffffffff16021790555080600560006101000a81548173ffffffffffffffffffffffffffffffffffffffff021916908373ffffffffffffffffffffffffffffffffffffffff16021790555050506200017a565b600080fd5b600073ffffffffffffffffffffffffffffffffffffffff82169050919050565b6000620000fb82620000ce565b9050919050565b6200010d81620000ee565b81146200011957600080fd5b50565b6000815190506200012d8162000102565b92915050565b600080604083850312156200014d576200014c620000c9565b5b60006200015d858286016200011c565b925050602062000170858286016200011c565b9150509250929050565b613a23806200018a6000396000f3fe608060405234801561001057600080fd5b506004361061009e5760003560e01c8063a362edc611610066578063a362edc614610161578063a8f35adf14610191578063e121e6e5146101ad578063ee1733e3146101c9578063ef706adf146101e55761009e565b8063150b7a02146100a3578063415f1240146100d35780634579268a146100ef57806381257bd5146101275780638486014d14610143575b600080fd5b6100bd60048036038101906100b89190612788565b610201565b6040516100ca9190612846565b60405180910390f35b6100ed60048036038101906100e89190612861565b610215565b005b61010960048036038101906101049190612861565b610674565b60405161011e99989796959493929190612934565b60405180910390f35b610141600480360381019061013c91906129c8565b6108b9565b005b61014b610e4b565b6040516101589190612a08565b60405180910390f35b61017b60048036038101906101769190612a23565b610e5c565b6040516101889190612b0e565b60405180910390f35b6101ab60048036038101906101a691906129c8565b610ef3565b005b6101c760048036038101906101c29190612861565b611285565b005b6101e360048036038101906101de9190612b30565b611c3e565b005b6101ff60048036038101906101fa9190612861565b6120a7565b005b600063150b7a0260e01b9050949350505050565b6002600054141561025b576040517f08c379a000000000000000000000000000000000000000000000000000000000815260040161025290612be3565b60405180910390fd5b600260008190555060006001600083815260200190815260200160002060040154620151806001600085815260200190815260200160002060070154426102a29190612c32565b6102ac9190612c95565b6102b69190612cc6565b90506040516020016102c790612d77565b60405160208183030381529060405280519060200120600160008481526020019081526020016000206008016040516020016103039190612e81565b6040516020818303038152906040528051906020012014610359576040517f08c379a000000000000000000000000000000000000000000000000000000000815260040161035090612ee4565b60405180910390fd5b60016000838152602001908152602001600020600301548161037b9190612f04565b6001600084815260200190815260200160002060060154106103d2576040517f08c379a00000000000000000000000000000000000000000000000000000000081526004016103c990612fa6565b60405180910390fd5b6040518060400160405280600a81526020017f4c697175696461746564000000000000000000000000000000000000000000008152506001600084815260200190815260200160002060080190805190602001906104319291906124f7565b50600560009054906101000a900473ffffffffffffffffffffffffffffffffffffffff1673ffffffffffffffffffffffffffffffffffffffff1663a9059cbb6001600085815260200190815260200160002060000160009054906101000a900473ffffffffffffffffffffffffffffffffffffffff166064605a60016000888152602001908152602001600020600601546104cc9190612cc6565b6104d69190612c95565b6040518363ffffffff1660e01b81526004016104f3929190612fc6565b6020604051808303816000875af1158015610512573d6000803e3d6000fd5b505050506040513d601f19601f820116820180604052508101906105369190613027565b50600560009054906101000a900473ffffffffffffffffffffffffffffffffffffffff1673ffffffffffffffffffffffffffffffffffffffff1663a9059cbb600460009054906101000a900473ffffffffffffffffffffffffffffffffffffffff166064600a60016000888152602001908152602001600020600601546105bd9190612cc6565b6105c79190612c95565b6040518363ffffffff1660e01b81526004016105e4929190612fc6565b6020604051808303816000875af1158015610603573d6000803e3d6000fd5b505050506040513d601f19601f820116820180604052508101906106279190613027565b507f1ce667ae522f1f380b3262bf7881f17067f07d7f50dc398385709938a9340daf61065360036124d3565b60405161066091906130a0565b60405180910390a150600160008190555050565b60008060008060008060008060606000600160008c8152602001908152602001600020604051806101200160405290816000820160009054906101000a900473ffffffffffffffffffffffffffffffffffffffff1673ffffffffffffffffffffffffffffffffffffffff1673ffffffffffffffffffffffffffffffffffffffff1681526020016001820160009054906101000a900473ffffffffffffffffffffffffffffffffffffffff1673ffffffffffffffffffffffffffffffffffffffff1673ffffffffffffffffffffffffffffffffffffffff1681526020016002820154815260200160038201548152602001600482015481526020016005820160009054906101000a900473ffffffffffffffffffffffffffffffffffffffff1673ffffffffffffffffffffffffffffffffffffffff1673ffffffffffffffffffffffffffffffffffffffff16815260200160068201548152602001600782015481526020016008820180546107e790612dbb565b80601f016020809104026020016040519081016040528092919081815260200182805461081390612dbb565b80156108605780601f1061083557610100808354040283529160200191610860565b820191906000526020600020905b81548152906001019060200180831161084357829003601f168201915b5050505050815250509050806000015181602001518260400151836060015184608001518560a001518660c001518760e00151886101000151995099509950995099509950995099509950509193959799909294969850565b600260005414156108ff576040517f08c379a00000000000000000000000000000000000000000000000000000000081526004016108f690612be3565b60405180910390fd5b60026000819055503373ffffffffffffffffffffffffffffffffffffffff166001600084815260200190815260200160002060000160009054906101000a900473ffffffffffffffffffffffffffffffffffffffff1673ffffffffffffffffffffffffffffffffffffffff1614156109ac576040517f08c379a00000000000000000000000000000000000000000000000000000000081526004016109a39061311a565b60405180910390fd5b6040516020016109bb90613186565b60405160208183030381529060405280519060200120600160008481526020019081526020016000206008016040516020016109f79190612e81565b6040516020818303038152906040528051906020012014610a4d576040517f08c379a0000000000000000000000000000000000000000000000000000000008152600401610a44906131e7565b60405180910390fd5b600060186001600085815260200190815260200160002060040154610a729190612c95565b9050806001600085815260200190815260200160002060030154610a969190612f04565b8211610ad7576040517f08c379a0000000000000000000000000000000000000000000000000000000008152600401610ace90613279565b60405180910390fd5b81600560009054906101000a900473ffffffffffffffffffffffffffffffffffffffff1673ffffffffffffffffffffffffffffffffffffffff166370a08231336040518263ffffffff1660e01b8152600401610b339190613299565b602060405180830381865afa158015610b50573d6000803e3d6000fd5b505050506040513d601f19601f82011682018060405250810190610b7491906132c9565b1015610bb5576040517f08c379a0000000000000000000000000000000000000000000000000000000008152600401610bac90613368565b60405180910390fd5b6040518060400160405280600281526020017f4f6e000000000000000000000000000000000000000000000000000000000000815250600160008581526020019081526020016000206008019080519060200190610c149291906124f7565b50336001600085815260200190815260200160002060050160006101000a81548173ffffffffffffffffffffffffffffffffffffffff021916908373ffffffffffffffffffffffffffffffffffffffff160217905550816001600085815260200190815260200160002060060181905550426001600085815260200190815260200160002060070181905550600560009054906101000a900473ffffffffffffffffffffffffffffffffffffffff1673ffffffffffffffffffffffffffffffffffffffff166323b872dd3330856040518463ffffffff1660e01b8152600401610cff93929190613388565b6020604051808303816000875af1158015610d1e573d6000803e3d6000fd5b505050506040513d601f19601f82011682018060405250810190610d429190613027565b506001600084815260200190815260200160002060010160009054906101000a900473ffffffffffffffffffffffffffffffffffffffff1673ffffffffffffffffffffffffffffffffffffffff166342842e0e303360016000888152602001908152602001600020600201546040518463ffffffff1660e01b8152600401610dcc93929190613388565b600060405180830381600087803b158015610de657600080fd5b505af1158015610dfa573d6000803e3d6000fd5b505050507f1ce667ae522f1f380b3262bf7881f17067f07d7f50dc398385709938a9340daf610e2960036124d3565b604051610e3691906133e2565b60405180910390a15060016000819055505050565b6000610e5760036124d3565b905090565b6060600260008373ffffffffffffffffffffffffffffffffffffffff1673ffffffffffffffffffffffffffffffffffffffff168152602001908152602001600020805480602002602001604051908101604052809291908181526020018280548015610ee757602002820191906000526020600020905b815481526020019060010190808311610ed3575b50505050509050919050565b60026000541415610f39576040517f08c379a0000000000000000000000000000000000000000000000000000000008152600401610f3090612be3565b60405180910390fd5b60026000819055503373ffffffffffffffffffffffffffffffffffffffff166001600084815260200190815260200160002060050160009054906101000a900473ffffffffffffffffffffffffffffffffffffffff1673ffffffffffffffffffffffffffffffffffffffff1614610fe5576040517f08c379a0000000000000000000000000000000000000000000000000000000008152600401610fdc9061345c565b60405180910390fd5b604051602001610ff490612d77565b60405160208183030381529060405280519060200120600160008481526020019081526020016000206008016040516020016110309190612e81565b6040516020818303038152906040528051906020012014611086576040517f08c379a000000000000000000000000000000000000000000000000000000000815260040161107d90612ee4565b60405180910390fd5b80600560009054906101000a900473ffffffffffffffffffffffffffffffffffffffff1673ffffffffffffffffffffffffffffffffffffffff166370a082316001600086815260200190815260200160002060050160009054906101000a900473ffffffffffffffffffffffffffffffffffffffff166040518263ffffffff1660e01b81526004016111189190613299565b602060405180830381865afa158015611135573d6000803e3d6000fd5b505050506040513d601f19601f8201168201806040525081019061115991906132c9565b101561119a576040517f08c379a0000000000000000000000000000000000000000000000000000000008152600401611191906134ee565b60405180910390fd5b8060016000848152602001908152602001600020600601546111bc9190612f04565b6001600084815260200190815260200160002060060181905550600560009054906101000a900473ffffffffffffffffffffffffffffffffffffffff1673ffffffffffffffffffffffffffffffffffffffff166323b872dd3330846040518463ffffffff1660e01b815260040161123593929190613388565b6020604051808303816000875af1158015611254573d6000803e3d6000fd5b505050506040513d601f19601f820116820180604052508101906112789190613027565b5060016000819055505050565b600260005414156112cb576040517f08c379a00000000000000000000000000000000000000000000000000000000081526004016112c290612be3565b60405180910390fd5b60026000819055503373ffffffffffffffffffffffffffffffffffffffff166001600083815260200190815260200160002060050160009054906101000a900473ffffffffffffffffffffffffffffffffffffffff1673ffffffffffffffffffffffffffffffffffffffff1614611377576040517f08c379a000000000000000000000000000000000000000000000000000000000815260040161136e90613580565b60405180910390fd5b60405160200161138690612d77565b60405160208183030381529060405280519060200120600160008381526020019081526020016000206008016040516020016113c29190612e81565b6040516020818303038152906040528051906020012014611418576040517f08c379a000000000000000000000000000000000000000000000000000000000815260040161140f90612ee4565b60405180910390fd5b3373ffffffffffffffffffffffffffffffffffffffff166001600083815260200190815260200160002060010160009054906101000a900473ffffffffffffffffffffffffffffffffffffffff1673ffffffffffffffffffffffffffffffffffffffff16636352211e60016000858152602001908152602001600020600201546040518263ffffffff1660e01b81526004016114b49190612a08565b602060405180830381865afa1580156114d1573d6000803e3d6000fd5b505050506040513d601f19601f820116820180604052508101906114f591906135b5565b73ffffffffffffffffffffffffffffffffffffffff161461154b576040517f08c379a00000000000000000000000000000000000000000000000000000000081526004016115429061362e565b60405180910390fd5b6001600082815260200190815260200160002060060154600560009054906101000a900473ffffffffffffffffffffffffffffffffffffffff1673ffffffffffffffffffffffffffffffffffffffff166370a08231306040518263ffffffff1660e01b81526004016115bd9190613299565b602060405180830381865afa1580156115da573d6000803e3d6000fd5b505050506040513d601f19601f820116820180604052508101906115fe91906132c9565b101561163f576040517f08c379a0000000000000000000000000000000000000000000000000000000008152600401611636906136c0565b60405180910390fd5b600060016000838152602001908152602001600020600701541415611699576040517f08c379a00000000000000000000000000000000000000000000000000000000081526004016116909061372c565b60405180910390fd5b6000610e106001600084815260200190815260200160002060070154426116c09190612c32565b10156116f057601860016000848152602001908152602001600020600401546116e99190612c95565b9050611744565b60016000838152602001908152602001600020600401546201518060016000858152602001908152602001600020600701544261172d9190612c32565b6117379190612c95565b6117419190612cc6565b90505b6001600083815260200190815260200160002060030154816117669190612f04565b6001600084815260200190815260200160002060060154116117bd576040517f08c379a00000000000000000000000000000000000000000000000000000000081526004016117b490613798565b60405180910390fd5b600560009054906101000a900473ffffffffffffffffffffffffffffffffffffffff1673ffffffffffffffffffffffffffffffffffffffff1663a9059cbb6001600085815260200190815260200160002060000160009054906101000a900473ffffffffffffffffffffffffffffffffffffffff1660646060856118419190612cc6565b61184b9190612c95565b6040518363ffffffff1660e01b8152600401611868929190612fc6565b6020604051808303816000875af1158015611887573d6000803e3d6000fd5b505050506040513d601f19601f820116820180604052508101906118ab9190613027565b50600560009054906101000a900473ffffffffffffffffffffffffffffffffffffffff1673ffffffffffffffffffffffffffffffffffffffff1663a9059cbb600460009054906101000a900473ffffffffffffffffffffffffffffffffffffffff16606460048561191c9190612cc6565b6119269190612c95565b6040518363ffffffff1660e01b8152600401611943929190612fc6565b6020604051808303816000875af1158015611962573d6000803e3d6000fd5b505050506040513d601f19601f820116820180604052508101906119869190613027565b50600560009054906101000a900473ffffffffffffffffffffffffffffffffffffffff1673ffffffffffffffffffffffffffffffffffffffff1663a9059cbb338360016000878152602001908152602001600020600601546119e89190612c32565b6040518363ffffffff1660e01b8152600401611a05929190612fc6565b6020604051808303816000875af1158015611a24573d6000803e3d6000fd5b505050506040513d601f19601f82011682018060405250810190611a489190613027565b506001600083815260200190815260200160002060010160009054906101000a900473ffffffffffffffffffffffffffffffffffffffff1673ffffffffffffffffffffffffffffffffffffffff166342842e0e333060016000878152602001908152602001600020600201546040518463ffffffff1660e01b8152600401611ad293929190613388565b600060405180830381600087803b158015611aec57600080fd5b505af1158015611b00573d6000803e3d6000fd5b5050505060006001600084815260200190815260200160002060050160006101000a81548173ffffffffffffffffffffffffffffffffffffffff021916908373ffffffffffffffffffffffffffffffffffffffff16021790555060006001600084815260200190815260200160002060060181905550600060016000848152602001908152602001600020600701819055506040518060400160405280600481526020017f4f70656e00000000000000000000000000000000000000000000000000000000815250600160008481526020019081526020016000206008019080519060200190611bf19291906124f7565b507f1ce667ae522f1f380b3262bf7881f17067f07d7f50dc398385709938a9340daf611c1d60036124d3565b604051611c2a91906137db565b60405180910390a150600160008190555050565b60026000541415611c84576040517f08c379a0000000000000000000000000000000000000000000000000000000008152600401611c7b90612be3565b60405180910390fd5b60026000819055503373ffffffffffffffffffffffffffffffffffffffff168373ffffffffffffffffffffffffffffffffffffffff16636352211e866040518263ffffffff1660e01b8152600401611cdc9190612a08565b602060405180830381865afa158015611cf9573d6000803e3d6000fd5b505050506040513d601f19601f82011682018060405250810190611d1d91906135b5565b73ffffffffffffffffffffffffffffffffffffffff1614611d73576040517f08c379a0000000000000000000000000000000000000000000000000000000008152600401611d6a90613855565b60405180910390fd5b611d7d60036124e1565b6040518061012001604052803373ffffffffffffffffffffffffffffffffffffffff1681526020018473ffffffffffffffffffffffffffffffffffffffff168152602001858152602001838152602001828152602001600073ffffffffffffffffffffffffffffffffffffffff16815260200160008152602001600081526020016040518060400160405280600481526020017f4f70656e0000000000000000000000000000000000000000000000000000000081525081525060016000611e4560036124d3565b815260200190815260200160002060008201518160000160006101000a81548173ffffffffffffffffffffffffffffffffffffffff021916908373ffffffffffffffffffffffffffffffffffffffff16021790555060208201518160010160006101000a81548173ffffffffffffffffffffffffffffffffffffffff021916908373ffffffffffffffffffffffffffffffffffffffff16021790555060408201518160020155606082015181600301556080820151816004015560a08201518160050160006101000a81548173ffffffffffffffffffffffffffffffffffffffff021916908373ffffffffffffffffffffffffffffffffffffffff16021790555060c0820151816006015560e08201518160070155610100820151816008019080519060200190611f779291906124f7565b50905050600260003373ffffffffffffffffffffffffffffffffffffffff1673ffffffffffffffffffffffffffffffffffffffff168152602001908152602001600020611fc460036124d3565b90806001815401808255809150506001900390600052602060002001600090919091909150558273ffffffffffffffffffffffffffffffffffffffff166342842e0e3330876040518463ffffffff1660e01b815260040161202793929190613388565b600060405180830381600087803b15801561204157600080fd5b505af1158015612055573d6000803e3d6000fd5b505050507f1ce667ae522f1f380b3262bf7881f17067f07d7f50dc398385709938a9340daf61208460036124d3565b60405161209191906137db565b60405180910390a1600160008190555050505050565b600260005414156120ed576040517f08c379a00000000000000000000000000000000000000000000000000000000081526004016120e490612be3565b60405180910390fd5b60026000819055503373ffffffffffffffffffffffffffffffffffffffff166001600083815260200190815260200160002060000160009054906101000a900473ffffffffffffffffffffffffffffffffffffffff1673ffffffffffffffffffffffffffffffffffffffff1614612199576040517f08c379a0000000000000000000000000000000000000000000000000000000008152600401612190906138c1565b60405180910390fd5b3073ffffffffffffffffffffffffffffffffffffffff166001600083815260200190815260200160002060010160009054906101000a900473ffffffffffffffffffffffffffffffffffffffff1673ffffffffffffffffffffffffffffffffffffffff16636352211e60016000858152602001908152602001600020600201546040518263ffffffff1660e01b81526004016122359190612a08565b602060405180830381865afa158015612252573d6000803e3d6000fd5b505050506040513d601f19601f8201168201806040525081019061227691906135b5565b73ffffffffffffffffffffffffffffffffffffffff16146122cc576040517f08c379a00000000000000000000000000000000000000000000000000000000081526004016122c390613953565b60405180910390fd5b6040516020016122db90613186565b60405160208183030381529060405280519060200120600160008381526020019081526020016000206008016040516020016123179190612e81565b604051602081830303815290604052805190602001201461236d576040517f08c379a0000000000000000000000000000000000000000000000000000000008152600401612364906131e7565b60405180910390fd5b6040518060400160405280600981526020017f43616e63656c6c656400000000000000000000000000000000000000000000008152506001600083815260200190815260200160002060080190805190602001906123cc9291906124f7565b506001600082815260200190815260200160002060010160009054906101000a900473ffffffffffffffffffffffffffffffffffffffff1673ffffffffffffffffffffffffffffffffffffffff166342842e0e303360016000868152602001908152602001600020600201546040518463ffffffff1660e01b815260040161245693929190613388565b600060405180830381600087803b15801561247057600080fd5b505af1158015612484573d6000803e3d6000fd5b505050507f1ce667ae522f1f380b3262bf7881f17067f07d7f50dc398385709938a9340daf6124b360036124d3565b6040516124c091906139bf565b60405180910390a1600160008190555050565b600081600001549050919050565b6001816000016000828254019250508190555050565b82805461250390612dbb565b90600052602060002090601f016020900481019282612525576000855561256c565b82601f1061253e57805160ff191683800117855561256c565b8280016001018555821561256c579182015b8281111561256b578251825591602001919060010190612550565b5b509050612579919061257d565b5090565b5b8082111561259657600081600090555060010161257e565b5090565b6000604051905090565b600080fd5b600080fd5b600073ffffffffffffffffffffffffffffffffffffffff82169050919050565b60006125d9826125ae565b9050919050565b6125e9816125ce565b81146125f457600080fd5b50565b600081359050612606816125e0565b92915050565b6000819050919050565b61261f8161260c565b811461262a57600080fd5b50565b60008135905061263c81612616565b92915050565b600080fd5b600080fd5b6000601f19601f8301169050919050565b7f4e487b7100000000000000000000000000000000000000000000000000000000600052604160045260246000fd5b6126958261264c565b810181811067ffffffffffffffff821117156126b4576126b361265d565b5b80604052505050565b60006126c761259a565b90506126d3828261268c565b919050565b600067ffffffffffffffff8211156126f3576126f261265d565b5b6126fc8261264c565b9050602081019050919050565b82818337600083830152505050565b600061272b612726846126d8565b6126bd565b90508281526020810184848401111561274757612746612647565b5b612752848285612709565b509392505050565b600082601f83011261276f5761276e612642565b5b813561277f848260208601612718565b91505092915050565b600080600080608085870312156127a2576127a16125a4565b5b60006127b0878288016125f7565b94505060206127c1878288016125f7565b93505060406127d28782880161262d565b925050606085013567ffffffffffffffff8111156127f3576127f26125a9565b5b6127ff8782880161275a565b91505092959194509250565b60007fffffffff0000000000000000000000000000000000000000000000000000000082169050919050565b6128408161280b565b82525050565b600060208201905061285b6000830184612837565b92915050565b600060208284031215612877576128766125a4565b5b60006128858482850161262d565b91505092915050565b612897816125ce565b82525050565b6128a68161260c565b82525050565b600081519050919050565b600082825260208201905092915050565b60005b838110156128e65780820151818401526020810190506128cb565b838111156128f5576000848401525b50505050565b6000612906826128ac565b61291081856128b7565b93506129208185602086016128c8565b6129298161264c565b840191505092915050565b60006101208201905061294a600083018c61288e565b612957602083018b61288e565b612964604083018a61289d565b612971606083018961289d565b61297e608083018861289d565b61298b60a083018761288e565b61299860c083018661289d565b6129a560e083018561289d565b8181036101008301526129b881846128fb565b90509a9950505050505050505050565b600080604083850312156129df576129de6125a4565b5b60006129ed8582860161262d565b92505060206129fe8582860161262d565b9150509250929050565b6000602082019050612a1d600083018461289d565b92915050565b600060208284031215612a3957612a386125a4565b5b6000612a47848285016125f7565b91505092915050565b600081519050919050565b600082825260208201905092915050565b6000819050602082019050919050565b612a858161260c565b82525050565b6000612a978383612a7c565b60208301905092915050565b6000602082019050919050565b6000612abb82612a50565b612ac58185612a5b565b9350612ad083612a6c565b8060005b83811015612b01578151612ae88882612a8b565b9750612af383612aa3565b925050600181019050612ad4565b5085935050505092915050565b60006020820190508181036000830152612b288184612ab0565b905092915050565b60008060008060808587031215612b4a57612b496125a4565b5b6000612b588782880161262d565b9450506020612b69878288016125f7565b9350506040612b7a8782880161262d565b9250506060612b8b8782880161262d565b91505092959194509250565b7f5265656e7472616e637947756172643a207265656e7472616e742063616c6c00600082015250565b6000612bcd601f836128b7565b9150612bd882612b97565b602082019050919050565b60006020820190508181036000830152612bfc81612bc0565b9050919050565b7f4e487b7100000000000000000000000000000000000000000000000000000000600052601160045260246000fd5b6000612c3d8261260c565b9150612c488361260c565b925082821015612c5b57612c5a612c03565b5b828203905092915050565b7f4e487b7100000000000000000000000000000000000000000000000000000000600052601260045260246000fd5b6000612ca08261260c565b9150612cab8361260c565b925082612cbb57612cba612c66565b5b828204905092915050565b6000612cd18261260c565b9150612cdc8361260c565b9250817fffffffffffffffffffffffffffffffffffffffffffffffffffffffffffffffff0483118215151615612d1557612d14612c03565b5b828202905092915050565b600081905092915050565b7f4f6e000000000000000000000000000000000000000000000000000000000000600082015250565b6000612d61600283612d20565b9150612d6c82612d2b565b600282019050919050565b6000612d8282612d54565b9150819050919050565b7f4e487b7100000000000000000000000000000000000000000000000000000000600052602260045260246000fd5b60006002820490506001821680612dd357607f821691505b60208210811415612de757612de6612d8c565b5b50919050565b60008190508160005260206000209050919050565b60008154612e0f81612dbb565b612e198186612d20565b94506001821660008114612e345760018114612e4557612e78565b60ff19831686528186019350612e78565b612e4e85612ded565b60005b83811015612e7057815481890152600182019150602081019050612e51565b838801955050505b50505092915050565b6000612e8d8284612e02565b915081905092915050565b7f4f66666572206973206e6f74204f6e0000000000000000000000000000000000600082015250565b6000612ece600f836128b7565b9150612ed982612e98565b602082019050919050565b60006020820190508181036000830152612efd81612ec1565b9050919050565b6000612f0f8261260c565b9150612f1a8361260c565b9250827fffffffffffffffffffffffffffffffffffffffffffffffffffffffffffffffff03821115612f4f57612f4e612c03565b5b828201905092915050565b7f426f72726f776572206973206e6f74204c697175696461746564000000000000600082015250565b6000612f90601a836128b7565b9150612f9b82612f5a565b602082019050919050565b60006020820190508181036000830152612fbf81612f83565b9050919050565b6000604082019050612fdb600083018561288e565b612fe8602083018461289d565b9392505050565b60008115159050919050565b61300481612fef565b811461300f57600080fd5b50565b60008151905061302181612ffb565b92915050565b60006020828403121561303d5761303c6125a4565b5b600061304b84828501613012565b91505092915050565b7f4c69717569646174656400000000000000000000000000000000000000000000600082015250565b600061308a600a836128b7565b915061309582613054565b602082019050919050565b60006040820190506130b5600083018461289d565b81810360208301526130c68161307d565b905092915050565b7f43616e206e6f742061636365707420796f7572206f776e204f66666572000000600082015250565b6000613104601d836128b7565b915061310f826130ce565b602082019050919050565b60006020820190508181036000830152613133816130f7565b9050919050565b7f4f70656e00000000000000000000000000000000000000000000000000000000600082015250565b6000613170600483612d20565b915061317b8261313a565b600482019050919050565b600061319182613163565b9150819050919050565b7f4f66666572206973206e6f74204f70656e000000000000000000000000000000600082015250565b60006131d16011836128b7565b91506131dc8261319b565b602082019050919050565b60006020820190508181036000830152613200816131c4565b9050919050565b7f4e6f7420656e6f75676820636f6c6c61746572616c20746f20626f72726f772060008201527f666f72206d6f7265207468616e20616e20686f75720000000000000000000000602082015250565b60006132636035836128b7565b915061326e82613207565b604082019050919050565b6000602082019050818103600083015261329281613256565b9050919050565b60006020820190506132ae600083018461288e565b92915050565b6000815190506132c381612616565b92915050565b6000602082840312156132df576132de6125a4565b5b60006132ed848285016132b4565b91505092915050565b7f4e6f7420656e6f7567682062616c616e636520746f207061792074686520636f60008201527f6c6c61746572616c000000000000000000000000000000000000000000000000602082015250565b60006133526028836128b7565b915061335d826132f6565b604082019050919050565b6000602082019050818103600083015261338181613345565b9050919050565b600060608201905061339d600083018661288e565b6133aa602083018561288e565b6133b7604083018461289d565b949350505050565b60006133cc6002836128b7565b91506133d782612d2b565b602082019050919050565b60006040820190506133f7600083018461289d565b8181036020830152613408816133bf565b905092915050565b7f4f6e6c7920626f72726f7765722063616e2061646420636f6c6c61746572616c600082015250565b60006134466020836128b7565b915061345182613410565b602082019050919050565b6000602082019050818103600083015261347581613439565b9050919050565b7f426f72726f77657220646f6573206e6f74206861766520656e6f75676820746f60008201527f207061792074686520657874726120636f6c6c61746572616c00000000000000602082015250565b60006134d86039836128b7565b91506134e38261347c565b604082019050919050565b60006020820190508181036000830152613507816134cb565b9050919050565b7f4f6e6c7920626f72726f7765722063616e20726570617920746865204f66666560008201527f7200000000000000000000000000000000000000000000000000000000000000602082015250565b600061356a6021836128b7565b91506135758261350e565b604082019050919050565b600060208201905081810360008301526135998161355d565b9050919050565b6000815190506135af816125e0565b92915050565b6000602082840312156135cb576135ca6125a4565b5b60006135d9848285016135a0565b91505092915050565b7f426f72726f776572206973206e6f74206f776e6572206f6620746865204e4654600082015250565b60006136186020836128b7565b9150613623826135e2565b602082019050919050565b600060208201905081810360008301526136478161360b565b9050919050565b7f50726f746f636f6c20646f6573206e6f74206861766520656e6f75676820746f60008201527f207061792074686520636f6c6c61746572616c00000000000000000000000000602082015250565b60006136aa6033836128b7565b91506136b58261364e565b604082019050919050565b600060208201905081810360008301526136d98161369d565b9050919050565b7f4163636570742074696d65203d20300000000000000000000000000000000000600082015250565b6000613716600f836128b7565b9150613721826136e0565b602082019050919050565b6000602082019050818103600083015261374581613709565b9050919050565b7f426f72726f7765722063616e206265204c697175696461746564000000000000600082015250565b6000613782601a836128b7565b915061378d8261374c565b602082019050919050565b600060208201905081810360008301526137b181613775565b9050919050565b60006137c56004836128b7565b91506137d08261313a565b602082019050919050565b60006040820190506137f0600083018461289d565b8181036020830152613801816137b8565b905092915050565b7f4e6f7420746865206f776e6572206f6620746865204e46540000000000000000600082015250565b600061383f6018836128b7565b915061384a82613809565b602082019050919050565b6000602082019050818103600083015261386e81613832565b9050919050565b7f4e6f7420746865206f776e6572206f6620746865204f66666572000000000000600082015250565b60006138ab601a836128b7565b91506138b682613875565b602082019050919050565b600060208201905081810360008301526138da8161389e565b9050919050565b7f5468652050726f746f636f6c20646f6573206e6f74206861766520746865204e60008201527f4654000000000000000000000000000000000000000000000000000000000000602082015250565b600061393d6022836128b7565b9150613948826138e1565b604082019050919050565b6000602082019050818103600083015261396c81613930565b9050919050565b7f43616e63656c6c65640000000000000000000000000000000000000000000000600082015250565b60006139a96009836128b7565b91506139b482613973565b602082019050919050565b60006040820190506139d4600083018461289d565b81810360208301526139e58161399c565b90509291505056fea26469706673582212201c0313dc0c7bd786a04ac3fb2f3d11bf66abdac238c1a25fe8ae48cd7234fc1864736f6c634300080c0033",
  "immutableReferences": {},
  "source": "// SPDX-License-Identifier: UNLICENSED\r\n\r\npragma solidity ^0.8.3;\r\n\r\nimport \"../node_modules/@openzeppelin/contracts/utils/Counters.sol\";\r\nimport \"../node_modules/@openzeppelin/contracts/token/ERC20/IERC20.sol\";\r\nimport \"../node_modules/@openzeppelin/contracts/token/ERC721/IERC721.sol\";\r\nimport \"../node_modules/@openzeppelin/contracts/security/ReentrancyGuard.sol\";\r\nimport \"../node_modules/@openzeppelin/contracts/token/ERC721/utils/ERC721Holder.sol\";\r\n\r\ncontract ERC721Lending is ERC721Holder, ReentrancyGuard {\r\n\r\n    event OfferStatusChange(uint offerId, string status);\r\n\r\n    struct Offer {\r\n        address owner;\r\n        address nft;\r\n        uint nftId;\r\n        uint liquidation;\r\n        uint dailyFee;\r\n\r\n        address borrower;\r\n        uint collateral;\r\n        uint acceptTime;\r\n\r\n        string status; // Open, On, Cancelled, Liquidated\r\n    }\r\n\r\n    mapping(uint256 => Offer) offers;\r\n    mapping(address => uint256[]) addressToOffers;\r\n\r\n    using Counters for Counters.Counter;\r\n    Counters.Counter private offerCounter;\r\n\r\n    address PayOutAddress;\r\n    IERC20 token;\r\n\r\n    constructor(address PayOut, address TokenAddress) {\r\n        PayOutAddress = PayOut;\r\n        token = IERC20(TokenAddress);\r\n    }\r\n\r\n    function getOffer(uint offerId) public view returns (address, address, uint, uint, uint, address, uint, uint, string memory) {\r\n        Offer memory offer = offers[offerId];\r\n        return (offer.owner, offer.nft, offer.nftId, offer.liquidation, offer.dailyFee, offer.borrower, offer.collateral, offer.acceptTime, offer.status);\r\n    }\r\n\r\n    function getOffersOfAddress(address addr) public view returns (uint[] memory) {\r\n        return addressToOffers[addr];\r\n    }\r\n\r\n    function getOfferQuantities() public view returns (uint) {\r\n        return offerCounter.current();\r\n    }\r\n\r\n\r\n    //Main Functions\r\n\r\n    function createOffer(uint nftId, address nftAddress, uint liquidation, uint fee) public nonReentrant() {\r\n        //TODO: Check if NFTAddress belongs to ERC721 compliant token\r\n        require(IERC721(nftAddress).ownerOf(nftId) == msg.sender, \"Not the owner of the NFT\");\r\n\r\n        offerCounter.increment();\r\n        offers[offerCounter.current()] = Offer(msg.sender, nftAddress, nftId, liquidation, fee, address(0), 0, 0, \"Open\");\r\n        addressToOffers[msg.sender].push(offerCounter.current());\r\n        IERC721(nftAddress).safeTransferFrom(msg.sender, address(this), nftId);\r\n        emit OfferStatusChange(offerCounter.current(), \"Open\");\r\n    }\r\n\r\n    function cancelOffer(uint offerId) public nonReentrant() {\r\n        require(offers[offerId].owner == msg.sender, \"Not the owner of the Offer\");\r\n        require(IERC721(offers[offerId].nft).ownerOf(offers[offerId].nftId) == address(this), \"The Protocol does not have the NFT\");\r\n        require(keccak256(abi.encodePacked(offers[offerId].status)) == keccak256(abi.encodePacked(\"Open\")), \"Offer is not Open\");\r\n\r\n        offers[offerId].status = \"Cancelled\";\r\n        IERC721(offers[offerId].nft).safeTransferFrom(address(this), msg.sender, offers[offerId].nftId);\r\n        emit OfferStatusChange(offerCounter.current(), \"Cancelled\");\r\n    }\r\n\r\n    function acceptOffer(uint offerId, uint collateral) public nonReentrant() {\r\n        require(offers[offerId].owner != msg.sender, \"Can not accept your own Offer\");\r\n        require(keccak256(abi.encodePacked(offers[offerId].status)) == keccak256(abi.encodePacked(\"Open\")), \"Offer is not Open\");\r\n        uint minimumFee = offers[offerId].dailyFee/24;\r\n        require(collateral > offers[offerId].liquidation + minimumFee, \"Not enough collateral to borrow for more than an hour\");\r\n        require(token.balanceOf(msg.sender) >= collateral, \"Not enough balance to pay the collateral\");\r\n\r\n        offers[offerId].status = \"On\";\r\n        offers[offerId].borrower = msg.sender;\r\n        offers[offerId].collateral = collateral;\r\n        offers[offerId].acceptTime = block.timestamp;\r\n        token.transferFrom(msg.sender, address(this), collateral);\r\n        IERC721(offers[offerId].nft).safeTransferFrom(address(this), msg.sender, offers[offerId].nftId);\r\n        emit OfferStatusChange(offerCounter.current(), \"On\");\r\n    }\r\n\r\n    function repayOffer(uint offerId) public nonReentrant() {\r\n        require(offers[offerId].borrower == msg.sender, \"Only borrower can repay the Offer\");\r\n        require(keccak256(abi.encodePacked(offers[offerId].status)) == keccak256(abi.encodePacked(\"On\")), \"Offer is not On\");\r\n        require(IERC721(offers[offerId].nft).ownerOf(offers[offerId].nftId) == msg.sender, \"Borrower is not owner of the NFT\");\r\n        require(token.balanceOf(address(this)) >= offers[offerId].collateral, \"Protocol does not have enough to pay the collateral\");\r\n        require(offers[offerId].acceptTime != 0, \"Accept time = 0\");\r\n        uint feeToPay;\r\n        //minimum Fee is at least 1 hour\r\n        if ((block.timestamp - offers[offerId].acceptTime) < 60*60) {\r\n            feeToPay = offers[offerId].dailyFee/24;\r\n        } else {\r\n            feeToPay = ((block.timestamp - offers[offerId].acceptTime)/(60*60*24))*offers[offerId].dailyFee;\r\n        }\r\n        // User is not liquidated\r\n        require(offers[offerId].collateral > (feeToPay + offers[offerId].liquidation), \"Borrower can be Liquidated\");\r\n\r\n        token.transfer(offers[offerId].owner, feeToPay*96/100);\r\n        token.transfer(PayOutAddress, feeToPay*4/100);\r\n        token.transfer(msg.sender, (offers[offerId].collateral - feeToPay));\r\n        IERC721(offers[offerId].nft).safeTransferFrom(msg.sender, address(this), offers[offerId].nftId);\r\n\r\n        offers[offerId].borrower = address(0);\r\n        offers[offerId].collateral = 0;\r\n        offers[offerId].acceptTime = 0;\r\n        offers[offerId].status = \"Open\";\r\n        emit OfferStatusChange(offerCounter.current(), \"Open\");\r\n    }\r\n\r\n    function addCollateral(uint offerId, uint extraCollateral) public nonReentrant() {\r\n        require(offers[offerId].borrower == msg.sender, \"Only borrower can add collateral\");\r\n        require(keccak256(abi.encodePacked(offers[offerId].status)) == keccak256(abi.encodePacked(\"On\")), \"Offer is not On\");\r\n        require(token.balanceOf(offers[offerId].borrower) >= extraCollateral, \"Borrower does not have enough to pay the extra collateral\");\r\n\r\n        offers[offerId].collateral = offers[offerId].collateral + extraCollateral;\r\n        token.transferFrom(msg.sender, address(this), extraCollateral);\r\n    }\r\n\r\n    function liquidate(uint offerId) public nonReentrant() {\r\n        uint feeToPay = ((block.timestamp - offers[offerId].acceptTime)/(60*60*24))*offers[offerId].dailyFee;\r\n        require(keccak256(abi.encodePacked(offers[offerId].status)) == keccak256(abi.encodePacked(\"On\")), \"Offer is not On\");\r\n        require(offers[offerId].collateral < (feeToPay + offers[offerId].liquidation), \"Borrower is not Liquidated\");\r\n\r\n        offers[offerId].status = \"Liquidated\";\r\n        token.transfer(offers[offerId].owner, offers[offerId].collateral*90/100);\r\n        token.transfer(PayOutAddress, offers[offerId].collateral*10/100);\r\n        emit OfferStatusChange(offerCounter.current(), \"Liquidated\");\r\n    }\r\n}",
  "sourcePath": "C:\\Users\\jtsch\\OneDrive\\Escritorio\\DFK-Lending\\DFK-Lending-SmartContracts\\contracts\\ERC721Lending.sol",
  "compiler": {
    "name": "solc",
    "version": "0.8.12+commit.f00d7308.Emscripten.clang"
  },
  "schemaVersion": "3.4.3",
  "updatedAt": "2022-02-19T18:35:59.571Z",
  "devdoc": {
    "kind": "dev",
    "methods": {
      "onERC721Received(address,address,uint256,bytes)": {
        "details": "See {IERC721Receiver-onERC721Received}. Always returns `IERC721Receiver.onERC721Received.selector`."
      }
    },
    "version": 1
  },
  "userdoc": {
    "kind": "user",
    "methods": {},
    "version": 1
  }
}