{
  "contractName": "ERC721Lending",
  "abi": [
    {
      "inputs": [
        {
          "internalType": "address",
          "name": "Payout",
          "type": "address"
        },
        {
          "internalType": "address",
          "name": "TokenAddress",
          "type": "address"
        },
        {
          "internalType": "address",
          "name": "BaseERC721Address",
          "type": "address"
        }
      ],
      "stateMutability": "nonpayable",
      "type": "constructor"
    },
    {
      "anonymous": false,
      "inputs": [
        {
          "indexed": false,
          "internalType": "uint256",
          "name": "offerId",
          "type": "uint256"
        },
        {
          "indexed": false,
          "internalType": "string",
          "name": "status",
          "type": "string"
        }
      ],
      "name": "OfferStatusChange",
      "type": "event"
    },
    {
      "anonymous": false,
      "inputs": [
        {
          "indexed": true,
          "internalType": "bytes32",
          "name": "role",
          "type": "bytes32"
        },
        {
          "indexed": true,
          "internalType": "bytes32",
          "name": "previousAdminRole",
          "type": "bytes32"
        },
        {
          "indexed": true,
          "internalType": "bytes32",
          "name": "newAdminRole",
          "type": "bytes32"
        }
      ],
      "name": "RoleAdminChanged",
      "type": "event"
    },
    {
      "anonymous": false,
      "inputs": [
        {
          "indexed": true,
          "internalType": "bytes32",
          "name": "role",
          "type": "bytes32"
        },
        {
          "indexed": true,
          "internalType": "address",
          "name": "account",
          "type": "address"
        },
        {
          "indexed": true,
          "internalType": "address",
          "name": "sender",
          "type": "address"
        }
      ],
      "name": "RoleGranted",
      "type": "event"
    },
    {
      "anonymous": false,
      "inputs": [
        {
          "indexed": true,
          "internalType": "bytes32",
          "name": "role",
          "type": "bytes32"
        },
        {
          "indexed": true,
          "internalType": "address",
          "name": "account",
          "type": "address"
        },
        {
          "indexed": true,
          "internalType": "address",
          "name": "sender",
          "type": "address"
        }
      ],
      "name": "RoleRevoked",
      "type": "event"
    },
    {
      "inputs": [],
      "name": "DEFAULT_ADMIN_ROLE",
      "outputs": [
        {
          "internalType": "bytes32",
          "name": "",
          "type": "bytes32"
        }
      ],
      "stateMutability": "view",
      "type": "function",
      "constant": true
    },
    {
      "inputs": [
        {
          "internalType": "bytes32",
          "name": "role",
          "type": "bytes32"
        }
      ],
      "name": "getRoleAdmin",
      "outputs": [
        {
          "internalType": "bytes32",
          "name": "",
          "type": "bytes32"
        }
      ],
      "stateMutability": "view",
      "type": "function",
      "constant": true
    },
    {
      "inputs": [
        {
          "internalType": "bytes32",
          "name": "role",
          "type": "bytes32"
        },
        {
          "internalType": "address",
          "name": "account",
          "type": "address"
        }
      ],
      "name": "grantRole",
      "outputs": [],
      "stateMutability": "nonpayable",
      "type": "function"
    },
    {
      "inputs": [
        {
          "internalType": "bytes32",
          "name": "role",
          "type": "bytes32"
        },
        {
          "internalType": "address",
          "name": "account",
          "type": "address"
        }
      ],
      "name": "hasRole",
      "outputs": [
        {
          "internalType": "bool",
          "name": "",
          "type": "bool"
        }
      ],
      "stateMutability": "view",
      "type": "function",
      "constant": true
    },
    {
      "inputs": [
        {
          "internalType": "address",
          "name": "",
          "type": "address"
        },
        {
          "internalType": "address",
          "name": "",
          "type": "address"
        },
        {
          "internalType": "uint256",
          "name": "",
          "type": "uint256"
        },
        {
          "internalType": "bytes",
          "name": "",
          "type": "bytes"
        }
      ],
      "name": "onERC721Received",
      "outputs": [
        {
          "internalType": "bytes4",
          "name": "",
          "type": "bytes4"
        }
      ],
      "stateMutability": "nonpayable",
      "type": "function"
    },
    {
      "inputs": [
        {
          "internalType": "bytes32",
          "name": "role",
          "type": "bytes32"
        },
        {
          "internalType": "address",
          "name": "account",
          "type": "address"
        }
      ],
      "name": "renounceRole",
      "outputs": [],
      "stateMutability": "nonpayable",
      "type": "function"
    },
    {
      "inputs": [
        {
          "internalType": "bytes32",
          "name": "role",
          "type": "bytes32"
        },
        {
          "internalType": "address",
          "name": "account",
          "type": "address"
        }
      ],
      "name": "revokeRole",
      "outputs": [],
      "stateMutability": "nonpayable",
      "type": "function"
    },
    {
      "inputs": [
        {
          "internalType": "bytes4",
          "name": "interfaceId",
          "type": "bytes4"
        }
      ],
      "name": "supportsInterface",
      "outputs": [
        {
          "internalType": "bool",
          "name": "",
          "type": "bool"
        }
      ],
      "stateMutability": "view",
      "type": "function",
      "constant": true
    },
    {
      "inputs": [
        {
          "internalType": "uint256",
          "name": "offerId",
          "type": "uint256"
        }
      ],
      "name": "getOffer",
      "outputs": [
        {
          "internalType": "address",
          "name": "",
          "type": "address"
        },
        {
          "internalType": "address",
          "name": "",
          "type": "address"
        },
        {
          "internalType": "uint256",
          "name": "",
          "type": "uint256"
        },
        {
          "internalType": "uint256",
          "name": "",
          "type": "uint256"
        },
        {
          "internalType": "uint256",
          "name": "",
          "type": "uint256"
        },
        {
          "internalType": "address",
          "name": "",
          "type": "address"
        },
        {
          "internalType": "uint256",
          "name": "",
          "type": "uint256"
        },
        {
          "internalType": "uint256",
          "name": "",
          "type": "uint256"
        },
        {
          "internalType": "string",
          "name": "",
          "type": "string"
        }
      ],
      "stateMutability": "view",
      "type": "function",
      "constant": true
    },
    {
      "inputs": [
        {
          "internalType": "address",
          "name": "addr",
          "type": "address"
        }
      ],
      "name": "getOffersOfAddress",
      "outputs": [
        {
          "internalType": "uint256[]",
          "name": "",
          "type": "uint256[]"
        }
      ],
      "stateMutability": "view",
      "type": "function",
      "constant": true
    },
    {
      "inputs": [],
      "name": "getOfferQuantities",
      "outputs": [
        {
          "internalType": "uint256",
          "name": "",
          "type": "uint256"
        }
      ],
      "stateMutability": "view",
      "type": "function",
      "constant": true
    },
    {
      "inputs": [
        {
          "internalType": "uint256",
          "name": "offerId",
          "type": "uint256"
        }
      ],
      "name": "feeToPay",
      "outputs": [
        {
          "internalType": "uint256",
          "name": "",
          "type": "uint256"
        }
      ],
      "stateMutability": "view",
      "type": "function",
      "constant": true
    },
    {
      "inputs": [
        {
          "internalType": "uint256",
          "name": "nftId",
          "type": "uint256"
        },
        {
          "internalType": "address",
          "name": "nftAddress",
          "type": "address"
        },
        {
          "internalType": "uint256",
          "name": "liquidation",
          "type": "uint256"
        },
        {
          "internalType": "uint256",
          "name": "fee",
          "type": "uint256"
        }
      ],
      "name": "createOffer",
      "outputs": [],
      "stateMutability": "nonpayable",
      "type": "function"
    },
    {
      "inputs": [
        {
          "internalType": "uint256",
          "name": "offerId",
          "type": "uint256"
        }
      ],
      "name": "cancelOffer",
      "outputs": [],
      "stateMutability": "nonpayable",
      "type": "function"
    },
    {
      "inputs": [
        {
          "internalType": "uint256",
          "name": "offerId",
          "type": "uint256"
        },
        {
          "internalType": "uint256",
          "name": "collateral",
          "type": "uint256"
        }
      ],
      "name": "acceptOffer",
      "outputs": [],
      "stateMutability": "nonpayable",
      "type": "function"
    },
    {
      "inputs": [
        {
          "internalType": "uint256",
          "name": "offerId",
          "type": "uint256"
        }
      ],
      "name": "repayOffer",
      "outputs": [],
      "stateMutability": "nonpayable",
      "type": "function"
    },
    {
      "inputs": [
        {
          "internalType": "uint256",
          "name": "offerId",
          "type": "uint256"
        },
        {
          "internalType": "uint256",
          "name": "extraCollateral",
          "type": "uint256"
        }
      ],
      "name": "addCollateral",
      "outputs": [],
      "stateMutability": "nonpayable",
      "type": "function"
    },
    {
      "inputs": [
        {
          "internalType": "uint256",
          "name": "offerId",
          "type": "uint256"
        }
      ],
      "name": "liquidate",
      "outputs": [],
      "stateMutability": "nonpayable",
      "type": "function"
    },
    {
      "inputs": [
        {
          "internalType": "address",
          "name": "newPayout",
          "type": "address"
        }
      ],
      "name": "transferPayoutAddress",
      "outputs": [],
      "stateMutability": "nonpayable",
      "type": "function"
    },
    {
      "inputs": [
        {
          "internalType": "uint256",
          "name": "newFee",
          "type": "uint256"
        }
      ],
      "name": "changeFee",
      "outputs": [],
      "stateMutability": "nonpayable",
      "type": "function"
    },
    {
      "inputs": [
        {
          "internalType": "uint256",
          "name": "newLiquidationFee",
          "type": "uint256"
        }
      ],
      "name": "changeLiquidationFee",
      "outputs": [],
      "stateMutability": "nonpayable",
      "type": "function"
    },
    {
      "inputs": [
        {
          "internalType": "address",
          "name": "_contract",
          "type": "address"
        }
      ],
      "name": "addContract",
      "outputs": [],
      "stateMutability": "nonpayable",
      "type": "function"
    },
    {
      "inputs": [
        {
          "internalType": "address",
          "name": "_contract",
          "type": "address"
        }
      ],
      "name": "removeContract",
      "outputs": [],
      "stateMutability": "nonpayable",
      "type": "function"
    }
  ],
  "bytecode": "0x60806040523480156200001157600080fd5b5060405162004c2f38038062004c2f83398181016040528101906200003791906200032b565b600160008190555082600660006101000a81548173ffffffffffffffffffffffffffffffffffffffff021916908373ffffffffffffffffffffffffffffffffffffffff16021790555081600760006101000a81548173ffffffffffffffffffffffffffffffffffffffff021916908373ffffffffffffffffffffffffffffffffffffffff1602179055506004600881905550600a6009819055506001600460008373ffffffffffffffffffffffffffffffffffffffff1673ffffffffffffffffffffffffffffffffffffffff16815260200190815260200160002060006101000a81548160ff0219169083151502179055506200013e6000801b336200014760201b60201c565b50505062000387565b6200015982826200015d60201b60201c565b5050565b6200016f82826200024e60201b60201c565b6200024a57600180600084815260200190815260200160002060000160008373ffffffffffffffffffffffffffffffffffffffff1673ffffffffffffffffffffffffffffffffffffffff16815260200190815260200160002060006101000a81548160ff021916908315150217905550620001ef620002b960201b60201c565b73ffffffffffffffffffffffffffffffffffffffff168173ffffffffffffffffffffffffffffffffffffffff16837f2f8788117e7eff1d82e926ec794901d17c78024a50270940304540a733656f0d60405160405180910390a45b5050565b60006001600084815260200190815260200160002060000160008373ffffffffffffffffffffffffffffffffffffffff1673ffffffffffffffffffffffffffffffffffffffff16815260200190815260200160002060009054906101000a900460ff16905092915050565b600033905090565b600080fd5b600073ffffffffffffffffffffffffffffffffffffffff82169050919050565b6000620002f382620002c6565b9050919050565b6200030581620002e6565b81146200031157600080fd5b50565b6000815190506200032581620002fa565b92915050565b600080600060608486031215620003475762000346620002c1565b5b6000620003578682870162000314565b93505060206200036a8682870162000314565b92505060406200037d8682870162000314565b9150509250925092565b61489880620003976000396000f3fe608060405234801561001057600080fd5b506004361061014d5760003560e01c806381257bd5116100c3578063ae699e2e1161007c578063ae699e2e146103c6578063c375c2ef146103e2578063d547741f146103fe578063e121e6e51461041a578063ee1733e314610436578063ef706adf146104525761014d565b806381257bd5146102f25780638486014d1461030e57806391d148541461032c578063a217fddf1461035c578063a362edc61461037a578063a8f35adf146103aa5761014d565b8063415f124011610115578063415f12401461021a5780634579268a146102365780634d6bbf101461026e5780635f539d691461028a5780636a1db1bf146102a6578063755505a0146102c25761014d565b806301ffc9a714610152578063150b7a0214610182578063248a9ca3146101b25780632f2ff15d146101e257806336568abe146101fe575b600080fd5b61016c600480360381019061016791906130af565b61046e565b60405161017991906130f7565b60405180910390f35b61019c600480360381019061019791906132ec565b6104e8565b6040516101a9919061337e565b60405180910390f35b6101cc60048036038101906101c791906133cf565b6104fc565b6040516101d9919061340b565b60405180910390f35b6101fc60048036038101906101f79190613426565b61051c565b005b61021860048036038101906102139190613426565b610545565b005b610234600480360381019061022f9190613466565b6105c8565b005b610250600480360381019061024b9190613466565b6109e4565b60405161026599989796959493929190613539565b60405180910390f35b61028860048036038101906102839190613466565b610c29565b005b6102a4600480360381019061029f91906135cd565b610c49565b005b6102c060048036038101906102bb9190613466565b610cba565b005b6102dc60048036038101906102d79190613466565b610cda565b6040516102e991906135fa565b60405180910390f35b61030c60048036038101906103079190613615565b610d54565b005b6103166112d1565b60405161032391906135fa565b60405180910390f35b61034660048036038101906103419190613426565b6112e2565b60405161035391906130f7565b60405180910390f35b61036461134d565b604051610371919061340b565b60405180910390f35b610394600480360381019061038f91906135cd565b611354565b6040516103a19190613713565b60405180910390f35b6103c460048036038101906103bf9190613615565b6113eb565b005b6103e060048036038101906103db91906135cd565b61177d565b005b6103fc60048036038101906103f791906135cd565b6117d7565b005b61041860048036038101906104139190613426565b611848565b005b610434600480360381019061042f9190613466565b611871565b005b610450600480360381019061044b9190613735565b612192565b005b61046c60048036038101906104679190613466565b61264c565b005b60007f7965db0b000000000000000000000000000000000000000000000000000000007bffffffffffffffffffffffffffffffffffffffffffffffffffffffff1916827bffffffffffffffffffffffffffffffffffffffffffffffffffffffff191614806104e157506104e082612a6f565b5b9050919050565b600063150b7a0260e01b9050949350505050565b600060016000838152602001908152602001600020600101549050919050565b610525826104fc565b61053681610531612ad9565b612ae1565b6105408383612b7e565b505050565b61054d612ad9565b73ffffffffffffffffffffffffffffffffffffffff168173ffffffffffffffffffffffffffffffffffffffff16146105ba576040517f08c379a00000000000000000000000000000000000000000000000000000000081526004016105b19061380e565b60405180910390fd5b6105c48282612c5e565b5050565b6002600054141561060e576040517f08c379a00000000000000000000000000000000000000000000000000000000081526004016106059061387a565b60405180910390fd5b6002600081905550600061062182610cda565b9050604051602001610632906138f1565b604051602081830303815290604052805190602001206002600084815260200190815260200160002060080160405160200161066e91906139fb565b60405160208183030381529060405280519060200120146106c4576040517f08c379a00000000000000000000000000000000000000000000000000000000081526004016106bb90613a5e565b60405180910390fd5b6002600083815260200190815260200160002060030154816106e69190613aad565b60026000848152602001908152602001600020600601541061073d576040517f08c379a000000000000000000000000000000000000000000000000000000000815260040161073490613b4f565b60405180910390fd5b6040518060400160405280600a81526020017f4c6971756964617465640000000000000000000000000000000000000000000081525060026000848152602001908152602001600020600801908051906020019061079c929190612fa0565b50600760009054906101000a900473ffffffffffffffffffffffffffffffffffffffff1673ffffffffffffffffffffffffffffffffffffffff1663a9059cbb6002600085815260200190815260200160002060000160009054906101000a900473ffffffffffffffffffffffffffffffffffffffff16606460095460646108239190613b6f565b60026000888152602001908152602001600020600601546108449190613ba3565b61084e9190613c2c565b6040518363ffffffff1660e01b815260040161086b929190613c5d565b6020604051808303816000875af115801561088a573d6000803e3d6000fd5b505050506040513d601f19601f820116820180604052508101906108ae9190613cb2565b50600760009054906101000a900473ffffffffffffffffffffffffffffffffffffffff1673ffffffffffffffffffffffffffffffffffffffff1663a9059cbb600660009054906101000a900473ffffffffffffffffffffffffffffffffffffffff16606460095460026000888152602001908152602001600020600601546109369190613ba3565b6109409190613c2c565b6040518363ffffffff1660e01b815260040161095d929190613c5d565b6020604051808303816000875af115801561097c573d6000803e3d6000fd5b505050506040513d601f19601f820116820180604052508101906109a09190613cb2565b507f1ce667ae522f1f380b3262bf7881f17067f07d7f50dc398385709938a9340daf826040516109d09190613d2b565b60405180910390a150600160008190555050565b60008060008060008060008060606000600260008c8152602001908152602001600020604051806101200160405290816000820160009054906101000a900473ffffffffffffffffffffffffffffffffffffffff1673ffffffffffffffffffffffffffffffffffffffff1673ffffffffffffffffffffffffffffffffffffffff1681526020016001820160009054906101000a900473ffffffffffffffffffffffffffffffffffffffff1673ffffffffffffffffffffffffffffffffffffffff1673ffffffffffffffffffffffffffffffffffffffff1681526020016002820154815260200160038201548152602001600482015481526020016005820160009054906101000a900473ffffffffffffffffffffffffffffffffffffffff1673ffffffffffffffffffffffffffffffffffffffff1673ffffffffffffffffffffffffffffffffffffffff1681526020016006820154815260200160078201548152602001600882018054610b5790613935565b80601f0160208091040260200160405190810160405280929190818152602001828054610b8390613935565b8015610bd05780601f10610ba557610100808354040283529160200191610bd0565b820191906000526020600020905b815481529060010190602001808311610bb357829003601f168201915b5050505050815250509050806000015181602001518260400151836060015184608001518560a001518660c001518760e00151886101000151995099509950995099509950995099509950509193959799909294969850565b6000801b610c3e81610c39612ad9565b612ae1565b816009819055505050565b6000801b610c5e81610c59612ad9565b612ae1565b6001600460008473ffffffffffffffffffffffffffffffffffffffff1673ffffffffffffffffffffffffffffffffffffffff16815260200190815260200160002060006101000a81548160ff0219169083151502179055505050565b6000801b610ccf81610cca612ad9565b612ae1565b816008819055505050565b60006002600083815260200190815260200160002060040154610e10600260008581526020019081526020016000206007015442610d189190613b6f565b610d229190613c2c565b610d2c9190613ba3565b6002600084815260200190815260200160002060040154610d4d9190613aad565b9050919050565b60026000541415610d9a576040517f08c379a0000000000000000000000000000000000000000000000000000000008152600401610d919061387a565b60405180910390fd5b60026000819055503373ffffffffffffffffffffffffffffffffffffffff166002600084815260200190815260200160002060000160009054906101000a900473ffffffffffffffffffffffffffffffffffffffff1673ffffffffffffffffffffffffffffffffffffffff161415610e47576040517f08c379a0000000000000000000000000000000000000000000000000000000008152600401610e3e90613da5565b60405180910390fd5b604051602001610e5690613e11565b6040516020818303038152906040528051906020012060026000848152602001908152602001600020600801604051602001610e9291906139fb565b6040516020818303038152906040528051906020012014610ee8576040517f08c379a0000000000000000000000000000000000000000000000000000000008152600401610edf90613e72565b60405180910390fd5b600060026000848152602001908152602001600020600401549050806002600085815260200190815260200160002060030154610f259190613aad565b8211610f66576040517f08c379a0000000000000000000000000000000000000000000000000000000008152600401610f5d90613f04565b60405180910390fd5b81600760009054906101000a900473ffffffffffffffffffffffffffffffffffffffff1673ffffffffffffffffffffffffffffffffffffffff166370a08231336040518263ffffffff1660e01b8152600401610fc29190613f24565b602060405180830381865afa158015610fdf573d6000803e3d6000fd5b505050506040513d601f19601f820116820180604052508101906110039190613f54565b1015611044576040517f08c379a000000000000000000000000000000000000000000000000000000000815260040161103b90613ff3565b60405180910390fd5b6040518060400160405280600281526020017f4f6e0000000000000000000000000000000000000000000000000000000000008152506002600085815260200190815260200160002060080190805190602001906110a3929190612fa0565b50336002600085815260200190815260200160002060050160006101000a81548173ffffffffffffffffffffffffffffffffffffffff021916908373ffffffffffffffffffffffffffffffffffffffff160217905550816002600085815260200190815260200160002060060181905550426002600085815260200190815260200160002060070181905550600760009054906101000a900473ffffffffffffffffffffffffffffffffffffffff1673ffffffffffffffffffffffffffffffffffffffff166323b872dd3330856040518463ffffffff1660e01b815260040161118e93929190614013565b6020604051808303816000875af11580156111ad573d6000803e3d6000fd5b505050506040513d601f19601f820116820180604052508101906111d19190613cb2565b506002600084815260200190815260200160002060010160009054906101000a900473ffffffffffffffffffffffffffffffffffffffff1673ffffffffffffffffffffffffffffffffffffffff166342842e0e303360026000888152602001908152602001600020600201546040518463ffffffff1660e01b815260040161125b93929190614013565b600060405180830381600087803b15801561127557600080fd5b505af1158015611289573d6000803e3d6000fd5b505050507f1ce667ae522f1f380b3262bf7881f17067f07d7f50dc398385709938a9340daf836040516112bc919061406d565b60405180910390a15060016000819055505050565b60006112dd6005612d40565b905090565b60006001600084815260200190815260200160002060000160008373ffffffffffffffffffffffffffffffffffffffff1673ffffffffffffffffffffffffffffffffffffffff16815260200190815260200160002060009054906101000a900460ff16905092915050565b6000801b81565b6060600360008373ffffffffffffffffffffffffffffffffffffffff1673ffffffffffffffffffffffffffffffffffffffff1681526020019081526020016000208054806020026020016040519081016040528092919081815260200182805480156113df57602002820191906000526020600020905b8154815260200190600101908083116113cb575b50505050509050919050565b60026000541415611431576040517f08c379a00000000000000000000000000000000000000000000000000000000081526004016114289061387a565b60405180910390fd5b60026000819055503373ffffffffffffffffffffffffffffffffffffffff166002600084815260200190815260200160002060050160009054906101000a900473ffffffffffffffffffffffffffffffffffffffff1673ffffffffffffffffffffffffffffffffffffffff16146114dd576040517f08c379a00000000000000000000000000000000000000000000000000000000081526004016114d4906140e7565b60405180910390fd5b6040516020016114ec906138f1565b604051602081830303815290604052805190602001206002600084815260200190815260200160002060080160405160200161152891906139fb565b604051602081830303815290604052805190602001201461157e576040517f08c379a000000000000000000000000000000000000000000000000000000000815260040161157590613a5e565b60405180910390fd5b80600760009054906101000a900473ffffffffffffffffffffffffffffffffffffffff1673ffffffffffffffffffffffffffffffffffffffff166370a082316002600086815260200190815260200160002060050160009054906101000a900473ffffffffffffffffffffffffffffffffffffffff166040518263ffffffff1660e01b81526004016116109190613f24565b602060405180830381865afa15801561162d573d6000803e3d6000fd5b505050506040513d601f19601f820116820180604052508101906116519190613f54565b1015611692576040517f08c379a000000000000000000000000000000000000000000000000000000000815260040161168990614179565b60405180910390fd5b8060026000848152602001908152602001600020600601546116b49190613aad565b6002600084815260200190815260200160002060060181905550600760009054906101000a900473ffffffffffffffffffffffffffffffffffffffff1673ffffffffffffffffffffffffffffffffffffffff166323b872dd3330846040518463ffffffff1660e01b815260040161172d93929190614013565b6020604051808303816000875af115801561174c573d6000803e3d6000fd5b505050506040513d601f19601f820116820180604052508101906117709190613cb2565b5060016000819055505050565b6000801b6117928161178d612ad9565b612ae1565b81600660006101000a81548173ffffffffffffffffffffffffffffffffffffffff021916908373ffffffffffffffffffffffffffffffffffffffff1602179055505050565b6000801b6117ec816117e7612ad9565b612ae1565b6000600460008473ffffffffffffffffffffffffffffffffffffffff1673ffffffffffffffffffffffffffffffffffffffff16815260200190815260200160002060006101000a81548160ff0219169083151502179055505050565b611851826104fc565b6118628161185d612ad9565b612ae1565b61186c8383612c5e565b505050565b600260005414156118b7576040517f08c379a00000000000000000000000000000000000000000000000000000000081526004016118ae9061387a565b60405180910390fd5b60026000819055503373ffffffffffffffffffffffffffffffffffffffff166002600083815260200190815260200160002060050160009054906101000a900473ffffffffffffffffffffffffffffffffffffffff1673ffffffffffffffffffffffffffffffffffffffff1614611963576040517f08c379a000000000000000000000000000000000000000000000000000000000815260040161195a9061420b565b60405180910390fd5b604051602001611972906138f1565b60405160208183030381529060405280519060200120600260008381526020019081526020016000206008016040516020016119ae91906139fb565b6040516020818303038152906040528051906020012014611a04576040517f08c379a00000000000000000000000000000000000000000000000000000000081526004016119fb90613a5e565b60405180910390fd5b3373ffffffffffffffffffffffffffffffffffffffff166002600083815260200190815260200160002060010160009054906101000a900473ffffffffffffffffffffffffffffffffffffffff1673ffffffffffffffffffffffffffffffffffffffff16636352211e60026000858152602001908152602001600020600201546040518263ffffffff1660e01b8152600401611aa091906135fa565b602060405180830381865afa158015611abd573d6000803e3d6000fd5b505050506040513d601f19601f82011682018060405250810190611ae19190614240565b73ffffffffffffffffffffffffffffffffffffffff1614611b37576040517f08c379a0000000000000000000000000000000000000000000000000000000008152600401611b2e906142b9565b60405180910390fd5b6002600082815260200190815260200160002060060154600760009054906101000a900473ffffffffffffffffffffffffffffffffffffffff1673ffffffffffffffffffffffffffffffffffffffff166370a08231306040518263ffffffff1660e01b8152600401611ba99190613f24565b602060405180830381865afa158015611bc6573d6000803e3d6000fd5b505050506040513d601f19601f82011682018060405250810190611bea9190613f54565b1015611c2b576040517f08c379a0000000000000000000000000000000000000000000000000000000008152600401611c229061434b565b60405180910390fd5b600060026000838152602001908152602001600020600701541415611c85576040517f08c379a0000000000000000000000000000000000000000000000000000000008152600401611c7c906143b7565b60405180910390fd5b6000611c9082610cda565b9050600260008381526020019081526020016000206003015481611cb49190613aad565b60026000848152602001908152602001600020600601541015611d0c576040517f08c379a0000000000000000000000000000000000000000000000000000000008152600401611d0390614423565b60405180910390fd5b6002600083815260200190815260200160002060010160009054906101000a900473ffffffffffffffffffffffffffffffffffffffff1673ffffffffffffffffffffffffffffffffffffffff166342842e0e333060026000878152602001908152602001600020600201546040518463ffffffff1660e01b8152600401611d9593929190614013565b600060405180830381600087803b158015611daf57600080fd5b505af1158015611dc3573d6000803e3d6000fd5b50505050600760009054906101000a900473ffffffffffffffffffffffffffffffffffffffff1673ffffffffffffffffffffffffffffffffffffffff1663a9059cbb6002600085815260200190815260200160002060000160009054906101000a900473ffffffffffffffffffffffffffffffffffffffff1660646008546064611e4d9190613b6f565b85611e589190613ba3565b611e629190613c2c565b6040518363ffffffff1660e01b8152600401611e7f929190613c5d565b6020604051808303816000875af1158015611e9e573d6000803e3d6000fd5b505050506040513d601f19601f82011682018060405250810190611ec29190613cb2565b50600760009054906101000a900473ffffffffffffffffffffffffffffffffffffffff1673ffffffffffffffffffffffffffffffffffffffff1663a9059cbb600660009054906101000a900473ffffffffffffffffffffffffffffffffffffffff16606460085485611f349190613ba3565b611f3e9190613c2c565b6040518363ffffffff1660e01b8152600401611f5b929190613c5d565b6020604051808303816000875af1158015611f7a573d6000803e3d6000fd5b505050506040513d601f19601f82011682018060405250810190611f9e9190613cb2565b50600760009054906101000a900473ffffffffffffffffffffffffffffffffffffffff1673ffffffffffffffffffffffffffffffffffffffff1663a9059cbb338360026000878152602001908152602001600020600601546120009190613b6f565b6040518363ffffffff1660e01b815260040161201d929190613c5d565b6020604051808303816000875af115801561203c573d6000803e3d6000fd5b505050506040513d601f19601f820116820180604052508101906120609190613cb2565b5060006002600084815260200190815260200160002060050160006101000a81548173ffffffffffffffffffffffffffffffffffffffff021916908373ffffffffffffffffffffffffffffffffffffffff16021790555060006002600084815260200190815260200160002060060181905550600060026000848152602001908152602001600020600701819055506040518060400160405280600481526020017f4f70656e0000000000000000000000000000000000000000000000000000000081525060026000848152602001908152602001600020600801908051906020019061214e929190612fa0565b507f1ce667ae522f1f380b3262bf7881f17067f07d7f50dc398385709938a9340daf8260405161217e9190614466565b60405180910390a150600160008190555050565b600260005414156121d8576040517f08c379a00000000000000000000000000000000000000000000000000000000081526004016121cf9061387a565b60405180910390fd5b600260008190555060011515600460008573ffffffffffffffffffffffffffffffffffffffff1673ffffffffffffffffffffffffffffffffffffffff16815260200190815260200160002060009054906101000a900460ff1615151461223d57600080fd5b3373ffffffffffffffffffffffffffffffffffffffff168373ffffffffffffffffffffffffffffffffffffffff16636352211e866040518263ffffffff1660e01b815260040161228d91906135fa565b602060405180830381865afa1580156122aa573d6000803e3d6000fd5b505050506040513d601f19601f820116820180604052508101906122ce9190614240565b73ffffffffffffffffffffffffffffffffffffffff1614612324576040517f08c379a000000000000000000000000000000000000000000000000000000000815260040161231b906144e0565b60405180910390fd5b8273ffffffffffffffffffffffffffffffffffffffff166342842e0e3330876040518463ffffffff1660e01b815260040161236193929190614013565b600060405180830381600087803b15801561237b57600080fd5b505af115801561238f573d6000803e3d6000fd5b50505050600061239f6005612d40565b90506123ab6005612d4e565b6040518061012001604052803373ffffffffffffffffffffffffffffffffffffffff1681526020018573ffffffffffffffffffffffffffffffffffffffff168152602001868152602001848152602001838152602001600073ffffffffffffffffffffffffffffffffffffffff16815260200160008152602001600081526020016040518060400160405280600481526020017f4f70656e000000000000000000000000000000000000000000000000000000008152508152506002600083815260200190815260200160002060008201518160000160006101000a81548173ffffffffffffffffffffffffffffffffffffffff021916908373ffffffffffffffffffffffffffffffffffffffff16021790555060208201518160010160006101000a81548173ffffffffffffffffffffffffffffffffffffffff021916908373ffffffffffffffffffffffffffffffffffffffff16021790555060408201518160020155606082015181600301556080820151816004015560a08201518160050160006101000a81548173ffffffffffffffffffffffffffffffffffffffff021916908373ffffffffffffffffffffffffffffffffffffffff16021790555060c0820151816006015560e0820151816007015561010082015181600801908051906020019061259c929190612fa0565b50905050600360003373ffffffffffffffffffffffffffffffffffffffff1673ffffffffffffffffffffffffffffffffffffffff1681526020019081526020016000208190806001815401808255809150506001900390600052602060002001600090919091909150557f1ce667ae522f1f380b3262bf7881f17067f07d7f50dc398385709938a9340daf816040516126359190614466565b60405180910390a150600160008190555050505050565b60026000541415612692576040517f08c379a00000000000000000000000000000000000000000000000000000000081526004016126899061387a565b60405180910390fd5b60026000819055503373ffffffffffffffffffffffffffffffffffffffff166002600083815260200190815260200160002060000160009054906101000a900473ffffffffffffffffffffffffffffffffffffffff1673ffffffffffffffffffffffffffffffffffffffff161461273e576040517f08c379a00000000000000000000000000000000000000000000000000000000081526004016127359061454c565b60405180910390fd5b3073ffffffffffffffffffffffffffffffffffffffff166002600083815260200190815260200160002060010160009054906101000a900473ffffffffffffffffffffffffffffffffffffffff1673ffffffffffffffffffffffffffffffffffffffff16636352211e60026000858152602001908152602001600020600201546040518263ffffffff1660e01b81526004016127da91906135fa565b602060405180830381865afa1580156127f7573d6000803e3d6000fd5b505050506040513d601f19601f8201168201806040525081019061281b9190614240565b73ffffffffffffffffffffffffffffffffffffffff1614612871576040517f08c379a0000000000000000000000000000000000000000000000000000000008152600401612868906145de565b60405180910390fd5b60405160200161288090613e11565b60405160208183030381529060405280519060200120600260008381526020019081526020016000206008016040516020016128bc91906139fb565b6040516020818303038152906040528051906020012014612912576040517f08c379a000000000000000000000000000000000000000000000000000000000815260040161290990613e72565b60405180910390fd5b6040518060400160405280600981526020017f43616e63656c6c65640000000000000000000000000000000000000000000000815250600260008381526020019081526020016000206008019080519060200190612971929190612fa0565b506002600082815260200190815260200160002060010160009054906101000a900473ffffffffffffffffffffffffffffffffffffffff1673ffffffffffffffffffffffffffffffffffffffff166342842e0e303360026000868152602001908152602001600020600201546040518463ffffffff1660e01b81526004016129fb93929190614013565b600060405180830381600087803b158015612a1557600080fd5b505af1158015612a29573d6000803e3d6000fd5b505050507f1ce667ae522f1f380b3262bf7881f17067f07d7f50dc398385709938a9340daf81604051612a5c919061464a565b60405180910390a1600160008190555050565b60007f01ffc9a7000000000000000000000000000000000000000000000000000000007bffffffffffffffffffffffffffffffffffffffffffffffffffffffff1916827bffffffffffffffffffffffffffffffffffffffffffffffffffffffff1916149050919050565b600033905090565b612aeb82826112e2565b612b7a57612b108173ffffffffffffffffffffffffffffffffffffffff166014612d64565b612b1e8360001c6020612d64565b604051602001612b2f929190614741565b6040516020818303038152906040526040517f08c379a0000000000000000000000000000000000000000000000000000000008152600401612b71919061477b565b60405180910390fd5b5050565b612b8882826112e2565b612c5a57600180600084815260200190815260200160002060000160008373ffffffffffffffffffffffffffffffffffffffff1673ffffffffffffffffffffffffffffffffffffffff16815260200190815260200160002060006101000a81548160ff021916908315150217905550612bff612ad9565b73ffffffffffffffffffffffffffffffffffffffff168173ffffffffffffffffffffffffffffffffffffffff16837f2f8788117e7eff1d82e926ec794901d17c78024a50270940304540a733656f0d60405160405180910390a45b5050565b612c6882826112e2565b15612d3c5760006001600084815260200190815260200160002060000160008373ffffffffffffffffffffffffffffffffffffffff1673ffffffffffffffffffffffffffffffffffffffff16815260200190815260200160002060006101000a81548160ff021916908315150217905550612ce1612ad9565b73ffffffffffffffffffffffffffffffffffffffff168173ffffffffffffffffffffffffffffffffffffffff16837ff6391f5c32d9c69d2a47ea670b442974b53935d1edc7fd64eb21e047a839171b60405160405180910390a45b5050565b600081600001549050919050565b6001816000016000828254019250508190555050565b606060006002836002612d779190613ba3565b612d819190613aad565b67ffffffffffffffff811115612d9a57612d996131c1565b5b6040519080825280601f01601f191660200182016040528015612dcc5781602001600182028036833780820191505090505b5090507f300000000000000000000000000000000000000000000000000000000000000081600081518110612e0457612e0361479d565b5b60200101907effffffffffffffffffffffffffffffffffffffffffffffffffffffffffffff1916908160001a9053507f780000000000000000000000000000000000000000000000000000000000000081600181518110612e6857612e6761479d565b5b60200101907effffffffffffffffffffffffffffffffffffffffffffffffffffffffffffff1916908160001a90535060006001846002612ea89190613ba3565b612eb29190613aad565b90505b6001811115612f52577f3031323334353637383961626364656600000000000000000000000000000000600f861660108110612ef457612ef361479d565b5b1a60f81b828281518110612f0b57612f0a61479d565b5b60200101907effffffffffffffffffffffffffffffffffffffffffffffffffffffffffffff1916908160001a905350600485901c945080612f4b906147cc565b9050612eb5565b5060008414612f96576040517f08c379a0000000000000000000000000000000000000000000000000000000008152600401612f8d90614842565b60405180910390fd5b8091505092915050565b828054612fac90613935565b90600052602060002090601f016020900481019282612fce5760008555613015565b82601f10612fe757805160ff1916838001178555613015565b82800160010185558215613015579182015b82811115613014578251825591602001919060010190612ff9565b5b5090506130229190613026565b5090565b5b8082111561303f576000816000905550600101613027565b5090565b6000604051905090565b600080fd5b600080fd5b60007fffffffff0000000000000000000000000000000000000000000000000000000082169050919050565b61308c81613057565b811461309757600080fd5b50565b6000813590506130a981613083565b92915050565b6000602082840312156130c5576130c461304d565b5b60006130d38482850161309a565b91505092915050565b60008115159050919050565b6130f1816130dc565b82525050565b600060208201905061310c60008301846130e8565b92915050565b600073ffffffffffffffffffffffffffffffffffffffff82169050919050565b600061313d82613112565b9050919050565b61314d81613132565b811461315857600080fd5b50565b60008135905061316a81613144565b92915050565b6000819050919050565b61318381613170565b811461318e57600080fd5b50565b6000813590506131a08161317a565b92915050565b600080fd5b600080fd5b6000601f19601f8301169050919050565b7f4e487b7100000000000000000000000000000000000000000000000000000000600052604160045260246000fd5b6131f9826131b0565b810181811067ffffffffffffffff82111715613218576132176131c1565b5b80604052505050565b600061322b613043565b905061323782826131f0565b919050565b600067ffffffffffffffff821115613257576132566131c1565b5b613260826131b0565b9050602081019050919050565b82818337600083830152505050565b600061328f61328a8461323c565b613221565b9050828152602081018484840111156132ab576132aa6131ab565b5b6132b684828561326d565b509392505050565b600082601f8301126132d3576132d26131a6565b5b81356132e384826020860161327c565b91505092915050565b600080600080608085870312156133065761330561304d565b5b60006133148782880161315b565b94505060206133258782880161315b565b935050604061333687828801613191565b925050606085013567ffffffffffffffff81111561335757613356613052565b5b613363878288016132be565b91505092959194509250565b61337881613057565b82525050565b6000602082019050613393600083018461336f565b92915050565b6000819050919050565b6133ac81613399565b81146133b757600080fd5b50565b6000813590506133c9816133a3565b92915050565b6000602082840312156133e5576133e461304d565b5b60006133f3848285016133ba565b91505092915050565b61340581613399565b82525050565b600060208201905061342060008301846133fc565b92915050565b6000806040838503121561343d5761343c61304d565b5b600061344b858286016133ba565b925050602061345c8582860161315b565b9150509250929050565b60006020828403121561347c5761347b61304d565b5b600061348a84828501613191565b91505092915050565b61349c81613132565b82525050565b6134ab81613170565b82525050565b600081519050919050565b600082825260208201905092915050565b60005b838110156134eb5780820151818401526020810190506134d0565b838111156134fa576000848401525b50505050565b600061350b826134b1565b61351581856134bc565b93506135258185602086016134cd565b61352e816131b0565b840191505092915050565b60006101208201905061354f600083018c613493565b61355c602083018b613493565b613569604083018a6134a2565b61357660608301896134a2565b61358360808301886134a2565b61359060a0830187613493565b61359d60c08301866134a2565b6135aa60e08301856134a2565b8181036101008301526135bd8184613500565b90509a9950505050505050505050565b6000602082840312156135e3576135e261304d565b5b60006135f18482850161315b565b91505092915050565b600060208201905061360f60008301846134a2565b92915050565b6000806040838503121561362c5761362b61304d565b5b600061363a85828601613191565b925050602061364b85828601613191565b9150509250929050565b600081519050919050565b600082825260208201905092915050565b6000819050602082019050919050565b61368a81613170565b82525050565b600061369c8383613681565b60208301905092915050565b6000602082019050919050565b60006136c082613655565b6136ca8185613660565b93506136d583613671565b8060005b838110156137065781516136ed8882613690565b97506136f8836136a8565b9250506001810190506136d9565b5085935050505092915050565b6000602082019050818103600083015261372d81846136b5565b905092915050565b6000806000806080858703121561374f5761374e61304d565b5b600061375d87828801613191565b945050602061376e8782880161315b565b935050604061377f87828801613191565b925050606061379087828801613191565b91505092959194509250565b7f416363657373436f6e74726f6c3a2063616e206f6e6c792072656e6f756e636560008201527f20726f6c657320666f722073656c660000000000000000000000000000000000602082015250565b60006137f8602f836134bc565b91506138038261379c565b604082019050919050565b60006020820190508181036000830152613827816137eb565b9050919050565b7f5265656e7472616e637947756172643a207265656e7472616e742063616c6c00600082015250565b6000613864601f836134bc565b915061386f8261382e565b602082019050919050565b6000602082019050818103600083015261389381613857565b9050919050565b600081905092915050565b7f4f6e000000000000000000000000000000000000000000000000000000000000600082015250565b60006138db60028361389a565b91506138e6826138a5565b600282019050919050565b60006138fc826138ce565b9150819050919050565b7f4e487b7100000000000000000000000000000000000000000000000000000000600052602260045260246000fd5b6000600282049050600182168061394d57607f821691505b6020821081141561396157613960613906565b5b50919050565b60008190508160005260206000209050919050565b6000815461398981613935565b613993818661389a565b945060018216600081146139ae57600181146139bf576139f2565b60ff198316865281860193506139f2565b6139c885613967565b60005b838110156139ea578154818901526001820191506020810190506139cb565b838801955050505b50505092915050565b6000613a07828461397c565b915081905092915050565b7f4f66666572206973206e6f74204f6e0000000000000000000000000000000000600082015250565b6000613a48600f836134bc565b9150613a5382613a12565b602082019050919050565b60006020820190508181036000830152613a7781613a3b565b9050919050565b7f4e487b7100000000000000000000000000000000000000000000000000000000600052601160045260246000fd5b6000613ab882613170565b9150613ac383613170565b9250827fffffffffffffffffffffffffffffffffffffffffffffffffffffffffffffffff03821115613af857613af7613a7e565b5b828201905092915050565b7f426f72726f776572206973206e6f74204c697175696461746564000000000000600082015250565b6000613b39601a836134bc565b9150613b4482613b03565b602082019050919050565b60006020820190508181036000830152613b6881613b2c565b9050919050565b6000613b7a82613170565b9150613b8583613170565b925082821015613b9857613b97613a7e565b5b828203905092915050565b6000613bae82613170565b9150613bb983613170565b9250817fffffffffffffffffffffffffffffffffffffffffffffffffffffffffffffffff0483118215151615613bf257613bf1613a7e565b5b828202905092915050565b7f4e487b7100000000000000000000000000000000000000000000000000000000600052601260045260246000fd5b6000613c3782613170565b9150613c4283613170565b925082613c5257613c51613bfd565b5b828204905092915050565b6000604082019050613c726000830185613493565b613c7f60208301846134a2565b9392505050565b613c8f816130dc565b8114613c9a57600080fd5b50565b600081519050613cac81613c86565b92915050565b600060208284031215613cc857613cc761304d565b5b6000613cd684828501613c9d565b91505092915050565b7f4c69717569646174656400000000000000000000000000000000000000000000600082015250565b6000613d15600a836134bc565b9150613d2082613cdf565b602082019050919050565b6000604082019050613d4060008301846134a2565b8181036020830152613d5181613d08565b905092915050565b7f43616e206e6f742061636365707420796f7572206f776e204f66666572000000600082015250565b6000613d8f601d836134bc565b9150613d9a82613d59565b602082019050919050565b60006020820190508181036000830152613dbe81613d82565b9050919050565b7f4f70656e00000000000000000000000000000000000000000000000000000000600082015250565b6000613dfb60048361389a565b9150613e0682613dc5565b600482019050919050565b6000613e1c82613dee565b9150819050919050565b7f4f66666572206973206e6f74204f70656e000000000000000000000000000000600082015250565b6000613e5c6011836134bc565b9150613e6782613e26565b602082019050919050565b60006020820190508181036000830152613e8b81613e4f565b9050919050565b7f4e6f7420656e6f75676820636f6c6c61746572616c20746f20626f72726f772060008201527f666f72206d6f7265207468616e20616e20686f75720000000000000000000000602082015250565b6000613eee6035836134bc565b9150613ef982613e92565b604082019050919050565b60006020820190508181036000830152613f1d81613ee1565b9050919050565b6000602082019050613f396000830184613493565b92915050565b600081519050613f4e8161317a565b92915050565b600060208284031215613f6a57613f6961304d565b5b6000613f7884828501613f3f565b91505092915050565b7f4e6f7420656e6f7567682062616c616e636520746f207061792074686520636f60008201527f6c6c61746572616c000000000000000000000000000000000000000000000000602082015250565b6000613fdd6028836134bc565b9150613fe882613f81565b604082019050919050565b6000602082019050818103600083015261400c81613fd0565b9050919050565b60006060820190506140286000830186613493565b6140356020830185613493565b61404260408301846134a2565b949350505050565b60006140576002836134bc565b9150614062826138a5565b602082019050919050565b600060408201905061408260008301846134a2565b81810360208301526140938161404a565b905092915050565b7f4f6e6c7920626f72726f7765722063616e2061646420636f6c6c61746572616c600082015250565b60006140d16020836134bc565b91506140dc8261409b565b602082019050919050565b60006020820190508181036000830152614100816140c4565b9050919050565b7f426f72726f77657220646f6573206e6f74206861766520656e6f75676820746f60008201527f207061792074686520657874726120636f6c6c61746572616c00000000000000602082015250565b60006141636039836134bc565b915061416e82614107565b604082019050919050565b6000602082019050818103600083015261419281614156565b9050919050565b7f4f6e6c7920626f72726f7765722063616e20726570617920746865204f66666560008201527f7200000000000000000000000000000000000000000000000000000000000000602082015250565b60006141f56021836134bc565b915061420082614199565b604082019050919050565b60006020820190508181036000830152614224816141e8565b9050919050565b60008151905061423a81613144565b92915050565b6000602082840312156142565761425561304d565b5b60006142648482850161422b565b91505092915050565b7f426f72726f776572206973206e6f74206f776e6572206f6620746865204e4654600082015250565b60006142a36020836134bc565b91506142ae8261426d565b602082019050919050565b600060208201905081810360008301526142d281614296565b9050919050565b7f50726f746f636f6c20646f6573206e6f74206861766520656e6f75676820746f60008201527f207061792074686520636f6c6c61746572616c00000000000000000000000000602082015250565b60006143356033836134bc565b9150614340826142d9565b604082019050919050565b6000602082019050818103600083015261436481614328565b9050919050565b7f4163636570742074696d65203d20300000000000000000000000000000000000600082015250565b60006143a1600f836134bc565b91506143ac8261436b565b602082019050919050565b600060208201905081810360008301526143d081614394565b9050919050565b7f426f72726f7765722063616e206265204c697175696461746564000000000000600082015250565b600061440d601a836134bc565b9150614418826143d7565b602082019050919050565b6000602082019050818103600083015261443c81614400565b9050919050565b60006144506004836134bc565b915061445b82613dc5565b602082019050919050565b600060408201905061447b60008301846134a2565b818103602083015261448c81614443565b905092915050565b7f4e6f7420746865206f776e6572206f6620746865204e46540000000000000000600082015250565b60006144ca6018836134bc565b91506144d582614494565b602082019050919050565b600060208201905081810360008301526144f9816144bd565b9050919050565b7f4e6f7420746865206f776e6572206f6620746865204f66666572000000000000600082015250565b6000614536601a836134bc565b915061454182614500565b602082019050919050565b6000602082019050818103600083015261456581614529565b9050919050565b7f5468652050726f746f636f6c20646f6573206e6f74206861766520746865204e60008201527f4654000000000000000000000000000000000000000000000000000000000000602082015250565b60006145c86022836134bc565b91506145d38261456c565b604082019050919050565b600060208201905081810360008301526145f7816145bb565b9050919050565b7f43616e63656c6c65640000000000000000000000000000000000000000000000600082015250565b60006146346009836134bc565b915061463f826145fe565b602082019050919050565b600060408201905061465f60008301846134a2565b818103602083015261467081614627565b905092915050565b7f416363657373436f6e74726f6c3a206163636f756e7420000000000000000000600082015250565b60006146ae60178361389a565b91506146b982614678565b601782019050919050565b60006146cf826134b1565b6146d9818561389a565b93506146e98185602086016134cd565b80840191505092915050565b7f206973206d697373696e6720726f6c6520000000000000000000000000000000600082015250565b600061472b60118361389a565b9150614736826146f5565b601182019050919050565b600061474c826146a1565b915061475882856146c4565b91506147638261471e565b915061476f82846146c4565b91508190509392505050565b600060208201905081810360008301526147958184613500565b905092915050565b7f4e487b7100000000000000000000000000000000000000000000000000000000600052603260045260246000fd5b60006147d782613170565b915060008214156147eb576147ea613a7e565b5b600182039050919050565b7f537472696e67733a20686578206c656e67746820696e73756666696369656e74600082015250565b600061482c6020836134bc565b9150614837826147f6565b602082019050919050565b6000602082019050818103600083015261485b8161481f565b905091905056fea2646970667358221220a9aa30bfc46b484f7b01806540ed5593e7a4045eb4e68f80760b561c47b3614764736f6c634300080c0033",
  "immutableReferences": {},
  "source": "// SPDX-License-Identifier: UNLICENSED\r\n\r\npragma solidity ^0.8.3;\r\n\r\nimport \"@openzeppelin/contracts/utils/Counters.sol\";\r\nimport \"@openzeppelin/contracts/token/ERC20/IERC20.sol\";\r\nimport \"@openzeppelin/contracts/token/ERC721/IERC721.sol\";\r\n\r\nimport \"@openzeppelin/contracts/token/ERC721/utils/ERC721Holder.sol\";\r\nimport \"@openzeppelin/contracts/security/ReentrancyGuard.sol\";\r\nimport \"@openzeppelin/contracts/access/AccessControl.sol\";\r\n\r\n\r\n\r\n/**\r\n * @title ERC721Lending\r\n * @notice ERC721 Lending plataform where users that provide the ERC721 token\r\n * set a liquidation limit and fee, and users that borrow the ERC721 token\r\n * set how much collateral they add to the transaction\r\n */\r\ncontract ERC721Lending is ERC721Holder, ReentrancyGuard, AccessControl {\r\n\r\n    event OfferStatusChange(uint256 offerId, string status);\r\n\r\n    struct Offer {\r\n        address owner;\r\n        address nft;\r\n        uint256 nftId;\r\n        uint256 liquidation;\r\n        uint256 hourlyFee;\r\n        address borrower;\r\n        uint256 collateral;\r\n        uint256 acceptTime;\r\n        string status; // Open, On, Cancelled, Liquidated\r\n    }\r\n\r\n    mapping(uint256 => Offer) offers;\r\n    mapping(address => uint256[]) addressToOffers;\r\n    mapping(address => bool) addressToBool;\r\n\r\n    using Counters for Counters.Counter;\r\n    Counters.Counter private offerCounter;\r\n\r\n    address PayoutAddress;\r\n    IERC20 token;\r\n    uint Fee;\r\n    uint LiquidationFee;\r\n\r\n    constructor(address Payout, address TokenAddress, address BaseERC721Address) {\r\n        PayoutAddress = Payout;\r\n        token = IERC20(TokenAddress);\r\n        Fee = 4;\r\n        LiquidationFee = 10;\r\n        //Base Contract accepted\r\n        addressToBool[BaseERC721Address] = true;\r\n        _setupRole(DEFAULT_ADMIN_ROLE, msg.sender);\r\n    }\r\n\r\n    /**\r\n     * @dev Returns the details for a offer.\r\n     * @param offerId The id of the offer.\r\n     */\r\n    function getOffer(uint256 offerId) external view returns (address, address, uint256, uint256, uint256, address, uint256, uint256, string memory) {\r\n        Offer memory offer = offers[offerId];\r\n        return (offer.owner, offer.nft, offer.nftId, offer.liquidation, offer.hourlyFee, offer.borrower, offer.collateral, offer.acceptTime, offer.status);\r\n    }\r\n\r\n    /**\r\n     * @dev Returns all offers of an address.\r\n     * @param addr the address to lookup.\r\n     */\r\n    function getOffersOfAddress(address addr) external view returns (uint256[] memory) {\r\n        return addressToOffers[addr];\r\n    }\r\n\r\n    /**\r\n     * @dev Returns the number of offers made.\r\n     */\r\n    function getOfferQuantities() external view returns (uint256) {\r\n        return offerCounter.current();\r\n    }\r\n\r\n    function feeToPay(uint256 offerId) public view returns (uint256) {\r\n        return offers[offerId].hourlyFee + ((block.timestamp - offers[offerId].acceptTime)/(60*60))*offers[offerId].hourlyFee;\r\n    }\r\n\r\n    /**\r\n     * @dev Opens a new Offer, and sends the nft to an escrow.\r\n     * @param nftId id of the nft to offer.\r\n     * @param nftAddress address of the nft to offer.\r\n     * @param liquidation if the amount of liquidation+accumulatedFee is bigger than the collateral, the borrower is liquidated.\r\n     * @param fee fee amount that accumulates every hour.\r\n     */\r\n    function createOffer(uint256 nftId, address nftAddress, uint256 liquidation, uint256 fee) external nonReentrant() {\r\n        require(addressToBool[nftAddress] == true);\r\n        require(IERC721(nftAddress).ownerOf(nftId) == msg.sender, \"Not the owner of the NFT\");\r\n        \r\n        IERC721(nftAddress).safeTransferFrom(msg.sender, address(this), nftId);\r\n\r\n        uint current = offerCounter.current();\r\n        offerCounter.increment();\r\n        offers[current] = Offer(msg.sender, nftAddress, nftId, liquidation, fee, address(0), 0, 0, \"Open\");\r\n        addressToOffers[msg.sender].push(current);\r\n        emit OfferStatusChange(current, \"Open\");\r\n    }\r\n\r\n    /**\r\n     * @dev Cancels open offer and returns the nft to the owner.\r\n     * @param offerId the id of the offer.\r\n     */\r\n    function cancelOffer(uint256 offerId) external nonReentrant() {\r\n        require(offers[offerId].owner == msg.sender, \"Not the owner of the Offer\");\r\n        require(IERC721(offers[offerId].nft).ownerOf(offers[offerId].nftId) == address(this), \"The Protocol does not have the NFT\");\r\n        require(keccak256(abi.encodePacked(offers[offerId].status)) == keccak256(abi.encodePacked(\"Open\")), \"Offer is not Open\");\r\n\r\n        offers[offerId].status = \"Cancelled\";\r\n        IERC721(offers[offerId].nft).safeTransferFrom(address(this), msg.sender, offers[offerId].nftId);\r\n        emit OfferStatusChange(offerId, \"Cancelled\");\r\n    }\r\n\r\n    /**\r\n     * @dev Accepts an Open offer, escrows the collateral on the contract and sends the nft to the borrower.\r\n     * @param offerId the id of the offer.\r\n     * @param collateral how much collateral the borrowers wants to add to the offer.\r\n     */\r\n    function acceptOffer(uint256 offerId, uint256 collateral) external nonReentrant() {\r\n        require(offers[offerId].owner != msg.sender, \"Can not accept your own Offer\");\r\n        require(keccak256(abi.encodePacked(offers[offerId].status)) == keccak256(abi.encodePacked(\"Open\")), \"Offer is not Open\");\r\n        uint256 minimumFee = offers[offerId].hourlyFee;\r\n        require(collateral > offers[offerId].liquidation + minimumFee, \"Not enough collateral to borrow for more than an hour\");\r\n        require(token.balanceOf(msg.sender) >= collateral, \"Not enough balance to pay the collateral\");\r\n\r\n        offers[offerId].status = \"On\";\r\n        offers[offerId].borrower = msg.sender;\r\n        offers[offerId].collateral = collateral;\r\n        offers[offerId].acceptTime = block.timestamp;\r\n        token.transferFrom(msg.sender, address(this), collateral);\r\n        IERC721(offers[offerId].nft).safeTransferFrom(address(this), msg.sender, offers[offerId].nftId);\r\n        emit OfferStatusChange(offerId, \"On\");\r\n    }\r\n\r\n    /**\r\n     * @dev checks if borrower is liquidated or not, then transfers the nft to the contract, \r\n     * pays the lender, pays the protocol and finally returns the rest of the collateral to the borrower\r\n     * @param offerId the id of the offer.\r\n     */\r\n    function repayOffer(uint256 offerId) external nonReentrant() {\r\n        require(offers[offerId].borrower == msg.sender, \"Only borrower can repay the Offer\");\r\n        require(keccak256(abi.encodePacked(offers[offerId].status)) == keccak256(abi.encodePacked(\"On\")), \"Offer is not On\");\r\n        require(IERC721(offers[offerId].nft).ownerOf(offers[offerId].nftId) == msg.sender, \"Borrower is not owner of the NFT\");\r\n        require(token.balanceOf(address(this)) >= offers[offerId].collateral, \"Protocol does not have enough to pay the collateral\");\r\n        require(offers[offerId].acceptTime != 0, \"Accept time = 0\");\r\n        //minimum Fee is at least 1 hour and increases each hour\r\n        uint256 fee = feeToPay(offerId);\r\n        // User is not liquidated\r\n        require(offers[offerId].collateral >= (fee + offers[offerId].liquidation), \"Borrower can be Liquidated\");\r\n\r\n        IERC721(offers[offerId].nft).safeTransferFrom(msg.sender, address(this), offers[offerId].nftId);\r\n        token.transfer(offers[offerId].owner, fee*(100-Fee)/100);\r\n        token.transfer(PayoutAddress, fee*Fee/100);\r\n        token.transfer(msg.sender, (offers[offerId].collateral - fee));\r\n\r\n        offers[offerId].borrower = address(0);\r\n        offers[offerId].collateral = 0;\r\n        offers[offerId].acceptTime = 0;\r\n        offers[offerId].status = \"Open\";\r\n        emit OfferStatusChange(offerId, \"Open\");\r\n    }\r\n\r\n    /**\r\n     * @dev Adds extra collateral to the position of the borrower.\r\n     * @param offerId the id of the offer.\r\n     * @param extraCollateral how much extra collateral the borrowers wants to add to the offer.\r\n     */\r\n    function addCollateral(uint256 offerId, uint256 extraCollateral) external nonReentrant() {\r\n        require(offers[offerId].borrower == msg.sender, \"Only borrower can add collateral\");\r\n        require(keccak256(abi.encodePacked(offers[offerId].status)) == keccak256(abi.encodePacked(\"On\")), \"Offer is not On\");\r\n        require(token.balanceOf(offers[offerId].borrower) >= extraCollateral, \"Borrower does not have enough to pay the extra collateral\");\r\n\r\n        offers[offerId].collateral = offers[offerId].collateral + extraCollateral;\r\n        token.transferFrom(msg.sender, address(this), extraCollateral);\r\n    }\r\n\r\n    /**\r\n     * @dev Liquidates the borrower if he owns more than he has collateral.\r\n     * @param offerId the id of the offer.\r\n     */\r\n    function liquidate(uint256 offerId) external nonReentrant() {\r\n        uint256 fee = feeToPay(offerId);\r\n        require(keccak256(abi.encodePacked(offers[offerId].status)) == keccak256(abi.encodePacked(\"On\")), \"Offer is not On\");\r\n        require(offers[offerId].collateral < (fee + offers[offerId].liquidation), \"Borrower is not Liquidated\");\r\n\r\n        offers[offerId].status = \"Liquidated\";\r\n        token.transfer(offers[offerId].owner, offers[offerId].collateral*(100-LiquidationFee)/100);\r\n        token.transfer(PayoutAddress, offers[offerId].collateral*LiquidationFee/100);\r\n        emit OfferStatusChange(offerId, \"Liquidated\");\r\n    }\r\n\r\n    /**\r\n     * @dev Changes account to send payout.\r\n     * @param newPayout new address to send payout.\r\n     */\r\n    function transferPayoutAddress(address newPayout) external onlyRole(DEFAULT_ADMIN_ROLE) {\r\n        PayoutAddress = newPayout;\r\n    }\r\n\r\n    /**\r\n     * @dev Changes the fee \r\n     * @param newFee new fee.\r\n     */\r\n    function changeFee(uint256 newFee) external onlyRole(DEFAULT_ADMIN_ROLE) {\r\n        Fee = newFee;\r\n    }\r\n\r\n    /**\r\n     * @dev Changes the liquidation fee\r\n     * @param newLiquidationFee new liquidation fee.\r\n     */\r\n    function changeLiquidationFee(uint256 newLiquidationFee) external onlyRole(DEFAULT_ADMIN_ROLE) {\r\n        LiquidationFee = newLiquidationFee;\r\n    }\r\n\r\n    /**\r\n     * @dev adds new contract ERC721 to the protocol\r\n     * @param _contract contract address to whitelist.\r\n     */\r\n    function addContract(address _contract) external onlyRole(DEFAULT_ADMIN_ROLE) {\r\n        addressToBool[_contract] = true;\r\n    }\r\n\r\n    /**\r\n     * @dev removes a contract ERC721 from the protocol\r\n     * @param _contract contract address to blacklist.\r\n     */\r\n    function removeContract(address _contract) external onlyRole(DEFAULT_ADMIN_ROLE) {\r\n        addressToBool[_contract] = false;\r\n    }\r\n\r\n}",
  "sourcePath": "C:\\Users\\jtsch\\OneDrive\\Escritorio\\DFK-Lending\\DFK-Lending-SmartContracts\\contracts\\ERC721Lending.sol",
  "compiler": {
    "name": "solc",
    "version": "0.8.12+commit.f00d7308.Emscripten.clang"
  },
  "schemaVersion": "3.4.3",
  "updatedAt": "2022-02-23T17:36:17.341Z",
  "networkType": "ethereum",
  "devdoc": {
    "kind": "dev",
    "methods": {
      "acceptOffer(uint256,uint256)": {
        "details": "Accepts an Open offer, escrows the collateral on the contract and sends the nft to the borrower.",
        "params": {
          "collateral": "how much collateral the borrowers wants to add to the offer.",
          "offerId": "the id of the offer."
        }
      },
      "addCollateral(uint256,uint256)": {
        "details": "Adds extra collateral to the position of the borrower.",
        "params": {
          "extraCollateral": "how much extra collateral the borrowers wants to add to the offer.",
          "offerId": "the id of the offer."
        }
      },
      "addContract(address)": {
        "details": "adds new contract ERC721 to the protocol",
        "params": {
          "_contract": "contract address to whitelist."
        }
      },
      "cancelOffer(uint256)": {
        "details": "Cancels open offer and returns the nft to the owner.",
        "params": {
          "offerId": "the id of the offer."
        }
      },
      "changeFee(uint256)": {
        "details": "Changes the fee ",
        "params": {
          "newFee": "new fee."
        }
      },
      "changeLiquidationFee(uint256)": {
        "details": "Changes the liquidation fee",
        "params": {
          "newLiquidationFee": "new liquidation fee."
        }
      },
      "createOffer(uint256,address,uint256,uint256)": {
        "details": "Opens a new Offer, and sends the nft to an escrow.",
        "params": {
          "fee": "fee amount that accumulates every hour.",
          "liquidation": "if the amount of liquidation+accumulatedFee is bigger than the collateral, the borrower is liquidated.",
          "nftAddress": "address of the nft to offer.",
          "nftId": "id of the nft to offer."
        }
      },
      "getOffer(uint256)": {
        "details": "Returns the details for a offer.",
        "params": {
          "offerId": "The id of the offer."
        }
      },
      "getOfferQuantities()": {
        "details": "Returns the number of offers made."
      },
      "getOffersOfAddress(address)": {
        "details": "Returns all offers of an address.",
        "params": {
          "addr": "the address to lookup."
        }
      },
      "getRoleAdmin(bytes32)": {
        "details": "Returns the admin role that controls `role`. See {grantRole} and {revokeRole}. To change a role's admin, use {_setRoleAdmin}."
      },
      "grantRole(bytes32,address)": {
        "details": "Grants `role` to `account`. If `account` had not been already granted `role`, emits a {RoleGranted} event. Requirements: - the caller must have ``role``'s admin role."
      },
      "hasRole(bytes32,address)": {
        "details": "Returns `true` if `account` has been granted `role`."
      },
      "liquidate(uint256)": {
        "details": "Liquidates the borrower if he owns more than he has collateral.",
        "params": {
          "offerId": "the id of the offer."
        }
      },
      "onERC721Received(address,address,uint256,bytes)": {
        "details": "See {IERC721Receiver-onERC721Received}. Always returns `IERC721Receiver.onERC721Received.selector`."
      },
      "removeContract(address)": {
        "details": "removes a contract ERC721 from the protocol",
        "params": {
          "_contract": "contract address to blacklist."
        }
      },
      "renounceRole(bytes32,address)": {
        "details": "Revokes `role` from the calling account. Roles are often managed via {grantRole} and {revokeRole}: this function's purpose is to provide a mechanism for accounts to lose their privileges if they are compromised (such as when a trusted device is misplaced). If the calling account had been revoked `role`, emits a {RoleRevoked} event. Requirements: - the caller must be `account`."
      },
      "repayOffer(uint256)": {
        "details": "checks if borrower is liquidated or not, then transfers the nft to the contract,  pays the lender, pays the protocol and finally returns the rest of the collateral to the borrower",
        "params": {
          "offerId": "the id of the offer."
        }
      },
      "revokeRole(bytes32,address)": {
        "details": "Revokes `role` from `account`. If `account` had been granted `role`, emits a {RoleRevoked} event. Requirements: - the caller must have ``role``'s admin role."
      },
      "supportsInterface(bytes4)": {
        "details": "See {IERC165-supportsInterface}."
      },
      "transferPayoutAddress(address)": {
        "details": "Changes account to send payout.",
        "params": {
          "newPayout": "new address to send payout."
        }
      }
    },
    "title": "ERC721Lending",
    "version": 1
  },
  "userdoc": {
    "kind": "user",
    "methods": {},
    "notice": "ERC721 Lending plataform where users that provide the ERC721 token set a liquidation limit and fee, and users that borrow the ERC721 token set how much collateral they add to the transaction",
    "version": 1
  }
}