{
  "contractName": "ERC721Lending",
  "abi": [
    {
      "inputs": [
        {
          "internalType": "address",
          "name": "Payout",
          "type": "address"
        },
        {
          "internalType": "address",
          "name": "TokenAddress",
          "type": "address"
        },
        {
          "internalType": "address",
          "name": "BaseERC721Address",
          "type": "address"
        }
      ],
      "stateMutability": "nonpayable",
      "type": "constructor"
    },
    {
      "anonymous": false,
      "inputs": [
        {
          "indexed": false,
          "internalType": "uint256",
          "name": "offerId",
          "type": "uint256"
        },
        {
          "indexed": false,
          "internalType": "string",
          "name": "status",
          "type": "string"
        }
      ],
      "name": "OfferStatusChange",
      "type": "event"
    },
    {
      "anonymous": false,
      "inputs": [
        {
          "indexed": true,
          "internalType": "bytes32",
          "name": "role",
          "type": "bytes32"
        },
        {
          "indexed": true,
          "internalType": "bytes32",
          "name": "previousAdminRole",
          "type": "bytes32"
        },
        {
          "indexed": true,
          "internalType": "bytes32",
          "name": "newAdminRole",
          "type": "bytes32"
        }
      ],
      "name": "RoleAdminChanged",
      "type": "event"
    },
    {
      "anonymous": false,
      "inputs": [
        {
          "indexed": true,
          "internalType": "bytes32",
          "name": "role",
          "type": "bytes32"
        },
        {
          "indexed": true,
          "internalType": "address",
          "name": "account",
          "type": "address"
        },
        {
          "indexed": true,
          "internalType": "address",
          "name": "sender",
          "type": "address"
        }
      ],
      "name": "RoleGranted",
      "type": "event"
    },
    {
      "anonymous": false,
      "inputs": [
        {
          "indexed": true,
          "internalType": "bytes32",
          "name": "role",
          "type": "bytes32"
        },
        {
          "indexed": true,
          "internalType": "address",
          "name": "account",
          "type": "address"
        },
        {
          "indexed": true,
          "internalType": "address",
          "name": "sender",
          "type": "address"
        }
      ],
      "name": "RoleRevoked",
      "type": "event"
    },
    {
      "inputs": [],
      "name": "DEFAULT_ADMIN_ROLE",
      "outputs": [
        {
          "internalType": "bytes32",
          "name": "",
          "type": "bytes32"
        }
      ],
      "stateMutability": "view",
      "type": "function",
      "constant": true
    },
    {
      "inputs": [
        {
          "internalType": "bytes32",
          "name": "role",
          "type": "bytes32"
        }
      ],
      "name": "getRoleAdmin",
      "outputs": [
        {
          "internalType": "bytes32",
          "name": "",
          "type": "bytes32"
        }
      ],
      "stateMutability": "view",
      "type": "function",
      "constant": true
    },
    {
      "inputs": [
        {
          "internalType": "bytes32",
          "name": "role",
          "type": "bytes32"
        },
        {
          "internalType": "address",
          "name": "account",
          "type": "address"
        }
      ],
      "name": "grantRole",
      "outputs": [],
      "stateMutability": "nonpayable",
      "type": "function"
    },
    {
      "inputs": [
        {
          "internalType": "bytes32",
          "name": "role",
          "type": "bytes32"
        },
        {
          "internalType": "address",
          "name": "account",
          "type": "address"
        }
      ],
      "name": "hasRole",
      "outputs": [
        {
          "internalType": "bool",
          "name": "",
          "type": "bool"
        }
      ],
      "stateMutability": "view",
      "type": "function",
      "constant": true
    },
    {
      "inputs": [
        {
          "internalType": "address",
          "name": "",
          "type": "address"
        },
        {
          "internalType": "address",
          "name": "",
          "type": "address"
        },
        {
          "internalType": "uint256",
          "name": "",
          "type": "uint256"
        },
        {
          "internalType": "bytes",
          "name": "",
          "type": "bytes"
        }
      ],
      "name": "onERC721Received",
      "outputs": [
        {
          "internalType": "bytes4",
          "name": "",
          "type": "bytes4"
        }
      ],
      "stateMutability": "nonpayable",
      "type": "function"
    },
    {
      "inputs": [
        {
          "internalType": "bytes32",
          "name": "role",
          "type": "bytes32"
        },
        {
          "internalType": "address",
          "name": "account",
          "type": "address"
        }
      ],
      "name": "renounceRole",
      "outputs": [],
      "stateMutability": "nonpayable",
      "type": "function"
    },
    {
      "inputs": [
        {
          "internalType": "bytes32",
          "name": "role",
          "type": "bytes32"
        },
        {
          "internalType": "address",
          "name": "account",
          "type": "address"
        }
      ],
      "name": "revokeRole",
      "outputs": [],
      "stateMutability": "nonpayable",
      "type": "function"
    },
    {
      "inputs": [
        {
          "internalType": "bytes4",
          "name": "interfaceId",
          "type": "bytes4"
        }
      ],
      "name": "supportsInterface",
      "outputs": [
        {
          "internalType": "bool",
          "name": "",
          "type": "bool"
        }
      ],
      "stateMutability": "view",
      "type": "function",
      "constant": true
    },
    {
      "inputs": [
        {
          "internalType": "uint256",
          "name": "offerId",
          "type": "uint256"
        }
      ],
      "name": "getOffer",
      "outputs": [
        {
          "internalType": "address",
          "name": "",
          "type": "address"
        },
        {
          "internalType": "address",
          "name": "",
          "type": "address"
        },
        {
          "internalType": "uint256",
          "name": "",
          "type": "uint256"
        },
        {
          "internalType": "uint256",
          "name": "",
          "type": "uint256"
        },
        {
          "internalType": "uint256",
          "name": "",
          "type": "uint256"
        },
        {
          "internalType": "address",
          "name": "",
          "type": "address"
        },
        {
          "internalType": "uint256",
          "name": "",
          "type": "uint256"
        },
        {
          "internalType": "uint256",
          "name": "",
          "type": "uint256"
        },
        {
          "internalType": "string",
          "name": "",
          "type": "string"
        }
      ],
      "stateMutability": "view",
      "type": "function",
      "constant": true
    },
    {
      "inputs": [
        {
          "internalType": "address",
          "name": "addr",
          "type": "address"
        }
      ],
      "name": "getOffersOfAddress",
      "outputs": [
        {
          "internalType": "uint256[]",
          "name": "",
          "type": "uint256[]"
        }
      ],
      "stateMutability": "view",
      "type": "function",
      "constant": true
    },
    {
      "inputs": [],
      "name": "getOfferQuantities",
      "outputs": [
        {
          "internalType": "uint256",
          "name": "",
          "type": "uint256"
        }
      ],
      "stateMutability": "view",
      "type": "function",
      "constant": true
    },
    {
      "inputs": [
        {
          "internalType": "uint256",
          "name": "offerId",
          "type": "uint256"
        }
      ],
      "name": "feeToPay",
      "outputs": [
        {
          "internalType": "uint256",
          "name": "",
          "type": "uint256"
        }
      ],
      "stateMutability": "view",
      "type": "function",
      "constant": true
    },
    {
      "inputs": [
        {
          "internalType": "uint256",
          "name": "nftId",
          "type": "uint256"
        },
        {
          "internalType": "address",
          "name": "nftAddress",
          "type": "address"
        },
        {
          "internalType": "uint256",
          "name": "liquidation",
          "type": "uint256"
        },
        {
          "internalType": "uint256",
          "name": "fee",
          "type": "uint256"
        }
      ],
      "name": "createOffer",
      "outputs": [],
      "stateMutability": "nonpayable",
      "type": "function"
    },
    {
      "inputs": [
        {
          "internalType": "uint256",
          "name": "offerId",
          "type": "uint256"
        }
      ],
      "name": "cancelOffer",
      "outputs": [],
      "stateMutability": "nonpayable",
      "type": "function"
    },
    {
      "inputs": [
        {
          "internalType": "uint256",
          "name": "offerId",
          "type": "uint256"
        },
        {
          "internalType": "uint256",
          "name": "collateral",
          "type": "uint256"
        }
      ],
      "name": "acceptOffer",
      "outputs": [],
      "stateMutability": "nonpayable",
      "type": "function"
    },
    {
      "inputs": [
        {
          "internalType": "uint256",
          "name": "offerId",
          "type": "uint256"
        }
      ],
      "name": "repayOffer",
      "outputs": [],
      "stateMutability": "nonpayable",
      "type": "function"
    },
    {
      "inputs": [
        {
          "internalType": "uint256",
          "name": "offerId",
          "type": "uint256"
        },
        {
          "internalType": "uint256",
          "name": "extraCollateral",
          "type": "uint256"
        }
      ],
      "name": "addCollateral",
      "outputs": [],
      "stateMutability": "nonpayable",
      "type": "function"
    },
    {
      "inputs": [
        {
          "internalType": "uint256",
          "name": "offerId",
          "type": "uint256"
        }
      ],
      "name": "liquidate",
      "outputs": [],
      "stateMutability": "nonpayable",
      "type": "function"
    },
    {
      "inputs": [
        {
          "internalType": "address",
          "name": "newPayout",
          "type": "address"
        }
      ],
      "name": "transferPayoutAddress",
      "outputs": [],
      "stateMutability": "nonpayable",
      "type": "function"
    },
    {
      "inputs": [
        {
          "internalType": "uint256",
          "name": "newFee",
          "type": "uint256"
        }
      ],
      "name": "changeFee",
      "outputs": [],
      "stateMutability": "nonpayable",
      "type": "function"
    },
    {
      "inputs": [
        {
          "internalType": "uint256",
          "name": "newLiquidationFee",
          "type": "uint256"
        }
      ],
      "name": "changeLiquidationFee",
      "outputs": [],
      "stateMutability": "nonpayable",
      "type": "function"
    },
    {
      "inputs": [
        {
          "internalType": "address",
          "name": "_contract",
          "type": "address"
        }
      ],
      "name": "addContract",
      "outputs": [],
      "stateMutability": "nonpayable",
      "type": "function"
    },
    {
      "inputs": [
        {
          "internalType": "address",
          "name": "_contract",
          "type": "address"
        }
      ],
      "name": "removeContract",
      "outputs": [],
      "stateMutability": "nonpayable",
      "type": "function"
    }
  ],
  "bytecode": "0x60806040523480156200001157600080fd5b5060405162004f5d38038062004f5d83398181016040528101906200003791906200032b565b600160008190555082600660006101000a81548173ffffffffffffffffffffffffffffffffffffffff021916908373ffffffffffffffffffffffffffffffffffffffff16021790555081600760006101000a81548173ffffffffffffffffffffffffffffffffffffffff021916908373ffffffffffffffffffffffffffffffffffffffff1602179055506004600881905550600a6009819055506001600460008373ffffffffffffffffffffffffffffffffffffffff1673ffffffffffffffffffffffffffffffffffffffff16815260200190815260200160002060006101000a81548160ff0219169083151502179055506200013e6000801b336200014760201b60201c565b50505062000387565b6200015982826200015d60201b60201c565b5050565b6200016f82826200024e60201b60201c565b6200024a57600180600084815260200190815260200160002060000160008373ffffffffffffffffffffffffffffffffffffffff1673ffffffffffffffffffffffffffffffffffffffff16815260200190815260200160002060006101000a81548160ff021916908315150217905550620001ef620002b960201b60201c565b73ffffffffffffffffffffffffffffffffffffffff168173ffffffffffffffffffffffffffffffffffffffff16837f2f8788117e7eff1d82e926ec794901d17c78024a50270940304540a733656f0d60405160405180910390a45b5050565b60006001600084815260200190815260200160002060000160008373ffffffffffffffffffffffffffffffffffffffff1673ffffffffffffffffffffffffffffffffffffffff16815260200190815260200160002060009054906101000a900460ff16905092915050565b600033905090565b600080fd5b600073ffffffffffffffffffffffffffffffffffffffff82169050919050565b6000620002f382620002c6565b9050919050565b6200030581620002e6565b81146200031157600080fd5b50565b6000815190506200032581620002fa565b92915050565b600080600060608486031215620003475762000346620002c1565b5b6000620003578682870162000314565b93505060206200036a8682870162000314565b92505060406200037d8682870162000314565b9150509250925092565b614bc680620003976000396000f3fe608060405234801561001057600080fd5b506004361061014d5760003560e01c806381257bd5116100c3578063ae699e2e1161007c578063ae699e2e146103c6578063c375c2ef146103e2578063d547741f146103fe578063e121e6e51461041a578063ee1733e314610436578063ef706adf146104525761014d565b806381257bd5146102f25780638486014d1461030e57806391d148541461032c578063a217fddf1461035c578063a362edc61461037a578063a8f35adf146103aa5761014d565b8063415f124011610115578063415f12401461021a5780634579268a146102365780634d6bbf101461026e5780635f539d691461028a5780636a1db1bf146102a6578063755505a0146102c25761014d565b806301ffc9a714610152578063150b7a0214610182578063248a9ca3146101b25780632f2ff15d146101e257806336568abe146101fe575b600080fd5b61016c600480360381019061016791906131ef565b61046e565b6040516101799190613237565b60405180910390f35b61019c6004803603810190610197919061342c565b6104e8565b6040516101a991906134be565b60405180910390f35b6101cc60048036038101906101c7919061350f565b6104fc565b6040516101d9919061354b565b60405180910390f35b6101fc60048036038101906101f79190613566565b61051c565b005b61021860048036038101906102139190613566565b610545565b005b610234600480360381019061022f91906135a6565b6105c8565b005b610250600480360381019061024b91906135a6565b61093c565b60405161026599989796959493929190613679565b60405180910390f35b610288600480360381019061028391906135a6565b610b81565b005b6102a4600480360381019061029f919061370d565b610ba1565b005b6102c060048036038101906102bb91906135a6565b610c12565b005b6102dc60048036038101906102d791906135a6565b610c32565b6040516102e9919061373a565b60405180910390f35b61030c60048036038101906103079190613755565b610cac565b005b6103166111d5565b604051610323919061373a565b60405180910390f35b61034660048036038101906103419190613566565b6111e6565b6040516103539190613237565b60405180910390f35b610364611251565b604051610371919061354b565b60405180910390f35b610394600480360381019061038f919061370d565b611258565b6040516103a19190613853565b60405180910390f35b6103c460048036038101906103bf9190613755565b6112ef565b005b6103e060048036038101906103db919061370d565b61162d565b005b6103fc60048036038101906103f7919061370d565b611687565b005b61041860048036038101906104139190613566565b6116f8565b005b610434600480360381019061042f91906135a6565b611721565b005b610450600480360381019061044b9190613875565b611f46565b005b61046c600480360381019061046791906135a6565b612400565b005b60007f7965db0b000000000000000000000000000000000000000000000000000000007bffffffffffffffffffffffffffffffffffffffffffffffffffffffff1916827bffffffffffffffffffffffffffffffffffffffffffffffffffffffff191614806104e157506104e082612823565b5b9050919050565b600063150b7a0260e01b9050949350505050565b600060016000838152602001908152602001600020600101549050919050565b610525826104fc565b6105368161053161288d565b612895565b6105408383612932565b505050565b61054d61288d565b73ffffffffffffffffffffffffffffffffffffffff168173ffffffffffffffffffffffffffffffffffffffff16146105ba576040517f08c379a00000000000000000000000000000000000000000000000000000000081526004016105b19061394e565b60405180910390fd5b6105c48282612a12565b5050565b6002600054141561060e576040517f08c379a0000000000000000000000000000000000000000000000000000000008152600401610605906139ba565b60405180910390fd5b6002600081905550600061062182610c32565b905060405160200161063290613a31565b604051602081830303815290604052805190602001206002600084815260200190815260200160002060080160405160200161066e9190613b3b565b60405160208183030381529060405280519060200120146106c4576040517f08c379a00000000000000000000000000000000000000000000000000000000081526004016106bb90613b9e565b60405180910390fd5b6002600083815260200190815260200160002060030154816106e69190613bed565b60026000848152602001908152602001600020600601541061073d576040517f08c379a000000000000000000000000000000000000000000000000000000000815260040161073490613c8f565b60405180910390fd5b6040518060400160405280600a81526020017f4c6971756964617465640000000000000000000000000000000000000000000081525060026000848152602001908152602001600020600801908051906020019061079c9291906130e0565b5061085b6002600084815260200190815260200160002060000160009054906101000a900473ffffffffffffffffffffffffffffffffffffffff16606460095460646107e89190613caf565b60026000878152602001908152602001600020600601546108099190613ce3565b6108139190613d6c565b600760009054906101000a900473ffffffffffffffffffffffffffffffffffffffff1673ffffffffffffffffffffffffffffffffffffffff16612af49092919063ffffffff16565b6108f9600660009054906101000a900473ffffffffffffffffffffffffffffffffffffffff16606460095460026000878152602001908152602001600020600601546108a79190613ce3565b6108b19190613d6c565b600760009054906101000a900473ffffffffffffffffffffffffffffffffffffffff1673ffffffffffffffffffffffffffffffffffffffff16612af49092919063ffffffff16565b7f1ce667ae522f1f380b3262bf7881f17067f07d7f50dc398385709938a9340daf826040516109289190613de9565b60405180910390a150600160008190555050565b60008060008060008060008060606000600260008c8152602001908152602001600020604051806101200160405290816000820160009054906101000a900473ffffffffffffffffffffffffffffffffffffffff1673ffffffffffffffffffffffffffffffffffffffff1673ffffffffffffffffffffffffffffffffffffffff1681526020016001820160009054906101000a900473ffffffffffffffffffffffffffffffffffffffff1673ffffffffffffffffffffffffffffffffffffffff1673ffffffffffffffffffffffffffffffffffffffff1681526020016002820154815260200160038201548152602001600482015481526020016005820160009054906101000a900473ffffffffffffffffffffffffffffffffffffffff1673ffffffffffffffffffffffffffffffffffffffff1673ffffffffffffffffffffffffffffffffffffffff1681526020016006820154815260200160078201548152602001600882018054610aaf90613a75565b80601f0160208091040260200160405190810160405280929190818152602001828054610adb90613a75565b8015610b285780601f10610afd57610100808354040283529160200191610b28565b820191906000526020600020905b815481529060010190602001808311610b0b57829003601f168201915b5050505050815250509050806000015181602001518260400151836060015184608001518560a001518660c001518760e00151886101000151995099509950995099509950995099509950509193959799909294969850565b6000801b610b9681610b9161288d565b612895565b816009819055505050565b6000801b610bb681610bb161288d565b612895565b6001600460008473ffffffffffffffffffffffffffffffffffffffff1673ffffffffffffffffffffffffffffffffffffffff16815260200190815260200160002060006101000a81548160ff0219169083151502179055505050565b6000801b610c2781610c2261288d565b612895565b816008819055505050565b60006002600083815260200190815260200160002060040154610e10600260008581526020019081526020016000206007015442610c709190613caf565b610c7a9190613d6c565b610c849190613ce3565b6002600084815260200190815260200160002060040154610ca59190613bed565b9050919050565b60026000541415610cf2576040517f08c379a0000000000000000000000000000000000000000000000000000000008152600401610ce9906139ba565b60405180910390fd5b60026000819055503373ffffffffffffffffffffffffffffffffffffffff166002600084815260200190815260200160002060000160009054906101000a900473ffffffffffffffffffffffffffffffffffffffff1673ffffffffffffffffffffffffffffffffffffffff161415610d9f576040517f08c379a0000000000000000000000000000000000000000000000000000000008152600401610d9690613e63565b60405180910390fd5b604051602001610dae90613ecf565b6040516020818303038152906040528051906020012060026000848152602001908152602001600020600801604051602001610dea9190613b3b565b6040516020818303038152906040528051906020012014610e40576040517f08c379a0000000000000000000000000000000000000000000000000000000008152600401610e3790613f30565b60405180910390fd5b600060026000848152602001908152602001600020600401549050806002600085815260200190815260200160002060030154610e7d9190613bed565b8211610ebe576040517f08c379a0000000000000000000000000000000000000000000000000000000008152600401610eb590613fc2565b60405180910390fd5b81600760009054906101000a900473ffffffffffffffffffffffffffffffffffffffff1673ffffffffffffffffffffffffffffffffffffffff166370a08231336040518263ffffffff1660e01b8152600401610f1a9190613fe2565b602060405180830381865afa158015610f37573d6000803e3d6000fd5b505050506040513d601f19601f82011682018060405250810190610f5b9190614012565b1015610f9c576040517f08c379a0000000000000000000000000000000000000000000000000000000008152600401610f93906140b1565b60405180910390fd5b6040518060400160405280600281526020017f4f6e000000000000000000000000000000000000000000000000000000000000815250600260008581526020019081526020016000206008019080519060200190610ffb9291906130e0565b50336002600085815260200190815260200160002060050160006101000a81548173ffffffffffffffffffffffffffffffffffffffff021916908373ffffffffffffffffffffffffffffffffffffffff1602179055508160026000858152602001908152602001600020600601819055504260026000858152602001908152602001600020600701819055506110d6333084600760009054906101000a900473ffffffffffffffffffffffffffffffffffffffff1673ffffffffffffffffffffffffffffffffffffffff16612b7a909392919063ffffffff16565b6002600084815260200190815260200160002060010160009054906101000a900473ffffffffffffffffffffffffffffffffffffffff1673ffffffffffffffffffffffffffffffffffffffff166342842e0e303360026000888152602001908152602001600020600201546040518463ffffffff1660e01b815260040161115f939291906140d1565b600060405180830381600087803b15801561117957600080fd5b505af115801561118d573d6000803e3d6000fd5b505050507f1ce667ae522f1f380b3262bf7881f17067f07d7f50dc398385709938a9340daf836040516111c0919061412b565b60405180910390a15060016000819055505050565b60006111e16005612c03565b905090565b60006001600084815260200190815260200160002060000160008373ffffffffffffffffffffffffffffffffffffffff1673ffffffffffffffffffffffffffffffffffffffff16815260200190815260200160002060009054906101000a900460ff16905092915050565b6000801b81565b6060600360008373ffffffffffffffffffffffffffffffffffffffff1673ffffffffffffffffffffffffffffffffffffffff1681526020019081526020016000208054806020026020016040519081016040528092919081815260200182805480156112e357602002820191906000526020600020905b8154815260200190600101908083116112cf575b50505050509050919050565b60026000541415611335576040517f08c379a000000000000000000000000000000000000000000000000000000000815260040161132c906139ba565b60405180910390fd5b60026000819055503373ffffffffffffffffffffffffffffffffffffffff166002600084815260200190815260200160002060050160009054906101000a900473ffffffffffffffffffffffffffffffffffffffff1673ffffffffffffffffffffffffffffffffffffffff16146113e1576040517f08c379a00000000000000000000000000000000000000000000000000000000081526004016113d8906141a5565b60405180910390fd5b6040516020016113f090613a31565b604051602081830303815290604052805190602001206002600084815260200190815260200160002060080160405160200161142c9190613b3b565b6040516020818303038152906040528051906020012014611482576040517f08c379a000000000000000000000000000000000000000000000000000000000815260040161147990613b9e565b60405180910390fd5b80600760009054906101000a900473ffffffffffffffffffffffffffffffffffffffff1673ffffffffffffffffffffffffffffffffffffffff166370a082316002600086815260200190815260200160002060050160009054906101000a900473ffffffffffffffffffffffffffffffffffffffff166040518263ffffffff1660e01b81526004016115149190613fe2565b602060405180830381865afa158015611531573d6000803e3d6000fd5b505050506040513d601f19601f820116820180604052508101906115559190614012565b1015611596576040517f08c379a000000000000000000000000000000000000000000000000000000000815260040161158d90614237565b60405180910390fd5b8060026000848152602001908152602001600020600601546115b89190613bed565b6002600084815260200190815260200160002060060181905550611621333083600760009054906101000a900473ffffffffffffffffffffffffffffffffffffffff1673ffffffffffffffffffffffffffffffffffffffff16612b7a909392919063ffffffff16565b60016000819055505050565b6000801b6116428161163d61288d565b612895565b81600660006101000a81548173ffffffffffffffffffffffffffffffffffffffff021916908373ffffffffffffffffffffffffffffffffffffffff1602179055505050565b6000801b61169c8161169761288d565b612895565b6000600460008473ffffffffffffffffffffffffffffffffffffffff1673ffffffffffffffffffffffffffffffffffffffff16815260200190815260200160002060006101000a81548160ff0219169083151502179055505050565b611701826104fc565b6117128161170d61288d565b612895565b61171c8383612a12565b505050565b60026000541415611767576040517f08c379a000000000000000000000000000000000000000000000000000000000815260040161175e906139ba565b60405180910390fd5b60026000819055503373ffffffffffffffffffffffffffffffffffffffff166002600083815260200190815260200160002060050160009054906101000a900473ffffffffffffffffffffffffffffffffffffffff1673ffffffffffffffffffffffffffffffffffffffff1614611813576040517f08c379a000000000000000000000000000000000000000000000000000000000815260040161180a906142c9565b60405180910390fd5b60405160200161182290613a31565b604051602081830303815290604052805190602001206002600083815260200190815260200160002060080160405160200161185e9190613b3b565b60405160208183030381529060405280519060200120146118b4576040517f08c379a00000000000000000000000000000000000000000000000000000000081526004016118ab90613b9e565b60405180910390fd5b3373ffffffffffffffffffffffffffffffffffffffff166002600083815260200190815260200160002060010160009054906101000a900473ffffffffffffffffffffffffffffffffffffffff1673ffffffffffffffffffffffffffffffffffffffff16636352211e60026000858152602001908152602001600020600201546040518263ffffffff1660e01b8152600401611950919061373a565b602060405180830381865afa15801561196d573d6000803e3d6000fd5b505050506040513d601f19601f8201168201806040525081019061199191906142fe565b73ffffffffffffffffffffffffffffffffffffffff16146119e7576040517f08c379a00000000000000000000000000000000000000000000000000000000081526004016119de90614377565b60405180910390fd5b6002600082815260200190815260200160002060060154600760009054906101000a900473ffffffffffffffffffffffffffffffffffffffff1673ffffffffffffffffffffffffffffffffffffffff166370a08231306040518263ffffffff1660e01b8152600401611a599190613fe2565b602060405180830381865afa158015611a76573d6000803e3d6000fd5b505050506040513d601f19601f82011682018060405250810190611a9a9190614012565b1015611adb576040517f08c379a0000000000000000000000000000000000000000000000000000000008152600401611ad290614409565b60405180910390fd5b600060026000838152602001908152602001600020600701541415611b35576040517f08c379a0000000000000000000000000000000000000000000000000000000008152600401611b2c90614475565b60405180910390fd5b6000611b4082610c32565b9050600260008381526020019081526020016000206003015481611b649190613bed565b60026000848152602001908152602001600020600601541015611bbc576040517f08c379a0000000000000000000000000000000000000000000000000000000008152600401611bb3906144e1565b60405180910390fd5b6002600083815260200190815260200160002060010160009054906101000a900473ffffffffffffffffffffffffffffffffffffffff1673ffffffffffffffffffffffffffffffffffffffff166342842e0e333060026000878152602001908152602001600020600201546040518463ffffffff1660e01b8152600401611c45939291906140d1565b600060405180830381600087803b158015611c5f57600080fd5b505af1158015611c73573d6000803e3d6000fd5b50505050611d1f6002600084815260200190815260200160002060000160009054906101000a900473ffffffffffffffffffffffffffffffffffffffff1660646008546064611cc29190613caf565b84611ccd9190613ce3565b611cd79190613d6c565b600760009054906101000a900473ffffffffffffffffffffffffffffffffffffffff1673ffffffffffffffffffffffffffffffffffffffff16612af49092919063ffffffff16565b611da7600660009054906101000a900473ffffffffffffffffffffffffffffffffffffffff16606460085484611d559190613ce3565b611d5f9190613d6c565b600760009054906101000a900473ffffffffffffffffffffffffffffffffffffffff1673ffffffffffffffffffffffffffffffffffffffff16612af49092919063ffffffff16565b611e1533826002600086815260200190815260200160002060060154611dcd9190613caf565b600760009054906101000a900473ffffffffffffffffffffffffffffffffffffffff1673ffffffffffffffffffffffffffffffffffffffff16612af49092919063ffffffff16565b60006002600084815260200190815260200160002060050160006101000a81548173ffffffffffffffffffffffffffffffffffffffff021916908373ffffffffffffffffffffffffffffffffffffffff16021790555060006002600084815260200190815260200160002060060181905550600060026000848152602001908152602001600020600701819055506040518060400160405280600481526020017f4f70656e00000000000000000000000000000000000000000000000000000000815250600260008481526020019081526020016000206008019080519060200190611f029291906130e0565b507f1ce667ae522f1f380b3262bf7881f17067f07d7f50dc398385709938a9340daf82604051611f329190614524565b60405180910390a150600160008190555050565b60026000541415611f8c576040517f08c379a0000000000000000000000000000000000000000000000000000000008152600401611f83906139ba565b60405180910390fd5b600260008190555060011515600460008573ffffffffffffffffffffffffffffffffffffffff1673ffffffffffffffffffffffffffffffffffffffff16815260200190815260200160002060009054906101000a900460ff16151514611ff157600080fd5b3373ffffffffffffffffffffffffffffffffffffffff168373ffffffffffffffffffffffffffffffffffffffff16636352211e866040518263ffffffff1660e01b8152600401612041919061373a565b602060405180830381865afa15801561205e573d6000803e3d6000fd5b505050506040513d601f19601f8201168201806040525081019061208291906142fe565b73ffffffffffffffffffffffffffffffffffffffff16146120d8576040517f08c379a00000000000000000000000000000000000000000000000000000000081526004016120cf9061459e565b60405180910390fd5b8273ffffffffffffffffffffffffffffffffffffffff166342842e0e3330876040518463ffffffff1660e01b8152600401612115939291906140d1565b600060405180830381600087803b15801561212f57600080fd5b505af1158015612143573d6000803e3d6000fd5b5050505060006121536005612c03565b905061215f6005612c11565b6040518061012001604052803373ffffffffffffffffffffffffffffffffffffffff1681526020018573ffffffffffffffffffffffffffffffffffffffff168152602001868152602001848152602001838152602001600073ffffffffffffffffffffffffffffffffffffffff16815260200160008152602001600081526020016040518060400160405280600481526020017f4f70656e000000000000000000000000000000000000000000000000000000008152508152506002600083815260200190815260200160002060008201518160000160006101000a81548173ffffffffffffffffffffffffffffffffffffffff021916908373ffffffffffffffffffffffffffffffffffffffff16021790555060208201518160010160006101000a81548173ffffffffffffffffffffffffffffffffffffffff021916908373ffffffffffffffffffffffffffffffffffffffff16021790555060408201518160020155606082015181600301556080820151816004015560a08201518160050160006101000a81548173ffffffffffffffffffffffffffffffffffffffff021916908373ffffffffffffffffffffffffffffffffffffffff16021790555060c0820151816006015560e082015181600701556101008201518160080190805190602001906123509291906130e0565b50905050600360003373ffffffffffffffffffffffffffffffffffffffff1673ffffffffffffffffffffffffffffffffffffffff1681526020019081526020016000208190806001815401808255809150506001900390600052602060002001600090919091909150557f1ce667ae522f1f380b3262bf7881f17067f07d7f50dc398385709938a9340daf816040516123e99190614524565b60405180910390a150600160008190555050505050565b60026000541415612446576040517f08c379a000000000000000000000000000000000000000000000000000000000815260040161243d906139ba565b60405180910390fd5b60026000819055503373ffffffffffffffffffffffffffffffffffffffff166002600083815260200190815260200160002060000160009054906101000a900473ffffffffffffffffffffffffffffffffffffffff1673ffffffffffffffffffffffffffffffffffffffff16146124f2576040517f08c379a00000000000000000000000000000000000000000000000000000000081526004016124e99061460a565b60405180910390fd5b3073ffffffffffffffffffffffffffffffffffffffff166002600083815260200190815260200160002060010160009054906101000a900473ffffffffffffffffffffffffffffffffffffffff1673ffffffffffffffffffffffffffffffffffffffff16636352211e60026000858152602001908152602001600020600201546040518263ffffffff1660e01b815260040161258e919061373a565b602060405180830381865afa1580156125ab573d6000803e3d6000fd5b505050506040513d601f19601f820116820180604052508101906125cf91906142fe565b73ffffffffffffffffffffffffffffffffffffffff1614612625576040517f08c379a000000000000000000000000000000000000000000000000000000000815260040161261c9061469c565b60405180910390fd5b60405160200161263490613ecf565b60405160208183030381529060405280519060200120600260008381526020019081526020016000206008016040516020016126709190613b3b565b60405160208183030381529060405280519060200120146126c6576040517f08c379a00000000000000000000000000000000000000000000000000000000081526004016126bd90613f30565b60405180910390fd5b6040518060400160405280600981526020017f43616e63656c6c656400000000000000000000000000000000000000000000008152506002600083815260200190815260200160002060080190805190602001906127259291906130e0565b506002600082815260200190815260200160002060010160009054906101000a900473ffffffffffffffffffffffffffffffffffffffff1673ffffffffffffffffffffffffffffffffffffffff166342842e0e303360026000868152602001908152602001600020600201546040518463ffffffff1660e01b81526004016127af939291906140d1565b600060405180830381600087803b1580156127c957600080fd5b505af11580156127dd573d6000803e3d6000fd5b505050507f1ce667ae522f1f380b3262bf7881f17067f07d7f50dc398385709938a9340daf816040516128109190614708565b60405180910390a1600160008190555050565b60007f01ffc9a7000000000000000000000000000000000000000000000000000000007bffffffffffffffffffffffffffffffffffffffffffffffffffffffff1916827bffffffffffffffffffffffffffffffffffffffffffffffffffffffff1916149050919050565b600033905090565b61289f82826111e6565b61292e576128c48173ffffffffffffffffffffffffffffffffffffffff166014612c27565b6128d28360001c6020612c27565b6040516020016128e39291906147ff565b6040516020818303038152906040526040517f08c379a00000000000000000000000000000000000000000000000000000000081526004016129259190614839565b60405180910390fd5b5050565b61293c82826111e6565b612a0e57600180600084815260200190815260200160002060000160008373ffffffffffffffffffffffffffffffffffffffff1673ffffffffffffffffffffffffffffffffffffffff16815260200190815260200160002060006101000a81548160ff0219169083151502179055506129b361288d565b73ffffffffffffffffffffffffffffffffffffffff168173ffffffffffffffffffffffffffffffffffffffff16837f2f8788117e7eff1d82e926ec794901d17c78024a50270940304540a733656f0d60405160405180910390a45b5050565b612a1c82826111e6565b15612af05760006001600084815260200190815260200160002060000160008373ffffffffffffffffffffffffffffffffffffffff1673ffffffffffffffffffffffffffffffffffffffff16815260200190815260200160002060006101000a81548160ff021916908315150217905550612a9561288d565b73ffffffffffffffffffffffffffffffffffffffff168173ffffffffffffffffffffffffffffffffffffffff16837ff6391f5c32d9c69d2a47ea670b442974b53935d1edc7fd64eb21e047a839171b60405160405180910390a45b5050565b612b758363a9059cbb60e01b8484604051602401612b1392919061485b565b604051602081830303815290604052907bffffffffffffffffffffffffffffffffffffffffffffffffffffffff19166020820180517bffffffffffffffffffffffffffffffffffffffffffffffffffffffff8381831617835250505050612e63565b505050565b612bfd846323b872dd60e01b858585604051602401612b9b939291906140d1565b604051602081830303815290604052907bffffffffffffffffffffffffffffffffffffffffffffffffffffffff19166020820180517bffffffffffffffffffffffffffffffffffffffffffffffffffffffff8381831617835250505050612e63565b50505050565b600081600001549050919050565b6001816000016000828254019250508190555050565b606060006002836002612c3a9190613ce3565b612c449190613bed565b67ffffffffffffffff811115612c5d57612c5c613301565b5b6040519080825280601f01601f191660200182016040528015612c8f5781602001600182028036833780820191505090505b5090507f300000000000000000000000000000000000000000000000000000000000000081600081518110612cc757612cc6614884565b5b60200101907effffffffffffffffffffffffffffffffffffffffffffffffffffffffffffff1916908160001a9053507f780000000000000000000000000000000000000000000000000000000000000081600181518110612d2b57612d2a614884565b5b60200101907effffffffffffffffffffffffffffffffffffffffffffffffffffffffffffff1916908160001a90535060006001846002612d6b9190613ce3565b612d759190613bed565b90505b6001811115612e15577f3031323334353637383961626364656600000000000000000000000000000000600f861660108110612db757612db6614884565b5b1a60f81b828281518110612dce57612dcd614884565b5b60200101907effffffffffffffffffffffffffffffffffffffffffffffffffffffffffffff1916908160001a905350600485901c945080612e0e906148b3565b9050612d78565b5060008414612e59576040517f08c379a0000000000000000000000000000000000000000000000000000000008152600401612e5090614929565b60405180910390fd5b8091505092915050565b6000612ec5826040518060400160405280602081526020017f5361666545524332303a206c6f772d6c6576656c2063616c6c206661696c65648152508573ffffffffffffffffffffffffffffffffffffffff16612f2a9092919063ffffffff16565b9050600081511115612f255780806020019051810190612ee59190614975565b612f24576040517f08c379a0000000000000000000000000000000000000000000000000000000008152600401612f1b90614a14565b60405180910390fd5b5b505050565b6060612f398484600085612f42565b90509392505050565b606082471015612f87576040517f08c379a0000000000000000000000000000000000000000000000000000000008152600401612f7e90614aa6565b60405180910390fd5b612f9085613056565b612fcf576040517f08c379a0000000000000000000000000000000000000000000000000000000008152600401612fc690614b12565b60405180910390fd5b6000808673ffffffffffffffffffffffffffffffffffffffff168587604051612ff89190614b79565b60006040518083038185875af1925050503d8060008114613035576040519150601f19603f3d011682016040523d82523d6000602084013e61303a565b606091505b509150915061304a828286613079565b92505050949350505050565b6000808273ffffffffffffffffffffffffffffffffffffffff163b119050919050565b60608315613089578290506130d9565b60008351111561309c5782518084602001fd5b816040517f08c379a00000000000000000000000000000000000000000000000000000000081526004016130d09190614839565b60405180910390fd5b9392505050565b8280546130ec90613a75565b90600052602060002090601f01602090048101928261310e5760008555613155565b82601f1061312757805160ff1916838001178555613155565b82800160010185558215613155579182015b82811115613154578251825591602001919060010190613139565b5b5090506131629190613166565b5090565b5b8082111561317f576000816000905550600101613167565b5090565b6000604051905090565b600080fd5b600080fd5b60007fffffffff0000000000000000000000000000000000000000000000000000000082169050919050565b6131cc81613197565b81146131d757600080fd5b50565b6000813590506131e9816131c3565b92915050565b6000602082840312156132055761320461318d565b5b6000613213848285016131da565b91505092915050565b60008115159050919050565b6132318161321c565b82525050565b600060208201905061324c6000830184613228565b92915050565b600073ffffffffffffffffffffffffffffffffffffffff82169050919050565b600061327d82613252565b9050919050565b61328d81613272565b811461329857600080fd5b50565b6000813590506132aa81613284565b92915050565b6000819050919050565b6132c3816132b0565b81146132ce57600080fd5b50565b6000813590506132e0816132ba565b92915050565b600080fd5b600080fd5b6000601f19601f8301169050919050565b7f4e487b7100000000000000000000000000000000000000000000000000000000600052604160045260246000fd5b613339826132f0565b810181811067ffffffffffffffff8211171561335857613357613301565b5b80604052505050565b600061336b613183565b90506133778282613330565b919050565b600067ffffffffffffffff82111561339757613396613301565b5b6133a0826132f0565b9050602081019050919050565b82818337600083830152505050565b60006133cf6133ca8461337c565b613361565b9050828152602081018484840111156133eb576133ea6132eb565b5b6133f68482856133ad565b509392505050565b600082601f830112613413576134126132e6565b5b81356134238482602086016133bc565b91505092915050565b600080600080608085870312156134465761344561318d565b5b60006134548782880161329b565b94505060206134658782880161329b565b9350506040613476878288016132d1565b925050606085013567ffffffffffffffff81111561349757613496613192565b5b6134a3878288016133fe565b91505092959194509250565b6134b881613197565b82525050565b60006020820190506134d360008301846134af565b92915050565b6000819050919050565b6134ec816134d9565b81146134f757600080fd5b50565b600081359050613509816134e3565b92915050565b6000602082840312156135255761352461318d565b5b6000613533848285016134fa565b91505092915050565b613545816134d9565b82525050565b6000602082019050613560600083018461353c565b92915050565b6000806040838503121561357d5761357c61318d565b5b600061358b858286016134fa565b925050602061359c8582860161329b565b9150509250929050565b6000602082840312156135bc576135bb61318d565b5b60006135ca848285016132d1565b91505092915050565b6135dc81613272565b82525050565b6135eb816132b0565b82525050565b600081519050919050565b600082825260208201905092915050565b60005b8381101561362b578082015181840152602081019050613610565b8381111561363a576000848401525b50505050565b600061364b826135f1565b61365581856135fc565b935061366581856020860161360d565b61366e816132f0565b840191505092915050565b60006101208201905061368f600083018c6135d3565b61369c602083018b6135d3565b6136a9604083018a6135e2565b6136b660608301896135e2565b6136c360808301886135e2565b6136d060a08301876135d3565b6136dd60c08301866135e2565b6136ea60e08301856135e2565b8181036101008301526136fd8184613640565b90509a9950505050505050505050565b6000602082840312156137235761372261318d565b5b60006137318482850161329b565b91505092915050565b600060208201905061374f60008301846135e2565b92915050565b6000806040838503121561376c5761376b61318d565b5b600061377a858286016132d1565b925050602061378b858286016132d1565b9150509250929050565b600081519050919050565b600082825260208201905092915050565b6000819050602082019050919050565b6137ca816132b0565b82525050565b60006137dc83836137c1565b60208301905092915050565b6000602082019050919050565b600061380082613795565b61380a81856137a0565b9350613815836137b1565b8060005b8381101561384657815161382d88826137d0565b9750613838836137e8565b925050600181019050613819565b5085935050505092915050565b6000602082019050818103600083015261386d81846137f5565b905092915050565b6000806000806080858703121561388f5761388e61318d565b5b600061389d878288016132d1565b94505060206138ae8782880161329b565b93505060406138bf878288016132d1565b92505060606138d0878288016132d1565b91505092959194509250565b7f416363657373436f6e74726f6c3a2063616e206f6e6c792072656e6f756e636560008201527f20726f6c657320666f722073656c660000000000000000000000000000000000602082015250565b6000613938602f836135fc565b9150613943826138dc565b604082019050919050565b600060208201905081810360008301526139678161392b565b9050919050565b7f5265656e7472616e637947756172643a207265656e7472616e742063616c6c00600082015250565b60006139a4601f836135fc565b91506139af8261396e565b602082019050919050565b600060208201905081810360008301526139d381613997565b9050919050565b600081905092915050565b7f4f6e000000000000000000000000000000000000000000000000000000000000600082015250565b6000613a1b6002836139da565b9150613a26826139e5565b600282019050919050565b6000613a3c82613a0e565b9150819050919050565b7f4e487b7100000000000000000000000000000000000000000000000000000000600052602260045260246000fd5b60006002820490506001821680613a8d57607f821691505b60208210811415613aa157613aa0613a46565b5b50919050565b60008190508160005260206000209050919050565b60008154613ac981613a75565b613ad381866139da565b94506001821660008114613aee5760018114613aff57613b32565b60ff19831686528186019350613b32565b613b0885613aa7565b60005b83811015613b2a57815481890152600182019150602081019050613b0b565b838801955050505b50505092915050565b6000613b478284613abc565b915081905092915050565b7f4f66666572206973206e6f74204f6e0000000000000000000000000000000000600082015250565b6000613b88600f836135fc565b9150613b9382613b52565b602082019050919050565b60006020820190508181036000830152613bb781613b7b565b9050919050565b7f4e487b7100000000000000000000000000000000000000000000000000000000600052601160045260246000fd5b6000613bf8826132b0565b9150613c03836132b0565b9250827fffffffffffffffffffffffffffffffffffffffffffffffffffffffffffffffff03821115613c3857613c37613bbe565b5b828201905092915050565b7f426f72726f776572206973206e6f74204c697175696461746564000000000000600082015250565b6000613c79601a836135fc565b9150613c8482613c43565b602082019050919050565b60006020820190508181036000830152613ca881613c6c565b9050919050565b6000613cba826132b0565b9150613cc5836132b0565b925082821015613cd857613cd7613bbe565b5b828203905092915050565b6000613cee826132b0565b9150613cf9836132b0565b9250817fffffffffffffffffffffffffffffffffffffffffffffffffffffffffffffffff0483118215151615613d3257613d31613bbe565b5b828202905092915050565b7f4e487b7100000000000000000000000000000000000000000000000000000000600052601260045260246000fd5b6000613d77826132b0565b9150613d82836132b0565b925082613d9257613d91613d3d565b5b828204905092915050565b7f4c69717569646174656400000000000000000000000000000000000000000000600082015250565b6000613dd3600a836135fc565b9150613dde82613d9d565b602082019050919050565b6000604082019050613dfe60008301846135e2565b8181036020830152613e0f81613dc6565b905092915050565b7f43616e206e6f742061636365707420796f7572206f776e204f66666572000000600082015250565b6000613e4d601d836135fc565b9150613e5882613e17565b602082019050919050565b60006020820190508181036000830152613e7c81613e40565b9050919050565b7f4f70656e00000000000000000000000000000000000000000000000000000000600082015250565b6000613eb96004836139da565b9150613ec482613e83565b600482019050919050565b6000613eda82613eac565b9150819050919050565b7f4f66666572206973206e6f74204f70656e000000000000000000000000000000600082015250565b6000613f1a6011836135fc565b9150613f2582613ee4565b602082019050919050565b60006020820190508181036000830152613f4981613f0d565b9050919050565b7f4e6f7420656e6f75676820636f6c6c61746572616c20746f20626f72726f772060008201527f666f72206d6f7265207468616e20616e20686f75720000000000000000000000602082015250565b6000613fac6035836135fc565b9150613fb782613f50565b604082019050919050565b60006020820190508181036000830152613fdb81613f9f565b9050919050565b6000602082019050613ff760008301846135d3565b92915050565b60008151905061400c816132ba565b92915050565b6000602082840312156140285761402761318d565b5b600061403684828501613ffd565b91505092915050565b7f4e6f7420656e6f7567682062616c616e636520746f207061792074686520636f60008201527f6c6c61746572616c000000000000000000000000000000000000000000000000602082015250565b600061409b6028836135fc565b91506140a68261403f565b604082019050919050565b600060208201905081810360008301526140ca8161408e565b9050919050565b60006060820190506140e660008301866135d3565b6140f360208301856135d3565b61410060408301846135e2565b949350505050565b60006141156002836135fc565b9150614120826139e5565b602082019050919050565b600060408201905061414060008301846135e2565b818103602083015261415181614108565b905092915050565b7f4f6e6c7920626f72726f7765722063616e2061646420636f6c6c61746572616c600082015250565b600061418f6020836135fc565b915061419a82614159565b602082019050919050565b600060208201905081810360008301526141be81614182565b9050919050565b7f426f72726f77657220646f6573206e6f74206861766520656e6f75676820746f60008201527f207061792074686520657874726120636f6c6c61746572616c00000000000000602082015250565b60006142216039836135fc565b915061422c826141c5565b604082019050919050565b6000602082019050818103600083015261425081614214565b9050919050565b7f4f6e6c7920626f72726f7765722063616e20726570617920746865204f66666560008201527f7200000000000000000000000000000000000000000000000000000000000000602082015250565b60006142b36021836135fc565b91506142be82614257565b604082019050919050565b600060208201905081810360008301526142e2816142a6565b9050919050565b6000815190506142f881613284565b92915050565b6000602082840312156143145761431361318d565b5b6000614322848285016142e9565b91505092915050565b7f426f72726f776572206973206e6f74206f776e6572206f6620746865204e4654600082015250565b60006143616020836135fc565b915061436c8261432b565b602082019050919050565b6000602082019050818103600083015261439081614354565b9050919050565b7f50726f746f636f6c20646f6573206e6f74206861766520656e6f75676820746f60008201527f207061792074686520636f6c6c61746572616c00000000000000000000000000602082015250565b60006143f36033836135fc565b91506143fe82614397565b604082019050919050565b60006020820190508181036000830152614422816143e6565b9050919050565b7f4163636570742074696d65203d20300000000000000000000000000000000000600082015250565b600061445f600f836135fc565b915061446a82614429565b602082019050919050565b6000602082019050818103600083015261448e81614452565b9050919050565b7f426f72726f7765722063616e206265204c697175696461746564000000000000600082015250565b60006144cb601a836135fc565b91506144d682614495565b602082019050919050565b600060208201905081810360008301526144fa816144be565b9050919050565b600061450e6004836135fc565b915061451982613e83565b602082019050919050565b600060408201905061453960008301846135e2565b818103602083015261454a81614501565b905092915050565b7f4e6f7420746865206f776e6572206f6620746865204e46540000000000000000600082015250565b60006145886018836135fc565b915061459382614552565b602082019050919050565b600060208201905081810360008301526145b78161457b565b9050919050565b7f4e6f7420746865206f776e6572206f6620746865204f66666572000000000000600082015250565b60006145f4601a836135fc565b91506145ff826145be565b602082019050919050565b60006020820190508181036000830152614623816145e7565b9050919050565b7f5468652050726f746f636f6c20646f6573206e6f74206861766520746865204e60008201527f4654000000000000000000000000000000000000000000000000000000000000602082015250565b60006146866022836135fc565b91506146918261462a565b604082019050919050565b600060208201905081810360008301526146b581614679565b9050919050565b7f43616e63656c6c65640000000000000000000000000000000000000000000000600082015250565b60006146f26009836135fc565b91506146fd826146bc565b602082019050919050565b600060408201905061471d60008301846135e2565b818103602083015261472e816146e5565b905092915050565b7f416363657373436f6e74726f6c3a206163636f756e7420000000000000000000600082015250565b600061476c6017836139da565b915061477782614736565b601782019050919050565b600061478d826135f1565b61479781856139da565b93506147a781856020860161360d565b80840191505092915050565b7f206973206d697373696e6720726f6c6520000000000000000000000000000000600082015250565b60006147e96011836139da565b91506147f4826147b3565b601182019050919050565b600061480a8261475f565b91506148168285614782565b9150614821826147dc565b915061482d8284614782565b91508190509392505050565b600060208201905081810360008301526148538184613640565b905092915050565b600060408201905061487060008301856135d3565b61487d60208301846135e2565b9392505050565b7f4e487b7100000000000000000000000000000000000000000000000000000000600052603260045260246000fd5b60006148be826132b0565b915060008214156148d2576148d1613bbe565b5b600182039050919050565b7f537472696e67733a20686578206c656e67746820696e73756666696369656e74600082015250565b60006149136020836135fc565b915061491e826148dd565b602082019050919050565b6000602082019050818103600083015261494281614906565b9050919050565b6149528161321c565b811461495d57600080fd5b50565b60008151905061496f81614949565b92915050565b60006020828403121561498b5761498a61318d565b5b600061499984828501614960565b91505092915050565b7f5361666545524332303a204552433230206f7065726174696f6e20646964206e60008201527f6f74207375636365656400000000000000000000000000000000000000000000602082015250565b60006149fe602a836135fc565b9150614a09826149a2565b604082019050919050565b60006020820190508181036000830152614a2d816149f1565b9050919050565b7f416464726573733a20696e73756666696369656e742062616c616e636520666f60008201527f722063616c6c0000000000000000000000000000000000000000000000000000602082015250565b6000614a906026836135fc565b9150614a9b82614a34565b604082019050919050565b60006020820190508181036000830152614abf81614a83565b9050919050565b7f416464726573733a2063616c6c20746f206e6f6e2d636f6e7472616374000000600082015250565b6000614afc601d836135fc565b9150614b0782614ac6565b602082019050919050565b60006020820190508181036000830152614b2b81614aef565b9050919050565b600081519050919050565b600081905092915050565b6000614b5382614b32565b614b5d8185614b3d565b9350614b6d81856020860161360d565b80840191505092915050565b6000614b858284614b48565b91508190509291505056fea26469706673582212205f1d0000128f29fca26da592bafa285c9e450e8477426a558e7effe763a59d9a64736f6c634300080c0033",
  "immutableReferences": {},
  "source": "// SPDX-License-Identifier: UNLICENSED\r\n\r\npragma solidity ^0.8.3;\r\n\r\nimport \"@openzeppelin/contracts/utils/Counters.sol\";\r\nimport \"@openzeppelin/contracts/token/ERC20/IERC20.sol\";\r\nimport \"@openzeppelin/contracts/token/ERC721/IERC721.sol\";\r\n\r\nimport \"@openzeppelin/contracts/token/ERC20/utils/SafeERC20.sol\";\r\nimport \"@openzeppelin/contracts/token/ERC721/utils/ERC721Holder.sol\";\r\nimport \"@openzeppelin/contracts/security/ReentrancyGuard.sol\";\r\nimport \"@openzeppelin/contracts/access/AccessControl.sol\";\r\n\r\n\r\n\r\n/**\r\n * @title ERC721Lending\r\n * @notice ERC721 Lending plataform where users that provide the ERC721 token\r\n * set a liquidation limit and fee, and users that borrow the ERC721 token\r\n * set how much collateral they add to the transaction\r\n */\r\ncontract ERC721Lending is ERC721Holder, ReentrancyGuard, AccessControl {\r\n\r\n    event OfferStatusChange(uint256 offerId, string status);\r\n\r\n    struct Offer {\r\n        address owner;\r\n        address nft;\r\n        uint256 nftId;\r\n        uint256 liquidation;\r\n        uint256 hourlyFee;\r\n        address borrower;\r\n        uint256 collateral;\r\n        uint256 acceptTime;\r\n        string status; // Open, On, Cancelled, Liquidated\r\n    }\r\n\r\n    mapping(uint256 => Offer) offers;\r\n    mapping(address => uint256[]) addressToOffers;\r\n    mapping(address => bool) addressToBool;\r\n\r\n    using SafeERC20 for IERC20;\r\n    using Counters for Counters.Counter;\r\n    Counters.Counter private offerCounter;\r\n\r\n    address PayoutAddress;\r\n    IERC20 token;\r\n    uint Fee;\r\n    uint LiquidationFee;\r\n\r\n    constructor(address Payout, address TokenAddress, address BaseERC721Address) {\r\n        PayoutAddress = Payout;\r\n        token = IERC20(TokenAddress);\r\n        Fee = 4;\r\n        LiquidationFee = 10;\r\n        //Base Contract accepted\r\n        addressToBool[BaseERC721Address] = true;\r\n        _setupRole(DEFAULT_ADMIN_ROLE, msg.sender);\r\n    }\r\n\r\n    /**\r\n     * @dev Returns the details for a offer.\r\n     * @param offerId The id of the offer.\r\n     */\r\n    function getOffer(uint256 offerId) external view returns (address, address, uint256, uint256, uint256, address, uint256, uint256, string memory) {\r\n        Offer memory offer = offers[offerId];\r\n        return (offer.owner, offer.nft, offer.nftId, offer.liquidation, offer.hourlyFee, offer.borrower, offer.collateral, offer.acceptTime, offer.status);\r\n    }\r\n\r\n    /**\r\n     * @dev Returns all offers of an address.\r\n     * @param addr the address to lookup.\r\n     */\r\n    function getOffersOfAddress(address addr) external view returns (uint256[] memory) {\r\n        return addressToOffers[addr];\r\n    }\r\n\r\n    /**\r\n     * @dev Returns the number of offers made.\r\n     */\r\n    function getOfferQuantities() external view returns (uint256) {\r\n        return offerCounter.current();\r\n    }\r\n\r\n    function feeToPay(uint256 offerId) public view returns (uint256) {\r\n        return offers[offerId].hourlyFee + ((block.timestamp - offers[offerId].acceptTime)/(60*60))*offers[offerId].hourlyFee;\r\n    }\r\n\r\n    /**\r\n     * @dev Opens a new Offer, and sends the nft to an escrow.\r\n     * @param nftId id of the nft to offer.\r\n     * @param nftAddress address of the nft to offer.\r\n     * @param liquidation if the amount of liquidation+accumulatedFee is bigger than the collateral, the borrower is liquidated.\r\n     * @param fee fee amount that accumulates every hour.\r\n     */\r\n    function createOffer(uint256 nftId, address nftAddress, uint256 liquidation, uint256 fee) external nonReentrant() {\r\n        require(addressToBool[nftAddress] == true);\r\n        require(IERC721(nftAddress).ownerOf(nftId) == msg.sender, \"Not the owner of the NFT\");\r\n        \r\n        IERC721(nftAddress).safeTransferFrom(msg.sender, address(this), nftId);\r\n\r\n        uint current = offerCounter.current();\r\n        offerCounter.increment();\r\n        offers[current] = Offer(msg.sender, nftAddress, nftId, liquidation, fee, address(0), 0, 0, \"Open\");\r\n        addressToOffers[msg.sender].push(current);\r\n        emit OfferStatusChange(current, \"Open\");\r\n    }\r\n\r\n    /**\r\n     * @dev Cancels open offer and returns the nft to the owner.\r\n     * @param offerId the id of the offer.\r\n     */\r\n    function cancelOffer(uint256 offerId) external nonReentrant() {\r\n        require(offers[offerId].owner == msg.sender, \"Not the owner of the Offer\");\r\n        require(IERC721(offers[offerId].nft).ownerOf(offers[offerId].nftId) == address(this), \"The Protocol does not have the NFT\");\r\n        require(keccak256(abi.encodePacked(offers[offerId].status)) == keccak256(abi.encodePacked(\"Open\")), \"Offer is not Open\");\r\n\r\n        offers[offerId].status = \"Cancelled\";\r\n        IERC721(offers[offerId].nft).safeTransferFrom(address(this), msg.sender, offers[offerId].nftId);\r\n        emit OfferStatusChange(offerId, \"Cancelled\");\r\n    }\r\n\r\n    /**\r\n     * @dev Accepts an Open offer, escrows the collateral on the contract and sends the nft to the borrower.\r\n     * @param offerId the id of the offer.\r\n     * @param collateral how much collateral the borrowers wants to add to the offer.\r\n     */\r\n    function acceptOffer(uint256 offerId, uint256 collateral) external nonReentrant() {\r\n        require(offers[offerId].owner != msg.sender, \"Can not accept your own Offer\");\r\n        require(keccak256(abi.encodePacked(offers[offerId].status)) == keccak256(abi.encodePacked(\"Open\")), \"Offer is not Open\");\r\n        uint256 minimumFee = offers[offerId].hourlyFee;\r\n        require(collateral > offers[offerId].liquidation + minimumFee, \"Not enough collateral to borrow for more than an hour\");\r\n        require(token.balanceOf(msg.sender) >= collateral, \"Not enough balance to pay the collateral\");\r\n\r\n        offers[offerId].status = \"On\";\r\n        offers[offerId].borrower = msg.sender;\r\n        offers[offerId].collateral = collateral;\r\n        offers[offerId].acceptTime = block.timestamp;\r\n        token.safeTransferFrom(msg.sender, address(this), collateral);\r\n        IERC721(offers[offerId].nft).safeTransferFrom(address(this), msg.sender, offers[offerId].nftId);\r\n        emit OfferStatusChange(offerId, \"On\");\r\n    }\r\n\r\n    /**\r\n     * @dev checks if borrower is liquidated or not, then transfers the nft to the contract, \r\n     * pays the lender, pays the protocol and finally returns the rest of the collateral to the borrower\r\n     * @param offerId the id of the offer.\r\n     */\r\n    function repayOffer(uint256 offerId) external nonReentrant() {\r\n        require(offers[offerId].borrower == msg.sender, \"Only borrower can repay the Offer\");\r\n        require(keccak256(abi.encodePacked(offers[offerId].status)) == keccak256(abi.encodePacked(\"On\")), \"Offer is not On\");\r\n        require(IERC721(offers[offerId].nft).ownerOf(offers[offerId].nftId) == msg.sender, \"Borrower is not owner of the NFT\");\r\n        require(token.balanceOf(address(this)) >= offers[offerId].collateral, \"Protocol does not have enough to pay the collateral\");\r\n        require(offers[offerId].acceptTime != 0, \"Accept time = 0\");\r\n        //minimum Fee is at least 1 hour and increases each hour\r\n        uint256 fee = feeToPay(offerId);\r\n        // User is not liquidated\r\n        require(offers[offerId].collateral >= (fee + offers[offerId].liquidation), \"Borrower can be Liquidated\");\r\n\r\n        IERC721(offers[offerId].nft).safeTransferFrom(msg.sender, address(this), offers[offerId].nftId);\r\n        token.safeTransfer(offers[offerId].owner, fee*(100-Fee)/100);\r\n        token.safeTransfer(PayoutAddress, fee*Fee/100);\r\n        token.safeTransfer(msg.sender, (offers[offerId].collateral - fee));\r\n\r\n        offers[offerId].borrower = address(0);\r\n        offers[offerId].collateral = 0;\r\n        offers[offerId].acceptTime = 0;\r\n        offers[offerId].status = \"Open\";\r\n        emit OfferStatusChange(offerId, \"Open\");\r\n    }\r\n\r\n    /**\r\n     * @dev Adds extra collateral to the position of the borrower.\r\n     * @param offerId the id of the offer.\r\n     * @param extraCollateral how much extra collateral the borrowers wants to add to the offer.\r\n     */\r\n    function addCollateral(uint256 offerId, uint256 extraCollateral) external nonReentrant() {\r\n        require(offers[offerId].borrower == msg.sender, \"Only borrower can add collateral\");\r\n        require(keccak256(abi.encodePacked(offers[offerId].status)) == keccak256(abi.encodePacked(\"On\")), \"Offer is not On\");\r\n        require(token.balanceOf(offers[offerId].borrower) >= extraCollateral, \"Borrower does not have enough to pay the extra collateral\");\r\n\r\n        offers[offerId].collateral = offers[offerId].collateral + extraCollateral;\r\n        token.safeTransferFrom(msg.sender, address(this), extraCollateral);\r\n    }\r\n\r\n    /**\r\n     * @dev Liquidates the borrower if he owns more than he has collateral.\r\n     * @param offerId the id of the offer.\r\n     */\r\n    function liquidate(uint256 offerId) external nonReentrant() {\r\n        uint256 fee = feeToPay(offerId);\r\n        require(keccak256(abi.encodePacked(offers[offerId].status)) == keccak256(abi.encodePacked(\"On\")), \"Offer is not On\");\r\n        require(offers[offerId].collateral < (fee + offers[offerId].liquidation), \"Borrower is not Liquidated\");\r\n\r\n        offers[offerId].status = \"Liquidated\";\r\n        token.safeTransfer(offers[offerId].owner, offers[offerId].collateral*(100-LiquidationFee)/100);\r\n        token.safeTransfer(PayoutAddress, offers[offerId].collateral*LiquidationFee/100);\r\n        emit OfferStatusChange(offerId, \"Liquidated\");\r\n    }\r\n\r\n    /**\r\n     * @dev Changes account to send payout.\r\n     * @param newPayout new address to send payout.\r\n     */\r\n    function transferPayoutAddress(address newPayout) external onlyRole(DEFAULT_ADMIN_ROLE) {\r\n        PayoutAddress = newPayout;\r\n    }\r\n\r\n    /**\r\n     * @dev Changes the fee \r\n     * @param newFee new fee.\r\n     */\r\n    function changeFee(uint256 newFee) external onlyRole(DEFAULT_ADMIN_ROLE) {\r\n        Fee = newFee;\r\n    }\r\n\r\n    /**\r\n     * @dev Changes the liquidation fee\r\n     * @param newLiquidationFee new liquidation fee.\r\n     */\r\n    function changeLiquidationFee(uint256 newLiquidationFee) external onlyRole(DEFAULT_ADMIN_ROLE) {\r\n        LiquidationFee = newLiquidationFee;\r\n    }\r\n\r\n    /**\r\n     * @dev adds new contract ERC721 to the protocol\r\n     * @param _contract contract address to whitelist.\r\n     */\r\n    function addContract(address _contract) external onlyRole(DEFAULT_ADMIN_ROLE) {\r\n        addressToBool[_contract] = true;\r\n    }\r\n\r\n    /**\r\n     * @dev removes a contract ERC721 from the protocol\r\n     * @param _contract contract address to blacklist.\r\n     */\r\n    function removeContract(address _contract) external onlyRole(DEFAULT_ADMIN_ROLE) {\r\n        addressToBool[_contract] = false;\r\n    }\r\n\r\n}",
  "sourcePath": "C:\\Users\\jtsch\\OneDrive\\Escritorio\\DFK-Lending\\DFK-Lending-SmartContracts\\contracts\\ERC721Lending.sol",
  "compiler": {
    "name": "solc",
    "version": "0.8.12+commit.f00d7308.Emscripten.clang"
  },
  "schemaVersion": "3.4.3",
  "updatedAt": "2022-02-25T19:41:52.699Z",
  "networkType": "ethereum",
  "devdoc": {
    "kind": "dev",
    "methods": {
      "acceptOffer(uint256,uint256)": {
        "details": "Accepts an Open offer, escrows the collateral on the contract and sends the nft to the borrower.",
        "params": {
          "collateral": "how much collateral the borrowers wants to add to the offer.",
          "offerId": "the id of the offer."
        }
      },
      "addCollateral(uint256,uint256)": {
        "details": "Adds extra collateral to the position of the borrower.",
        "params": {
          "extraCollateral": "how much extra collateral the borrowers wants to add to the offer.",
          "offerId": "the id of the offer."
        }
      },
      "addContract(address)": {
        "details": "adds new contract ERC721 to the protocol",
        "params": {
          "_contract": "contract address to whitelist."
        }
      },
      "cancelOffer(uint256)": {
        "details": "Cancels open offer and returns the nft to the owner.",
        "params": {
          "offerId": "the id of the offer."
        }
      },
      "changeFee(uint256)": {
        "details": "Changes the fee ",
        "params": {
          "newFee": "new fee."
        }
      },
      "changeLiquidationFee(uint256)": {
        "details": "Changes the liquidation fee",
        "params": {
          "newLiquidationFee": "new liquidation fee."
        }
      },
      "createOffer(uint256,address,uint256,uint256)": {
        "details": "Opens a new Offer, and sends the nft to an escrow.",
        "params": {
          "fee": "fee amount that accumulates every hour.",
          "liquidation": "if the amount of liquidation+accumulatedFee is bigger than the collateral, the borrower is liquidated.",
          "nftAddress": "address of the nft to offer.",
          "nftId": "id of the nft to offer."
        }
      },
      "getOffer(uint256)": {
        "details": "Returns the details for a offer.",
        "params": {
          "offerId": "The id of the offer."
        }
      },
      "getOfferQuantities()": {
        "details": "Returns the number of offers made."
      },
      "getOffersOfAddress(address)": {
        "details": "Returns all offers of an address.",
        "params": {
          "addr": "the address to lookup."
        }
      },
      "getRoleAdmin(bytes32)": {
        "details": "Returns the admin role that controls `role`. See {grantRole} and {revokeRole}. To change a role's admin, use {_setRoleAdmin}."
      },
      "grantRole(bytes32,address)": {
        "details": "Grants `role` to `account`. If `account` had not been already granted `role`, emits a {RoleGranted} event. Requirements: - the caller must have ``role``'s admin role."
      },
      "hasRole(bytes32,address)": {
        "details": "Returns `true` if `account` has been granted `role`."
      },
      "liquidate(uint256)": {
        "details": "Liquidates the borrower if he owns more than he has collateral.",
        "params": {
          "offerId": "the id of the offer."
        }
      },
      "onERC721Received(address,address,uint256,bytes)": {
        "details": "See {IERC721Receiver-onERC721Received}. Always returns `IERC721Receiver.onERC721Received.selector`."
      },
      "removeContract(address)": {
        "details": "removes a contract ERC721 from the protocol",
        "params": {
          "_contract": "contract address to blacklist."
        }
      },
      "renounceRole(bytes32,address)": {
        "details": "Revokes `role` from the calling account. Roles are often managed via {grantRole} and {revokeRole}: this function's purpose is to provide a mechanism for accounts to lose their privileges if they are compromised (such as when a trusted device is misplaced). If the calling account had been revoked `role`, emits a {RoleRevoked} event. Requirements: - the caller must be `account`."
      },
      "repayOffer(uint256)": {
        "details": "checks if borrower is liquidated or not, then transfers the nft to the contract,  pays the lender, pays the protocol and finally returns the rest of the collateral to the borrower",
        "params": {
          "offerId": "the id of the offer."
        }
      },
      "revokeRole(bytes32,address)": {
        "details": "Revokes `role` from `account`. If `account` had been granted `role`, emits a {RoleRevoked} event. Requirements: - the caller must have ``role``'s admin role."
      },
      "supportsInterface(bytes4)": {
        "details": "See {IERC165-supportsInterface}."
      },
      "transferPayoutAddress(address)": {
        "details": "Changes account to send payout.",
        "params": {
          "newPayout": "new address to send payout."
        }
      }
    },
    "title": "ERC721Lending",
    "version": 1
  },
  "userdoc": {
    "kind": "user",
    "methods": {},
    "notice": "ERC721 Lending plataform where users that provide the ERC721 token set a liquidation limit and fee, and users that borrow the ERC721 token set how much collateral they add to the transaction",
    "version": 1
  }
}