{
  "contractName": "ERC721LendingUpgradeable",
  "abi": [
    {
      "inputs": [],
      "stateMutability": "nonpayable",
      "type": "constructor"
    },
    {
      "anonymous": false,
      "inputs": [
        {
          "indexed": false,
          "internalType": "uint256",
          "name": "offerId",
          "type": "uint256"
        },
        {
          "indexed": false,
          "internalType": "string",
          "name": "status",
          "type": "string"
        }
      ],
      "name": "OfferStatusChange",
      "type": "event"
    },
    {
      "anonymous": false,
      "inputs": [
        {
          "indexed": true,
          "internalType": "bytes32",
          "name": "role",
          "type": "bytes32"
        },
        {
          "indexed": true,
          "internalType": "bytes32",
          "name": "previousAdminRole",
          "type": "bytes32"
        },
        {
          "indexed": true,
          "internalType": "bytes32",
          "name": "newAdminRole",
          "type": "bytes32"
        }
      ],
      "name": "RoleAdminChanged",
      "type": "event"
    },
    {
      "anonymous": false,
      "inputs": [
        {
          "indexed": true,
          "internalType": "bytes32",
          "name": "role",
          "type": "bytes32"
        },
        {
          "indexed": true,
          "internalType": "address",
          "name": "account",
          "type": "address"
        },
        {
          "indexed": true,
          "internalType": "address",
          "name": "sender",
          "type": "address"
        }
      ],
      "name": "RoleGranted",
      "type": "event"
    },
    {
      "anonymous": false,
      "inputs": [
        {
          "indexed": true,
          "internalType": "bytes32",
          "name": "role",
          "type": "bytes32"
        },
        {
          "indexed": true,
          "internalType": "address",
          "name": "account",
          "type": "address"
        },
        {
          "indexed": true,
          "internalType": "address",
          "name": "sender",
          "type": "address"
        }
      ],
      "name": "RoleRevoked",
      "type": "event"
    },
    {
      "inputs": [],
      "name": "DEFAULT_ADMIN_ROLE",
      "outputs": [
        {
          "internalType": "bytes32",
          "name": "",
          "type": "bytes32"
        }
      ],
      "stateMutability": "view",
      "type": "function",
      "constant": true
    },
    {
      "inputs": [
        {
          "internalType": "bytes32",
          "name": "role",
          "type": "bytes32"
        }
      ],
      "name": "getRoleAdmin",
      "outputs": [
        {
          "internalType": "bytes32",
          "name": "",
          "type": "bytes32"
        }
      ],
      "stateMutability": "view",
      "type": "function",
      "constant": true
    },
    {
      "inputs": [
        {
          "internalType": "bytes32",
          "name": "role",
          "type": "bytes32"
        },
        {
          "internalType": "address",
          "name": "account",
          "type": "address"
        }
      ],
      "name": "grantRole",
      "outputs": [],
      "stateMutability": "nonpayable",
      "type": "function"
    },
    {
      "inputs": [
        {
          "internalType": "bytes32",
          "name": "role",
          "type": "bytes32"
        },
        {
          "internalType": "address",
          "name": "account",
          "type": "address"
        }
      ],
      "name": "hasRole",
      "outputs": [
        {
          "internalType": "bool",
          "name": "",
          "type": "bool"
        }
      ],
      "stateMutability": "view",
      "type": "function",
      "constant": true
    },
    {
      "inputs": [
        {
          "internalType": "address",
          "name": "",
          "type": "address"
        },
        {
          "internalType": "address",
          "name": "",
          "type": "address"
        },
        {
          "internalType": "uint256",
          "name": "",
          "type": "uint256"
        },
        {
          "internalType": "bytes",
          "name": "",
          "type": "bytes"
        }
      ],
      "name": "onERC721Received",
      "outputs": [
        {
          "internalType": "bytes4",
          "name": "",
          "type": "bytes4"
        }
      ],
      "stateMutability": "nonpayable",
      "type": "function"
    },
    {
      "inputs": [
        {
          "internalType": "bytes32",
          "name": "role",
          "type": "bytes32"
        },
        {
          "internalType": "address",
          "name": "account",
          "type": "address"
        }
      ],
      "name": "renounceRole",
      "outputs": [],
      "stateMutability": "nonpayable",
      "type": "function"
    },
    {
      "inputs": [
        {
          "internalType": "bytes32",
          "name": "role",
          "type": "bytes32"
        },
        {
          "internalType": "address",
          "name": "account",
          "type": "address"
        }
      ],
      "name": "revokeRole",
      "outputs": [],
      "stateMutability": "nonpayable",
      "type": "function"
    },
    {
      "inputs": [
        {
          "internalType": "bytes4",
          "name": "interfaceId",
          "type": "bytes4"
        }
      ],
      "name": "supportsInterface",
      "outputs": [
        {
          "internalType": "bool",
          "name": "",
          "type": "bool"
        }
      ],
      "stateMutability": "view",
      "type": "function",
      "constant": true
    },
    {
      "inputs": [
        {
          "internalType": "address",
          "name": "Payout",
          "type": "address"
        },
        {
          "internalType": "address",
          "name": "TokenAddress",
          "type": "address"
        },
        {
          "internalType": "address",
          "name": "BaseERC721Address",
          "type": "address"
        }
      ],
      "name": "initialize",
      "outputs": [],
      "stateMutability": "nonpayable",
      "type": "function"
    },
    {
      "inputs": [
        {
          "internalType": "uint256",
          "name": "offerId",
          "type": "uint256"
        }
      ],
      "name": "getOffer",
      "outputs": [
        {
          "internalType": "address",
          "name": "",
          "type": "address"
        },
        {
          "internalType": "address",
          "name": "",
          "type": "address"
        },
        {
          "internalType": "uint256",
          "name": "",
          "type": "uint256"
        },
        {
          "internalType": "uint256",
          "name": "",
          "type": "uint256"
        },
        {
          "internalType": "uint256",
          "name": "",
          "type": "uint256"
        },
        {
          "internalType": "address",
          "name": "",
          "type": "address"
        },
        {
          "internalType": "uint256",
          "name": "",
          "type": "uint256"
        },
        {
          "internalType": "uint256",
          "name": "",
          "type": "uint256"
        },
        {
          "internalType": "string",
          "name": "",
          "type": "string"
        }
      ],
      "stateMutability": "view",
      "type": "function",
      "constant": true
    },
    {
      "inputs": [
        {
          "internalType": "address",
          "name": "addr",
          "type": "address"
        }
      ],
      "name": "getOffersOfAddress",
      "outputs": [
        {
          "internalType": "uint256[]",
          "name": "",
          "type": "uint256[]"
        }
      ],
      "stateMutability": "view",
      "type": "function",
      "constant": true
    },
    {
      "inputs": [],
      "name": "getOfferQuantities",
      "outputs": [
        {
          "internalType": "uint256",
          "name": "",
          "type": "uint256"
        }
      ],
      "stateMutability": "view",
      "type": "function",
      "constant": true
    },
    {
      "inputs": [
        {
          "internalType": "uint256",
          "name": "offerId",
          "type": "uint256"
        }
      ],
      "name": "feeToPay",
      "outputs": [
        {
          "internalType": "uint256",
          "name": "",
          "type": "uint256"
        }
      ],
      "stateMutability": "view",
      "type": "function",
      "constant": true
    },
    {
      "inputs": [
        {
          "internalType": "uint256",
          "name": "nftId",
          "type": "uint256"
        },
        {
          "internalType": "address",
          "name": "nftAddress",
          "type": "address"
        },
        {
          "internalType": "uint256",
          "name": "liquidation",
          "type": "uint256"
        },
        {
          "internalType": "uint256",
          "name": "fee",
          "type": "uint256"
        }
      ],
      "name": "createOffer",
      "outputs": [],
      "stateMutability": "nonpayable",
      "type": "function"
    },
    {
      "inputs": [
        {
          "internalType": "uint256",
          "name": "offerId",
          "type": "uint256"
        }
      ],
      "name": "cancelOffer",
      "outputs": [],
      "stateMutability": "nonpayable",
      "type": "function"
    },
    {
      "inputs": [
        {
          "internalType": "uint256",
          "name": "offerId",
          "type": "uint256"
        },
        {
          "internalType": "uint256",
          "name": "collateral",
          "type": "uint256"
        }
      ],
      "name": "acceptOffer",
      "outputs": [],
      "stateMutability": "nonpayable",
      "type": "function"
    },
    {
      "inputs": [
        {
          "internalType": "uint256",
          "name": "offerId",
          "type": "uint256"
        }
      ],
      "name": "repayOffer",
      "outputs": [],
      "stateMutability": "nonpayable",
      "type": "function"
    },
    {
      "inputs": [
        {
          "internalType": "uint256",
          "name": "offerId",
          "type": "uint256"
        },
        {
          "internalType": "uint256",
          "name": "extraCollateral",
          "type": "uint256"
        }
      ],
      "name": "addCollateral",
      "outputs": [],
      "stateMutability": "nonpayable",
      "type": "function"
    },
    {
      "inputs": [
        {
          "internalType": "uint256",
          "name": "offerId",
          "type": "uint256"
        }
      ],
      "name": "liquidate",
      "outputs": [],
      "stateMutability": "nonpayable",
      "type": "function"
    },
    {
      "inputs": [
        {
          "internalType": "address",
          "name": "newPayout",
          "type": "address"
        }
      ],
      "name": "transferPayoutAddress",
      "outputs": [],
      "stateMutability": "nonpayable",
      "type": "function"
    },
    {
      "inputs": [
        {
          "internalType": "uint256",
          "name": "newFee",
          "type": "uint256"
        }
      ],
      "name": "changeFee",
      "outputs": [],
      "stateMutability": "nonpayable",
      "type": "function"
    },
    {
      "inputs": [
        {
          "internalType": "uint256",
          "name": "newLiquidationFee",
          "type": "uint256"
        }
      ],
      "name": "changeLiquidationFee",
      "outputs": [],
      "stateMutability": "nonpayable",
      "type": "function"
    },
    {
      "inputs": [
        {
          "internalType": "address",
          "name": "_contract",
          "type": "address"
        }
      ],
      "name": "addContract",
      "outputs": [],
      "stateMutability": "nonpayable",
      "type": "function"
    },
    {
      "inputs": [
        {
          "internalType": "address",
          "name": "_contract",
          "type": "address"
        }
      ],
      "name": "removeContract",
      "outputs": [],
      "stateMutability": "nonpayable",
      "type": "function"
    }
  ],
  "bytecode": "0x60806040523480156200001157600080fd5b50600060019054906101000a900460ff166200003c5760008054906101000a900460ff16156200004d565b6200004c6200010960201b60201c565b5b6200008f576040517f08c379a00000000000000000000000000000000000000000000000000000000081526004016200008690620001d1565b60405180910390fd5b60008060019054906101000a900460ff161590508015620000e0576001600060016101000a81548160ff02191690831515021790555060016000806101000a81548160ff0219169083151502179055505b8015620001025760008060016101000a81548160ff0219169083151502179055505b50620001f3565b600062000121306200012760201b62002a3b1760201c565b15905090565b6000808273ffffffffffffffffffffffffffffffffffffffff163b119050919050565b600082825260208201905092915050565b7f496e697469616c697a61626c653a20636f6e747261637420697320616c72656160008201527f647920696e697469616c697a6564000000000000000000000000000000000000602082015250565b6000620001b9602e836200014a565b9150620001c6826200015b565b604082019050919050565b60006020820190508181036000830152620001ec81620001aa565b9050919050565b614ee380620002036000396000f3fe608060405234801561001057600080fd5b50600436106101585760003560e01c80638486014d116100c3578063c0c53b8b1161007c578063c0c53b8b146103ed578063c375c2ef14610409578063d547741f14610425578063e121e6e514610441578063ee1733e31461045d578063ef706adf1461047957610158565b80638486014d1461031957806391d1485414610337578063a217fddf14610367578063a362edc614610385578063a8f35adf146103b5578063ae699e2e146103d157610158565b80634579268a116101155780634579268a146102415780634d6bbf10146102795780635f539d69146102955780636a1db1bf146102b1578063755505a0146102cd57806381257bd5146102fd57610158565b806301ffc9a71461015d578063150b7a021461018d578063248a9ca3146101bd5780632f2ff15d146101ed57806336568abe14610209578063415f124014610225575b600080fd5b61017760048036038101906101729190613427565b610495565b604051610184919061346f565b60405180910390f35b6101a760048036038101906101a29190613664565b61050f565b6040516101b491906136f6565b60405180910390f35b6101d760048036038101906101d29190613747565b610523565b6040516101e49190613783565b60405180910390f35b6102076004803603810190610202919061379e565b610543565b005b610223600480360381019061021e919061379e565b61056c565b005b61023f600480360381019061023a91906137de565b6105ef565b005b61025b600480360381019061025691906137de565b610967565b604051610270999897969594939291906138b1565b60405180910390f35b610293600480360381019061028e91906137de565b610bac565b005b6102af60048036038101906102aa9190613945565b610bcd565b005b6102cb60048036038101906102c691906137de565b610c3e565b005b6102e760048036038101906102e291906137de565b610c5f565b6040516102f49190613972565b60405180910390f35b6103176004803603810190610312919061398d565b610cd9565b005b610321611204565b60405161032e9190613972565b60405180910390f35b610351600480360381019061034c919061379e565b611215565b60405161035e919061346f565b60405180910390f35b61036f611280565b60405161037c9190613783565b60405180910390f35b61039f600480360381019061039a9190613945565b611287565b6040516103ac9190613a8b565b60405180910390f35b6103cf60048036038101906103ca919061398d565b61131e565b005b6103eb60048036038101906103e69190613945565b61165e565b005b61040760048036038101906104029190613aad565b6116b8565b005b610423600480360381019061041e9190613945565b611899565b005b61043f600480360381019061043a919061379e565b61190a565b005b61045b600480360381019061045691906137de565b611933565b005b61047760048036038101906104729190613b00565b61215e565b005b610493600480360381019061048e91906137de565b612618565b005b60007f7965db0b000000000000000000000000000000000000000000000000000000007bffffffffffffffffffffffffffffffffffffffffffffffffffffffff1916827bffffffffffffffffffffffffffffffffffffffffffffffffffffffff19161480610508575061050782612a5e565b5b9050919050565b600063150b7a0260e01b9050949350505050565b600060c96000838152602001908152602001600020600101549050919050565b61054c82610523565b61055d81610558612ac8565b612ad0565b6105678383612b6d565b505050565b610574612ac8565b73ffffffffffffffffffffffffffffffffffffffff168173ffffffffffffffffffffffffffffffffffffffff16146105e1576040517f08c379a00000000000000000000000000000000000000000000000000000000081526004016105d890613bd9565b60405180910390fd5b6105eb8282612c4e565b5050565b60026033541415610635576040517f08c379a000000000000000000000000000000000000000000000000000000000815260040161062c90613c45565b60405180910390fd5b6002603381905550600061064882610c5f565b905060405160200161065990613cbc565b6040516020818303038152906040528051906020012060fb60008481526020019081526020016000206008016040516020016106959190613dc6565b60405160208183030381529060405280519060200120146106eb576040517f08c379a00000000000000000000000000000000000000000000000000000000081526004016106e290613e29565b60405180910390fd5b60fb6000838152602001908152602001600020600301548161070d9190613e78565b60fb60008481526020019081526020016000206006015410610764576040517f08c379a000000000000000000000000000000000000000000000000000000000815260040161075b90613f1a565b60405180910390fd5b6040518060400160405280600a81526020017f4c6971756964617465640000000000000000000000000000000000000000000081525060fb600084815260200190815260200160002060080190805190602001906107c3929190613318565b5061088460fb600084815260200190815260200160002060000160009054906101000a900473ffffffffffffffffffffffffffffffffffffffff1660646101025460646108109190613f3a565b60fb6000878152602001908152602001600020600601546108319190613f6e565b61083b9190613ff7565b61010060009054906101000a900473ffffffffffffffffffffffffffffffffffffffff1673ffffffffffffffffffffffffffffffffffffffff16612d309092919063ffffffff16565b61092460ff60009054906101000a900473ffffffffffffffffffffffffffffffffffffffff1660646101025460fb6000878152602001908152602001600020600601546108d19190613f6e565b6108db9190613ff7565b61010060009054906101000a900473ffffffffffffffffffffffffffffffffffffffff1673ffffffffffffffffffffffffffffffffffffffff16612d309092919063ffffffff16565b7f1ce667ae522f1f380b3262bf7881f17067f07d7f50dc398385709938a9340daf826040516109539190614074565b60405180910390a150600160338190555050565b6000806000806000806000806060600060fb60008c8152602001908152602001600020604051806101200160405290816000820160009054906101000a900473ffffffffffffffffffffffffffffffffffffffff1673ffffffffffffffffffffffffffffffffffffffff1673ffffffffffffffffffffffffffffffffffffffff1681526020016001820160009054906101000a900473ffffffffffffffffffffffffffffffffffffffff1673ffffffffffffffffffffffffffffffffffffffff1673ffffffffffffffffffffffffffffffffffffffff1681526020016002820154815260200160038201548152602001600482015481526020016005820160009054906101000a900473ffffffffffffffffffffffffffffffffffffffff1673ffffffffffffffffffffffffffffffffffffffff1673ffffffffffffffffffffffffffffffffffffffff1681526020016006820154815260200160078201548152602001600882018054610ada90613d00565b80601f0160208091040260200160405190810160405280929190818152602001828054610b0690613d00565b8015610b535780601f10610b2857610100808354040283529160200191610b53565b820191906000526020600020905b815481529060010190602001808311610b3657829003601f168201915b5050505050815250509050806000015181602001518260400151836060015184608001518560a001518660c001518760e00151886101000151995099509950995099509950995099509950509193959799909294969850565b6000801b610bc181610bbc612ac8565b612ad0565b81610102819055505050565b6000801b610be281610bdd612ac8565b612ad0565b600160fd60008473ffffffffffffffffffffffffffffffffffffffff1673ffffffffffffffffffffffffffffffffffffffff16815260200190815260200160002060006101000a81548160ff0219169083151502179055505050565b6000801b610c5381610c4e612ac8565b612ad0565b81610101819055505050565b600060fb600083815260200190815260200160002060040154610e1060fb60008581526020019081526020016000206007015442610c9d9190613f3a565b610ca79190613ff7565b610cb19190613f6e565b60fb600084815260200190815260200160002060040154610cd29190613e78565b9050919050565b60026033541415610d1f576040517f08c379a0000000000000000000000000000000000000000000000000000000008152600401610d1690613c45565b60405180910390fd5b60026033819055503373ffffffffffffffffffffffffffffffffffffffff1660fb600084815260200190815260200160002060000160009054906101000a900473ffffffffffffffffffffffffffffffffffffffff1673ffffffffffffffffffffffffffffffffffffffff161415610dcc576040517f08c379a0000000000000000000000000000000000000000000000000000000008152600401610dc3906140ee565b60405180910390fd5b604051602001610ddb9061415a565b6040516020818303038152906040528051906020012060fb6000848152602001908152602001600020600801604051602001610e179190613dc6565b6040516020818303038152906040528051906020012014610e6d576040517f08c379a0000000000000000000000000000000000000000000000000000000008152600401610e64906141bb565b60405180910390fd5b600060fb60008481526020019081526020016000206004015490508060fb600085815260200190815260200160002060030154610eaa9190613e78565b8211610eeb576040517f08c379a0000000000000000000000000000000000000000000000000000000008152600401610ee29061424d565b60405180910390fd5b8161010060009054906101000a900473ffffffffffffffffffffffffffffffffffffffff1673ffffffffffffffffffffffffffffffffffffffff166370a08231336040518263ffffffff1660e01b8152600401610f48919061426d565b602060405180830381865afa158015610f65573d6000803e3d6000fd5b505050506040513d601f19601f82011682018060405250810190610f89919061429d565b1015610fca576040517f08c379a0000000000000000000000000000000000000000000000000000000008152600401610fc19061433c565b60405180910390fd5b6040518060400160405280600281526020017f4f6e00000000000000000000000000000000000000000000000000000000000081525060fb60008581526020019081526020016000206008019080519060200190611029929190613318565b503360fb600085815260200190815260200160002060050160006101000a81548173ffffffffffffffffffffffffffffffffffffffff021916908373ffffffffffffffffffffffffffffffffffffffff1602179055508160fb6000858152602001908152602001600020600601819055504260fb60008581526020019081526020016000206007018190555061110533308461010060009054906101000a900473ffffffffffffffffffffffffffffffffffffffff1673ffffffffffffffffffffffffffffffffffffffff16612db6909392919063ffffffff16565b60fb600084815260200190815260200160002060010160009054906101000a900473ffffffffffffffffffffffffffffffffffffffff1673ffffffffffffffffffffffffffffffffffffffff166342842e0e303360fb6000888152602001908152602001600020600201546040518463ffffffff1660e01b815260040161118e9392919061435c565b600060405180830381600087803b1580156111a857600080fd5b505af11580156111bc573d6000803e3d6000fd5b505050507f1ce667ae522f1f380b3262bf7881f17067f07d7f50dc398385709938a9340daf836040516111ef91906143b6565b60405180910390a15060016033819055505050565b600061121060fe612e3f565b905090565b600060c9600084815260200190815260200160002060000160008373ffffffffffffffffffffffffffffffffffffffff1673ffffffffffffffffffffffffffffffffffffffff16815260200190815260200160002060009054906101000a900460ff16905092915050565b6000801b81565b606060fc60008373ffffffffffffffffffffffffffffffffffffffff1673ffffffffffffffffffffffffffffffffffffffff16815260200190815260200160002080548060200260200160405190810160405280929190818152602001828054801561131257602002820191906000526020600020905b8154815260200190600101908083116112fe575b50505050509050919050565b60026033541415611364576040517f08c379a000000000000000000000000000000000000000000000000000000000815260040161135b90613c45565b60405180910390fd5b60026033819055503373ffffffffffffffffffffffffffffffffffffffff1660fb600084815260200190815260200160002060050160009054906101000a900473ffffffffffffffffffffffffffffffffffffffff1673ffffffffffffffffffffffffffffffffffffffff1614611410576040517f08c379a000000000000000000000000000000000000000000000000000000000815260040161140790614430565b60405180910390fd5b60405160200161141f90613cbc565b6040516020818303038152906040528051906020012060fb600084815260200190815260200160002060080160405160200161145b9190613dc6565b60405160208183030381529060405280519060200120146114b1576040517f08c379a00000000000000000000000000000000000000000000000000000000081526004016114a890613e29565b60405180910390fd5b8061010060009054906101000a900473ffffffffffffffffffffffffffffffffffffffff1673ffffffffffffffffffffffffffffffffffffffff166370a0823160fb600086815260200190815260200160002060050160009054906101000a900473ffffffffffffffffffffffffffffffffffffffff166040518263ffffffff1660e01b8152600401611544919061426d565b602060405180830381865afa158015611561573d6000803e3d6000fd5b505050506040513d601f19601f82011682018060405250810190611585919061429d565b10156115c6576040517f08c379a00000000000000000000000000000000000000000000000000000000081526004016115bd906144c2565b60405180910390fd5b8060fb6000848152602001908152602001600020600601546115e89190613e78565b60fb60008481526020019081526020016000206006018190555061165233308361010060009054906101000a900473ffffffffffffffffffffffffffffffffffffffff1673ffffffffffffffffffffffffffffffffffffffff16612db6909392919063ffffffff16565b60016033819055505050565b6000801b6116738161166e612ac8565b612ad0565b8160ff60006101000a81548173ffffffffffffffffffffffffffffffffffffffff021916908373ffffffffffffffffffffffffffffffffffffffff1602179055505050565b600060019054906101000a900460ff166116e05760008054906101000a900460ff16156116e9565b6116e8612e4d565b5b611728576040517f08c379a000000000000000000000000000000000000000000000000000000000815260040161171f90614554565b60405180910390fd5b60008060019054906101000a900460ff161590508015611778576001600060016101000a81548160ff02191690831515021790555060016000806101000a81548160ff0219169083151502179055505b8360ff60006101000a81548173ffffffffffffffffffffffffffffffffffffffff021916908373ffffffffffffffffffffffffffffffffffffffff1602179055508261010060006101000a81548173ffffffffffffffffffffffffffffffffffffffff021916908373ffffffffffffffffffffffffffffffffffffffff160217905550600461010181905550600a61010281905550600160fd60008473ffffffffffffffffffffffffffffffffffffffff1673ffffffffffffffffffffffffffffffffffffffff16815260200190815260200160002060006101000a81548160ff0219169083151502179055506118726000801b33612e5e565b80156118935760008060016101000a81548160ff0219169083151502179055505b50505050565b6000801b6118ae816118a9612ac8565b612ad0565b600060fd60008473ffffffffffffffffffffffffffffffffffffffff1673ffffffffffffffffffffffffffffffffffffffff16815260200190815260200160002060006101000a81548160ff0219169083151502179055505050565b61191382610523565b6119248161191f612ac8565b612ad0565b61192e8383612c4e565b505050565b60026033541415611979576040517f08c379a000000000000000000000000000000000000000000000000000000000815260040161197090613c45565b60405180910390fd5b60026033819055503373ffffffffffffffffffffffffffffffffffffffff1660fb600083815260200190815260200160002060050160009054906101000a900473ffffffffffffffffffffffffffffffffffffffff1673ffffffffffffffffffffffffffffffffffffffff1614611a25576040517f08c379a0000000000000000000000000000000000000000000000000000000008152600401611a1c906145e6565b60405180910390fd5b604051602001611a3490613cbc565b6040516020818303038152906040528051906020012060fb6000838152602001908152602001600020600801604051602001611a709190613dc6565b6040516020818303038152906040528051906020012014611ac6576040517f08c379a0000000000000000000000000000000000000000000000000000000008152600401611abd90613e29565b60405180910390fd5b3373ffffffffffffffffffffffffffffffffffffffff1660fb600083815260200190815260200160002060010160009054906101000a900473ffffffffffffffffffffffffffffffffffffffff1673ffffffffffffffffffffffffffffffffffffffff16636352211e60fb6000858152602001908152602001600020600201546040518263ffffffff1660e01b8152600401611b629190613972565b602060405180830381865afa158015611b7f573d6000803e3d6000fd5b505050506040513d601f19601f82011682018060405250810190611ba3919061461b565b73ffffffffffffffffffffffffffffffffffffffff1614611bf9576040517f08c379a0000000000000000000000000000000000000000000000000000000008152600401611bf090614694565b60405180910390fd5b60fb60008281526020019081526020016000206006015461010060009054906101000a900473ffffffffffffffffffffffffffffffffffffffff1673ffffffffffffffffffffffffffffffffffffffff166370a08231306040518263ffffffff1660e01b8152600401611c6c919061426d565b602060405180830381865afa158015611c89573d6000803e3d6000fd5b505050506040513d601f19601f82011682018060405250810190611cad919061429d565b1015611cee576040517f08c379a0000000000000000000000000000000000000000000000000000000008152600401611ce590614726565b60405180910390fd5b600060fb6000838152602001908152602001600020600701541415611d48576040517f08c379a0000000000000000000000000000000000000000000000000000000008152600401611d3f90614792565b60405180910390fd5b6000611d5382610c5f565b905060fb60008381526020019081526020016000206003015481611d779190613e78565b60fb6000848152602001908152602001600020600601541015611dcf576040517f08c379a0000000000000000000000000000000000000000000000000000000008152600401611dc6906147fe565b60405180910390fd5b60fb600083815260200190815260200160002060010160009054906101000a900473ffffffffffffffffffffffffffffffffffffffff1673ffffffffffffffffffffffffffffffffffffffff166342842e0e333060fb6000878152602001908152602001600020600201546040518463ffffffff1660e01b8152600401611e589392919061435c565b600060405180830381600087803b158015611e7257600080fd5b505af1158015611e86573d6000803e3d6000fd5b50505050611f3460fb600084815260200190815260200160002060000160009054906101000a900473ffffffffffffffffffffffffffffffffffffffff166064610101546064611ed69190613f3a565b84611ee19190613f6e565b611eeb9190613ff7565b61010060009054906101000a900473ffffffffffffffffffffffffffffffffffffffff1673ffffffffffffffffffffffffffffffffffffffff16612d309092919063ffffffff16565b611fbe60ff60009054906101000a900473ffffffffffffffffffffffffffffffffffffffff1660646101015484611f6b9190613f6e565b611f759190613ff7565b61010060009054906101000a900473ffffffffffffffffffffffffffffffffffffffff1673ffffffffffffffffffffffffffffffffffffffff16612d309092919063ffffffff16565b61202d338260fb600086815260200190815260200160002060060154611fe49190613f3a565b61010060009054906101000a900473ffffffffffffffffffffffffffffffffffffffff1673ffffffffffffffffffffffffffffffffffffffff16612d309092919063ffffffff16565b600060fb600084815260200190815260200160002060050160006101000a81548173ffffffffffffffffffffffffffffffffffffffff021916908373ffffffffffffffffffffffffffffffffffffffff160217905550600060fb600084815260200190815260200160002060060181905550600060fb6000848152602001908152602001600020600701819055506040518060400160405280600481526020017f4f70656e0000000000000000000000000000000000000000000000000000000081525060fb6000848152602001908152602001600020600801908051906020019061211a929190613318565b507f1ce667ae522f1f380b3262bf7881f17067f07d7f50dc398385709938a9340daf8260405161214a9190614841565b60405180910390a150600160338190555050565b600260335414156121a4576040517f08c379a000000000000000000000000000000000000000000000000000000000815260040161219b90613c45565b60405180910390fd5b60026033819055506001151560fd60008573ffffffffffffffffffffffffffffffffffffffff1673ffffffffffffffffffffffffffffffffffffffff16815260200190815260200160002060009054906101000a900460ff1615151461220957600080fd5b3373ffffffffffffffffffffffffffffffffffffffff168373ffffffffffffffffffffffffffffffffffffffff16636352211e866040518263ffffffff1660e01b81526004016122599190613972565b602060405180830381865afa158015612276573d6000803e3d6000fd5b505050506040513d601f19601f8201168201806040525081019061229a919061461b565b73ffffffffffffffffffffffffffffffffffffffff16146122f0576040517f08c379a00000000000000000000000000000000000000000000000000000000081526004016122e7906148bb565b60405180910390fd5b8273ffffffffffffffffffffffffffffffffffffffff166342842e0e3330876040518463ffffffff1660e01b815260040161232d9392919061435c565b600060405180830381600087803b15801561234757600080fd5b505af115801561235b573d6000803e3d6000fd5b50505050600061236b60fe612e3f565b905061237760fe612e6c565b6040518061012001604052803373ffffffffffffffffffffffffffffffffffffffff1681526020018573ffffffffffffffffffffffffffffffffffffffff168152602001868152602001848152602001838152602001600073ffffffffffffffffffffffffffffffffffffffff16815260200160008152602001600081526020016040518060400160405280600481526020017f4f70656e0000000000000000000000000000000000000000000000000000000081525081525060fb600083815260200190815260200160002060008201518160000160006101000a81548173ffffffffffffffffffffffffffffffffffffffff021916908373ffffffffffffffffffffffffffffffffffffffff16021790555060208201518160010160006101000a81548173ffffffffffffffffffffffffffffffffffffffff021916908373ffffffffffffffffffffffffffffffffffffffff16021790555060408201518160020155606082015181600301556080820151816004015560a08201518160050160006101000a81548173ffffffffffffffffffffffffffffffffffffffff021916908373ffffffffffffffffffffffffffffffffffffffff16021790555060c0820151816006015560e08201518160070155610100820151816008019080519060200190612568929190613318565b5090505060fc60003373ffffffffffffffffffffffffffffffffffffffff1673ffffffffffffffffffffffffffffffffffffffff1681526020019081526020016000208190806001815401808255809150506001900390600052602060002001600090919091909150557f1ce667ae522f1f380b3262bf7881f17067f07d7f50dc398385709938a9340daf816040516126019190614841565b60405180910390a150600160338190555050505050565b6002603354141561265e576040517f08c379a000000000000000000000000000000000000000000000000000000000815260040161265590613c45565b60405180910390fd5b60026033819055503373ffffffffffffffffffffffffffffffffffffffff1660fb600083815260200190815260200160002060000160009054906101000a900473ffffffffffffffffffffffffffffffffffffffff1673ffffffffffffffffffffffffffffffffffffffff161461270a576040517f08c379a000000000000000000000000000000000000000000000000000000000815260040161270190614927565b60405180910390fd5b3073ffffffffffffffffffffffffffffffffffffffff1660fb600083815260200190815260200160002060010160009054906101000a900473ffffffffffffffffffffffffffffffffffffffff1673ffffffffffffffffffffffffffffffffffffffff16636352211e60fb6000858152602001908152602001600020600201546040518263ffffffff1660e01b81526004016127a69190613972565b602060405180830381865afa1580156127c3573d6000803e3d6000fd5b505050506040513d601f19601f820116820180604052508101906127e7919061461b565b73ffffffffffffffffffffffffffffffffffffffff161461283d576040517f08c379a0000000000000000000000000000000000000000000000000000000008152600401612834906149b9565b60405180910390fd5b60405160200161284c9061415a565b6040516020818303038152906040528051906020012060fb60008381526020019081526020016000206008016040516020016128889190613dc6565b60405160208183030381529060405280519060200120146128de576040517f08c379a00000000000000000000000000000000000000000000000000000000081526004016128d5906141bb565b60405180910390fd5b6040518060400160405280600981526020017f43616e63656c6c6564000000000000000000000000000000000000000000000081525060fb6000838152602001908152602001600020600801908051906020019061293d929190613318565b5060fb600082815260200190815260200160002060010160009054906101000a900473ffffffffffffffffffffffffffffffffffffffff1673ffffffffffffffffffffffffffffffffffffffff166342842e0e303360fb6000868152602001908152602001600020600201546040518463ffffffff1660e01b81526004016129c79392919061435c565b600060405180830381600087803b1580156129e157600080fd5b505af11580156129f5573d6000803e3d6000fd5b505050507f1ce667ae522f1f380b3262bf7881f17067f07d7f50dc398385709938a9340daf81604051612a289190614a25565b60405180910390a1600160338190555050565b6000808273ffffffffffffffffffffffffffffffffffffffff163b119050919050565b60007f01ffc9a7000000000000000000000000000000000000000000000000000000007bffffffffffffffffffffffffffffffffffffffffffffffffffffffff1916827bffffffffffffffffffffffffffffffffffffffffffffffffffffffff1916149050919050565b600033905090565b612ada8282611215565b612b6957612aff8173ffffffffffffffffffffffffffffffffffffffff166014612e82565b612b0d8360001c6020612e82565b604051602001612b1e929190614b1c565b6040516020818303038152906040526040517f08c379a0000000000000000000000000000000000000000000000000000000008152600401612b609190614b56565b60405180910390fd5b5050565b612b778282611215565b612c4a57600160c9600084815260200190815260200160002060000160008373ffffffffffffffffffffffffffffffffffffffff1673ffffffffffffffffffffffffffffffffffffffff16815260200190815260200160002060006101000a81548160ff021916908315150217905550612bef612ac8565b73ffffffffffffffffffffffffffffffffffffffff168173ffffffffffffffffffffffffffffffffffffffff16837f2f8788117e7eff1d82e926ec794901d17c78024a50270940304540a733656f0d60405160405180910390a45b5050565b612c588282611215565b15612d2c57600060c9600084815260200190815260200160002060000160008373ffffffffffffffffffffffffffffffffffffffff1673ffffffffffffffffffffffffffffffffffffffff16815260200190815260200160002060006101000a81548160ff021916908315150217905550612cd1612ac8565b73ffffffffffffffffffffffffffffffffffffffff168173ffffffffffffffffffffffffffffffffffffffff16837ff6391f5c32d9c69d2a47ea670b442974b53935d1edc7fd64eb21e047a839171b60405160405180910390a45b5050565b612db18363a9059cbb60e01b8484604051602401612d4f929190614b78565b604051602081830303815290604052907bffffffffffffffffffffffffffffffffffffffffffffffffffffffff19166020820180517bffffffffffffffffffffffffffffffffffffffffffffffffffffffff83818316178352505050506130be565b505050565b612e39846323b872dd60e01b858585604051602401612dd79392919061435c565b604051602081830303815290604052907bffffffffffffffffffffffffffffffffffffffffffffffffffffffff19166020820180517bffffffffffffffffffffffffffffffffffffffffffffffffffffffff83818316178352505050506130be565b50505050565b600081600001549050919050565b6000612e5830612a3b565b15905090565b612e688282612b6d565b5050565b6001816000016000828254019250508190555050565b606060006002836002612e959190613f6e565b612e9f9190613e78565b67ffffffffffffffff811115612eb857612eb7613539565b5b6040519080825280601f01601f191660200182016040528015612eea5781602001600182028036833780820191505090505b5090507f300000000000000000000000000000000000000000000000000000000000000081600081518110612f2257612f21614ba1565b5b60200101907effffffffffffffffffffffffffffffffffffffffffffffffffffffffffffff1916908160001a9053507f780000000000000000000000000000000000000000000000000000000000000081600181518110612f8657612f85614ba1565b5b60200101907effffffffffffffffffffffffffffffffffffffffffffffffffffffffffffff1916908160001a90535060006001846002612fc69190613f6e565b612fd09190613e78565b90505b6001811115613070577f3031323334353637383961626364656600000000000000000000000000000000600f86166010811061301257613011614ba1565b5b1a60f81b82828151811061302957613028614ba1565b5b60200101907effffffffffffffffffffffffffffffffffffffffffffffffffffffffffffff1916908160001a905350600485901c94508061306990614bd0565b9050612fd3565b50600084146130b4576040517f08c379a00000000000000000000000000000000000000000000000000000000081526004016130ab90614c46565b60405180910390fd5b8091505092915050565b6000613120826040518060400160405280602081526020017f5361666545524332303a206c6f772d6c6576656c2063616c6c206661696c65648152508573ffffffffffffffffffffffffffffffffffffffff166131859092919063ffffffff16565b905060008151111561318057808060200190518101906131409190614c92565b61317f576040517f08c379a000000000000000000000000000000000000000000000000000000000815260040161317690614d31565b60405180910390fd5b5b505050565b6060613194848460008561319d565b90509392505050565b6060824710156131e2576040517f08c379a00000000000000000000000000000000000000000000000000000000081526004016131d990614dc3565b60405180910390fd5b6131eb85612a3b565b61322a576040517f08c379a000000000000000000000000000000000000000000000000000000000815260040161322190614e2f565b60405180910390fd5b6000808673ffffffffffffffffffffffffffffffffffffffff1685876040516132539190614e96565b60006040518083038185875af1925050503d8060008114613290576040519150601f19603f3d011682016040523d82523d6000602084013e613295565b606091505b50915091506132a58282866132b1565b92505050949350505050565b606083156132c157829050613311565b6000835111156132d45782518084602001fd5b816040517f08c379a00000000000000000000000000000000000000000000000000000000081526004016133089190614b56565b60405180910390fd5b9392505050565b82805461332490613d00565b90600052602060002090601f016020900481019282613346576000855561338d565b82601f1061335f57805160ff191683800117855561338d565b8280016001018555821561338d579182015b8281111561338c578251825591602001919060010190613371565b5b50905061339a919061339e565b5090565b5b808211156133b757600081600090555060010161339f565b5090565b6000604051905090565b600080fd5b600080fd5b60007fffffffff0000000000000000000000000000000000000000000000000000000082169050919050565b613404816133cf565b811461340f57600080fd5b50565b600081359050613421816133fb565b92915050565b60006020828403121561343d5761343c6133c5565b5b600061344b84828501613412565b91505092915050565b60008115159050919050565b61346981613454565b82525050565b60006020820190506134846000830184613460565b92915050565b600073ffffffffffffffffffffffffffffffffffffffff82169050919050565b60006134b58261348a565b9050919050565b6134c5816134aa565b81146134d057600080fd5b50565b6000813590506134e2816134bc565b92915050565b6000819050919050565b6134fb816134e8565b811461350657600080fd5b50565b600081359050613518816134f2565b92915050565b600080fd5b600080fd5b6000601f19601f8301169050919050565b7f4e487b7100000000000000000000000000000000000000000000000000000000600052604160045260246000fd5b61357182613528565b810181811067ffffffffffffffff821117156135905761358f613539565b5b80604052505050565b60006135a36133bb565b90506135af8282613568565b919050565b600067ffffffffffffffff8211156135cf576135ce613539565b5b6135d882613528565b9050602081019050919050565b82818337600083830152505050565b6000613607613602846135b4565b613599565b90508281526020810184848401111561362357613622613523565b5b61362e8482856135e5565b509392505050565b600082601f83011261364b5761364a61351e565b5b813561365b8482602086016135f4565b91505092915050565b6000806000806080858703121561367e5761367d6133c5565b5b600061368c878288016134d3565b945050602061369d878288016134d3565b93505060406136ae87828801613509565b925050606085013567ffffffffffffffff8111156136cf576136ce6133ca565b5b6136db87828801613636565b91505092959194509250565b6136f0816133cf565b82525050565b600060208201905061370b60008301846136e7565b92915050565b6000819050919050565b61372481613711565b811461372f57600080fd5b50565b6000813590506137418161371b565b92915050565b60006020828403121561375d5761375c6133c5565b5b600061376b84828501613732565b91505092915050565b61377d81613711565b82525050565b60006020820190506137986000830184613774565b92915050565b600080604083850312156137b5576137b46133c5565b5b60006137c385828601613732565b92505060206137d4858286016134d3565b9150509250929050565b6000602082840312156137f4576137f36133c5565b5b600061380284828501613509565b91505092915050565b613814816134aa565b82525050565b613823816134e8565b82525050565b600081519050919050565b600082825260208201905092915050565b60005b83811015613863578082015181840152602081019050613848565b83811115613872576000848401525b50505050565b600061388382613829565b61388d8185613834565b935061389d818560208601613845565b6138a681613528565b840191505092915050565b6000610120820190506138c7600083018c61380b565b6138d4602083018b61380b565b6138e1604083018a61381a565b6138ee606083018961381a565b6138fb608083018861381a565b61390860a083018761380b565b61391560c083018661381a565b61392260e083018561381a565b8181036101008301526139358184613878565b90509a9950505050505050505050565b60006020828403121561395b5761395a6133c5565b5b6000613969848285016134d3565b91505092915050565b6000602082019050613987600083018461381a565b92915050565b600080604083850312156139a4576139a36133c5565b5b60006139b285828601613509565b92505060206139c385828601613509565b9150509250929050565b600081519050919050565b600082825260208201905092915050565b6000819050602082019050919050565b613a02816134e8565b82525050565b6000613a1483836139f9565b60208301905092915050565b6000602082019050919050565b6000613a38826139cd565b613a4281856139d8565b9350613a4d836139e9565b8060005b83811015613a7e578151613a658882613a08565b9750613a7083613a20565b925050600181019050613a51565b5085935050505092915050565b60006020820190508181036000830152613aa58184613a2d565b905092915050565b600080600060608486031215613ac657613ac56133c5565b5b6000613ad4868287016134d3565b9350506020613ae5868287016134d3565b9250506040613af6868287016134d3565b9150509250925092565b60008060008060808587031215613b1a57613b196133c5565b5b6000613b2887828801613509565b9450506020613b39878288016134d3565b9350506040613b4a87828801613509565b9250506060613b5b87828801613509565b91505092959194509250565b7f416363657373436f6e74726f6c3a2063616e206f6e6c792072656e6f756e636560008201527f20726f6c657320666f722073656c660000000000000000000000000000000000602082015250565b6000613bc3602f83613834565b9150613bce82613b67565b604082019050919050565b60006020820190508181036000830152613bf281613bb6565b9050919050565b7f5265656e7472616e637947756172643a207265656e7472616e742063616c6c00600082015250565b6000613c2f601f83613834565b9150613c3a82613bf9565b602082019050919050565b60006020820190508181036000830152613c5e81613c22565b9050919050565b600081905092915050565b7f4f6e000000000000000000000000000000000000000000000000000000000000600082015250565b6000613ca6600283613c65565b9150613cb182613c70565b600282019050919050565b6000613cc782613c99565b9150819050919050565b7f4e487b7100000000000000000000000000000000000000000000000000000000600052602260045260246000fd5b60006002820490506001821680613d1857607f821691505b60208210811415613d2c57613d2b613cd1565b5b50919050565b60008190508160005260206000209050919050565b60008154613d5481613d00565b613d5e8186613c65565b94506001821660008114613d795760018114613d8a57613dbd565b60ff19831686528186019350613dbd565b613d9385613d32565b60005b83811015613db557815481890152600182019150602081019050613d96565b838801955050505b50505092915050565b6000613dd28284613d47565b915081905092915050565b7f4f66666572206973206e6f74204f6e0000000000000000000000000000000000600082015250565b6000613e13600f83613834565b9150613e1e82613ddd565b602082019050919050565b60006020820190508181036000830152613e4281613e06565b9050919050565b7f4e487b7100000000000000000000000000000000000000000000000000000000600052601160045260246000fd5b6000613e83826134e8565b9150613e8e836134e8565b9250827fffffffffffffffffffffffffffffffffffffffffffffffffffffffffffffffff03821115613ec357613ec2613e49565b5b828201905092915050565b7f426f72726f776572206973206e6f74204c697175696461746564000000000000600082015250565b6000613f04601a83613834565b9150613f0f82613ece565b602082019050919050565b60006020820190508181036000830152613f3381613ef7565b9050919050565b6000613f45826134e8565b9150613f50836134e8565b925082821015613f6357613f62613e49565b5b828203905092915050565b6000613f79826134e8565b9150613f84836134e8565b9250817fffffffffffffffffffffffffffffffffffffffffffffffffffffffffffffffff0483118215151615613fbd57613fbc613e49565b5b828202905092915050565b7f4e487b7100000000000000000000000000000000000000000000000000000000600052601260045260246000fd5b6000614002826134e8565b915061400d836134e8565b92508261401d5761401c613fc8565b5b828204905092915050565b7f4c69717569646174656400000000000000000000000000000000000000000000600082015250565b600061405e600a83613834565b915061406982614028565b602082019050919050565b6000604082019050614089600083018461381a565b818103602083015261409a81614051565b905092915050565b7f43616e206e6f742061636365707420796f7572206f776e204f66666572000000600082015250565b60006140d8601d83613834565b91506140e3826140a2565b602082019050919050565b60006020820190508181036000830152614107816140cb565b9050919050565b7f4f70656e00000000000000000000000000000000000000000000000000000000600082015250565b6000614144600483613c65565b915061414f8261410e565b600482019050919050565b600061416582614137565b9150819050919050565b7f4f66666572206973206e6f74204f70656e000000000000000000000000000000600082015250565b60006141a5601183613834565b91506141b08261416f565b602082019050919050565b600060208201905081810360008301526141d481614198565b9050919050565b7f4e6f7420656e6f75676820636f6c6c61746572616c20746f20626f72726f772060008201527f666f72206d6f7265207468616e20616e20686f75720000000000000000000000602082015250565b6000614237603583613834565b9150614242826141db565b604082019050919050565b600060208201905081810360008301526142668161422a565b9050919050565b6000602082019050614282600083018461380b565b92915050565b600081519050614297816134f2565b92915050565b6000602082840312156142b3576142b26133c5565b5b60006142c184828501614288565b91505092915050565b7f4e6f7420656e6f7567682062616c616e636520746f207061792074686520636f60008201527f6c6c61746572616c000000000000000000000000000000000000000000000000602082015250565b6000614326602883613834565b9150614331826142ca565b604082019050919050565b6000602082019050818103600083015261435581614319565b9050919050565b6000606082019050614371600083018661380b565b61437e602083018561380b565b61438b604083018461381a565b949350505050565b60006143a0600283613834565b91506143ab82613c70565b602082019050919050565b60006040820190506143cb600083018461381a565b81810360208301526143dc81614393565b905092915050565b7f4f6e6c7920626f72726f7765722063616e2061646420636f6c6c61746572616c600082015250565b600061441a602083613834565b9150614425826143e4565b602082019050919050565b600060208201905081810360008301526144498161440d565b9050919050565b7f426f72726f77657220646f6573206e6f74206861766520656e6f75676820746f60008201527f207061792074686520657874726120636f6c6c61746572616c00000000000000602082015250565b60006144ac603983613834565b91506144b782614450565b604082019050919050565b600060208201905081810360008301526144db8161449f565b9050919050565b7f496e697469616c697a61626c653a20636f6e747261637420697320616c72656160008201527f647920696e697469616c697a6564000000000000000000000000000000000000602082015250565b600061453e602e83613834565b9150614549826144e2565b604082019050919050565b6000602082019050818103600083015261456d81614531565b9050919050565b7f4f6e6c7920626f72726f7765722063616e20726570617920746865204f66666560008201527f7200000000000000000000000000000000000000000000000000000000000000602082015250565b60006145d0602183613834565b91506145db82614574565b604082019050919050565b600060208201905081810360008301526145ff816145c3565b9050919050565b600081519050614615816134bc565b92915050565b600060208284031215614631576146306133c5565b5b600061463f84828501614606565b91505092915050565b7f426f72726f776572206973206e6f74206f776e6572206f6620746865204e4654600082015250565b600061467e602083613834565b915061468982614648565b602082019050919050565b600060208201905081810360008301526146ad81614671565b9050919050565b7f50726f746f636f6c20646f6573206e6f74206861766520656e6f75676820746f60008201527f207061792074686520636f6c6c61746572616c00000000000000000000000000602082015250565b6000614710603383613834565b915061471b826146b4565b604082019050919050565b6000602082019050818103600083015261473f81614703565b9050919050565b7f4163636570742074696d65203d20300000000000000000000000000000000000600082015250565b600061477c600f83613834565b915061478782614746565b602082019050919050565b600060208201905081810360008301526147ab8161476f565b9050919050565b7f426f72726f7765722063616e206265204c697175696461746564000000000000600082015250565b60006147e8601a83613834565b91506147f3826147b2565b602082019050919050565b60006020820190508181036000830152614817816147db565b9050919050565b600061482b600483613834565b91506148368261410e565b602082019050919050565b6000604082019050614856600083018461381a565b81810360208301526148678161481e565b905092915050565b7f4e6f7420746865206f776e6572206f6620746865204e46540000000000000000600082015250565b60006148a5601883613834565b91506148b08261486f565b602082019050919050565b600060208201905081810360008301526148d481614898565b9050919050565b7f4e6f7420746865206f776e6572206f6620746865204f66666572000000000000600082015250565b6000614911601a83613834565b915061491c826148db565b602082019050919050565b6000602082019050818103600083015261494081614904565b9050919050565b7f5468652050726f746f636f6c20646f6573206e6f74206861766520746865204e60008201527f4654000000000000000000000000000000000000000000000000000000000000602082015250565b60006149a3602283613834565b91506149ae82614947565b604082019050919050565b600060208201905081810360008301526149d281614996565b9050919050565b7f43616e63656c6c65640000000000000000000000000000000000000000000000600082015250565b6000614a0f600983613834565b9150614a1a826149d9565b602082019050919050565b6000604082019050614a3a600083018461381a565b8181036020830152614a4b81614a02565b905092915050565b7f416363657373436f6e74726f6c3a206163636f756e7420000000000000000000600082015250565b6000614a89601783613c65565b9150614a9482614a53565b601782019050919050565b6000614aaa82613829565b614ab48185613c65565b9350614ac4818560208601613845565b80840191505092915050565b7f206973206d697373696e6720726f6c6520000000000000000000000000000000600082015250565b6000614b06601183613c65565b9150614b1182614ad0565b601182019050919050565b6000614b2782614a7c565b9150614b338285614a9f565b9150614b3e82614af9565b9150614b4a8284614a9f565b91508190509392505050565b60006020820190508181036000830152614b708184613878565b905092915050565b6000604082019050614b8d600083018561380b565b614b9a602083018461381a565b9392505050565b7f4e487b7100000000000000000000000000000000000000000000000000000000600052603260045260246000fd5b6000614bdb826134e8565b91506000821415614bef57614bee613e49565b5b600182039050919050565b7f537472696e67733a20686578206c656e67746820696e73756666696369656e74600082015250565b6000614c30602083613834565b9150614c3b82614bfa565b602082019050919050565b60006020820190508181036000830152614c5f81614c23565b9050919050565b614c6f81613454565b8114614c7a57600080fd5b50565b600081519050614c8c81614c66565b92915050565b600060208284031215614ca857614ca76133c5565b5b6000614cb684828501614c7d565b91505092915050565b7f5361666545524332303a204552433230206f7065726174696f6e20646964206e60008201527f6f74207375636365656400000000000000000000000000000000000000000000602082015250565b6000614d1b602a83613834565b9150614d2682614cbf565b604082019050919050565b60006020820190508181036000830152614d4a81614d0e565b9050919050565b7f416464726573733a20696e73756666696369656e742062616c616e636520666f60008201527f722063616c6c0000000000000000000000000000000000000000000000000000602082015250565b6000614dad602683613834565b9150614db882614d51565b604082019050919050565b60006020820190508181036000830152614ddc81614da0565b9050919050565b7f416464726573733a2063616c6c20746f206e6f6e2d636f6e7472616374000000600082015250565b6000614e19601d83613834565b9150614e2482614de3565b602082019050919050565b60006020820190508181036000830152614e4881614e0c565b9050919050565b600081519050919050565b600081905092915050565b6000614e7082614e4f565b614e7a8185614e5a565b9350614e8a818560208601613845565b80840191505092915050565b6000614ea28284614e65565b91508190509291505056fea26469706673582212201394500a208c0ae6b7b86e0df44bfae0e97364673297b7c82926312875d2bf5064736f6c634300080c0033",
  "immutableReferences": {},
  "source": "// SPDX-License-Identifier: UNLICENSED\r\n\r\npragma solidity ^0.8.3;\r\n\r\nimport \"@openzeppelin/contracts-upgradeable/utils/CountersUpgradeable.sol\";\r\nimport \"@openzeppelin/contracts-upgradeable/token/ERC20/IERC20Upgradeable.sol\";\r\nimport \"@openzeppelin/contracts-upgradeable/token/ERC721/IERC721Upgradeable.sol\";\r\n\r\nimport \"@openzeppelin/contracts-upgradeable/token/ERC20/utils/SafeERC20Upgradeable.sol\";\r\nimport \"@openzeppelin/contracts-upgradeable/token/ERC721/utils/ERC721HolderUpgradeable.sol\";\r\nimport \"@openzeppelin/contracts-upgradeable/security/ReentrancyGuardUpgradeable.sol\";\r\nimport \"@openzeppelin/contracts-upgradeable/access/AccessControlUpgradeable.sol\";\r\n\r\n\r\n\r\n/**\r\n * @title ERC721Lending\r\n * @notice ERC721 Lending plataform where users that provide the ERC721 token\r\n * set a liquidation limit and fee, and users that borrow the ERC721 token\r\n * set how much collateral they add to the transaction\r\n */\r\ncontract ERC721LendingUpgradeable is ERC721HolderUpgradeable, ReentrancyGuardUpgradeable, AccessControlUpgradeable {\r\n\r\n    event OfferStatusChange(uint256 offerId, string status);\r\n\r\n    struct Offer {\r\n        address owner;\r\n        address nft;\r\n        uint256 nftId;\r\n        uint256 liquidation;\r\n        uint256 hourlyFee;\r\n        address borrower;\r\n        uint256 collateral;\r\n        uint256 acceptTime;\r\n        string status; // Open, On, Cancelled, Liquidated\r\n    }\r\n\r\n    mapping(uint256 => Offer) offers;\r\n    mapping(address => uint256[]) addressToOffers;\r\n    mapping(address => bool) addressToBool;\r\n\r\n    using SafeERC20Upgradeable for IERC20Upgradeable;\r\n    using CountersUpgradeable for CountersUpgradeable.Counter;\r\n    CountersUpgradeable.Counter private offerCounter;\r\n\r\n    address PayoutAddress;\r\n    IERC20Upgradeable token;\r\n    uint Fee;\r\n    uint LiquidationFee;\r\n\r\n    /// @custom:oz-upgrades-unsafe-allow constructor\r\n    constructor() initializer {}\r\n\r\n    function initialize(address Payout, address TokenAddress, address BaseERC721Address) initializer public {\r\n        PayoutAddress = Payout;\r\n        token = IERC20Upgradeable(TokenAddress);\r\n        Fee = 4;\r\n        LiquidationFee = 10;\r\n        //Base Contract accepted\r\n        addressToBool[BaseERC721Address] = true;\r\n        _setupRole(DEFAULT_ADMIN_ROLE, msg.sender);\r\n    }\r\n\r\n    /**\r\n     * @dev Returns the details for a offer.\r\n     * @param offerId The id of the offer.\r\n     */\r\n    function getOffer(uint256 offerId) external view returns (address, address, uint256, uint256, uint256, address, uint256, uint256, string memory) {\r\n        Offer memory offer = offers[offerId];\r\n        return (offer.owner, offer.nft, offer.nftId, offer.liquidation, offer.hourlyFee, offer.borrower, offer.collateral, offer.acceptTime, offer.status);\r\n    }\r\n\r\n    /**\r\n     * @dev Returns all offers of an address.\r\n     * @param addr the address to lookup.\r\n     */\r\n    function getOffersOfAddress(address addr) external view returns (uint256[] memory) {\r\n        return addressToOffers[addr];\r\n    }\r\n\r\n    /**\r\n     * @dev Returns the number of offers made.\r\n     */\r\n    function getOfferQuantities() external view returns (uint256) {\r\n        return offerCounter.current();\r\n    }\r\n\r\n    function feeToPay(uint256 offerId) public view returns (uint256) {\r\n        return offers[offerId].hourlyFee + ((block.timestamp - offers[offerId].acceptTime)/(60*60))*offers[offerId].hourlyFee;\r\n    }\r\n\r\n    /**\r\n     * @dev Opens a new Offer, and sends the nft to an escrow.\r\n     * @param nftId id of the nft to offer.\r\n     * @param nftAddress address of the nft to offer.\r\n     * @param liquidation if the amount of liquidation+accumulatedFee is bigger than the collateral, the borrower is liquidated.\r\n     * @param fee fee amount that accumulates every hour.\r\n     */\r\n    function createOffer(uint256 nftId, address nftAddress, uint256 liquidation, uint256 fee) external nonReentrant() {\r\n        require(addressToBool[nftAddress] == true);\r\n        require(IERC721Upgradeable(nftAddress).ownerOf(nftId) == msg.sender, \"Not the owner of the NFT\");\r\n        \r\n        IERC721Upgradeable(nftAddress).safeTransferFrom(msg.sender, address(this), nftId);\r\n\r\n        uint current = offerCounter.current();\r\n        offerCounter.increment();\r\n        offers[current] = Offer(msg.sender, nftAddress, nftId, liquidation, fee, address(0), 0, 0, \"Open\");\r\n        addressToOffers[msg.sender].push(current);\r\n        emit OfferStatusChange(current, \"Open\");\r\n    }\r\n\r\n    /**\r\n     * @dev Cancels open offer and returns the nft to the owner.\r\n     * @param offerId the id of the offer.\r\n     */\r\n    function cancelOffer(uint256 offerId) external nonReentrant() {\r\n        require(offers[offerId].owner == msg.sender, \"Not the owner of the Offer\");\r\n        require(IERC721Upgradeable(offers[offerId].nft).ownerOf(offers[offerId].nftId) == address(this), \"The Protocol does not have the NFT\");\r\n        require(keccak256(abi.encodePacked(offers[offerId].status)) == keccak256(abi.encodePacked(\"Open\")), \"Offer is not Open\");\r\n\r\n        offers[offerId].status = \"Cancelled\";\r\n        IERC721Upgradeable(offers[offerId].nft).safeTransferFrom(address(this), msg.sender, offers[offerId].nftId);\r\n        emit OfferStatusChange(offerId, \"Cancelled\");\r\n    }\r\n\r\n    /**\r\n     * @dev Accepts an Open offer, escrows the collateral on the contract and sends the nft to the borrower.\r\n     * @param offerId the id of the offer.\r\n     * @param collateral how much collateral the borrowers wants to add to the offer.\r\n     */\r\n    function acceptOffer(uint256 offerId, uint256 collateral) external nonReentrant() {\r\n        require(offers[offerId].owner != msg.sender, \"Can not accept your own Offer\");\r\n        require(keccak256(abi.encodePacked(offers[offerId].status)) == keccak256(abi.encodePacked(\"Open\")), \"Offer is not Open\");\r\n        uint256 minimumFee = offers[offerId].hourlyFee;\r\n        require(collateral > offers[offerId].liquidation + minimumFee, \"Not enough collateral to borrow for more than an hour\");\r\n        require(token.balanceOf(msg.sender) >= collateral, \"Not enough balance to pay the collateral\");\r\n\r\n        offers[offerId].status = \"On\";\r\n        offers[offerId].borrower = msg.sender;\r\n        offers[offerId].collateral = collateral;\r\n        offers[offerId].acceptTime = block.timestamp;\r\n        token.safeTransferFrom(msg.sender, address(this), collateral);\r\n        IERC721Upgradeable(offers[offerId].nft).safeTransferFrom(address(this), msg.sender, offers[offerId].nftId);\r\n        emit OfferStatusChange(offerId, \"On\");\r\n    }\r\n\r\n    /**\r\n     * @dev checks if borrower is liquidated or not, then transfers the nft to the contract, \r\n     * pays the lender, pays the protocol and finally returns the rest of the collateral to the borrower\r\n     * @param offerId the id of the offer.\r\n     */\r\n    function repayOffer(uint256 offerId) external nonReentrant() {\r\n        require(offers[offerId].borrower == msg.sender, \"Only borrower can repay the Offer\");\r\n        require(keccak256(abi.encodePacked(offers[offerId].status)) == keccak256(abi.encodePacked(\"On\")), \"Offer is not On\");\r\n        require(IERC721Upgradeable(offers[offerId].nft).ownerOf(offers[offerId].nftId) == msg.sender, \"Borrower is not owner of the NFT\");\r\n        require(token.balanceOf(address(this)) >= offers[offerId].collateral, \"Protocol does not have enough to pay the collateral\");\r\n        require(offers[offerId].acceptTime != 0, \"Accept time = 0\");\r\n        //minimum Fee is at least 1 hour and increases each hour\r\n        uint256 fee = feeToPay(offerId);\r\n        // User is not liquidated\r\n        require(offers[offerId].collateral >= (fee + offers[offerId].liquidation), \"Borrower can be Liquidated\");\r\n\r\n        IERC721Upgradeable(offers[offerId].nft).safeTransferFrom(msg.sender, address(this), offers[offerId].nftId);\r\n        token.safeTransfer(offers[offerId].owner, fee*(100-Fee)/100);\r\n        token.safeTransfer(PayoutAddress, fee*Fee/100);\r\n        token.safeTransfer(msg.sender, (offers[offerId].collateral - fee));\r\n\r\n        offers[offerId].borrower = address(0);\r\n        offers[offerId].collateral = 0;\r\n        offers[offerId].acceptTime = 0;\r\n        offers[offerId].status = \"Open\";\r\n        emit OfferStatusChange(offerId, \"Open\");\r\n    }\r\n\r\n    /**\r\n     * @dev Adds extra collateral to the position of the borrower.\r\n     * @param offerId the id of the offer.\r\n     * @param extraCollateral how much extra collateral the borrowers wants to add to the offer.\r\n     */\r\n    function addCollateral(uint256 offerId, uint256 extraCollateral) external nonReentrant() {\r\n        require(offers[offerId].borrower == msg.sender, \"Only borrower can add collateral\");\r\n        require(keccak256(abi.encodePacked(offers[offerId].status)) == keccak256(abi.encodePacked(\"On\")), \"Offer is not On\");\r\n        require(token.balanceOf(offers[offerId].borrower) >= extraCollateral, \"Borrower does not have enough to pay the extra collateral\");\r\n\r\n        offers[offerId].collateral = offers[offerId].collateral + extraCollateral;\r\n        token.safeTransferFrom(msg.sender, address(this), extraCollateral);\r\n    }\r\n\r\n    /**\r\n     * @dev Liquidates the borrower if he owns more than he has collateral.\r\n     * @param offerId the id of the offer.\r\n     */\r\n    function liquidate(uint256 offerId) external nonReentrant() {\r\n        uint256 fee = feeToPay(offerId);\r\n        require(keccak256(abi.encodePacked(offers[offerId].status)) == keccak256(abi.encodePacked(\"On\")), \"Offer is not On\");\r\n        require(offers[offerId].collateral < (fee + offers[offerId].liquidation), \"Borrower is not Liquidated\");\r\n\r\n        offers[offerId].status = \"Liquidated\";\r\n        token.safeTransfer(offers[offerId].owner, offers[offerId].collateral*(100-LiquidationFee)/100);\r\n        token.safeTransfer(PayoutAddress, offers[offerId].collateral*LiquidationFee/100);\r\n        emit OfferStatusChange(offerId, \"Liquidated\");\r\n    }\r\n\r\n    /**\r\n     * @dev Changes account to send payout.\r\n     * @param newPayout new address to send payout.\r\n     */\r\n    function transferPayoutAddress(address newPayout) external onlyRole(DEFAULT_ADMIN_ROLE) {\r\n        PayoutAddress = newPayout;\r\n    }\r\n\r\n    /**\r\n     * @dev Changes the fee \r\n     * @param newFee new fee.\r\n     */\r\n    function changeFee(uint256 newFee) external onlyRole(DEFAULT_ADMIN_ROLE) {\r\n        Fee = newFee;\r\n    }\r\n\r\n    /**\r\n     * @dev Changes the liquidation fee\r\n     * @param newLiquidationFee new liquidation fee.\r\n     */\r\n    function changeLiquidationFee(uint256 newLiquidationFee) external onlyRole(DEFAULT_ADMIN_ROLE) {\r\n        LiquidationFee = newLiquidationFee;\r\n    }\r\n\r\n    /**\r\n     * @dev adds new contract ERC721 to the protocol\r\n     * @param _contract contract address to whitelist.\r\n     */\r\n    function addContract(address _contract) external onlyRole(DEFAULT_ADMIN_ROLE) {\r\n        addressToBool[_contract] = true;\r\n    }\r\n\r\n    /**\r\n     * @dev removes a contract ERC721 from the protocol\r\n     * @param _contract contract address to blacklist.\r\n     */\r\n    function removeContract(address _contract) external onlyRole(DEFAULT_ADMIN_ROLE) {\r\n        addressToBool[_contract] = false;\r\n    }\r\n\r\n}",
  "sourcePath": "C:\\Users\\jtsch\\OneDrive\\Escritorio\\DFK-Lending\\DFK-Lending-SmartContracts\\contracts\\ERC721LendingUpgradeable.sol",
  "compiler": {
    "name": "solc",
    "version": "0.8.12+commit.f00d7308.Emscripten.clang"
  },
  "schemaVersion": "3.4.3",
  "updatedAt": "2022-02-27T16:51:14.471Z",
  "networkType": "ethereum",
  "devdoc": {
    "kind": "dev",
    "methods": {
      "acceptOffer(uint256,uint256)": {
        "details": "Accepts an Open offer, escrows the collateral on the contract and sends the nft to the borrower.",
        "params": {
          "collateral": "how much collateral the borrowers wants to add to the offer.",
          "offerId": "the id of the offer."
        }
      },
      "addCollateral(uint256,uint256)": {
        "details": "Adds extra collateral to the position of the borrower.",
        "params": {
          "extraCollateral": "how much extra collateral the borrowers wants to add to the offer.",
          "offerId": "the id of the offer."
        }
      },
      "addContract(address)": {
        "details": "adds new contract ERC721 to the protocol",
        "params": {
          "_contract": "contract address to whitelist."
        }
      },
      "cancelOffer(uint256)": {
        "details": "Cancels open offer and returns the nft to the owner.",
        "params": {
          "offerId": "the id of the offer."
        }
      },
      "changeFee(uint256)": {
        "details": "Changes the fee ",
        "params": {
          "newFee": "new fee."
        }
      },
      "changeLiquidationFee(uint256)": {
        "details": "Changes the liquidation fee",
        "params": {
          "newLiquidationFee": "new liquidation fee."
        }
      },
      "constructor": {
        "custom:oz-upgrades-unsafe-allow": "constructor"
      },
      "createOffer(uint256,address,uint256,uint256)": {
        "details": "Opens a new Offer, and sends the nft to an escrow.",
        "params": {
          "fee": "fee amount that accumulates every hour.",
          "liquidation": "if the amount of liquidation+accumulatedFee is bigger than the collateral, the borrower is liquidated.",
          "nftAddress": "address of the nft to offer.",
          "nftId": "id of the nft to offer."
        }
      },
      "getOffer(uint256)": {
        "details": "Returns the details for a offer.",
        "params": {
          "offerId": "The id of the offer."
        }
      },
      "getOfferQuantities()": {
        "details": "Returns the number of offers made."
      },
      "getOffersOfAddress(address)": {
        "details": "Returns all offers of an address.",
        "params": {
          "addr": "the address to lookup."
        }
      },
      "getRoleAdmin(bytes32)": {
        "details": "Returns the admin role that controls `role`. See {grantRole} and {revokeRole}. To change a role's admin, use {_setRoleAdmin}."
      },
      "grantRole(bytes32,address)": {
        "details": "Grants `role` to `account`. If `account` had not been already granted `role`, emits a {RoleGranted} event. Requirements: - the caller must have ``role``'s admin role."
      },
      "hasRole(bytes32,address)": {
        "details": "Returns `true` if `account` has been granted `role`."
      },
      "liquidate(uint256)": {
        "details": "Liquidates the borrower if he owns more than he has collateral.",
        "params": {
          "offerId": "the id of the offer."
        }
      },
      "onERC721Received(address,address,uint256,bytes)": {
        "details": "See {IERC721Receiver-onERC721Received}. Always returns `IERC721Receiver.onERC721Received.selector`."
      },
      "removeContract(address)": {
        "details": "removes a contract ERC721 from the protocol",
        "params": {
          "_contract": "contract address to blacklist."
        }
      },
      "renounceRole(bytes32,address)": {
        "details": "Revokes `role` from the calling account. Roles are often managed via {grantRole} and {revokeRole}: this function's purpose is to provide a mechanism for accounts to lose their privileges if they are compromised (such as when a trusted device is misplaced). If the calling account had been revoked `role`, emits a {RoleRevoked} event. Requirements: - the caller must be `account`."
      },
      "repayOffer(uint256)": {
        "details": "checks if borrower is liquidated or not, then transfers the nft to the contract,  pays the lender, pays the protocol and finally returns the rest of the collateral to the borrower",
        "params": {
          "offerId": "the id of the offer."
        }
      },
      "revokeRole(bytes32,address)": {
        "details": "Revokes `role` from `account`. If `account` had been granted `role`, emits a {RoleRevoked} event. Requirements: - the caller must have ``role``'s admin role."
      },
      "supportsInterface(bytes4)": {
        "details": "See {IERC165-supportsInterface}."
      },
      "transferPayoutAddress(address)": {
        "details": "Changes account to send payout.",
        "params": {
          "newPayout": "new address to send payout."
        }
      }
    },
    "title": "ERC721Lending",
    "version": 1
  },
  "userdoc": {
    "kind": "user",
    "methods": {},
    "notice": "ERC721 Lending plataform where users that provide the ERC721 token set a liquidation limit and fee, and users that borrow the ERC721 token set how much collateral they add to the transaction",
    "version": 1
  }
}