{
  "contractName": "HeroLending",
  "abi": [
    {
      "anonymous": false,
      "inputs": [
        {
          "indexed": false,
          "internalType": "uint256",
          "name": "offerId",
          "type": "uint256"
        }
      ],
      "name": "AcceptOffer",
      "type": "event"
    },
    {
      "anonymous": false,
      "inputs": [
        {
          "indexed": false,
          "internalType": "uint256",
          "name": "offerId",
          "type": "uint256"
        }
      ],
      "name": "CancelOffer",
      "type": "event"
    },
    {
      "anonymous": false,
      "inputs": [
        {
          "indexed": false,
          "internalType": "uint256",
          "name": "offerId",
          "type": "uint256"
        }
      ],
      "name": "Liquidate",
      "type": "event"
    },
    {
      "anonymous": false,
      "inputs": [
        {
          "indexed": false,
          "internalType": "uint256",
          "name": "offerId",
          "type": "uint256"
        }
      ],
      "name": "NewOffer",
      "type": "event"
    },
    {
      "anonymous": false,
      "inputs": [
        {
          "indexed": false,
          "internalType": "uint256",
          "name": "offerId",
          "type": "uint256"
        }
      ],
      "name": "RepayOffer",
      "type": "event"
    },
    {
      "inputs": [
        {
          "internalType": "uint256",
          "name": "",
          "type": "uint256"
        }
      ],
      "name": "offers",
      "outputs": [
        {
          "internalType": "address",
          "name": "owner",
          "type": "address"
        },
        {
          "internalType": "uint256",
          "name": "heroId",
          "type": "uint256"
        },
        {
          "internalType": "uint256",
          "name": "liquidation",
          "type": "uint256"
        },
        {
          "internalType": "uint256",
          "name": "dailyFee",
          "type": "uint256"
        },
        {
          "internalType": "address",
          "name": "borrower",
          "type": "address"
        },
        {
          "internalType": "uint256",
          "name": "collateral",
          "type": "uint256"
        },
        {
          "internalType": "uint256",
          "name": "acceptTime",
          "type": "uint256"
        },
        {
          "internalType": "string",
          "name": "status",
          "type": "string"
        }
      ],
      "stateMutability": "view",
      "type": "function",
      "constant": true
    },
    {
      "inputs": [
        {
          "internalType": "address",
          "name": "",
          "type": "address"
        },
        {
          "internalType": "address",
          "name": "",
          "type": "address"
        },
        {
          "internalType": "uint256",
          "name": "",
          "type": "uint256"
        },
        {
          "internalType": "bytes",
          "name": "",
          "type": "bytes"
        }
      ],
      "name": "onERC721Received",
      "outputs": [
        {
          "internalType": "bytes4",
          "name": "",
          "type": "bytes4"
        }
      ],
      "stateMutability": "nonpayable",
      "type": "function"
    },
    {
      "inputs": [],
      "name": "initialize",
      "outputs": [],
      "stateMutability": "nonpayable",
      "type": "function"
    },
    {
      "inputs": [
        {
          "internalType": "uint256",
          "name": "offerId",
          "type": "uint256"
        }
      ],
      "name": "offerOwner",
      "outputs": [
        {
          "internalType": "address",
          "name": "",
          "type": "address"
        }
      ],
      "stateMutability": "view",
      "type": "function",
      "constant": true
    },
    {
      "inputs": [
        {
          "internalType": "uint256",
          "name": "offerId",
          "type": "uint256"
        }
      ],
      "name": "offerHeroId",
      "outputs": [
        {
          "internalType": "uint256",
          "name": "",
          "type": "uint256"
        }
      ],
      "stateMutability": "view",
      "type": "function",
      "constant": true
    },
    {
      "inputs": [
        {
          "internalType": "uint256",
          "name": "offerId",
          "type": "uint256"
        }
      ],
      "name": "offerLiquidation",
      "outputs": [
        {
          "internalType": "uint256",
          "name": "",
          "type": "uint256"
        }
      ],
      "stateMutability": "view",
      "type": "function",
      "constant": true
    },
    {
      "inputs": [
        {
          "internalType": "uint256",
          "name": "offerId",
          "type": "uint256"
        }
      ],
      "name": "offerDailyFee",
      "outputs": [
        {
          "internalType": "uint256",
          "name": "",
          "type": "uint256"
        }
      ],
      "stateMutability": "view",
      "type": "function",
      "constant": true
    },
    {
      "inputs": [
        {
          "internalType": "uint256",
          "name": "offerId",
          "type": "uint256"
        }
      ],
      "name": "offerBorrower",
      "outputs": [
        {
          "internalType": "address",
          "name": "",
          "type": "address"
        }
      ],
      "stateMutability": "view",
      "type": "function",
      "constant": true
    },
    {
      "inputs": [
        {
          "internalType": "uint256",
          "name": "offerId",
          "type": "uint256"
        }
      ],
      "name": "offerCollateral",
      "outputs": [
        {
          "internalType": "uint256",
          "name": "",
          "type": "uint256"
        }
      ],
      "stateMutability": "view",
      "type": "function",
      "constant": true
    },
    {
      "inputs": [
        {
          "internalType": "uint256",
          "name": "offerId",
          "type": "uint256"
        }
      ],
      "name": "offerAcceptTime",
      "outputs": [
        {
          "internalType": "uint256",
          "name": "",
          "type": "uint256"
        }
      ],
      "stateMutability": "view",
      "type": "function",
      "constant": true
    },
    {
      "inputs": [
        {
          "internalType": "uint256",
          "name": "offerId",
          "type": "uint256"
        }
      ],
      "name": "offerStatus",
      "outputs": [
        {
          "internalType": "string",
          "name": "",
          "type": "string"
        }
      ],
      "stateMutability": "view",
      "type": "function",
      "constant": true
    },
    {
      "inputs": [],
      "name": "offersQuantity",
      "outputs": [
        {
          "internalType": "uint256",
          "name": "",
          "type": "uint256"
        }
      ],
      "stateMutability": "view",
      "type": "function",
      "constant": true
    },
    {
      "inputs": [
        {
          "internalType": "uint256",
          "name": "heroId",
          "type": "uint256"
        },
        {
          "internalType": "uint256",
          "name": "liquidation",
          "type": "uint256"
        },
        {
          "internalType": "uint256",
          "name": "fee",
          "type": "uint256"
        }
      ],
      "name": "createOffer",
      "outputs": [],
      "stateMutability": "nonpayable",
      "type": "function"
    },
    {
      "inputs": [
        {
          "internalType": "uint256",
          "name": "offerId",
          "type": "uint256"
        }
      ],
      "name": "cancelOffer",
      "outputs": [],
      "stateMutability": "nonpayable",
      "type": "function"
    },
    {
      "inputs": [
        {
          "internalType": "uint256",
          "name": "offerId",
          "type": "uint256"
        },
        {
          "internalType": "uint256",
          "name": "collateral",
          "type": "uint256"
        }
      ],
      "name": "acceptOffer",
      "outputs": [],
      "stateMutability": "nonpayable",
      "type": "function"
    },
    {
      "inputs": [
        {
          "internalType": "uint256",
          "name": "offerId",
          "type": "uint256"
        }
      ],
      "name": "repayOffer",
      "outputs": [],
      "stateMutability": "nonpayable",
      "type": "function"
    },
    {
      "inputs": [
        {
          "internalType": "uint256",
          "name": "offerId",
          "type": "uint256"
        },
        {
          "internalType": "uint256",
          "name": "extraCollateral",
          "type": "uint256"
        }
      ],
      "name": "addCollateral",
      "outputs": [],
      "stateMutability": "nonpayable",
      "type": "function"
    },
    {
      "inputs": [
        {
          "internalType": "uint256",
          "name": "offerId",
          "type": "uint256"
        }
      ],
      "name": "liquidate",
      "outputs": [],
      "stateMutability": "nonpayable",
      "type": "function"
    }
  ],
  "bytecode": "0x608060405234801561001057600080fd5b50613075806100206000396000f3fe608060405234801561001057600080fd5b50600436106101165760003560e01c80638388495e116100a2578063d843b2c711610071578063d843b2c71461031e578063dc35a9001461034e578063e121e6e51461036a578063eeeb357e14610386578063ef706adf146103b657610116565b80638388495e1461026b5780638a72ea6a1461029b578063a8f35adf146102d2578063cb0cebbd146102ee57610116565b80635b61913f116100e95780635b61913f146101c75780635e7b52a1146101f75780636b4292161461022757806381257bd5146102455780638129fc1c1461026157610116565b806306bf6d551461011b578063150b7a021461014b57806328bc02cc1461017b578063415f1240146101ab575b600080fd5b61013560048036038101906101309190612652565b6103d2565b60405161014291906126c0565b60405180910390f35b6101656004803603810190610160919061284d565b610421565b604051610172919061290b565b60405180910390f35b61019560048036038101906101909190612652565b610435565b6040516101a291906126c0565b60405180910390f35b6101c560048036038101906101c09190612652565b610484565b005b6101e160048036038101906101dc9190612652565b6108a3565b6040516101ee9190612935565b60405180910390f35b610211600480360381019061020c9190612652565b6108d2565b60405161021e9190612935565b60405180910390f35b61022f610901565b60405161023c9190612935565b60405180910390f35b61025f600480360381019061025a9190612950565b610913565b005b610269610de1565b005b61028560048036038101906102809190612652565b61108a565b6040516102929190612935565b60405180910390f35b6102b560048036038101906102b09190612652565b6110b9565b6040516102c9989796959493929190612a18565b60405180910390f35b6102ec60048036038101906102e79190612950565b6111d9565b005b61030860048036038101906103039190612652565b611479565b6040516103159190612935565b60405180910390f35b61033860048036038101906103339190612652565b6114a8565b6040516103459190612a9d565b60405180910390f35b61036860048036038101906103639190612abf565b61155f565b005b610384600480360381019061037f9190612652565b6118b2565b005b6103a0600480360381019061039b9190612652565b6121b4565b6040516103ad9190612935565b60405180910390f35b6103d060048036038101906103cb9190612652565b6121e3565b005b6000600382815481106103e8576103e7612b12565b5b906000526020600020906008020160040160009054906101000a900473ffffffffffffffffffffffffffffffffffffffff169050919050565b600063150b7a0260e01b9050949350505050565b60006003828154811061044b5761044a612b12565b5b906000526020600020906008020160000160009054906101000a900473ffffffffffffffffffffffffffffffffffffffff169050919050565b60006003828154811061049a57610499612b12565b5b90600052602060002090600802016003015462015180600384815481106104c4576104c3612b12565b5b906000526020600020906008020160060154426104e19190612b70565b6104eb9190612bd3565b6104f59190612c04565b905060405160200161050690612cb5565b60405160208183030381529060405280519060200120600383815481106105305761052f612b12565b5b90600052602060002090600802016007016040516020016105519190612dbf565b604051602081830303815290604052805190602001201461057157600080fd5b6003828154811061058557610584612b12565b5b906000526020600020906008020160020154816105a29190612dd6565b600383815481106105b6576105b5612b12565b5b906000526020600020906008020160050154106105d257600080fd5b6040518060400160405280600a81526020017f4c697175696461746564000000000000000000000000000000000000000000008152506003838154811061061c5761061b612b12565b5b90600052602060002090600802016007019080519060200190610640929190612565565b50600560009054906101000a900473ffffffffffffffffffffffffffffffffffffffff1673ffffffffffffffffffffffffffffffffffffffff166323b872dd306003858154811061069457610693612b12565b5b906000526020600020906008020160000160009054906101000a900473ffffffffffffffffffffffffffffffffffffffff166064605a600388815481106106de576106dd612b12565b5b9060005260206000209060080201600501546106fa9190612c04565b6107049190612bd3565b6040518463ffffffff1660e01b815260040161072293929190612e2c565b6020604051808303816000875af1158015610741573d6000803e3d6000fd5b505050506040513d601f19601f820116820180604052508101906107659190612e9b565b50600560009054906101000a900473ffffffffffffffffffffffffffffffffffffffff1673ffffffffffffffffffffffffffffffffffffffff166323b872dd30600260009054906101000a900473ffffffffffffffffffffffffffffffffffffffff166064600a600388815481106107e0576107df612b12565b5b9060005260206000209060080201600501546107fc9190612c04565b6108069190612bd3565b6040518463ffffffff1660e01b815260040161082493929190612e2c565b6020604051808303816000875af1158015610843573d6000803e3d6000fd5b505050506040513d601f19601f820116820180604052508101906108679190612e9b565b507fafe8025042fe09457744b5a74c64737289309ac0970116f6efcebcb38b4dc591826040516108979190612935565b60405180910390a15050565b6000600382815481106108b9576108b8612b12565b5b9060005260206000209060080201600101549050919050565b6000600382815481106108e8576108e7612b12565b5b9060005260206000209060080201600501549050919050565b60008060038054905090508091505090565b3373ffffffffffffffffffffffffffffffffffffffff166003838154811061093e5761093d612b12565b5b906000526020600020906008020160000160009054906101000a900473ffffffffffffffffffffffffffffffffffffffff1673ffffffffffffffffffffffffffffffffffffffff16141561099157600080fd5b6040516020016109a090612f14565b60405160208183030381529060405280519060200120600383815481106109ca576109c9612b12565b5b90600052602060002090600802016007016040516020016109eb9190612dbf565b6040516020818303038152906040528051906020012014610a0b57600080fd5b6000601860038481548110610a2357610a22612b12565b5b906000526020600020906008020160030154610a3f9190612bd3565b90508060038481548110610a5657610a55612b12565b5b906000526020600020906008020160020154610a729190612dd6565b8211610a7d57600080fd5b81600560009054906101000a900473ffffffffffffffffffffffffffffffffffffffff1673ffffffffffffffffffffffffffffffffffffffff166370a08231336040518263ffffffff1660e01b8152600401610ad991906126c0565b602060405180830381865afa158015610af6573d6000803e3d6000fd5b505050506040513d601f19601f82011682018060405250810190610b1a9190612f3e565b1015610b2557600080fd5b6040518060400160405280600281526020017f4f6e00000000000000000000000000000000000000000000000000000000000081525060038481548110610b6f57610b6e612b12565b5b90600052602060002090600802016007019080519060200190610b93929190612565565b503360038481548110610ba957610ba8612b12565b5b906000526020600020906008020160040160006101000a81548173ffffffffffffffffffffffffffffffffffffffff021916908373ffffffffffffffffffffffffffffffffffffffff1602179055508160038481548110610c0d57610c0c612b12565b5b9060005260206000209060080201600501819055504260038481548110610c3757610c36612b12565b5b906000526020600020906008020160060181905550600560009054906101000a900473ffffffffffffffffffffffffffffffffffffffff1673ffffffffffffffffffffffffffffffffffffffff166323b872dd3330856040518463ffffffff1660e01b8152600401610cab93929190612e2c565b6020604051808303816000875af1158015610cca573d6000803e3d6000fd5b505050506040513d601f19601f82011682018060405250810190610cee9190612e9b565b50600460009054906101000a900473ffffffffffffffffffffffffffffffffffffffff1673ffffffffffffffffffffffffffffffffffffffff166342842e0e303360038781548110610d4357610d42612b12565b5b9060005260206000209060080201600101546040518463ffffffff1660e01b8152600401610d7393929190612e2c565b600060405180830381600087803b158015610d8d57600080fd5b505af1158015610da1573d6000803e3d6000fd5b505050507fbcacf710aa41ccef04977c6de1df444984621e2bd0c86e0b001620ab014d187483604051610dd49190612935565b60405180910390a1505050565b600060019054906101000a900460ff16610e095760008054906101000a900460ff1615610e12565b610e11612531565b5b610e51576040517f08c379a0000000000000000000000000000000000000000000000000000000008152600401610e4890612fdd565b60405180910390fd5b60008060019054906101000a900460ff161590508015610ea1576001600060016101000a81548160ff02191690831515021790555060016000806101000a81548160ff0219169083151502179055505b73cf88d09658dd442e6fa1d721c2d783a8199b8c06600060026101000a81548173ffffffffffffffffffffffffffffffffffffffff021916908373ffffffffffffffffffffffffffffffffffffffff16021790555073ac8578b232f08b6fec672adce63987f5c57c0249600160006101000a81548173ffffffffffffffffffffffffffffffffffffffff021916908373ffffffffffffffffffffffffffffffffffffffff16021790555073867df63d1eeaef93984250f78b4bd83c70652dce600260006101000a81548173ffffffffffffffffffffffffffffffffffffffff021916908373ffffffffffffffffffffffffffffffffffffffff160217905550600060029054906101000a900473ffffffffffffffffffffffffffffffffffffffff16600460006101000a81548173ffffffffffffffffffffffffffffffffffffffff021916908373ffffffffffffffffffffffffffffffffffffffff160217905550600160009054906101000a900473ffffffffffffffffffffffffffffffffffffffff16600560006101000a81548173ffffffffffffffffffffffffffffffffffffffff021916908373ffffffffffffffffffffffffffffffffffffffff16021790555080156110875760008060016101000a81548160ff0219169083151502179055505b50565b6000600382815481106110a05761109f612b12565b5b9060005260206000209060080201600301549050919050565b600381815481106110c957600080fd5b90600052602060002090600802016000915090508060000160009054906101000a900473ffffffffffffffffffffffffffffffffffffffff16908060010154908060020154908060030154908060040160009054906101000a900473ffffffffffffffffffffffffffffffffffffffff169080600501549080600601549080600701805461115690612cf9565b80601f016020809104026020016040519081016040528092919081815260200182805461118290612cf9565b80156111cf5780601f106111a4576101008083540402835291602001916111cf565b820191906000526020600020905b8154815290600101906020018083116111b257829003601f168201915b5050505050905088565b3373ffffffffffffffffffffffffffffffffffffffff166003838154811061120457611203612b12565b5b906000526020600020906008020160040160009054906101000a900473ffffffffffffffffffffffffffffffffffffffff1673ffffffffffffffffffffffffffffffffffffffff161461125657600080fd5b60405160200161126590612cb5565b604051602081830303815290604052805190602001206003838154811061128f5761128e612b12565b5b90600052602060002090600802016007016040516020016112b09190612dbf565b60405160208183030381529060405280519060200120146112d057600080fd5b80600560009054906101000a900473ffffffffffffffffffffffffffffffffffffffff1673ffffffffffffffffffffffffffffffffffffffff166370a08231306040518263ffffffff1660e01b815260040161132c91906126c0565b602060405180830381865afa158015611349573d6000803e3d6000fd5b505050506040513d601f19601f8201168201806040525081019061136d9190612f3e565b101561137857600080fd5b806003838154811061138d5761138c612b12565b5b9060005260206000209060080201600501546113a99190612dd6565b600383815481106113bd576113bc612b12565b5b906000526020600020906008020160050181905550600560009054906101000a900473ffffffffffffffffffffffffffffffffffffffff1673ffffffffffffffffffffffffffffffffffffffff166323b872dd3330846040518463ffffffff1660e01b815260040161143193929190612e2c565b6020604051808303816000875af1158015611450573d6000803e3d6000fd5b505050506040513d601f19601f820116820180604052508101906114749190612e9b565b505050565b60006003828154811061148f5761148e612b12565b5b9060005260206000209060080201600201549050919050565b6060600382815481106114be576114bd612b12565b5b906000526020600020906008020160070180546114da90612cf9565b80601f016020809104026020016040519081016040528092919081815260200182805461150690612cf9565b80156115535780601f1061152857610100808354040283529160200191611553565b820191906000526020600020905b81548152906001019060200180831161153657829003601f168201915b50505050509050919050565b3373ffffffffffffffffffffffffffffffffffffffff16600460009054906101000a900473ffffffffffffffffffffffffffffffffffffffff1673ffffffffffffffffffffffffffffffffffffffff16636352211e856040518263ffffffff1660e01b81526004016115d19190612935565b602060405180830381865afa1580156115ee573d6000803e3d6000fd5b505050506040513d601f19601f820116820180604052508101906116129190613012565b73ffffffffffffffffffffffffffffffffffffffff161461163257600080fd5b6000600380549050905060036040518061010001604052803373ffffffffffffffffffffffffffffffffffffffff168152602001868152602001858152602001848152602001600073ffffffffffffffffffffffffffffffffffffffff16815260200160008152602001600081526020016040518060400160405280600481526020017f4f70656e00000000000000000000000000000000000000000000000000000000815250815250908060018154018082558091505060019003906000526020600020906008020160009091909190915060008201518160000160006101000a81548173ffffffffffffffffffffffffffffffffffffffff021916908373ffffffffffffffffffffffffffffffffffffffff16021790555060208201518160010155604082015181600201556060820151816003015560808201518160040160006101000a81548173ffffffffffffffffffffffffffffffffffffffff021916908373ffffffffffffffffffffffffffffffffffffffff16021790555060a0820151816005015560c0820151816006015560e08201518160070190805190602001906117e1929190612565565b505050600460009054906101000a900473ffffffffffffffffffffffffffffffffffffffff1673ffffffffffffffffffffffffffffffffffffffff166342842e0e3330876040518463ffffffff1660e01b815260040161184393929190612e2c565b600060405180830381600087803b15801561185d57600080fd5b505af1158015611871573d6000803e3d6000fd5b505050507fc3e96d1275e81254d707531f5025b9b6d01f2bec370e5ff07979d37afbd3ee41816040516118a49190612935565b60405180910390a150505050565b3373ffffffffffffffffffffffffffffffffffffffff16600382815481106118dd576118dc612b12565b5b906000526020600020906008020160040160009054906101000a900473ffffffffffffffffffffffffffffffffffffffff1673ffffffffffffffffffffffffffffffffffffffff161461192f57600080fd5b60405160200161193e90612cb5565b604051602081830303815290604052805190602001206003828154811061196857611967612b12565b5b90600052602060002090600802016007016040516020016119899190612dbf565b60405160208183030381529060405280519060200120146119a957600080fd5b3373ffffffffffffffffffffffffffffffffffffffff16600460009054906101000a900473ffffffffffffffffffffffffffffffffffffffff1673ffffffffffffffffffffffffffffffffffffffff16636352211e60038481548110611a1257611a11612b12565b5b9060005260206000209060080201600101546040518263ffffffff1660e01b8152600401611a409190612935565b602060405180830381865afa158015611a5d573d6000803e3d6000fd5b505050506040513d601f19601f82011682018060405250810190611a819190613012565b73ffffffffffffffffffffffffffffffffffffffff1614611aa157600080fd5b60038181548110611ab557611ab4612b12565b5b906000526020600020906008020160050154600560009054906101000a900473ffffffffffffffffffffffffffffffffffffffff1673ffffffffffffffffffffffffffffffffffffffff166370a08231306040518263ffffffff1660e01b8152600401611b2291906126c0565b602060405180830381865afa158015611b3f573d6000803e3d6000fd5b505050506040513d601f19601f82011682018060405250810190611b639190612f3e565b1015611b6e57600080fd5b600060038281548110611b8457611b83612b12565b5b9060005260206000209060080201600601541415611ba157600080fd5b6000610e1060038381548110611bba57611bb9612b12565b5b90600052602060002090600802016006015442611bd79190612b70565b1015611c1657601860038381548110611bf357611bf2612b12565b5b906000526020600020906008020160030154611c0f9190612bd3565b9050611c88565b60038281548110611c2a57611c29612b12565b5b9060005260206000209060080201600301546201518060038481548110611c5457611c53612b12565b5b90600052602060002090600802016006015442611c719190612b70565b611c7b9190612bd3565b611c859190612c04565b90505b60038281548110611c9c57611c9b612b12565b5b90600052602060002090600802016002015481611cb99190612dd6565b60038381548110611ccd57611ccc612b12565b5b90600052602060002090600802016005015411611ce957600080fd5b600560009054906101000a900473ffffffffffffffffffffffffffffffffffffffff1673ffffffffffffffffffffffffffffffffffffffff166323b872dd3060038581548110611d3c57611d3b612b12565b5b906000526020600020906008020160000160009054906101000a900473ffffffffffffffffffffffffffffffffffffffff166064606086611d7d9190612c04565b611d879190612bd3565b6040518463ffffffff1660e01b8152600401611da593929190612e2c565b6020604051808303816000875af1158015611dc4573d6000803e3d6000fd5b505050506040513d601f19601f82011682018060405250810190611de89190612e9b565b50600560009054906101000a900473ffffffffffffffffffffffffffffffffffffffff1673ffffffffffffffffffffffffffffffffffffffff166323b872dd30600260009054906101000a900473ffffffffffffffffffffffffffffffffffffffff166064600486611e5a9190612c04565b611e649190612bd3565b6040518463ffffffff1660e01b8152600401611e8293929190612e2c565b6020604051808303816000875af1158015611ea1573d6000803e3d6000fd5b505050506040513d601f19601f82011682018060405250810190611ec59190612e9b565b50600560009054906101000a900473ffffffffffffffffffffffffffffffffffffffff1673ffffffffffffffffffffffffffffffffffffffff166323b872dd30338460038781548110611f1b57611f1a612b12565b5b906000526020600020906008020160050154611f379190612b70565b6040518463ffffffff1660e01b8152600401611f5593929190612e2c565b6020604051808303816000875af1158015611f74573d6000803e3d6000fd5b505050506040513d601f19601f82011682018060405250810190611f989190612e9b565b50600460009054906101000a900473ffffffffffffffffffffffffffffffffffffffff1673ffffffffffffffffffffffffffffffffffffffff166342842e0e333060038681548110611fed57611fec612b12565b5b9060005260206000209060080201600101546040518463ffffffff1660e01b815260040161201d93929190612e2c565b600060405180830381600087803b15801561203757600080fd5b505af115801561204b573d6000803e3d6000fd5b5050505060006003838154811061206557612064612b12565b5b906000526020600020906008020160040160006101000a81548173ffffffffffffffffffffffffffffffffffffffff021916908373ffffffffffffffffffffffffffffffffffffffff1602179055506000600383815481106120ca576120c9612b12565b5b9060005260206000209060080201600501819055506000600383815481106120f5576120f4612b12565b5b9060005260206000209060080201600601819055506040518060400160405280600481526020017f4f70656e000000000000000000000000000000000000000000000000000000008152506003838154811061215457612153612b12565b5b90600052602060002090600802016007019080519060200190612178929190612565565b507faa71c084a2a0d0c3b0fd624bd5d5b3b3683bd753a7a645d1902cfd8174278426826040516121a89190612935565b60405180910390a15050565b6000600382815481106121ca576121c9612b12565b5b9060005260206000209060080201600601549050919050565b3373ffffffffffffffffffffffffffffffffffffffff166003828154811061220e5761220d612b12565b5b906000526020600020906008020160000160009054906101000a900473ffffffffffffffffffffffffffffffffffffffff1673ffffffffffffffffffffffffffffffffffffffff161461226057600080fd5b3073ffffffffffffffffffffffffffffffffffffffff16600460009054906101000a900473ffffffffffffffffffffffffffffffffffffffff1673ffffffffffffffffffffffffffffffffffffffff16636352211e600384815481106122c9576122c8612b12565b5b9060005260206000209060080201600101546040518263ffffffff1660e01b81526004016122f79190612935565b602060405180830381865afa158015612314573d6000803e3d6000fd5b505050506040513d601f19601f820116820180604052508101906123389190613012565b73ffffffffffffffffffffffffffffffffffffffff161461235857600080fd5b60405160200161236790612f14565b604051602081830303815290604052805190602001206003828154811061239157612390612b12565b5b90600052602060002090600802016007016040516020016123b29190612dbf565b60405160208183030381529060405280519060200120146123d257600080fd5b6040518060400160405280600981526020017f43616e63656c6c656400000000000000000000000000000000000000000000008152506003828154811061241c5761241b612b12565b5b90600052602060002090600802016007019080519060200190612440929190612565565b50600460009054906101000a900473ffffffffffffffffffffffffffffffffffffffff1673ffffffffffffffffffffffffffffffffffffffff166342842e0e30336003858154811061249557612494612b12565b5b9060005260206000209060080201600101546040518463ffffffff1660e01b81526004016124c593929190612e2c565b600060405180830381600087803b1580156124df57600080fd5b505af11580156124f3573d6000803e3d6000fd5b505050507f4e455dbee07370885b62f673891219a5fee0380b3da49d8bcae6297dc345cde0816040516125269190612935565b60405180910390a150565b600061253c30612542565b15905090565b6000808273ffffffffffffffffffffffffffffffffffffffff163b119050919050565b82805461257190612cf9565b90600052602060002090601f01602090048101928261259357600085556125da565b82601f106125ac57805160ff19168380011785556125da565b828001600101855582156125da579182015b828111156125d95782518255916020019190600101906125be565b5b5090506125e791906125eb565b5090565b5b808211156126045760008160009055506001016125ec565b5090565b6000604051905090565b600080fd5b600080fd5b6000819050919050565b61262f8161261c565b811461263a57600080fd5b50565b60008135905061264c81612626565b92915050565b60006020828403121561266857612667612612565b5b60006126768482850161263d565b91505092915050565b600073ffffffffffffffffffffffffffffffffffffffff82169050919050565b60006126aa8261267f565b9050919050565b6126ba8161269f565b82525050565b60006020820190506126d560008301846126b1565b92915050565b6126e48161269f565b81146126ef57600080fd5b50565b600081359050612701816126db565b92915050565b600080fd5b600080fd5b6000601f19601f8301169050919050565b7f4e487b7100000000000000000000000000000000000000000000000000000000600052604160045260246000fd5b61275a82612711565b810181811067ffffffffffffffff8211171561277957612778612722565b5b80604052505050565b600061278c612608565b90506127988282612751565b919050565b600067ffffffffffffffff8211156127b8576127b7612722565b5b6127c182612711565b9050602081019050919050565b82818337600083830152505050565b60006127f06127eb8461279d565b612782565b90508281526020810184848401111561280c5761280b61270c565b5b6128178482856127ce565b509392505050565b600082601f83011261283457612833612707565b5b81356128448482602086016127dd565b91505092915050565b6000806000806080858703121561286757612866612612565b5b6000612875878288016126f2565b9450506020612886878288016126f2565b93505060406128978782880161263d565b925050606085013567ffffffffffffffff8111156128b8576128b7612617565b5b6128c48782880161281f565b91505092959194509250565b60007fffffffff0000000000000000000000000000000000000000000000000000000082169050919050565b612905816128d0565b82525050565b600060208201905061292060008301846128fc565b92915050565b61292f8161261c565b82525050565b600060208201905061294a6000830184612926565b92915050565b6000806040838503121561296757612966612612565b5b60006129758582860161263d565b92505060206129868582860161263d565b9150509250929050565b600081519050919050565b600082825260208201905092915050565b60005b838110156129ca5780820151818401526020810190506129af565b838111156129d9576000848401525b50505050565b60006129ea82612990565b6129f4818561299b565b9350612a048185602086016129ac565b612a0d81612711565b840191505092915050565b600061010082019050612a2e600083018b6126b1565b612a3b602083018a612926565b612a486040830189612926565b612a556060830188612926565b612a6260808301876126b1565b612a6f60a0830186612926565b612a7c60c0830185612926565b81810360e0830152612a8e81846129df565b90509998505050505050505050565b60006020820190508181036000830152612ab781846129df565b905092915050565b600080600060608486031215612ad857612ad7612612565b5b6000612ae68682870161263d565b9350506020612af78682870161263d565b9250506040612b088682870161263d565b9150509250925092565b7f4e487b7100000000000000000000000000000000000000000000000000000000600052603260045260246000fd5b7f4e487b7100000000000000000000000000000000000000000000000000000000600052601160045260246000fd5b6000612b7b8261261c565b9150612b868361261c565b925082821015612b9957612b98612b41565b5b828203905092915050565b7f4e487b7100000000000000000000000000000000000000000000000000000000600052601260045260246000fd5b6000612bde8261261c565b9150612be98361261c565b925082612bf957612bf8612ba4565b5b828204905092915050565b6000612c0f8261261c565b9150612c1a8361261c565b9250817fffffffffffffffffffffffffffffffffffffffffffffffffffffffffffffffff0483118215151615612c5357612c52612b41565b5b828202905092915050565b600081905092915050565b7f4f6e000000000000000000000000000000000000000000000000000000000000600082015250565b6000612c9f600283612c5e565b9150612caa82612c69565b600282019050919050565b6000612cc082612c92565b9150819050919050565b7f4e487b7100000000000000000000000000000000000000000000000000000000600052602260045260246000fd5b60006002820490506001821680612d1157607f821691505b60208210811415612d2557612d24612cca565b5b50919050565b60008190508160005260206000209050919050565b60008154612d4d81612cf9565b612d578186612c5e565b94506001821660008114612d725760018114612d8357612db6565b60ff19831686528186019350612db6565b612d8c85612d2b565b60005b83811015612dae57815481890152600182019150602081019050612d8f565b838801955050505b50505092915050565b6000612dcb8284612d40565b915081905092915050565b6000612de18261261c565b9150612dec8361261c565b9250827fffffffffffffffffffffffffffffffffffffffffffffffffffffffffffffffff03821115612e2157612e20612b41565b5b828201905092915050565b6000606082019050612e4160008301866126b1565b612e4e60208301856126b1565b612e5b6040830184612926565b949350505050565b60008115159050919050565b612e7881612e63565b8114612e8357600080fd5b50565b600081519050612e9581612e6f565b92915050565b600060208284031215612eb157612eb0612612565b5b6000612ebf84828501612e86565b91505092915050565b7f4f70656e00000000000000000000000000000000000000000000000000000000600082015250565b6000612efe600483612c5e565b9150612f0982612ec8565b600482019050919050565b6000612f1f82612ef1565b9150819050919050565b600081519050612f3881612626565b92915050565b600060208284031215612f5457612f53612612565b5b6000612f6284828501612f29565b91505092915050565b7f496e697469616c697a61626c653a20636f6e747261637420697320616c72656160008201527f647920696e697469616c697a6564000000000000000000000000000000000000602082015250565b6000612fc7602e8361299b565b9150612fd282612f6b565b604082019050919050565b60006020820190508181036000830152612ff681612fba565b9050919050565b60008151905061300c816126db565b92915050565b60006020828403121561302857613027612612565b5b600061303684828501612ffd565b9150509291505056fea2646970667358221220ededcae9b8a269c52f18483de6e12444cb88d325a5559573d84c3526824d68cf64736f6c634300080c0033",
  "immutableReferences": {},
  "source": "// SPDX-License-Identifier: UNLICENSED\r\n\r\npragma solidity ^0.8.3;\r\n\r\nimport \"./AbstractHero.sol\";\r\nimport \"./AbstractJewel.sol\";\r\nimport \"../node_modules/@openzeppelin/contracts/token/ERC721/utils/ERC721Holder.sol\";\r\nimport \"../node_modules/@openzeppelin/contracts-upgradeable/proxy/utils/Initializable.sol\";\r\n\r\ncontract HeroLending is Initializable, ERC721Holder {\r\n\r\n    event NewOffer(uint offerId);\r\n    event CancelOffer(uint offerId);\r\n    event AcceptOffer(uint offerId);\r\n    event RepayOffer(uint offerId);\r\n    event Liquidate(uint offerId);\r\n\r\n    struct Offer {\r\n        address owner;\r\n        uint heroId;\r\n        uint liquidation;\r\n        uint dailyFee;\r\n\r\n        address borrower;\r\n        uint collateral;\r\n        uint acceptTime;\r\n\r\n        string status;\r\n    }\r\n\r\n    address HeroAddress;\r\n    address JewelAddress;\r\n    address PayOutAddress;\r\n    Offer[] public offers;\r\n    AbstractHero hero;\r\n    AbstractJewel jewel;\r\n\r\n    function initialize() initializer public {\r\n        HeroAddress = 0xCF88D09658dD442E6FA1d721C2d783a8199B8c06;\r\n        JewelAddress = 0xAc8578b232f08b6FeC672adCe63987f5c57c0249;\r\n        PayOutAddress = 0x867df63D1eEAEF93984250f78B4bd83C70652dcE;\r\n        hero = AbstractHero(HeroAddress);\r\n        jewel = AbstractJewel(JewelAddress);\r\n    }\r\n\r\n    //View Functions\r\n\r\n    function offerOwner(uint offerId) public view returns (address) {\r\n        return offers[offerId].owner;\r\n    }\r\n\r\n    function offerHeroId(uint offerId) public view returns (uint) {\r\n        return offers[offerId].heroId;\r\n    }\r\n\r\n    function offerLiquidation(uint offerId) public view returns (uint) {\r\n        return offers[offerId].liquidation;\r\n    }\r\n\r\n    function offerDailyFee(uint offerId) public view returns (uint) {\r\n        return offers[offerId].dailyFee;\r\n    }\r\n\r\n\r\n\r\n    function offerBorrower(uint offerId) public view returns (address) {\r\n        return offers[offerId].borrower;\r\n    }\r\n\r\n    function offerCollateral(uint offerId) public view returns (uint) {\r\n        return offers[offerId].collateral;\r\n    }\r\n\r\n    function offerAcceptTime(uint offerId) public view returns (uint) {\r\n        return offers[offerId].acceptTime;\r\n    }\r\n\r\n\r\n\r\n    function offerStatus(uint offerId) public view returns (string memory) {\r\n        return offers[offerId].status;\r\n    }\r\n\r\n    function offersQuantity() public view returns (uint) {\r\n        uint quantity = offers.length;\r\n        return quantity;\r\n    }\r\n\r\n    //Main Functions\r\n\r\n    function createOffer(uint heroId, uint liquidation, uint fee) public {\r\n        require(hero.ownerOf(heroId) == msg.sender);\r\n\r\n        uint offerId = offers.length;\r\n        offers.push(Offer(msg.sender, heroId, liquidation, fee, address(0), 0, 0, \"Open\"));\r\n        hero.safeTransferFrom(msg.sender, address(this), heroId);\r\n        emit NewOffer(offerId);\r\n    }\r\n\r\n    function cancelOffer(uint offerId) public {\r\n        require(offers[offerId].owner == msg.sender);\r\n        require(hero.ownerOf(offers[offerId].heroId) == address(this));\r\n        require(keccak256(abi.encodePacked(offers[offerId].status)) == keccak256(abi.encodePacked(\"Open\")));\r\n\r\n        offers[offerId].status = \"Cancelled\";\r\n        hero.safeTransferFrom(address(this), msg.sender, offers[offerId].heroId);\r\n        emit CancelOffer(offerId);\r\n    }\r\n\r\n    function acceptOffer(uint offerId, uint collateral) public {\r\n        require(offers[offerId].owner != msg.sender);\r\n        require(keccak256(abi.encodePacked(offers[offerId].status)) == keccak256(abi.encodePacked(\"Open\")));\r\n        uint minimumFee = offers[offerId].dailyFee/24;\r\n        require(collateral > offers[offerId].liquidation + minimumFee);\r\n        require(jewel.balanceOf(msg.sender) >= collateral);\r\n\r\n        offers[offerId].status = \"On\";\r\n        offers[offerId].borrower = msg.sender;\r\n        offers[offerId].collateral = collateral;\r\n        offers[offerId].acceptTime = block.timestamp;\r\n        jewel.transferFrom(msg.sender, address(this), collateral);\r\n        hero.safeTransferFrom(address(this), msg.sender, offers[offerId].heroId);\r\n        emit AcceptOffer(offerId);\r\n    }\r\n\r\n    function repayOffer(uint offerId) public {\r\n        require(offers[offerId].borrower == msg.sender);\r\n        require(keccak256(abi.encodePacked(offers[offerId].status)) == keccak256(abi.encodePacked(\"On\")));\r\n        require(hero.ownerOf(offers[offerId].heroId) == msg.sender);\r\n        require(jewel.balanceOf(address(this)) >= offers[offerId].collateral);\r\n        require(offers[offerId].acceptTime != 0);\r\n        uint feeToPay;\r\n        //minimum Fee is at least 1 hour\r\n        if (block.timestamp - offers[offerId].acceptTime < 60*60) {\r\n            feeToPay = offers[offerId].dailyFee/24;\r\n        } else {\r\n            feeToPay = ((block.timestamp - offers[offerId].acceptTime)/(60*60*24))*offers[offerId].dailyFee;\r\n        }\r\n        // User is not liquidated\r\n        require(offers[offerId].collateral > feeToPay + offers[offerId].liquidation);\r\n\r\n        jewel.transferFrom(address(this), offers[offerId].owner, feeToPay*96/100);\r\n        jewel.transferFrom(address(this), PayOutAddress, feeToPay*4/100);\r\n        jewel.transferFrom(address(this), msg.sender, offers[offerId].collateral - feeToPay);\r\n        hero.safeTransferFrom(msg.sender, address(this), offers[offerId].heroId);\r\n\r\n        offers[offerId].borrower = address(0);\r\n        offers[offerId].collateral = 0;\r\n        offers[offerId].acceptTime = 0;\r\n        offers[offerId].status = \"Open\";\r\n        emit RepayOffer(offerId);\r\n    }\r\n\r\n    function addCollateral(uint offerId, uint extraCollateral) public {\r\n        require(offers[offerId].borrower == msg.sender);\r\n        require(keccak256(abi.encodePacked(offers[offerId].status)) == keccak256(abi.encodePacked(\"On\")));\r\n        require(jewel.balanceOf(address(this)) >= extraCollateral);\r\n\r\n        offers[offerId].collateral = offers[offerId].collateral + extraCollateral;\r\n        jewel.transferFrom(msg.sender, address(this), extraCollateral);\r\n    }\r\n\r\n    function liquidate(uint offerId) public {\r\n        uint feeToPay = ((block.timestamp - offers[offerId].acceptTime)/(60*60*24))*offers[offerId].dailyFee;\r\n        require(keccak256(abi.encodePacked(offers[offerId].status)) == keccak256(abi.encodePacked(\"On\")));\r\n        require(offers[offerId].collateral < feeToPay+offers[offerId].liquidation);\r\n\r\n        offers[offerId].status = \"Liquidated\";\r\n        jewel.transferFrom(address(this), offers[offerId].owner, offers[offerId].collateral*90/100);\r\n        jewel.transferFrom(address(this), PayOutAddress, offers[offerId].collateral*10/100);\r\n        emit Liquidate(offerId);\r\n    }\r\n}",
  "sourcePath": "C:\\Users\\jtsch\\OneDrive\\Escritorio\\DFK-Lending\\DFK-Lending-SmartContracts\\contracts\\HeroLending.sol",
  "compiler": {
    "name": "solc",
    "version": "0.8.12+commit.f00d7308.Emscripten.clang"
  },
  "schemaVersion": "3.4.3",
  "updatedAt": "2022-02-17T14:58:58.942Z",
  "networkType": "ethereum",
  "devdoc": {
    "kind": "dev",
    "methods": {
      "onERC721Received(address,address,uint256,bytes)": {
        "details": "See {IERC721Receiver-onERC721Received}. Always returns `IERC721Receiver.onERC721Received.selector`."
      }
    },
    "version": 1
  },
  "userdoc": {
    "kind": "user",
    "methods": {},
    "version": 1
  }
}