{
  "contractName": "HeroLendingUpgradeable",
  "abi": [
    {
      "anonymous": false,
      "inputs": [
        {
          "indexed": false,
          "internalType": "uint256",
          "name": "offerId",
          "type": "uint256"
        }
      ],
      "name": "AcceptOffer",
      "type": "event"
    },
    {
      "anonymous": false,
      "inputs": [
        {
          "indexed": false,
          "internalType": "uint256",
          "name": "offerId",
          "type": "uint256"
        }
      ],
      "name": "CancelOffer",
      "type": "event"
    },
    {
      "anonymous": false,
      "inputs": [
        {
          "indexed": false,
          "internalType": "uint256",
          "name": "offerId",
          "type": "uint256"
        }
      ],
      "name": "Liquidate",
      "type": "event"
    },
    {
      "anonymous": false,
      "inputs": [
        {
          "indexed": false,
          "internalType": "uint256",
          "name": "offerId",
          "type": "uint256"
        }
      ],
      "name": "NewOffer",
      "type": "event"
    },
    {
      "anonymous": false,
      "inputs": [
        {
          "indexed": false,
          "internalType": "uint256",
          "name": "offerId",
          "type": "uint256"
        }
      ],
      "name": "RepayOffer",
      "type": "event"
    },
    {
      "inputs": [
        {
          "internalType": "uint256",
          "name": "",
          "type": "uint256"
        }
      ],
      "name": "offers",
      "outputs": [
        {
          "internalType": "address",
          "name": "owner",
          "type": "address"
        },
        {
          "internalType": "uint256",
          "name": "heroId",
          "type": "uint256"
        },
        {
          "internalType": "uint256",
          "name": "liquidation",
          "type": "uint256"
        },
        {
          "internalType": "uint256",
          "name": "dailyFee",
          "type": "uint256"
        },
        {
          "internalType": "address",
          "name": "borrower",
          "type": "address"
        },
        {
          "internalType": "uint256",
          "name": "collateral",
          "type": "uint256"
        },
        {
          "internalType": "uint256",
          "name": "acceptTime",
          "type": "uint256"
        },
        {
          "internalType": "string",
          "name": "status",
          "type": "string"
        }
      ],
      "stateMutability": "view",
      "type": "function"
    },
    {
      "inputs": [
        {
          "internalType": "address",
          "name": "",
          "type": "address"
        },
        {
          "internalType": "address",
          "name": "",
          "type": "address"
        },
        {
          "internalType": "uint256",
          "name": "",
          "type": "uint256"
        },
        {
          "internalType": "bytes",
          "name": "",
          "type": "bytes"
        }
      ],
      "name": "onERC721Received",
      "outputs": [
        {
          "internalType": "bytes4",
          "name": "",
          "type": "bytes4"
        }
      ],
      "stateMutability": "nonpayable",
      "type": "function"
    },
    {
      "inputs": [],
      "name": "initialize",
      "outputs": [],
      "stateMutability": "nonpayable",
      "type": "function"
    },
    {
      "inputs": [
        {
          "internalType": "uint256",
          "name": "offerId",
          "type": "uint256"
        }
      ],
      "name": "offerOwner",
      "outputs": [
        {
          "internalType": "address",
          "name": "",
          "type": "address"
        }
      ],
      "stateMutability": "view",
      "type": "function"
    },
    {
      "inputs": [
        {
          "internalType": "uint256",
          "name": "offerId",
          "type": "uint256"
        }
      ],
      "name": "offerHeroId",
      "outputs": [
        {
          "internalType": "uint256",
          "name": "",
          "type": "uint256"
        }
      ],
      "stateMutability": "view",
      "type": "function"
    },
    {
      "inputs": [
        {
          "internalType": "uint256",
          "name": "offerId",
          "type": "uint256"
        }
      ],
      "name": "offerLiquidation",
      "outputs": [
        {
          "internalType": "uint256",
          "name": "",
          "type": "uint256"
        }
      ],
      "stateMutability": "view",
      "type": "function"
    },
    {
      "inputs": [
        {
          "internalType": "uint256",
          "name": "offerId",
          "type": "uint256"
        }
      ],
      "name": "offerDailyFee",
      "outputs": [
        {
          "internalType": "uint256",
          "name": "",
          "type": "uint256"
        }
      ],
      "stateMutability": "view",
      "type": "function"
    },
    {
      "inputs": [
        {
          "internalType": "uint256",
          "name": "offerId",
          "type": "uint256"
        }
      ],
      "name": "offerBorrower",
      "outputs": [
        {
          "internalType": "address",
          "name": "",
          "type": "address"
        }
      ],
      "stateMutability": "view",
      "type": "function"
    },
    {
      "inputs": [
        {
          "internalType": "uint256",
          "name": "offerId",
          "type": "uint256"
        }
      ],
      "name": "offerCollateral",
      "outputs": [
        {
          "internalType": "uint256",
          "name": "",
          "type": "uint256"
        }
      ],
      "stateMutability": "view",
      "type": "function"
    },
    {
      "inputs": [
        {
          "internalType": "uint256",
          "name": "offerId",
          "type": "uint256"
        }
      ],
      "name": "offerAcceptTime",
      "outputs": [
        {
          "internalType": "uint256",
          "name": "",
          "type": "uint256"
        }
      ],
      "stateMutability": "view",
      "type": "function"
    },
    {
      "inputs": [
        {
          "internalType": "uint256",
          "name": "offerId",
          "type": "uint256"
        }
      ],
      "name": "offerStatus",
      "outputs": [
        {
          "internalType": "string",
          "name": "",
          "type": "string"
        }
      ],
      "stateMutability": "view",
      "type": "function"
    },
    {
      "inputs": [],
      "name": "offersQuantity",
      "outputs": [
        {
          "internalType": "uint256",
          "name": "",
          "type": "uint256"
        }
      ],
      "stateMutability": "view",
      "type": "function"
    },
    {
      "inputs": [
        {
          "internalType": "uint256",
          "name": "heroId",
          "type": "uint256"
        },
        {
          "internalType": "uint256",
          "name": "liquidation",
          "type": "uint256"
        },
        {
          "internalType": "uint256",
          "name": "fee",
          "type": "uint256"
        }
      ],
      "name": "createOffer",
      "outputs": [],
      "stateMutability": "nonpayable",
      "type": "function"
    },
    {
      "inputs": [
        {
          "internalType": "uint256",
          "name": "offerId",
          "type": "uint256"
        }
      ],
      "name": "cancelOffer",
      "outputs": [],
      "stateMutability": "nonpayable",
      "type": "function"
    },
    {
      "inputs": [
        {
          "internalType": "uint256",
          "name": "offerId",
          "type": "uint256"
        },
        {
          "internalType": "uint256",
          "name": "collateral",
          "type": "uint256"
        }
      ],
      "name": "acceptOffer",
      "outputs": [],
      "stateMutability": "nonpayable",
      "type": "function"
    },
    {
      "inputs": [
        {
          "internalType": "uint256",
          "name": "offerId",
          "type": "uint256"
        }
      ],
      "name": "repayOffer",
      "outputs": [],
      "stateMutability": "nonpayable",
      "type": "function"
    },
    {
      "inputs": [
        {
          "internalType": "uint256",
          "name": "offerId",
          "type": "uint256"
        },
        {
          "internalType": "uint256",
          "name": "extraCollateral",
          "type": "uint256"
        }
      ],
      "name": "addCollateral",
      "outputs": [],
      "stateMutability": "nonpayable",
      "type": "function"
    },
    {
      "inputs": [
        {
          "internalType": "uint256",
          "name": "offerId",
          "type": "uint256"
        }
      ],
      "name": "liquidate",
      "outputs": [],
      "stateMutability": "nonpayable",
      "type": "function"
    }
  ],
  "bytecode": "0x608060405234801561001057600080fd5b50613304806100206000396000f3fe608060405234801561001057600080fd5b50600436106101165760003560e01c80638388495e116100a2578063d843b2c711610071578063d843b2c71461031e578063dc35a9001461034e578063e121e6e51461036a578063eeeb357e14610386578063ef706adf146103b657610116565b80638388495e1461026b5780638a72ea6a1461029b578063a8f35adf146102d2578063cb0cebbd146102ee57610116565b80635b61913f116100e95780635b61913f146101c75780635e7b52a1146101f75780636b4292161461022757806381257bd5146102455780638129fc1c1461026157610116565b806306bf6d551461011b578063150b7a021461014b57806328bc02cc1461017b578063415f1240146101ab575b600080fd5b6101356004803603810190610130919061284c565b6103d2565b60405161014291906128ba565b60405180910390f35b61016560048036038101906101609190612a47565b610421565b6040516101729190612b05565b60405180910390f35b6101956004803603810190610190919061284c565b610435565b6040516101a291906128ba565b60405180910390f35b6101c560048036038101906101c0919061284c565b610484565b005b6101e160048036038101906101dc919061284c565b6108f5565b6040516101ee9190612b2f565b60405180910390f35b610211600480360381019061020c919061284c565b610924565b60405161021e9190612b2f565b60405180910390f35b61022f610953565b60405161023c9190612b2f565b60405180910390f35b61025f600480360381019061025a9190612b4a565b610965565b005b610269610e89565b005b6102856004803603810190610280919061284c565b611132565b6040516102929190612b2f565b60405180910390f35b6102b560048036038101906102b0919061284c565b611161565b6040516102c9989796959493929190612c12565b60405180910390f35b6102ec60048036038101906102e79190612b4a565b611281565b005b6103086004803603810190610303919061284c565b611577565b6040516103159190612b2f565b60405180910390f35b6103386004803603810190610333919061284c565b6115a6565b6040516103459190612c97565b60405180910390f35b61036860048036038101906103639190612cb9565b61165d565b005b610384600480360381019061037f919061284c565b611a06565b005b6103a0600480360381019061039b919061284c565b612358565b6040516103ad9190612b2f565b60405180910390f35b6103d060048036038101906103cb919061284c565b612387565b005b6000606882815481106103e8576103e7612d0c565b5b906000526020600020906008020160040160009054906101000a900473ffffffffffffffffffffffffffffffffffffffff169050919050565b600063150b7a0260e01b9050949350505050565b60006068828154811061044b5761044a612d0c565b5b906000526020600020906008020160000160009054906101000a900473ffffffffffffffffffffffffffffffffffffffff169050919050565b600260335414156104ca576040517f08c379a00000000000000000000000000000000000000000000000000000000081526004016104c190612d87565b60405180910390fd5b60026033819055506000606882815481106104e8576104e7612d0c565b5b906000526020600020906008020160030154620151806068848154811061051257610511612d0c565b5b9060005260206000209060080201600601544261052f9190612dd6565b6105399190612e39565b6105439190612e6a565b905060405160200161055490612f1b565b604051602081830303815290604052805190602001206068838154811061057e5761057d612d0c565b5b906000526020600020906008020160070160405160200161059f9190613025565b60405160208183030381529060405280519060200120146105bf57600080fd5b606882815481106105d3576105d2612d0c565b5b906000526020600020906008020160020154816105f0919061303c565b6068838154811061060457610603612d0c565b5b9060005260206000209060080201600501541061062057600080fd5b6040518060400160405280600a81526020017f4c697175696461746564000000000000000000000000000000000000000000008152506068838154811061066a57610669612d0c565b5b9060005260206000209060080201600701908051906020019061068e92919061275f565b50606a60009054906101000a900473ffffffffffffffffffffffffffffffffffffffff1673ffffffffffffffffffffffffffffffffffffffff1663a9059cbb606884815481106106e1576106e0612d0c565b5b906000526020600020906008020160000160009054906101000a900473ffffffffffffffffffffffffffffffffffffffff166064605a6068878154811061072b5761072a612d0c565b5b9060005260206000209060080201600501546107479190612e6a565b6107519190612e39565b6040518363ffffffff1660e01b815260040161076e929190613092565b6020604051808303816000875af115801561078d573d6000803e3d6000fd5b505050506040513d601f19601f820116820180604052508101906107b191906130f3565b50606a60009054906101000a900473ffffffffffffffffffffffffffffffffffffffff1673ffffffffffffffffffffffffffffffffffffffff1663a9059cbb606760009054906101000a900473ffffffffffffffffffffffffffffffffffffffff166064600a6068878154811061082b5761082a612d0c565b5b9060005260206000209060080201600501546108479190612e6a565b6108519190612e39565b6040518363ffffffff1660e01b815260040161086e929190613092565b6020604051808303816000875af115801561088d573d6000803e3d6000fd5b505050506040513d601f19601f820116820180604052508101906108b191906130f3565b507fafe8025042fe09457744b5a74c64737289309ac0970116f6efcebcb38b4dc591826040516108e19190612b2f565b60405180910390a150600160338190555050565b60006068828154811061090b5761090a612d0c565b5b9060005260206000209060080201600101549050919050565b60006068828154811061093a57610939612d0c565b5b9060005260206000209060080201600501549050919050565b60008060688054905090508091505090565b600260335414156109ab576040517f08c379a00000000000000000000000000000000000000000000000000000000081526004016109a290612d87565b60405180910390fd5b60026033819055503373ffffffffffffffffffffffffffffffffffffffff16606883815481106109de576109dd612d0c565b5b906000526020600020906008020160000160009054906101000a900473ffffffffffffffffffffffffffffffffffffffff1673ffffffffffffffffffffffffffffffffffffffff161415610a3157600080fd5b604051602001610a409061316c565b6040516020818303038152906040528051906020012060688381548110610a6a57610a69612d0c565b5b9060005260206000209060080201600701604051602001610a8b9190613025565b6040516020818303038152906040528051906020012014610aab57600080fd5b6000601860688481548110610ac357610ac2612d0c565b5b906000526020600020906008020160030154610adf9190612e39565b90508060688481548110610af657610af5612d0c565b5b906000526020600020906008020160020154610b12919061303c565b8211610b1d57600080fd5b81606a60009054906101000a900473ffffffffffffffffffffffffffffffffffffffff1673ffffffffffffffffffffffffffffffffffffffff166370a08231336040518263ffffffff1660e01b8152600401610b7991906128ba565b602060405180830381865afa158015610b96573d6000803e3d6000fd5b505050506040513d601f19601f82011682018060405250810190610bba9190613196565b1015610bc557600080fd5b6040518060400160405280600281526020017f4f6e00000000000000000000000000000000000000000000000000000000000081525060688481548110610c0f57610c0e612d0c565b5b90600052602060002090600802016007019080519060200190610c3392919061275f565b503360688481548110610c4957610c48612d0c565b5b906000526020600020906008020160040160006101000a81548173ffffffffffffffffffffffffffffffffffffffff021916908373ffffffffffffffffffffffffffffffffffffffff1602179055508160688481548110610cad57610cac612d0c565b5b9060005260206000209060080201600501819055504260688481548110610cd757610cd6612d0c565b5b906000526020600020906008020160060181905550606a60009054906101000a900473ffffffffffffffffffffffffffffffffffffffff1673ffffffffffffffffffffffffffffffffffffffff166323b872dd3330856040518463ffffffff1660e01b8152600401610d4b939291906131c3565b6020604051808303816000875af1158015610d6a573d6000803e3d6000fd5b505050506040513d601f19601f82011682018060405250810190610d8e91906130f3565b50606960009054906101000a900473ffffffffffffffffffffffffffffffffffffffff1673ffffffffffffffffffffffffffffffffffffffff166342842e0e303360688781548110610de357610de2612d0c565b5b9060005260206000209060080201600101546040518463ffffffff1660e01b8152600401610e13939291906131c3565b600060405180830381600087803b158015610e2d57600080fd5b505af1158015610e41573d6000803e3d6000fd5b505050507fbcacf710aa41ccef04977c6de1df444984621e2bd0c86e0b001620ab014d187483604051610e749190612b2f565b60405180910390a15060016033819055505050565b600060019054906101000a900460ff16610eb15760008054906101000a900460ff1615610eba565b610eb961272b565b5b610ef9576040517f08c379a0000000000000000000000000000000000000000000000000000000008152600401610ef09061326c565b60405180910390fd5b60008060019054906101000a900460ff161590508015610f49576001600060016101000a81548160ff02191690831515021790555060016000806101000a81548160ff0219169083151502179055505b73cf88d09658dd442e6fa1d721c2d783a8199b8c06606560006101000a81548173ffffffffffffffffffffffffffffffffffffffff021916908373ffffffffffffffffffffffffffffffffffffffff16021790555073ac8578b232f08b6fec672adce63987f5c57c0249606660006101000a81548173ffffffffffffffffffffffffffffffffffffffff021916908373ffffffffffffffffffffffffffffffffffffffff16021790555073867df63d1eeaef93984250f78b4bd83c70652dce606760006101000a81548173ffffffffffffffffffffffffffffffffffffffff021916908373ffffffffffffffffffffffffffffffffffffffff160217905550606560009054906101000a900473ffffffffffffffffffffffffffffffffffffffff16606960006101000a81548173ffffffffffffffffffffffffffffffffffffffff021916908373ffffffffffffffffffffffffffffffffffffffff160217905550606660009054906101000a900473ffffffffffffffffffffffffffffffffffffffff16606a60006101000a81548173ffffffffffffffffffffffffffffffffffffffff021916908373ffffffffffffffffffffffffffffffffffffffff160217905550801561112f5760008060016101000a81548160ff0219169083151502179055505b50565b60006068828154811061114857611147612d0c565b5b9060005260206000209060080201600301549050919050565b6068818154811061117157600080fd5b90600052602060002090600802016000915090508060000160009054906101000a900473ffffffffffffffffffffffffffffffffffffffff16908060010154908060020154908060030154908060040160009054906101000a900473ffffffffffffffffffffffffffffffffffffffff16908060050154908060060154908060070180546111fe90612f5f565b80601f016020809104026020016040519081016040528092919081815260200182805461122a90612f5f565b80156112775780601f1061124c57610100808354040283529160200191611277565b820191906000526020600020905b81548152906001019060200180831161125a57829003601f168201915b5050505050905088565b600260335414156112c7576040517f08c379a00000000000000000000000000000000000000000000000000000000081526004016112be90612d87565b60405180910390fd5b60026033819055503373ffffffffffffffffffffffffffffffffffffffff16606883815481106112fa576112f9612d0c565b5b906000526020600020906008020160040160009054906101000a900473ffffffffffffffffffffffffffffffffffffffff1673ffffffffffffffffffffffffffffffffffffffff161461134c57600080fd5b60405160200161135b90612f1b565b604051602081830303815290604052805190602001206068838154811061138557611384612d0c565b5b90600052602060002090600802016007016040516020016113a69190613025565b60405160208183030381529060405280519060200120146113c657600080fd5b80606a60009054906101000a900473ffffffffffffffffffffffffffffffffffffffff1673ffffffffffffffffffffffffffffffffffffffff166370a08231306040518263ffffffff1660e01b815260040161142291906128ba565b602060405180830381865afa15801561143f573d6000803e3d6000fd5b505050506040513d601f19601f820116820180604052508101906114639190613196565b101561146e57600080fd5b806068838154811061148357611482612d0c565b5b90600052602060002090600802016005015461149f919061303c565b606883815481106114b3576114b2612d0c565b5b906000526020600020906008020160050181905550606a60009054906101000a900473ffffffffffffffffffffffffffffffffffffffff1673ffffffffffffffffffffffffffffffffffffffff166323b872dd3330846040518463ffffffff1660e01b8152600401611527939291906131c3565b6020604051808303816000875af1158015611546573d6000803e3d6000fd5b505050506040513d601f19601f8201168201806040525081019061156a91906130f3565b5060016033819055505050565b60006068828154811061158d5761158c612d0c565b5b9060005260206000209060080201600201549050919050565b6060606882815481106115bc576115bb612d0c565b5b906000526020600020906008020160070180546115d890612f5f565b80601f016020809104026020016040519081016040528092919081815260200182805461160490612f5f565b80156116515780601f1061162657610100808354040283529160200191611651565b820191906000526020600020905b81548152906001019060200180831161163457829003601f168201915b50505050509050919050565b600260335414156116a3576040517f08c379a000000000000000000000000000000000000000000000000000000000815260040161169a90612d87565b60405180910390fd5b60026033819055503373ffffffffffffffffffffffffffffffffffffffff16606960009054906101000a900473ffffffffffffffffffffffffffffffffffffffff1673ffffffffffffffffffffffffffffffffffffffff16636352211e856040518263ffffffff1660e01b815260040161171d9190612b2f565b602060405180830381865afa15801561173a573d6000803e3d6000fd5b505050506040513d601f19601f8201168201806040525081019061175e91906132a1565b73ffffffffffffffffffffffffffffffffffffffff161461177e57600080fd5b6000606880549050905060686040518061010001604052803373ffffffffffffffffffffffffffffffffffffffff168152602001868152602001858152602001848152602001600073ffffffffffffffffffffffffffffffffffffffff16815260200160008152602001600081526020016040518060400160405280600481526020017f4f70656e00000000000000000000000000000000000000000000000000000000815250815250908060018154018082558091505060019003906000526020600020906008020160009091909190915060008201518160000160006101000a81548173ffffffffffffffffffffffffffffffffffffffff021916908373ffffffffffffffffffffffffffffffffffffffff16021790555060208201518160010155604082015181600201556060820151816003015560808201518160040160006101000a81548173ffffffffffffffffffffffffffffffffffffffff021916908373ffffffffffffffffffffffffffffffffffffffff16021790555060a0820151816005015560c0820151816006015560e082015181600701908051906020019061192d92919061275f565b505050606960009054906101000a900473ffffffffffffffffffffffffffffffffffffffff1673ffffffffffffffffffffffffffffffffffffffff166342842e0e3330876040518463ffffffff1660e01b815260040161198f939291906131c3565b600060405180830381600087803b1580156119a957600080fd5b505af11580156119bd573d6000803e3d6000fd5b505050507fc3e96d1275e81254d707531f5025b9b6d01f2bec370e5ff07979d37afbd3ee41816040516119f09190612b2f565b60405180910390a1506001603381905550505050565b60026033541415611a4c576040517f08c379a0000000000000000000000000000000000000000000000000000000008152600401611a4390612d87565b60405180910390fd5b60026033819055503373ffffffffffffffffffffffffffffffffffffffff1660688281548110611a7f57611a7e612d0c565b5b906000526020600020906008020160040160009054906101000a900473ffffffffffffffffffffffffffffffffffffffff1673ffffffffffffffffffffffffffffffffffffffff1614611ad157600080fd5b604051602001611ae090612f1b565b6040516020818303038152906040528051906020012060688281548110611b0a57611b09612d0c565b5b9060005260206000209060080201600701604051602001611b2b9190613025565b6040516020818303038152906040528051906020012014611b4b57600080fd5b3373ffffffffffffffffffffffffffffffffffffffff16606960009054906101000a900473ffffffffffffffffffffffffffffffffffffffff1673ffffffffffffffffffffffffffffffffffffffff16636352211e60688481548110611bb457611bb3612d0c565b5b9060005260206000209060080201600101546040518263ffffffff1660e01b8152600401611be29190612b2f565b602060405180830381865afa158015611bff573d6000803e3d6000fd5b505050506040513d601f19601f82011682018060405250810190611c2391906132a1565b73ffffffffffffffffffffffffffffffffffffffff1614611c4357600080fd5b60688181548110611c5757611c56612d0c565b5b906000526020600020906008020160050154606a60009054906101000a900473ffffffffffffffffffffffffffffffffffffffff1673ffffffffffffffffffffffffffffffffffffffff166370a08231306040518263ffffffff1660e01b8152600401611cc491906128ba565b602060405180830381865afa158015611ce1573d6000803e3d6000fd5b505050506040513d601f19601f82011682018060405250810190611d059190613196565b1015611d1057600080fd5b600060688281548110611d2657611d25612d0c565b5b9060005260206000209060080201600601541415611d4357600080fd5b6000610e1060688381548110611d5c57611d5b612d0c565b5b90600052602060002090600802016006015442611d799190612dd6565b1015611db857601860688381548110611d9557611d94612d0c565b5b906000526020600020906008020160030154611db19190612e39565b9050611e2a565b60688281548110611dcc57611dcb612d0c565b5b9060005260206000209060080201600301546201518060688481548110611df657611df5612d0c565b5b90600052602060002090600802016006015442611e139190612dd6565b611e1d9190612e39565b611e279190612e6a565b90505b60688281548110611e3e57611e3d612d0c565b5b90600052602060002090600802016002015481611e5b919061303c565b60688381548110611e6f57611e6e612d0c565b5b90600052602060002090600802016005015411611e8b57600080fd5b606a60009054906101000a900473ffffffffffffffffffffffffffffffffffffffff1673ffffffffffffffffffffffffffffffffffffffff1663a9059cbb60688481548110611edd57611edc612d0c565b5b906000526020600020906008020160000160009054906101000a900473ffffffffffffffffffffffffffffffffffffffff166064606085611f1e9190612e6a565b611f289190612e39565b6040518363ffffffff1660e01b8152600401611f45929190613092565b6020604051808303816000875af1158015611f64573d6000803e3d6000fd5b505050506040513d601f19601f82011682018060405250810190611f8891906130f3565b50606a60009054906101000a900473ffffffffffffffffffffffffffffffffffffffff1673ffffffffffffffffffffffffffffffffffffffff1663a9059cbb606760009054906101000a900473ffffffffffffffffffffffffffffffffffffffff166064600485611ff99190612e6a565b6120039190612e39565b6040518363ffffffff1660e01b8152600401612020929190613092565b6020604051808303816000875af115801561203f573d6000803e3d6000fd5b505050506040513d601f19601f8201168201806040525081019061206391906130f3565b50606a60009054906101000a900473ffffffffffffffffffffffffffffffffffffffff1673ffffffffffffffffffffffffffffffffffffffff1663a9059cbb3383606886815481106120b8576120b7612d0c565b5b9060005260206000209060080201600501546120d49190612dd6565b6040518363ffffffff1660e01b81526004016120f1929190613092565b6020604051808303816000875af1158015612110573d6000803e3d6000fd5b505050506040513d601f19601f8201168201806040525081019061213491906130f3565b50606960009054906101000a900473ffffffffffffffffffffffffffffffffffffffff1673ffffffffffffffffffffffffffffffffffffffff166342842e0e33306068868154811061218957612188612d0c565b5b9060005260206000209060080201600101546040518463ffffffff1660e01b81526004016121b9939291906131c3565b600060405180830381600087803b1580156121d357600080fd5b505af11580156121e7573d6000803e3d6000fd5b5050505060006068838154811061220157612200612d0c565b5b906000526020600020906008020160040160006101000a81548173ffffffffffffffffffffffffffffffffffffffff021916908373ffffffffffffffffffffffffffffffffffffffff16021790555060006068838154811061226657612265612d0c565b5b90600052602060002090600802016005018190555060006068838154811061229157612290612d0c565b5b9060005260206000209060080201600601819055506040518060400160405280600481526020017f4f70656e00000000000000000000000000000000000000000000000000000000815250606883815481106122f0576122ef612d0c565b5b9060005260206000209060080201600701908051906020019061231492919061275f565b507faa71c084a2a0d0c3b0fd624bd5d5b3b3683bd753a7a645d1902cfd8174278426826040516123449190612b2f565b60405180910390a150600160338190555050565b60006068828154811061236e5761236d612d0c565b5b9060005260206000209060080201600601549050919050565b600260335414156123cd576040517f08c379a00000000000000000000000000000000000000000000000000000000081526004016123c490612d87565b60405180910390fd5b60026033819055503373ffffffffffffffffffffffffffffffffffffffff1660688281548110612400576123ff612d0c565b5b906000526020600020906008020160000160009054906101000a900473ffffffffffffffffffffffffffffffffffffffff1673ffffffffffffffffffffffffffffffffffffffff161461245257600080fd5b3073ffffffffffffffffffffffffffffffffffffffff16606960009054906101000a900473ffffffffffffffffffffffffffffffffffffffff1673ffffffffffffffffffffffffffffffffffffffff16636352211e606884815481106124bb576124ba612d0c565b5b9060005260206000209060080201600101546040518263ffffffff1660e01b81526004016124e99190612b2f565b602060405180830381865afa158015612506573d6000803e3d6000fd5b505050506040513d601f19601f8201168201806040525081019061252a91906132a1565b73ffffffffffffffffffffffffffffffffffffffff161461254a57600080fd5b6040516020016125599061316c565b604051602081830303815290604052805190602001206068828154811061258357612582612d0c565b5b90600052602060002090600802016007016040516020016125a49190613025565b60405160208183030381529060405280519060200120146125c457600080fd5b6040518060400160405280600981526020017f43616e63656c6c656400000000000000000000000000000000000000000000008152506068828154811061260e5761260d612d0c565b5b9060005260206000209060080201600701908051906020019061263292919061275f565b50606960009054906101000a900473ffffffffffffffffffffffffffffffffffffffff1673ffffffffffffffffffffffffffffffffffffffff166342842e0e30336068858154811061268757612686612d0c565b5b9060005260206000209060080201600101546040518463ffffffff1660e01b81526004016126b7939291906131c3565b600060405180830381600087803b1580156126d157600080fd5b505af11580156126e5573d6000803e3d6000fd5b505050507f4e455dbee07370885b62f673891219a5fee0380b3da49d8bcae6297dc345cde0816040516127189190612b2f565b60405180910390a1600160338190555050565b60006127363061273c565b15905090565b6000808273ffffffffffffffffffffffffffffffffffffffff163b119050919050565b82805461276b90612f5f565b90600052602060002090601f01602090048101928261278d57600085556127d4565b82601f106127a657805160ff19168380011785556127d4565b828001600101855582156127d4579182015b828111156127d35782518255916020019190600101906127b8565b5b5090506127e191906127e5565b5090565b5b808211156127fe5760008160009055506001016127e6565b5090565b6000604051905090565b600080fd5b600080fd5b6000819050919050565b61282981612816565b811461283457600080fd5b50565b60008135905061284681612820565b92915050565b6000602082840312156128625761286161280c565b5b600061287084828501612837565b91505092915050565b600073ffffffffffffffffffffffffffffffffffffffff82169050919050565b60006128a482612879565b9050919050565b6128b481612899565b82525050565b60006020820190506128cf60008301846128ab565b92915050565b6128de81612899565b81146128e957600080fd5b50565b6000813590506128fb816128d5565b92915050565b600080fd5b600080fd5b6000601f19601f8301169050919050565b7f4e487b7100000000000000000000000000000000000000000000000000000000600052604160045260246000fd5b6129548261290b565b810181811067ffffffffffffffff821117156129735761297261291c565b5b80604052505050565b6000612986612802565b9050612992828261294b565b919050565b600067ffffffffffffffff8211156129b2576129b161291c565b5b6129bb8261290b565b9050602081019050919050565b82818337600083830152505050565b60006129ea6129e584612997565b61297c565b905082815260208101848484011115612a0657612a05612906565b5b612a118482856129c8565b509392505050565b600082601f830112612a2e57612a2d612901565b5b8135612a3e8482602086016129d7565b91505092915050565b60008060008060808587031215612a6157612a6061280c565b5b6000612a6f878288016128ec565b9450506020612a80878288016128ec565b9350506040612a9187828801612837565b925050606085013567ffffffffffffffff811115612ab257612ab1612811565b5b612abe87828801612a19565b91505092959194509250565b60007fffffffff0000000000000000000000000000000000000000000000000000000082169050919050565b612aff81612aca565b82525050565b6000602082019050612b1a6000830184612af6565b92915050565b612b2981612816565b82525050565b6000602082019050612b446000830184612b20565b92915050565b60008060408385031215612b6157612b6061280c565b5b6000612b6f85828601612837565b9250506020612b8085828601612837565b9150509250929050565b600081519050919050565b600082825260208201905092915050565b60005b83811015612bc4578082015181840152602081019050612ba9565b83811115612bd3576000848401525b50505050565b6000612be482612b8a565b612bee8185612b95565b9350612bfe818560208601612ba6565b612c078161290b565b840191505092915050565b600061010082019050612c28600083018b6128ab565b612c35602083018a612b20565b612c426040830189612b20565b612c4f6060830188612b20565b612c5c60808301876128ab565b612c6960a0830186612b20565b612c7660c0830185612b20565b81810360e0830152612c888184612bd9565b90509998505050505050505050565b60006020820190508181036000830152612cb18184612bd9565b905092915050565b600080600060608486031215612cd257612cd161280c565b5b6000612ce086828701612837565b9350506020612cf186828701612837565b9250506040612d0286828701612837565b9150509250925092565b7f4e487b7100000000000000000000000000000000000000000000000000000000600052603260045260246000fd5b7f5265656e7472616e637947756172643a207265656e7472616e742063616c6c00600082015250565b6000612d71601f83612b95565b9150612d7c82612d3b565b602082019050919050565b60006020820190508181036000830152612da081612d64565b9050919050565b7f4e487b7100000000000000000000000000000000000000000000000000000000600052601160045260246000fd5b6000612de182612816565b9150612dec83612816565b925082821015612dff57612dfe612da7565b5b828203905092915050565b7f4e487b7100000000000000000000000000000000000000000000000000000000600052601260045260246000fd5b6000612e4482612816565b9150612e4f83612816565b925082612e5f57612e5e612e0a565b5b828204905092915050565b6000612e7582612816565b9150612e8083612816565b9250817fffffffffffffffffffffffffffffffffffffffffffffffffffffffffffffffff0483118215151615612eb957612eb8612da7565b5b828202905092915050565b600081905092915050565b7f4f6e000000000000000000000000000000000000000000000000000000000000600082015250565b6000612f05600283612ec4565b9150612f1082612ecf565b600282019050919050565b6000612f2682612ef8565b9150819050919050565b7f4e487b7100000000000000000000000000000000000000000000000000000000600052602260045260246000fd5b60006002820490506001821680612f7757607f821691505b60208210811415612f8b57612f8a612f30565b5b50919050565b60008190508160005260206000209050919050565b60008154612fb381612f5f565b612fbd8186612ec4565b94506001821660008114612fd85760018114612fe95761301c565b60ff1983168652818601935061301c565b612ff285612f91565b60005b8381101561301457815481890152600182019150602081019050612ff5565b838801955050505b50505092915050565b60006130318284612fa6565b915081905092915050565b600061304782612816565b915061305283612816565b9250827fffffffffffffffffffffffffffffffffffffffffffffffffffffffffffffffff0382111561308757613086612da7565b5b828201905092915050565b60006040820190506130a760008301856128ab565b6130b46020830184612b20565b9392505050565b60008115159050919050565b6130d0816130bb565b81146130db57600080fd5b50565b6000815190506130ed816130c7565b92915050565b6000602082840312156131095761310861280c565b5b6000613117848285016130de565b91505092915050565b7f4f70656e00000000000000000000000000000000000000000000000000000000600082015250565b6000613156600483612ec4565b915061316182613120565b600482019050919050565b600061317782613149565b9150819050919050565b60008151905061319081612820565b92915050565b6000602082840312156131ac576131ab61280c565b5b60006131ba84828501613181565b91505092915050565b60006060820190506131d860008301866128ab565b6131e560208301856128ab565b6131f26040830184612b20565b949350505050565b7f496e697469616c697a61626c653a20636f6e747261637420697320616c72656160008201527f647920696e697469616c697a6564000000000000000000000000000000000000602082015250565b6000613256602e83612b95565b9150613261826131fa565b604082019050919050565b6000602082019050818103600083015261328581613249565b9050919050565b60008151905061329b816128d5565b92915050565b6000602082840312156132b7576132b661280c565b5b60006132c58482850161328c565b9150509291505056fea2646970667358221220896f8e43756ef8f69f2b4a54d15b2703fccd0095c9cfd9f5a1b939dffd407cf564736f6c634300080c0033",
  "immutableReferences": {},
  "source": "// SPDX-License-Identifier: UNLICENSED\r\n\r\npragma solidity ^0.8.3;\r\n\r\nimport \"@openzeppelin/contracts/token/ERC20/IERC20.sol\";\r\nimport \"@openzeppelin/contracts/token/ERC721/IERC721.sol\";\r\nimport \"@openzeppelin/contracts-upgradeable/security/ReentrancyGuardUpgradeable.sol\";\r\nimport \"@openzeppelin/contracts-upgradeable/token/ERC721/utils/ERC721HolderUpgradeable.sol\";\r\nimport \"@openzeppelin/contracts-upgradeable/proxy/utils/Initializable.sol\";\r\n\r\ncontract HeroLendingUpgradeable is Initializable, ERC721HolderUpgradeable, ReentrancyGuardUpgradeable {\r\n\r\n    event NewOffer(uint offerId);\r\n    event CancelOffer(uint offerId);\r\n    event AcceptOffer(uint offerId);\r\n    event RepayOffer(uint offerId);\r\n    event Liquidate(uint offerId);\r\n\r\n    struct Offer {\r\n        address owner;\r\n        uint heroId;\r\n        uint liquidation;\r\n        uint dailyFee;\r\n\r\n        address borrower;\r\n        uint collateral;\r\n        uint acceptTime;\r\n\r\n        string status;\r\n    }\r\n\r\n    address HeroAddress;\r\n    address JewelAddress;\r\n    address PayOutAddress;\r\n    Offer[] public offers;\r\n    IERC721 hero;\r\n    IERC20 jewel;\r\n\r\n    function initialize() initializer public {\r\n        HeroAddress = 0xCF88D09658dD442E6FA1d721C2d783a8199B8c06;\r\n        JewelAddress = 0xAc8578b232f08b6FeC672adCe63987f5c57c0249;\r\n        PayOutAddress = 0x867df63D1eEAEF93984250f78B4bd83C70652dcE;\r\n        hero = IERC721(HeroAddress);\r\n        jewel = IERC20(JewelAddress);\r\n    }\r\n\r\n    //View Functions\r\n\r\n    function offerOwner(uint offerId) public view returns (address) {\r\n        return offers[offerId].owner;\r\n    }\r\n\r\n    function offerHeroId(uint offerId) public view returns (uint) {\r\n        return offers[offerId].heroId;\r\n    }\r\n\r\n    function offerLiquidation(uint offerId) public view returns (uint) {\r\n        return offers[offerId].liquidation;\r\n    }\r\n\r\n    function offerDailyFee(uint offerId) public view returns (uint) {\r\n        return offers[offerId].dailyFee;\r\n    }\r\n\r\n\r\n\r\n    function offerBorrower(uint offerId) public view returns (address) {\r\n        return offers[offerId].borrower;\r\n    }\r\n\r\n    function offerCollateral(uint offerId) public view returns (uint) {\r\n        return offers[offerId].collateral;\r\n    }\r\n\r\n    function offerAcceptTime(uint offerId) public view returns (uint) {\r\n        return offers[offerId].acceptTime;\r\n    }\r\n\r\n\r\n\r\n    function offerStatus(uint offerId) public view returns (string memory) {\r\n        return offers[offerId].status;\r\n    }\r\n\r\n    function offersQuantity() public view returns (uint) {\r\n        uint quantity = offers.length;\r\n        return quantity;\r\n    }\r\n\r\n    //Main Functions\r\n\r\n    function createOffer(uint heroId, uint liquidation, uint fee) public nonReentrant() {\r\n        require(hero.ownerOf(heroId) == msg.sender);\r\n\r\n        uint offerId = offers.length;\r\n        offers.push(Offer(msg.sender, heroId, liquidation, fee, address(0), 0, 0, \"Open\"));\r\n        hero.safeTransferFrom(msg.sender, address(this), heroId);\r\n        emit NewOffer(offerId);\r\n    }\r\n\r\n    function cancelOffer(uint offerId) public nonReentrant() {\r\n        require(offers[offerId].owner == msg.sender);\r\n        require(hero.ownerOf(offers[offerId].heroId) == address(this));\r\n        require(keccak256(abi.encodePacked(offers[offerId].status)) == keccak256(abi.encodePacked(\"Open\")));\r\n\r\n        offers[offerId].status = \"Cancelled\";\r\n        hero.safeTransferFrom(address(this), msg.sender, offers[offerId].heroId);\r\n        emit CancelOffer(offerId);\r\n    }\r\n\r\n    function acceptOffer(uint offerId, uint collateral) public nonReentrant() {\r\n        require(offers[offerId].owner != msg.sender);\r\n        require(keccak256(abi.encodePacked(offers[offerId].status)) == keccak256(abi.encodePacked(\"Open\")));\r\n        uint minimumFee = offers[offerId].dailyFee/24;\r\n        require(collateral > offers[offerId].liquidation + minimumFee);\r\n        require(jewel.balanceOf(msg.sender) >= collateral);\r\n\r\n        offers[offerId].status = \"On\";\r\n        offers[offerId].borrower = msg.sender;\r\n        offers[offerId].collateral = collateral;\r\n        offers[offerId].acceptTime = block.timestamp;\r\n        jewel.transferFrom(msg.sender, address(this), collateral);\r\n        hero.safeTransferFrom(address(this), msg.sender, offers[offerId].heroId);\r\n        emit AcceptOffer(offerId);\r\n    }\r\n\r\n    function repayOffer(uint offerId) public nonReentrant() {\r\n        require(offers[offerId].borrower == msg.sender);\r\n        require(keccak256(abi.encodePacked(offers[offerId].status)) == keccak256(abi.encodePacked(\"On\")));\r\n        require(hero.ownerOf(offers[offerId].heroId) == msg.sender);\r\n        require(jewel.balanceOf(address(this)) >= offers[offerId].collateral);\r\n        require(offers[offerId].acceptTime != 0);\r\n        uint feeToPay;\r\n        //minimum Fee is at least 1 hour\r\n        if ((block.timestamp - offers[offerId].acceptTime) < 60*60) {\r\n            feeToPay = offers[offerId].dailyFee/24;\r\n        } else {\r\n            feeToPay = ((block.timestamp - offers[offerId].acceptTime)/(60*60*24))*offers[offerId].dailyFee;\r\n        }\r\n        // User is not liquidated\r\n        require(offers[offerId].collateral > (feeToPay + offers[offerId].liquidation));\r\n\r\n        jewel.transfer(offers[offerId].owner, feeToPay*96/100);\r\n        jewel.transfer(PayOutAddress, feeToPay*4/100);\r\n        jewel.transfer(msg.sender, (offers[offerId].collateral - feeToPay));\r\n        hero.safeTransferFrom(msg.sender, address(this), offers[offerId].heroId);\r\n\r\n        offers[offerId].borrower = address(0);\r\n        offers[offerId].collateral = 0;\r\n        offers[offerId].acceptTime = 0;\r\n        offers[offerId].status = \"Open\";\r\n        emit RepayOffer(offerId);\r\n    }\r\n\r\n    function addCollateral(uint offerId, uint extraCollateral) public nonReentrant() {\r\n        require(offers[offerId].borrower == msg.sender);\r\n        require(keccak256(abi.encodePacked(offers[offerId].status)) == keccak256(abi.encodePacked(\"On\")));\r\n        require(jewel.balanceOf(address(this)) >= extraCollateral);\r\n\r\n        offers[offerId].collateral = offers[offerId].collateral + extraCollateral;\r\n        jewel.transferFrom(msg.sender, address(this), extraCollateral);\r\n    }\r\n\r\n    function liquidate(uint offerId) public nonReentrant() {\r\n        uint feeToPay = ((block.timestamp - offers[offerId].acceptTime)/(60*60*24))*offers[offerId].dailyFee;\r\n        require(keccak256(abi.encodePacked(offers[offerId].status)) == keccak256(abi.encodePacked(\"On\")));\r\n        require(offers[offerId].collateral < (feeToPay + offers[offerId].liquidation));\r\n\r\n        offers[offerId].status = \"Liquidated\";\r\n        jewel.transfer(offers[offerId].owner, offers[offerId].collateral*90/100);\r\n        jewel.transfer(PayOutAddress, offers[offerId].collateral*10/100);\r\n        emit Liquidate(offerId);\r\n    }\r\n}",
  "sourcePath": "C:\\Users\\jtsch\\OneDrive\\Escritorio\\DFK-Lending\\DFK-Lending-SmartContracts\\contracts\\testing_contracts\\HeroLendingUpgradeable.sol",
  "compiler": {
    "name": "solc",
    "version": "0.8.12+commit.f00d7308.Emscripten.clang"
  },
  "schemaVersion": "3.4.3",
  "updatedAt": "2022-02-23T17:36:01.072Z",
  "devdoc": {
    "kind": "dev",
    "methods": {
      "onERC721Received(address,address,uint256,bytes)": {
        "details": "See {IERC721Receiver-onERC721Received}. Always returns `IERC721Receiver.onERC721Received.selector`."
      }
    },
    "version": 1
  },
  "userdoc": {
    "kind": "user",
    "methods": {},
    "version": 1
  }
}