{
  "contractName": "HeroLending",
  "abi": [
    {
      "inputs": [
        {
          "internalType": "address",
          "name": "JewelAddress",
          "type": "address"
        },
        {
          "internalType": "address",
          "name": "HeroAddress",
          "type": "address"
        }
      ],
      "stateMutability": "nonpayable",
      "type": "constructor"
    },
    {
      "anonymous": false,
      "inputs": [
        {
          "indexed": false,
          "internalType": "uint256",
          "name": "offerId",
          "type": "uint256"
        }
      ],
      "name": "AcceptOffer",
      "type": "event"
    },
    {
      "anonymous": false,
      "inputs": [
        {
          "indexed": false,
          "internalType": "uint256",
          "name": "offerId",
          "type": "uint256"
        }
      ],
      "name": "CancelOffer",
      "type": "event"
    },
    {
      "anonymous": false,
      "inputs": [
        {
          "indexed": false,
          "internalType": "uint256",
          "name": "offerId",
          "type": "uint256"
        }
      ],
      "name": "Liquidate",
      "type": "event"
    },
    {
      "anonymous": false,
      "inputs": [
        {
          "indexed": false,
          "internalType": "uint256",
          "name": "offerId",
          "type": "uint256"
        }
      ],
      "name": "NewOffer",
      "type": "event"
    },
    {
      "anonymous": false,
      "inputs": [
        {
          "indexed": false,
          "internalType": "uint256",
          "name": "offerId",
          "type": "uint256"
        }
      ],
      "name": "RepayOffer",
      "type": "event"
    },
    {
      "inputs": [
        {
          "internalType": "uint256",
          "name": "",
          "type": "uint256"
        }
      ],
      "name": "offers",
      "outputs": [
        {
          "internalType": "address",
          "name": "owner",
          "type": "address"
        },
        {
          "internalType": "uint256",
          "name": "heroId",
          "type": "uint256"
        },
        {
          "internalType": "uint256",
          "name": "liquidation",
          "type": "uint256"
        },
        {
          "internalType": "uint256",
          "name": "dailyFee",
          "type": "uint256"
        },
        {
          "internalType": "address",
          "name": "borrower",
          "type": "address"
        },
        {
          "internalType": "uint256",
          "name": "collateral",
          "type": "uint256"
        },
        {
          "internalType": "uint256",
          "name": "acceptTime",
          "type": "uint256"
        },
        {
          "internalType": "string",
          "name": "status",
          "type": "string"
        }
      ],
      "stateMutability": "view",
      "type": "function"
    },
    {
      "inputs": [
        {
          "internalType": "address",
          "name": "",
          "type": "address"
        },
        {
          "internalType": "address",
          "name": "",
          "type": "address"
        },
        {
          "internalType": "uint256",
          "name": "",
          "type": "uint256"
        },
        {
          "internalType": "bytes",
          "name": "",
          "type": "bytes"
        }
      ],
      "name": "onERC721Received",
      "outputs": [
        {
          "internalType": "bytes4",
          "name": "",
          "type": "bytes4"
        }
      ],
      "stateMutability": "nonpayable",
      "type": "function"
    },
    {
      "inputs": [
        {
          "internalType": "uint256",
          "name": "offerId",
          "type": "uint256"
        }
      ],
      "name": "offerOwner",
      "outputs": [
        {
          "internalType": "address",
          "name": "",
          "type": "address"
        }
      ],
      "stateMutability": "view",
      "type": "function"
    },
    {
      "inputs": [
        {
          "internalType": "uint256",
          "name": "offerId",
          "type": "uint256"
        }
      ],
      "name": "offerHeroId",
      "outputs": [
        {
          "internalType": "uint256",
          "name": "",
          "type": "uint256"
        }
      ],
      "stateMutability": "view",
      "type": "function"
    },
    {
      "inputs": [
        {
          "internalType": "uint256",
          "name": "offerId",
          "type": "uint256"
        }
      ],
      "name": "offerLiquidation",
      "outputs": [
        {
          "internalType": "uint256",
          "name": "",
          "type": "uint256"
        }
      ],
      "stateMutability": "view",
      "type": "function"
    },
    {
      "inputs": [
        {
          "internalType": "uint256",
          "name": "offerId",
          "type": "uint256"
        }
      ],
      "name": "offerDailyFee",
      "outputs": [
        {
          "internalType": "uint256",
          "name": "",
          "type": "uint256"
        }
      ],
      "stateMutability": "view",
      "type": "function"
    },
    {
      "inputs": [
        {
          "internalType": "uint256",
          "name": "offerId",
          "type": "uint256"
        }
      ],
      "name": "offerBorrower",
      "outputs": [
        {
          "internalType": "address",
          "name": "",
          "type": "address"
        }
      ],
      "stateMutability": "view",
      "type": "function"
    },
    {
      "inputs": [
        {
          "internalType": "uint256",
          "name": "offerId",
          "type": "uint256"
        }
      ],
      "name": "offerCollateral",
      "outputs": [
        {
          "internalType": "uint256",
          "name": "",
          "type": "uint256"
        }
      ],
      "stateMutability": "view",
      "type": "function"
    },
    {
      "inputs": [
        {
          "internalType": "uint256",
          "name": "offerId",
          "type": "uint256"
        }
      ],
      "name": "offerAcceptTime",
      "outputs": [
        {
          "internalType": "uint256",
          "name": "",
          "type": "uint256"
        }
      ],
      "stateMutability": "view",
      "type": "function"
    },
    {
      "inputs": [
        {
          "internalType": "uint256",
          "name": "offerId",
          "type": "uint256"
        }
      ],
      "name": "offerStatus",
      "outputs": [
        {
          "internalType": "string",
          "name": "",
          "type": "string"
        }
      ],
      "stateMutability": "view",
      "type": "function"
    },
    {
      "inputs": [],
      "name": "offersQuantity",
      "outputs": [
        {
          "internalType": "uint256",
          "name": "",
          "type": "uint256"
        }
      ],
      "stateMutability": "view",
      "type": "function"
    },
    {
      "inputs": [
        {
          "internalType": "uint256",
          "name": "heroId",
          "type": "uint256"
        },
        {
          "internalType": "uint256",
          "name": "liquidation",
          "type": "uint256"
        },
        {
          "internalType": "uint256",
          "name": "fee",
          "type": "uint256"
        }
      ],
      "name": "createOffer",
      "outputs": [],
      "stateMutability": "nonpayable",
      "type": "function"
    },
    {
      "inputs": [
        {
          "internalType": "uint256",
          "name": "offerId",
          "type": "uint256"
        }
      ],
      "name": "cancelOffer",
      "outputs": [],
      "stateMutability": "nonpayable",
      "type": "function"
    },
    {
      "inputs": [
        {
          "internalType": "uint256",
          "name": "offerId",
          "type": "uint256"
        },
        {
          "internalType": "uint256",
          "name": "collateral",
          "type": "uint256"
        }
      ],
      "name": "acceptOffer",
      "outputs": [],
      "stateMutability": "nonpayable",
      "type": "function"
    },
    {
      "inputs": [
        {
          "internalType": "uint256",
          "name": "offerId",
          "type": "uint256"
        }
      ],
      "name": "repayOffer",
      "outputs": [],
      "stateMutability": "nonpayable",
      "type": "function"
    },
    {
      "inputs": [
        {
          "internalType": "uint256",
          "name": "offerId",
          "type": "uint256"
        },
        {
          "internalType": "uint256",
          "name": "extraCollateral",
          "type": "uint256"
        }
      ],
      "name": "addCollateral",
      "outputs": [],
      "stateMutability": "nonpayable",
      "type": "function"
    },
    {
      "inputs": [
        {
          "internalType": "uint256",
          "name": "offerId",
          "type": "uint256"
        }
      ],
      "name": "liquidate",
      "outputs": [],
      "stateMutability": "nonpayable",
      "type": "function"
    }
  ],
  "bytecode": "0x60806040523480156200001157600080fd5b506040516200315f3803806200315f833981810160405281019062000037919062000188565b600160008190555073867df63d1eeaef93984250f78b4bd83c70652dce600160006101000a81548173ffffffffffffffffffffffffffffffffffffffff021916908373ffffffffffffffffffffffffffffffffffffffff16021790555080600360006101000a81548173ffffffffffffffffffffffffffffffffffffffff021916908373ffffffffffffffffffffffffffffffffffffffff16021790555081600460006101000a81548173ffffffffffffffffffffffffffffffffffffffff021916908373ffffffffffffffffffffffffffffffffffffffff1602179055505050620001cf565b600080fd5b600073ffffffffffffffffffffffffffffffffffffffff82169050919050565b6000620001508262000123565b9050919050565b620001628162000143565b81146200016e57600080fd5b50565b600081519050620001828162000157565b92915050565b60008060408385031215620001a257620001a16200011e565b5b6000620001b28582860162000171565b9250506020620001c58582860162000171565b9150509250929050565b612f8080620001df6000396000f3fe608060405234801561001057600080fd5b506004361061010b5760003560e01c80638388495e116100a2578063d843b2c711610071578063d843b2c714610309578063dc35a90014610339578063e121e6e514610355578063eeeb357e14610371578063ef706adf146103a15761010b565b80638388495e146102565780638a72ea6a14610286578063a8f35adf146102bd578063cb0cebbd146102d95761010b565b80635b61913f116100de5780635b61913f146101bc5780635e7b52a1146101ec5780636b4292161461021c57806381257bd51461023a5761010b565b806306bf6d5514610110578063150b7a021461014057806328bc02cc14610170578063415f1240146101a0575b600080fd5b61012a6004803603810190610125919061255a565b6103bd565b60405161013791906125c8565b60405180910390f35b61015a60048036038101906101559190612755565b61040c565b6040516101679190612813565b60405180910390f35b61018a6004803603810190610185919061255a565b610420565b60405161019791906125c8565b60405180910390f35b6101ba60048036038101906101b5919061255a565b61046f565b005b6101d660048036038101906101d1919061255a565b6108e0565b6040516101e3919061283d565b60405180910390f35b6102066004803603810190610201919061255a565b61090f565b604051610213919061283d565b60405180910390f35b61022461093e565b604051610231919061283d565b60405180910390f35b610254600480360381019061024f9190612858565b610950565b005b610270600480360381019061026b919061255a565b610e74565b60405161027d919061283d565b60405180910390f35b6102a0600480360381019061029b919061255a565b610ea3565b6040516102b4989796959493929190612920565b60405180910390f35b6102d760048036038101906102d29190612858565b610fc3565b005b6102f360048036038101906102ee919061255a565b6112b9565b604051610300919061283d565b60405180910390f35b610323600480360381019061031e919061255a565b6112e8565b60405161033091906129a5565b60405180910390f35b610353600480360381019061034e91906129c7565b61139f565b005b61036f600480360381019061036a919061255a565b611748565b005b61038b6004803603810190610386919061255a565b61209a565b604051610398919061283d565b60405180910390f35b6103bb60048036038101906103b6919061255a565b6120c9565b005b6000600282815481106103d3576103d2612a1a565b5b906000526020600020906008020160040160009054906101000a900473ffffffffffffffffffffffffffffffffffffffff169050919050565b600063150b7a0260e01b9050949350505050565b60006002828154811061043657610435612a1a565b5b906000526020600020906008020160000160009054906101000a900473ffffffffffffffffffffffffffffffffffffffff169050919050565b600260005414156104b5576040517f08c379a00000000000000000000000000000000000000000000000000000000081526004016104ac90612a95565b60405180910390fd5b60026000819055506000600282815481106104d3576104d2612a1a565b5b90600052602060002090600802016003015462015180600284815481106104fd576104fc612a1a565b5b9060005260206000209060080201600601544261051a9190612ae4565b6105249190612b47565b61052e9190612b78565b905060405160200161053f90612c29565b604051602081830303815290604052805190602001206002838154811061056957610568612a1a565b5b906000526020600020906008020160070160405160200161058a9190612d33565b60405160208183030381529060405280519060200120146105aa57600080fd5b600282815481106105be576105bd612a1a565b5b906000526020600020906008020160020154816105db9190612d4a565b600283815481106105ef576105ee612a1a565b5b9060005260206000209060080201600501541061060b57600080fd5b6040518060400160405280600a81526020017f4c697175696461746564000000000000000000000000000000000000000000008152506002838154811061065557610654612a1a565b5b9060005260206000209060080201600701908051906020019061067992919061246d565b50600460009054906101000a900473ffffffffffffffffffffffffffffffffffffffff1673ffffffffffffffffffffffffffffffffffffffff1663a9059cbb600284815481106106cc576106cb612a1a565b5b906000526020600020906008020160000160009054906101000a900473ffffffffffffffffffffffffffffffffffffffff166064605a6002878154811061071657610715612a1a565b5b9060005260206000209060080201600501546107329190612b78565b61073c9190612b47565b6040518363ffffffff1660e01b8152600401610759929190612da0565b6020604051808303816000875af1158015610778573d6000803e3d6000fd5b505050506040513d601f19601f8201168201806040525081019061079c9190612e01565b50600460009054906101000a900473ffffffffffffffffffffffffffffffffffffffff1673ffffffffffffffffffffffffffffffffffffffff1663a9059cbb600160009054906101000a900473ffffffffffffffffffffffffffffffffffffffff166064600a6002878154811061081657610815612a1a565b5b9060005260206000209060080201600501546108329190612b78565b61083c9190612b47565b6040518363ffffffff1660e01b8152600401610859929190612da0565b6020604051808303816000875af1158015610878573d6000803e3d6000fd5b505050506040513d601f19601f8201168201806040525081019061089c9190612e01565b507fafe8025042fe09457744b5a74c64737289309ac0970116f6efcebcb38b4dc591826040516108cc919061283d565b60405180910390a150600160008190555050565b6000600282815481106108f6576108f5612a1a565b5b9060005260206000209060080201600101549050919050565b60006002828154811061092557610924612a1a565b5b9060005260206000209060080201600501549050919050565b60008060028054905090508091505090565b60026000541415610996576040517f08c379a000000000000000000000000000000000000000000000000000000000815260040161098d90612a95565b60405180910390fd5b60026000819055503373ffffffffffffffffffffffffffffffffffffffff16600283815481106109c9576109c8612a1a565b5b906000526020600020906008020160000160009054906101000a900473ffffffffffffffffffffffffffffffffffffffff1673ffffffffffffffffffffffffffffffffffffffff161415610a1c57600080fd5b604051602001610a2b90612e7a565b6040516020818303038152906040528051906020012060028381548110610a5557610a54612a1a565b5b9060005260206000209060080201600701604051602001610a769190612d33565b6040516020818303038152906040528051906020012014610a9657600080fd5b6000601860028481548110610aae57610aad612a1a565b5b906000526020600020906008020160030154610aca9190612b47565b90508060028481548110610ae157610ae0612a1a565b5b906000526020600020906008020160020154610afd9190612d4a565b8211610b0857600080fd5b81600460009054906101000a900473ffffffffffffffffffffffffffffffffffffffff1673ffffffffffffffffffffffffffffffffffffffff166370a08231336040518263ffffffff1660e01b8152600401610b6491906125c8565b602060405180830381865afa158015610b81573d6000803e3d6000fd5b505050506040513d601f19601f82011682018060405250810190610ba59190612ea4565b1015610bb057600080fd5b6040518060400160405280600281526020017f4f6e00000000000000000000000000000000000000000000000000000000000081525060028481548110610bfa57610bf9612a1a565b5b90600052602060002090600802016007019080519060200190610c1e92919061246d565b503360028481548110610c3457610c33612a1a565b5b906000526020600020906008020160040160006101000a81548173ffffffffffffffffffffffffffffffffffffffff021916908373ffffffffffffffffffffffffffffffffffffffff1602179055508160028481548110610c9857610c97612a1a565b5b9060005260206000209060080201600501819055504260028481548110610cc257610cc1612a1a565b5b906000526020600020906008020160060181905550600460009054906101000a900473ffffffffffffffffffffffffffffffffffffffff1673ffffffffffffffffffffffffffffffffffffffff166323b872dd3330856040518463ffffffff1660e01b8152600401610d3693929190612ed1565b6020604051808303816000875af1158015610d55573d6000803e3d6000fd5b505050506040513d601f19601f82011682018060405250810190610d799190612e01565b50600360009054906101000a900473ffffffffffffffffffffffffffffffffffffffff1673ffffffffffffffffffffffffffffffffffffffff166342842e0e303360028781548110610dce57610dcd612a1a565b5b9060005260206000209060080201600101546040518463ffffffff1660e01b8152600401610dfe93929190612ed1565b600060405180830381600087803b158015610e1857600080fd5b505af1158015610e2c573d6000803e3d6000fd5b505050507fbcacf710aa41ccef04977c6de1df444984621e2bd0c86e0b001620ab014d187483604051610e5f919061283d565b60405180910390a15060016000819055505050565b600060028281548110610e8a57610e89612a1a565b5b9060005260206000209060080201600301549050919050565b60028181548110610eb357600080fd5b90600052602060002090600802016000915090508060000160009054906101000a900473ffffffffffffffffffffffffffffffffffffffff16908060010154908060020154908060030154908060040160009054906101000a900473ffffffffffffffffffffffffffffffffffffffff1690806005015490806006015490806007018054610f4090612c6d565b80601f0160208091040260200160405190810160405280929190818152602001828054610f6c90612c6d565b8015610fb95780601f10610f8e57610100808354040283529160200191610fb9565b820191906000526020600020905b815481529060010190602001808311610f9c57829003601f168201915b5050505050905088565b60026000541415611009576040517f08c379a000000000000000000000000000000000000000000000000000000000815260040161100090612a95565b60405180910390fd5b60026000819055503373ffffffffffffffffffffffffffffffffffffffff166002838154811061103c5761103b612a1a565b5b906000526020600020906008020160040160009054906101000a900473ffffffffffffffffffffffffffffffffffffffff1673ffffffffffffffffffffffffffffffffffffffff161461108e57600080fd5b60405160200161109d90612c29565b60405160208183030381529060405280519060200120600283815481106110c7576110c6612a1a565b5b90600052602060002090600802016007016040516020016110e89190612d33565b604051602081830303815290604052805190602001201461110857600080fd5b80600460009054906101000a900473ffffffffffffffffffffffffffffffffffffffff1673ffffffffffffffffffffffffffffffffffffffff166370a08231306040518263ffffffff1660e01b815260040161116491906125c8565b602060405180830381865afa158015611181573d6000803e3d6000fd5b505050506040513d601f19601f820116820180604052508101906111a59190612ea4565b10156111b057600080fd5b80600283815481106111c5576111c4612a1a565b5b9060005260206000209060080201600501546111e19190612d4a565b600283815481106111f5576111f4612a1a565b5b906000526020600020906008020160050181905550600460009054906101000a900473ffffffffffffffffffffffffffffffffffffffff1673ffffffffffffffffffffffffffffffffffffffff166323b872dd3330846040518463ffffffff1660e01b815260040161126993929190612ed1565b6020604051808303816000875af1158015611288573d6000803e3d6000fd5b505050506040513d601f19601f820116820180604052508101906112ac9190612e01565b5060016000819055505050565b6000600282815481106112cf576112ce612a1a565b5b9060005260206000209060080201600201549050919050565b6060600282815481106112fe576112fd612a1a565b5b9060005260206000209060080201600701805461131a90612c6d565b80601f016020809104026020016040519081016040528092919081815260200182805461134690612c6d565b80156113935780601f1061136857610100808354040283529160200191611393565b820191906000526020600020905b81548152906001019060200180831161137657829003601f168201915b50505050509050919050565b600260005414156113e5576040517f08c379a00000000000000000000000000000000000000000000000000000000081526004016113dc90612a95565b60405180910390fd5b60026000819055503373ffffffffffffffffffffffffffffffffffffffff16600360009054906101000a900473ffffffffffffffffffffffffffffffffffffffff1673ffffffffffffffffffffffffffffffffffffffff16636352211e856040518263ffffffff1660e01b815260040161145f919061283d565b602060405180830381865afa15801561147c573d6000803e3d6000fd5b505050506040513d601f19601f820116820180604052508101906114a09190612f1d565b73ffffffffffffffffffffffffffffffffffffffff16146114c057600080fd5b6000600280549050905060026040518061010001604052803373ffffffffffffffffffffffffffffffffffffffff168152602001868152602001858152602001848152602001600073ffffffffffffffffffffffffffffffffffffffff16815260200160008152602001600081526020016040518060400160405280600481526020017f4f70656e00000000000000000000000000000000000000000000000000000000815250815250908060018154018082558091505060019003906000526020600020906008020160009091909190915060008201518160000160006101000a81548173ffffffffffffffffffffffffffffffffffffffff021916908373ffffffffffffffffffffffffffffffffffffffff16021790555060208201518160010155604082015181600201556060820151816003015560808201518160040160006101000a81548173ffffffffffffffffffffffffffffffffffffffff021916908373ffffffffffffffffffffffffffffffffffffffff16021790555060a0820151816005015560c0820151816006015560e082015181600701908051906020019061166f92919061246d565b505050600360009054906101000a900473ffffffffffffffffffffffffffffffffffffffff1673ffffffffffffffffffffffffffffffffffffffff166342842e0e3330876040518463ffffffff1660e01b81526004016116d193929190612ed1565b600060405180830381600087803b1580156116eb57600080fd5b505af11580156116ff573d6000803e3d6000fd5b505050507fc3e96d1275e81254d707531f5025b9b6d01f2bec370e5ff07979d37afbd3ee4181604051611732919061283d565b60405180910390a1506001600081905550505050565b6002600054141561178e576040517f08c379a000000000000000000000000000000000000000000000000000000000815260040161178590612a95565b60405180910390fd5b60026000819055503373ffffffffffffffffffffffffffffffffffffffff16600282815481106117c1576117c0612a1a565b5b906000526020600020906008020160040160009054906101000a900473ffffffffffffffffffffffffffffffffffffffff1673ffffffffffffffffffffffffffffffffffffffff161461181357600080fd5b60405160200161182290612c29565b604051602081830303815290604052805190602001206002828154811061184c5761184b612a1a565b5b906000526020600020906008020160070160405160200161186d9190612d33565b604051602081830303815290604052805190602001201461188d57600080fd5b3373ffffffffffffffffffffffffffffffffffffffff16600360009054906101000a900473ffffffffffffffffffffffffffffffffffffffff1673ffffffffffffffffffffffffffffffffffffffff16636352211e600284815481106118f6576118f5612a1a565b5b9060005260206000209060080201600101546040518263ffffffff1660e01b8152600401611924919061283d565b602060405180830381865afa158015611941573d6000803e3d6000fd5b505050506040513d601f19601f820116820180604052508101906119659190612f1d565b73ffffffffffffffffffffffffffffffffffffffff161461198557600080fd5b6002818154811061199957611998612a1a565b5b906000526020600020906008020160050154600460009054906101000a900473ffffffffffffffffffffffffffffffffffffffff1673ffffffffffffffffffffffffffffffffffffffff166370a08231306040518263ffffffff1660e01b8152600401611a0691906125c8565b602060405180830381865afa158015611a23573d6000803e3d6000fd5b505050506040513d601f19601f82011682018060405250810190611a479190612ea4565b1015611a5257600080fd5b600060028281548110611a6857611a67612a1a565b5b9060005260206000209060080201600601541415611a8557600080fd5b6000610e1060028381548110611a9e57611a9d612a1a565b5b90600052602060002090600802016006015442611abb9190612ae4565b1015611afa57601860028381548110611ad757611ad6612a1a565b5b906000526020600020906008020160030154611af39190612b47565b9050611b6c565b60028281548110611b0e57611b0d612a1a565b5b9060005260206000209060080201600301546201518060028481548110611b3857611b37612a1a565b5b90600052602060002090600802016006015442611b559190612ae4565b611b5f9190612b47565b611b699190612b78565b90505b60028281548110611b8057611b7f612a1a565b5b90600052602060002090600802016002015481611b9d9190612d4a565b60028381548110611bb157611bb0612a1a565b5b90600052602060002090600802016005015411611bcd57600080fd5b600460009054906101000a900473ffffffffffffffffffffffffffffffffffffffff1673ffffffffffffffffffffffffffffffffffffffff1663a9059cbb60028481548110611c1f57611c1e612a1a565b5b906000526020600020906008020160000160009054906101000a900473ffffffffffffffffffffffffffffffffffffffff166064606085611c609190612b78565b611c6a9190612b47565b6040518363ffffffff1660e01b8152600401611c87929190612da0565b6020604051808303816000875af1158015611ca6573d6000803e3d6000fd5b505050506040513d601f19601f82011682018060405250810190611cca9190612e01565b50600460009054906101000a900473ffffffffffffffffffffffffffffffffffffffff1673ffffffffffffffffffffffffffffffffffffffff1663a9059cbb600160009054906101000a900473ffffffffffffffffffffffffffffffffffffffff166064600485611d3b9190612b78565b611d459190612b47565b6040518363ffffffff1660e01b8152600401611d62929190612da0565b6020604051808303816000875af1158015611d81573d6000803e3d6000fd5b505050506040513d601f19601f82011682018060405250810190611da59190612e01565b50600460009054906101000a900473ffffffffffffffffffffffffffffffffffffffff1673ffffffffffffffffffffffffffffffffffffffff1663a9059cbb338360028681548110611dfa57611df9612a1a565b5b906000526020600020906008020160050154611e169190612ae4565b6040518363ffffffff1660e01b8152600401611e33929190612da0565b6020604051808303816000875af1158015611e52573d6000803e3d6000fd5b505050506040513d601f19601f82011682018060405250810190611e769190612e01565b50600360009054906101000a900473ffffffffffffffffffffffffffffffffffffffff1673ffffffffffffffffffffffffffffffffffffffff166342842e0e333060028681548110611ecb57611eca612a1a565b5b9060005260206000209060080201600101546040518463ffffffff1660e01b8152600401611efb93929190612ed1565b600060405180830381600087803b158015611f1557600080fd5b505af1158015611f29573d6000803e3d6000fd5b50505050600060028381548110611f4357611f42612a1a565b5b906000526020600020906008020160040160006101000a81548173ffffffffffffffffffffffffffffffffffffffff021916908373ffffffffffffffffffffffffffffffffffffffff160217905550600060028381548110611fa857611fa7612a1a565b5b906000526020600020906008020160050181905550600060028381548110611fd357611fd2612a1a565b5b9060005260206000209060080201600601819055506040518060400160405280600481526020017f4f70656e000000000000000000000000000000000000000000000000000000008152506002838154811061203257612031612a1a565b5b9060005260206000209060080201600701908051906020019061205692919061246d565b507faa71c084a2a0d0c3b0fd624bd5d5b3b3683bd753a7a645d1902cfd817427842682604051612086919061283d565b60405180910390a150600160008190555050565b6000600282815481106120b0576120af612a1a565b5b9060005260206000209060080201600601549050919050565b6002600054141561210f576040517f08c379a000000000000000000000000000000000000000000000000000000000815260040161210690612a95565b60405180910390fd5b60026000819055503373ffffffffffffffffffffffffffffffffffffffff166002828154811061214257612141612a1a565b5b906000526020600020906008020160000160009054906101000a900473ffffffffffffffffffffffffffffffffffffffff1673ffffffffffffffffffffffffffffffffffffffff161461219457600080fd5b3073ffffffffffffffffffffffffffffffffffffffff16600360009054906101000a900473ffffffffffffffffffffffffffffffffffffffff1673ffffffffffffffffffffffffffffffffffffffff16636352211e600284815481106121fd576121fc612a1a565b5b9060005260206000209060080201600101546040518263ffffffff1660e01b815260040161222b919061283d565b602060405180830381865afa158015612248573d6000803e3d6000fd5b505050506040513d601f19601f8201168201806040525081019061226c9190612f1d565b73ffffffffffffffffffffffffffffffffffffffff161461228c57600080fd5b60405160200161229b90612e7a565b60405160208183030381529060405280519060200120600282815481106122c5576122c4612a1a565b5b90600052602060002090600802016007016040516020016122e69190612d33565b604051602081830303815290604052805190602001201461230657600080fd5b6040518060400160405280600981526020017f43616e63656c6c65640000000000000000000000000000000000000000000000815250600282815481106123505761234f612a1a565b5b9060005260206000209060080201600701908051906020019061237492919061246d565b50600360009054906101000a900473ffffffffffffffffffffffffffffffffffffffff1673ffffffffffffffffffffffffffffffffffffffff166342842e0e3033600285815481106123c9576123c8612a1a565b5b9060005260206000209060080201600101546040518463ffffffff1660e01b81526004016123f993929190612ed1565b600060405180830381600087803b15801561241357600080fd5b505af1158015612427573d6000803e3d6000fd5b505050507f4e455dbee07370885b62f673891219a5fee0380b3da49d8bcae6297dc345cde08160405161245a919061283d565b60405180910390a1600160008190555050565b82805461247990612c6d565b90600052602060002090601f01602090048101928261249b57600085556124e2565b82601f106124b457805160ff19168380011785556124e2565b828001600101855582156124e2579182015b828111156124e15782518255916020019190600101906124c6565b5b5090506124ef91906124f3565b5090565b5b8082111561250c5760008160009055506001016124f4565b5090565b6000604051905090565b600080fd5b600080fd5b6000819050919050565b61253781612524565b811461254257600080fd5b50565b6000813590506125548161252e565b92915050565b6000602082840312156125705761256f61251a565b5b600061257e84828501612545565b91505092915050565b600073ffffffffffffffffffffffffffffffffffffffff82169050919050565b60006125b282612587565b9050919050565b6125c2816125a7565b82525050565b60006020820190506125dd60008301846125b9565b92915050565b6125ec816125a7565b81146125f757600080fd5b50565b600081359050612609816125e3565b92915050565b600080fd5b600080fd5b6000601f19601f8301169050919050565b7f4e487b7100000000000000000000000000000000000000000000000000000000600052604160045260246000fd5b61266282612619565b810181811067ffffffffffffffff821117156126815761268061262a565b5b80604052505050565b6000612694612510565b90506126a08282612659565b919050565b600067ffffffffffffffff8211156126c0576126bf61262a565b5b6126c982612619565b9050602081019050919050565b82818337600083830152505050565b60006126f86126f3846126a5565b61268a565b90508281526020810184848401111561271457612713612614565b5b61271f8482856126d6565b509392505050565b600082601f83011261273c5761273b61260f565b5b813561274c8482602086016126e5565b91505092915050565b6000806000806080858703121561276f5761276e61251a565b5b600061277d878288016125fa565b945050602061278e878288016125fa565b935050604061279f87828801612545565b925050606085013567ffffffffffffffff8111156127c0576127bf61251f565b5b6127cc87828801612727565b91505092959194509250565b60007fffffffff0000000000000000000000000000000000000000000000000000000082169050919050565b61280d816127d8565b82525050565b60006020820190506128286000830184612804565b92915050565b61283781612524565b82525050565b6000602082019050612852600083018461282e565b92915050565b6000806040838503121561286f5761286e61251a565b5b600061287d85828601612545565b925050602061288e85828601612545565b9150509250929050565b600081519050919050565b600082825260208201905092915050565b60005b838110156128d25780820151818401526020810190506128b7565b838111156128e1576000848401525b50505050565b60006128f282612898565b6128fc81856128a3565b935061290c8185602086016128b4565b61291581612619565b840191505092915050565b600061010082019050612936600083018b6125b9565b612943602083018a61282e565b612950604083018961282e565b61295d606083018861282e565b61296a60808301876125b9565b61297760a083018661282e565b61298460c083018561282e565b81810360e083015261299681846128e7565b90509998505050505050505050565b600060208201905081810360008301526129bf81846128e7565b905092915050565b6000806000606084860312156129e0576129df61251a565b5b60006129ee86828701612545565b93505060206129ff86828701612545565b9250506040612a1086828701612545565b9150509250925092565b7f4e487b7100000000000000000000000000000000000000000000000000000000600052603260045260246000fd5b7f5265656e7472616e637947756172643a207265656e7472616e742063616c6c00600082015250565b6000612a7f601f836128a3565b9150612a8a82612a49565b602082019050919050565b60006020820190508181036000830152612aae81612a72565b9050919050565b7f4e487b7100000000000000000000000000000000000000000000000000000000600052601160045260246000fd5b6000612aef82612524565b9150612afa83612524565b925082821015612b0d57612b0c612ab5565b5b828203905092915050565b7f4e487b7100000000000000000000000000000000000000000000000000000000600052601260045260246000fd5b6000612b5282612524565b9150612b5d83612524565b925082612b6d57612b6c612b18565b5b828204905092915050565b6000612b8382612524565b9150612b8e83612524565b9250817fffffffffffffffffffffffffffffffffffffffffffffffffffffffffffffffff0483118215151615612bc757612bc6612ab5565b5b828202905092915050565b600081905092915050565b7f4f6e000000000000000000000000000000000000000000000000000000000000600082015250565b6000612c13600283612bd2565b9150612c1e82612bdd565b600282019050919050565b6000612c3482612c06565b9150819050919050565b7f4e487b7100000000000000000000000000000000000000000000000000000000600052602260045260246000fd5b60006002820490506001821680612c8557607f821691505b60208210811415612c9957612c98612c3e565b5b50919050565b60008190508160005260206000209050919050565b60008154612cc181612c6d565b612ccb8186612bd2565b94506001821660008114612ce65760018114612cf757612d2a565b60ff19831686528186019350612d2a565b612d0085612c9f565b60005b83811015612d2257815481890152600182019150602081019050612d03565b838801955050505b50505092915050565b6000612d3f8284612cb4565b915081905092915050565b6000612d5582612524565b9150612d6083612524565b9250827fffffffffffffffffffffffffffffffffffffffffffffffffffffffffffffffff03821115612d9557612d94612ab5565b5b828201905092915050565b6000604082019050612db560008301856125b9565b612dc2602083018461282e565b9392505050565b60008115159050919050565b612dde81612dc9565b8114612de957600080fd5b50565b600081519050612dfb81612dd5565b92915050565b600060208284031215612e1757612e1661251a565b5b6000612e2584828501612dec565b91505092915050565b7f4f70656e00000000000000000000000000000000000000000000000000000000600082015250565b6000612e64600483612bd2565b9150612e6f82612e2e565b600482019050919050565b6000612e8582612e57565b9150819050919050565b600081519050612e9e8161252e565b92915050565b600060208284031215612eba57612eb961251a565b5b6000612ec884828501612e8f565b91505092915050565b6000606082019050612ee660008301866125b9565b612ef360208301856125b9565b612f00604083018461282e565b949350505050565b600081519050612f17816125e3565b92915050565b600060208284031215612f3357612f3261251a565b5b6000612f4184828501612f08565b9150509291505056fea2646970667358221220333aca43ee8ef755bdaafb9b67d77378313f87ddfe53eef244db71ce1745ffa564736f6c634300080c0033",
  "immutableReferences": {},
  "source": "// SPDX-License-Identifier: UNLICENSED\r\n\r\npragma solidity ^0.8.3;\r\n\r\nimport \"../../node_modules/@openzeppelin/contracts/token/ERC20/IERC20.sol\";\r\nimport \"../../node_modules/@openzeppelin/contracts/token/ERC721/IERC721.sol\";\r\nimport \"../../node_modules/@openzeppelin/contracts/security/ReentrancyGuard.sol\";\r\nimport \"../../node_modules/@openzeppelin/contracts/token/ERC721/utils/ERC721Holder.sol\";\r\n\r\ncontract HeroLending is ERC721Holder, ReentrancyGuard {\r\n\r\n    event NewOffer(uint offerId);\r\n    event CancelOffer(uint offerId);\r\n    event AcceptOffer(uint offerId);\r\n    event RepayOffer(uint offerId);\r\n    event Liquidate(uint offerId);\r\n\r\n    struct Offer {\r\n        address owner;\r\n        uint heroId;\r\n        uint liquidation;\r\n        uint dailyFee;\r\n\r\n        address borrower;\r\n        uint collateral;\r\n        uint acceptTime;\r\n\r\n        string status;\r\n    }\r\n\r\n    address PayOutAddress;\r\n    Offer[] public offers;\r\n    IERC721 hero;\r\n    IERC20 jewel;\r\n\r\n    constructor(address JewelAddress, address HeroAddress) {\r\n        PayOutAddress = 0x867df63D1eEAEF93984250f78B4bd83C70652dcE;\r\n        hero = IERC721(HeroAddress);\r\n        jewel = IERC20(JewelAddress);\r\n    }\r\n\r\n    //View Functions\r\n\r\n    function offerOwner(uint offerId) public view returns (address) {\r\n        return offers[offerId].owner;\r\n    }\r\n\r\n    function offerHeroId(uint offerId) public view returns (uint) {\r\n        return offers[offerId].heroId;\r\n    }\r\n\r\n    function offerLiquidation(uint offerId) public view returns (uint) {\r\n        return offers[offerId].liquidation;\r\n    }\r\n\r\n    function offerDailyFee(uint offerId) public view returns (uint) {\r\n        return offers[offerId].dailyFee;\r\n    }\r\n\r\n\r\n\r\n    function offerBorrower(uint offerId) public view returns (address) {\r\n        return offers[offerId].borrower;\r\n    }\r\n\r\n    function offerCollateral(uint offerId) public view returns (uint) {\r\n        return offers[offerId].collateral;\r\n    }\r\n\r\n    function offerAcceptTime(uint offerId) public view returns (uint) {\r\n        return offers[offerId].acceptTime;\r\n    }\r\n\r\n\r\n\r\n    function offerStatus(uint offerId) public view returns (string memory) {\r\n        return offers[offerId].status;\r\n    }\r\n\r\n    function offersQuantity() public view returns (uint) {\r\n        uint quantity = offers.length;\r\n        return quantity;\r\n    }\r\n\r\n    //Main Functions\r\n\r\n    function createOffer(uint heroId, uint liquidation, uint fee) public nonReentrant() {\r\n        require(hero.ownerOf(heroId) == msg.sender);\r\n\r\n        uint offerId = offers.length;\r\n        offers.push(Offer(msg.sender, heroId, liquidation, fee, address(0), 0, 0, \"Open\"));\r\n        hero.safeTransferFrom(msg.sender, address(this), heroId);\r\n        emit NewOffer(offerId);\r\n    }\r\n\r\n    function cancelOffer(uint offerId) public nonReentrant() {\r\n        require(offers[offerId].owner == msg.sender);\r\n        require(hero.ownerOf(offers[offerId].heroId) == address(this));\r\n        require(keccak256(abi.encodePacked(offers[offerId].status)) == keccak256(abi.encodePacked(\"Open\")));\r\n\r\n        offers[offerId].status = \"Cancelled\";\r\n        hero.safeTransferFrom(address(this), msg.sender, offers[offerId].heroId);\r\n        emit CancelOffer(offerId);\r\n    }\r\n\r\n    function acceptOffer(uint offerId, uint collateral) public nonReentrant() {\r\n        require(offers[offerId].owner != msg.sender);\r\n        require(keccak256(abi.encodePacked(offers[offerId].status)) == keccak256(abi.encodePacked(\"Open\")));\r\n        uint minimumFee = offers[offerId].dailyFee/24;\r\n        require(collateral > offers[offerId].liquidation + minimumFee);\r\n        require(jewel.balanceOf(msg.sender) >= collateral);\r\n\r\n        offers[offerId].status = \"On\";\r\n        offers[offerId].borrower = msg.sender;\r\n        offers[offerId].collateral = collateral;\r\n        offers[offerId].acceptTime = block.timestamp;\r\n        jewel.transferFrom(msg.sender, address(this), collateral);\r\n        hero.safeTransferFrom(address(this), msg.sender, offers[offerId].heroId);\r\n        emit AcceptOffer(offerId);\r\n    }\r\n\r\n    function repayOffer(uint offerId) public nonReentrant() {\r\n        require(offers[offerId].borrower == msg.sender);\r\n        require(keccak256(abi.encodePacked(offers[offerId].status)) == keccak256(abi.encodePacked(\"On\")));\r\n        require(hero.ownerOf(offers[offerId].heroId) == msg.sender);\r\n        require(jewel.balanceOf(address(this)) >= offers[offerId].collateral);\r\n        require(offers[offerId].acceptTime != 0);\r\n        uint feeToPay;\r\n        //minimum Fee is at least 1 hour\r\n        if ((block.timestamp - offers[offerId].acceptTime) < 60*60) {\r\n            feeToPay = offers[offerId].dailyFee/24;\r\n        } else {\r\n            feeToPay = ((block.timestamp - offers[offerId].acceptTime)/(60*60*24))*offers[offerId].dailyFee;\r\n        }\r\n        // User is not liquidated\r\n        require(offers[offerId].collateral > (feeToPay + offers[offerId].liquidation));\r\n\r\n        jewel.transfer(offers[offerId].owner, feeToPay*96/100);\r\n        jewel.transfer(PayOutAddress, feeToPay*4/100);\r\n        jewel.transfer(msg.sender, (offers[offerId].collateral - feeToPay));\r\n        hero.safeTransferFrom(msg.sender, address(this), offers[offerId].heroId);\r\n\r\n        offers[offerId].borrower = address(0);\r\n        offers[offerId].collateral = 0;\r\n        offers[offerId].acceptTime = 0;\r\n        offers[offerId].status = \"Open\";\r\n        emit RepayOffer(offerId);\r\n    }\r\n\r\n    function addCollateral(uint offerId, uint extraCollateral) public nonReentrant() {\r\n        require(offers[offerId].borrower == msg.sender);\r\n        require(keccak256(abi.encodePacked(offers[offerId].status)) == keccak256(abi.encodePacked(\"On\")));\r\n        require(jewel.balanceOf(address(this)) >= extraCollateral);\r\n\r\n        offers[offerId].collateral = offers[offerId].collateral + extraCollateral;\r\n        jewel.transferFrom(msg.sender, address(this), extraCollateral);\r\n    }\r\n\r\n    function liquidate(uint offerId) public nonReentrant() {\r\n        uint feeToPay = ((block.timestamp - offers[offerId].acceptTime)/(60*60*24))*offers[offerId].dailyFee;\r\n        require(keccak256(abi.encodePacked(offers[offerId].status)) == keccak256(abi.encodePacked(\"On\")));\r\n        require(offers[offerId].collateral < (feeToPay + offers[offerId].liquidation));\r\n\r\n        offers[offerId].status = \"Liquidated\";\r\n        jewel.transfer(offers[offerId].owner, offers[offerId].collateral*90/100);\r\n        jewel.transfer(PayOutAddress, offers[offerId].collateral*10/100);\r\n        emit Liquidate(offerId);\r\n    }\r\n}",
  "sourcePath": "C:\\Users\\jtsch\\OneDrive\\Escritorio\\DFK-Lending\\DFK-Lending-SmartContracts\\contracts\\testing_contracts\\HeroLending.sol",
  "compiler": {
    "name": "solc",
    "version": "0.8.12+commit.f00d7308.Emscripten.clang"
  },
  "schemaVersion": "3.4.3",
  "updatedAt": "2022-02-21T14:24:31.751Z",
  "devdoc": {
    "kind": "dev",
    "methods": {
      "onERC721Received(address,address,uint256,bytes)": {
        "details": "See {IERC721Receiver-onERC721Received}. Always returns `IERC721Receiver.onERC721Received.selector`."
      }
    },
    "version": 1
  },
  "userdoc": {
    "kind": "user",
    "methods": {},
    "version": 1
  }
}